{"contracts/Desci.sol":{"Desci":{"abi":[{"inputs":[],"stateMutability":"nonpayable","type":"constructor"},{"anonymous":false,"inputs":[{"indexed":true,"internalType":"address","name":"owner","type":"address"},{"indexed":true,"internalType":"address","name":"spender","type":"address"},{"indexed":false,"internalType":"uint256","name":"value","type":"uint256"}],"name":"Approval","type":"event"},{"anonymous":false,"inputs":[{"indexed":true,"internalType":"uint256","name":"disputeId","type":"uint256"},{"indexed":true,"internalType":"uint256","name":"ipTokenId","type":"uint256"},{"indexed":true,"internalType":"address","name":"reporter","type":"address"},{"indexed":false,"internalType":"string","name":"reason","type":"string"}],"name":"DisputeCreated","type":"event"},{"anonymous":false,"inputs":[{"indexed":true,"internalType":"uint256","name":"disputeId","type":"uint256"},{"indexed":false,"internalType":"bool","name":"ipRevoked","type":"bool"},{"indexed":false,"internalType":"uint256","name":"totalVotes","type":"uint256"}],"name":"DisputeResolved","type":"event"},{"anonymous":false,"inputs":[{"indexed":true,"internalType":"address","name":"user","type":"address"},{"indexed":false,"internalType":"uint256","name":"amount","type":"uint256"},{"indexed":false,"internalType":"uint256","name":"cost","type":"uint256"}],"name":"GovernanceTokenMinted","type":"event"},{"anonymous":false,"inputs":[{"indexed":true,"internalType":"address","name":"previousOwner","type":"address"},{"indexed":true,"internalType":"address","name":"newOwner","type":"address"}],"name":"OwnershipTransferred","type":"event"},{"anonymous":false,"inputs":[{"indexed":true,"internalType":"address","name":"from","type":"address"},{"indexed":true,"internalType":"address","name":"to","type":"address"},{"indexed":false,"internalType":"uint256","name":"value","type":"uint256"}],"name":"Transfer","type":"event"},{"anonymous":false,"inputs":[{"indexed":true,"internalType":"uint256","name":"disputeId","type":"uint256"},{"indexed":true,"internalType":"address","name":"voter","type":"address"},{"indexed":false,"internalType":"bool","name":"voteForRemoval","type":"bool"},{"indexed":false,"internalType":"uint256","name":"votingPower","type":"uint256"}],"name":"VoteCast","type":"event"},{"inputs":[],"name":"MINT_PRICE","outputs":[{"internalType":"uint256","name":"","type":"uint256"}],"stateMutability":"view","type":"function"},{"inputs":[],"name":"MIN_VOTING_POWER","outputs":[{"internalType":"uint256","name":"","type":"uint256"}],"stateMutability":"view","type":"function"},{"inputs":[{"internalType":"address","name":"owner","type":"address"},{"internalType":"address","name":"spender","type":"address"}],"name":"allowance","outputs":[{"internalType":"uint256","name":"","type":"uint256"}],"stateMutability":"view","type":"function"},{"inputs":[{"internalType":"address","name":"spender","type":"address"},{"internalType":"uint256","name":"amount","type":"uint256"}],"name":"approve","outputs":[{"internalType":"bool","name":"","type":"bool"}],"stateMutability":"nonpayable","type":"function"},{"inputs":[{"internalType":"address","name":"account","type":"address"}],"name":"balanceOf","outputs":[{"internalType":"uint256","name":"","type":"uint256"}],"stateMutability":"view","type":"function"},{"inputs":[{"internalType":"uint256","name":"ipTokenId","type":"uint256"},{"internalType":"string","name":"reason","type":"string"}],"name":"createDispute","outputs":[{"internalType":"uint256","name":"","type":"uint256"}],"stateMutability":"nonpayable","type":"function"},{"inputs":[],"name":"decimals","outputs":[{"internalType":"uint8","name":"","type":"uint8"}],"stateMutability":"view","type":"function"},{"inputs":[{"internalType":"address","name":"spender","type":"address"},{"internalType":"uint256","name":"subtractedValue","type":"uint256"}],"name":"decreaseAllowance","outputs":[{"internalType":"bool","name":"","type":"bool"}],"stateMutability":"nonpayable","type":"function"},{"inputs":[{"internalType":"uint256","name":"","type":"uint256"}],"name":"disputes","outputs":[{"internalType":"uint256","name":"disputeId","type":"uint256"},{"internalType":"uint256","name":"ipTokenId","type":"uint256"},{"internalType":"address","name":"reporter","type":"address"},{"internalType":"string","name":"reason","type":"string"},{"internalType":"uint256","name":"timestamp","type":"uint256"},{"internalType":"bool","name":"resolved","type":"bool"},{"internalType":"uint256","name":"totalVotes","type":"uint256"},{"internalType":"uint256","name":"votesForRemoval","type":"uint256"},{"internalType":"uint256","name":"votesAgainstRemoval","type":"uint256"}],"stateMutability":"view","type":"function"},{"inputs":[{"internalType":"uint256","name":"ipTokenId","type":"uint256"},{"internalType":"string","name":"aiReason","type":"string"}],"name":"flagContentForReview","outputs":[{"internalType":"uint256","name":"","type":"uint256"}],"stateMutability":"nonpayable","type":"function"},{"inputs":[{"internalType":"uint256","name":"disputeId","type":"uint256"}],"name":"getDispute","outputs":[{"internalType":"uint256","name":"ipTokenId","type":"uint256"},{"internalType":"address","name":"reporter","type":"address"},{"internalType":"string","name":"reason","type":"string"},{"internalType":"uint256","name":"timestamp","type":"uint256"},{"internalType":"bool","name":"resolved","type":"bool"},{"internalType":"uint256","name":"totalVotes","type":"uint256"}],"stateMutability":"view","type":"function"},{"inputs":[{"internalType":"uint256","name":"ipTokenId","type":"uint256"}],"name":"getDisputesForIP","outputs":[{"internalType":"uint256[]","name":"","type":"uint256[]"}],"stateMutability":"view","type":"function"},{"inputs":[{"internalType":"uint256","name":"disputeId","type":"uint256"},{"internalType":"address","name":"user","type":"address"}],"name":"getUserVote","outputs":[{"internalType":"bool","name":"","type":"bool"}],"stateMutability":"view","type":"function"},{"inputs":[{"internalType":"uint256","name":"ipTokenId","type":"uint256"}],"name":"hasActiveDisputes","outputs":[{"internalType":"bool","name":"","type":"bool"}],"stateMutability":"view","type":"function"},{"inputs":[{"internalType":"uint256","name":"disputeId","type":"uint256"},{"internalType":"address","name":"user","type":"address"}],"name":"hasVoted","outputs":[{"internalType":"bool","name":"","type":"bool"}],"stateMutability":"view","type":"function"},{"inputs":[{"internalType":"address","name":"spender","type":"address"},{"internalType":"uint256","name":"addedValue","type":"uint256"}],"name":"increaseAllowance","outputs":[{"internalType":"bool","name":"","type":"bool"}],"stateMutability":"nonpayable","type":"function"},{"inputs":[{"internalType":"uint256","name":"","type":"uint256"}],"name":"ipRevoked","outputs":[{"internalType":"bool","name":"","type":"bool"}],"stateMutability":"view","type":"function"},{"inputs":[{"internalType":"uint256","name":"","type":"uint256"},{"internalType":"uint256","name":"","type":"uint256"}],"name":"ipToDisputes","outputs":[{"internalType":"uint256","name":"","type":"uint256"}],"stateMutability":"view","type":"function"},{"inputs":[],"name":"ipnft","outputs":[{"internalType":"contract IPNFT","name":"","type":"address"}],"stateMutability":"view","type":"function"},{"inputs":[],"name":"mintGovernanceTokens","outputs":[],"stateMutability":"payable","type":"function"},{"inputs":[],"name":"name","outputs":[{"internalType":"string","name":"","type":"string"}],"stateMutability":"view","type":"function"},{"inputs":[],"name":"owner","outputs":[{"internalType":"address","name":"","type":"address"}],"stateMutability":"view","type":"function"},{"inputs":[],"name":"renounceOwnership","outputs":[],"stateMutability":"nonpayable","type":"function"},{"inputs":[{"internalType":"uint256","name":"disputeId","type":"uint256"}],"name":"resolveDispute","outputs":[],"stateMutability":"nonpayable","type":"function"},{"inputs":[{"internalType":"address","name":"ipnftAddress","type":"address"}],"name":"setIPNFT","outputs":[],"stateMutability":"nonpayable","type":"function"},{"inputs":[],"name":"symbol","outputs":[{"internalType":"string","name":"","type":"string"}],"stateMutability":"view","type":"function"},{"inputs":[],"name":"totalSupply","outputs":[{"internalType":"uint256","name":"","type":"uint256"}],"stateMutability":"view","type":"function"},{"inputs":[{"internalType":"address","name":"to","type":"address"},{"internalType":"uint256","name":"amount","type":"uint256"}],"name":"transfer","outputs":[{"internalType":"bool","name":"","type":"bool"}],"stateMutability":"nonpayable","type":"function"},{"inputs":[{"internalType":"address","name":"from","type":"address"},{"internalType":"address","name":"to","type":"address"},{"internalType":"uint256","name":"amount","type":"uint256"}],"name":"transferFrom","outputs":[{"internalType":"bool","name":"","type":"bool"}],"stateMutability":"nonpayable","type":"function"},{"inputs":[{"internalType":"address","name":"newOwner","type":"address"}],"name":"transferOwnership","outputs":[],"stateMutability":"nonpayable","type":"function"},{"inputs":[{"internalType":"uint256","name":"disputeId","type":"uint256"},{"internalType":"bool","name":"voteForRemoval","type":"bool"}],"name":"voteOnDispute","outputs":[],"stateMutability":"nonpayable","type":"function"},{"inputs":[],"name":"withdrawFees","outputs":[],"stateMutability":"nonpayable","type":"function"}],"evm":{"bytecode":{"linkReferences":{},"object":"60806040523461037957604080519081016001600160401b03811182821017610284576040908152601082526f446573636920476f7665726e616e636560801b602083015280519081016001600160401b03811182821017610284576040526005815264444553434960d81b602082015281516001600160401b03811161028457600354600181811c9116801561036f575b602082101461026457601f811161030a575b50602092601f82116001146102a5579281929360009261029a575b50508160011b916000199060031b1c1916176003555b80516001600160401b03811161028457600454600181811c9116801561027a575b602082101461026457601f81116101ff575b50602091601f821160011461019b57918192600092610190575b50508160011b916000199060031b1c1916176004555b60058054336001600160a01b03198216811790925560405191906001600160a01b03167f8be0079c531659141344cd1fd0a4f28419497f9722a3daafe3b4186f6b6457e0600080a36001600655611caf908161037f8239f35b015190503880610121565b601f198216926004600052806000209160005b8581106101e7575083600195106101ce575b505050811b01600455610137565b015160001960f88460031b161c191690553880806101c0565b919260206001819286850151815501940192016101ae565b60046000527f8a35acfbc15ff81a39ae7d344fd709f28e8600b4aa8c65c6b64bfe7fe36bd19b601f830160051c8101916020841061025a575b601f0160051c01905b81811061024e5750610107565b60008155600101610241565b9091508190610238565b634e487b7160e01b600052602260045260246000fd5b90607f16906100f5565b634e487b7160e01b600052604160045260246000fd5b0151905038806100be565b601f198216936003600052806000209160005b8681106102f257508360019596106102d9575b505050811b016003556100d4565b015160001960f88460031b161c191690553880806102cb565b919260206001819286850151815501940192016102b8565b60036000527fc2575a0e9e593c00f959f8c92f12db2869c3395a3b0502d05e2516446f71f85b601f830160051c81019160208410610365575b601f0160051c01905b81811061035957506100a3565b6000815560010161034c565b9091508190610343565b90607f1690610091565b600080fdfe6080604052600436101561001257600080fd5b60003560e01c806303c7881a1461146957806306fdde03146113c1578063095ea7b31461139b57806316a0425e1461137357806318160ddd1461135557806323b872dd14611297578063313ce5671461127b578063338ac5811461107957806339509351146110275780634385963214610fd7578063476343ee14610ee75780634c31b63814610eb657806355ffbe0414610e8d578063564a565d14610de257806370a0823114610da8578063715018a614610d4b578063805a814214610d275780638da5cb5b14610cfe57806395d89b4114610c195780639c32c447146109f3578063a457c2d71461094c578063a4f5df1214610781578063a9059cbb14610750578063add1e0d314610532578063b0937baa146104b3578063c002d23d14610490578063c2b7b86814610418578063d08d6a48146103d0578063dd62ed3e1461037f578063e3a96cbd146102f5578063e499c043146102495763f2fde38b1461017c57600080fd5b3461024457602036600319011261024457610195611537565b61019d611aec565b6001600160a01b031680156101f057600580546001600160a01b0319811683179091556001600160a01b03167f8be0079c531659141344cd1fd0a4f28419497f9722a3daafe3b4186f6b6457e0600080a3005b60405162461bcd60e51b815260206004820152602660248201527f4f776e61626c653a206e6577206f776e657220697320746865207a65726f206160448201526564647265737360d01b6064820152608490fd5b600080fd5b3461024457602036600319011261024457600435600052600960205260406000206040518060208354918281520190819360005260206000209060005b8181106102df575050508161029c9103826115c8565b6040519182916020830190602084525180915260408301919060005b8181106102c6575050500390f35b82518452859450602093840193909201916001016102b8565b8254845260209093019260019283019201610286565b346102445760203660031901126102445760043560005260086020526040600020600181015460018060a01b036002830154169160048101549060ff60058201541661036961034b6003600685015494016115ea565b6040519687968752602087015260c0604087015260c086019061154d565b9260608501521515608084015260a08301520390f35b3461024457604036600319011261024457610398611537565b6103a0611521565b6001600160a01b039182166000908152600160209081526040808320949093168252928352819020549051908152f35b346102445760403660031901126102445760243560043560005260096020526040600020805482101561024457602091610409916116e2565b90549060031b1c604051908152f35b3461024457602036600319011261024457600435610434611aec565b80600052600860205260ff600560406000200154166104585761045690611b44565b005b60405162461bcd60e51b815260206004820152601060248201526f105b1c9958591e481c995cdbdb1d995960821b6044820152606490fd5b3461024457600036600319011261024457602060405167016345785d8a00008152f35b34610244576020366003190112610244576104cc611537565b6104d4611aec565b6001600160a01b03168015610500576bffffffffffffffffffffffff60a01b600b541617600b55600080f35b60405162461bcd60e51b815260206004820152600a60248201526969706e6674207a65726f60b01b6044820152606490fd5b34610244576105403661168e565b919061054a611aec565b6007805460019081019182905560008281526008602052604090208281559081018490556002810180546001600160a01b031916905590929060030167ffffffffffffffff851161073a5761059f815461158e565b601f81116106f2575b5060209484916000601f831160011461067a57948291600080516020611c5a83398151915293600097889161066f575b508360011b9088198560031b1c19161790555b83865260088852426004604088200155838652600888526005604087200160ff198154169055838652600888528560066040822001558386526008885285600760408220015583865260088852856008604082200155848652600988526106558460408820611803565b6106646040519283928361183d565b0390a4604051908152f35b90508201358a6105d8565b9490601f19831681875288872090875b8181106106d857509060009785600080516020611c5a83398151915296959493106106bf575b5050600183811b0190556105eb565b881960f88660031b161c199084013516905589806106b0565b848901358355978a01978996506001909201918a0161068a565b816000526020600020601f870160051c81019160208810610730575b601f0160051c01905b81811061072457506105a8565b60008155600101610717565b909150819061070e565b634e487b7160e01b600052604160045260246000fd5b346102445760403660031901126102445761077661076c611537565b602435903361196d565b602060405160018152f35b346102445760403660031901126102445760043560243580151581036102445781600052600860205260406000209060ff6005830154166109075733600090815260098301602081905260409091205460ff166108d2577fcbdf6214089cba887ecbf35a0b6a734589959c9763342c756bb2a80ca2bc9f6e6108a2859233600052600060205261082168056bc75e2d6310000060406000205410156117b7565b33600090815260208181526040808320549382528083208054600160ff1991821617909155600a8a01909252909120805490911660ff87151516179055600686019561086e8288546117aa565b875585156108bd576007016108848282546117aa565b90555b60408051951515865260208601919091523394918291820190565b0390a35460025460011c11156108b457005b61045690611b44565b6008016108cb8282546117aa565b9055610887565b60405162461bcd60e51b815260206004820152600d60248201526c105b1c9958591e481d9bdd1959609a1b6044820152606490fd5b60405162461bcd60e51b815260206004820152601860248201527f4469737075746520616c7265616479207265736f6c76656400000000000000006044820152606490fd5b3461024457604036600319011261024457610965611537565b60243590336000526001602052604060002060018060a01b038216600052602052604060002054918083106109a05761077692039033611865565b60405162461bcd60e51b815260206004820152602560248201527f45524332303a2064656372656173656420616c6c6f77616e63652062656c6f77604482015264207a65726f60d81b6064820152608490fd5b3461024457610a013661168e565b9190336000526000602052610a2668056bc75e2d6310000060406000205410156117b7565b6007805460019081019182905560008281526008602052604090208281559081018490556002810180546001600160a01b0319163317905590929060030167ffffffffffffffff851161073a57610a7d815461158e565b601f8111610bd1575b5060209484916000601f8311600114610b5a57916106649181600080516020611c5a83398151915294600091610b4f575b508260011b906000198460031b1c19161790555b8360005260088852426004604060002001558360005260088852600560406000200160ff1981541690558360005260088852600060066040822001558360005260088852600060076040822001558360005260088852600060086040822001558460005260098852610b41846040600020611803565b60405191829133978361183d565b90508701358a610ab7565b81815287812090601f198416815b818110610bb7575091610664939185600080516020611c5a833981519152969410610b9d575b5050600182811b019055610acb565b880135600019600385901b60f8161c191690558980610b8e565b888301358455899650600190930192918a01918a01610b68565b816000526020600020601f870160051c81019160208810610c0f575b601f0160051c01905b818110610c035750610a86565b60008155600101610bf6565b9091508190610bed565b34610244576000366003190112610244576040516000600454610c3b8161158e565b8084529060018116908115610cda5750600114610c7b575b610c7783610c63818503826115c8565b60405191829160208352602083019061154d565b0390f35b600460009081527f8a35acfbc15ff81a39ae7d344fd709f28e8600b4aa8c65c6b64bfe7fe36bd19b939250905b808210610cc057509091508101602001610c63610c53565b919260018160209254838588010152019101909291610ca8565b60ff191660208086019190915291151560051b84019091019150610c639050610c53565b34610244576000366003190112610244576005546040516001600160a01b039091168152602090f35b3461024457600036600319011261024457602060405168056bc75e2d631000008152f35b3461024457600036600319011261024457610d64611aec565b600580546001600160a01b031981169091556000906001600160a01b03167f8be0079c531659141344cd1fd0a4f28419497f9722a3daafe3b4186f6b6457e08280a3005b34610244576020366003190112610244576001600160a01b03610dc9611537565b1660005260006020526020604060002054604051908152f35b346102445760203660031901126102445760043560005260086020526040600020805460018201549160018060a01b03600282015416610e24600383016115ea565b9160048101549260ff600583015416610e6c6006840154926008600786015495015495604051998a998a5260208a01526040890152610120606089015261012088019061154d565b946080870152151560a086015260c085015260e08401526101008301520390f35b3461024457600036600319011261024457600b546040516001600160a01b039091168152602090f35b3461024457602036600319011261024457600435600052600a602052602060ff604060002054166040519015158152f35b3461024457600036600319011261024457610f00611aec565b478015610f9c576005546000918291829182916001600160a01b03165af13d15610f97573d67ffffffffffffffff811161073a5760405190610f4c601f8201601f1916602001836115c8565b8152600060203d92013e5b15610f5e57005b60405162461bcd60e51b815260206004820152601160248201527015da5d1a191c985dd85b0819985a5b1959607a1b6044820152606490fd5b610f57565b60405162461bcd60e51b81526020600482015260136024820152724e6f206665657320746f20776974686472617760681b6044820152606490fd5b3461024457604036600319011261024457610ff0611521565b600435600052600860205260096040600020019060018060a01b0316600052602052602060ff604060002054166040519015158152f35b3461024457604036600319011261024457610776611043611537565b336000526001602052604060002060018060a01b038216600052602052611072604060002060243590546117aa565b9033611865565b60003660031901126102445760026006541461123657600260065567016345785d8a000034036111f15734156111b95733156111745760025468056bc75e2d63100000810180911161115e57600255336000526000602052604060002068056bc75e2d63100000815401905560405168056bc75e2d63100000815260007fddf252ad1be2c89b69c2b068fc378daa952ba7f163c4a11628f55a4df523b3ef60203393a360405168056bc75e2d6310000081523460208201527f20aacaf9ce65922d5ffa1e3bfbf4959e5795c145aaf02cf7b09d7f2d7c99350960403392a26001600655005b634e487b7160e01b600052601160045260246000fd5b60405162461bcd60e51b815260206004820152601f60248201527f45524332303a206d696e7420746f20746865207a65726f2061646472657373006044820152606490fd5b60405162461bcd60e51b815260206004820152601060248201526f14185e5b595b9d081c995c5d5a5c995960821b6044820152606490fd5b60405162461bcd60e51b815260206004820152601860248201527f496e636f7272656374207061796d656e7420616d6f756e7400000000000000006044820152606490fd5b60405162461bcd60e51b815260206004820152601f60248201527f5265656e7472616e637947756172643a207265656e7472616e742063616c6c006044820152606490fd5b3461024457600036600319011261024457602060405160128152f35b34610244576060366003190112610244576112b0611537565b6112b8611521565b6001600160a01b03821660009081526001602081815260408084203385529091529091205492604435929184016112f4575b610776935061196d565b8284106113105761130b8361077695033383611865565b6112ea565b60405162461bcd60e51b815260206004820152601d60248201527f45524332303a20696e73756666696369656e7420616c6c6f77616e63650000006044820152606490fd5b34610244576000366003190112610244576020600254604051908152f35b34610244576020366003190112610244576020611391600435611710565b6040519015158152f35b34610244576040366003190112610244576107766113b7611537565b6024359033611865565b346102445760003660031901126102445760405160006003546113e38161158e565b8084529060018116908115610cda575060011461140a57610c7783610c63818503826115c8565b600360009081527fc2575a0e9e593c00f959f8c92f12db2869c3395a3b0502d05e2516446f71f85b939250905b80821061144f57509091508101602001610c63610c53565b919260018160209254838588010152019101909291611437565b3461024457604036600319011261024457600435611485611521565b90806000526008602052600960406000200160018060a01b03831660005260205260ff60406000205416156114e8576000526008602052600a6040600020019060018060a01b0316600052602052602060ff604060002054166040519015158152f35b60405162461bcd60e51b8152602060048201526011602482015270155cd95c881a185cdb89dd081d9bdd1959607a1b6044820152606490fd5b602435906001600160a01b038216820361024457565b600435906001600160a01b038216820361024457565b919082519283825260005b848110611579575050826000602080949584010152601f8019910116010190565b80602080928401015182828601015201611558565b90600182811c921680156115be575b60208310146115a857565b634e487b7160e01b600052602260045260246000fd5b91607f169161159d565b90601f8019910116810190811067ffffffffffffffff82111761073a57604052565b90604051918260008254926115fe8461158e565b808452936001811690811561166c5750600114611625575b50611623925003836115c8565b565b90506000929192526020600020906000915b8183106116505750509060206116239282010138611616565b6020919350806001915483858901015201910190918492611637565b90506020925061162394915060ff191682840152151560051b82010138611616565b6040600319820112610244576004359160243567ffffffffffffffff811161024457826023820112156102445780600401359267ffffffffffffffff84116102445760248483010111610244576024019190565b80548210156116fa5760005260206000200190600090565b634e487b7160e01b600052603260045260246000fd5b600052600960205260406000206040518082602082945493848152019060005260206000209260005b81811061179157505061174e925003826115c8565b60005b815181101561178a5760ff600560406000602085841b8701015181526008602052200154161561178357600101611751565b5050600190565b5050600090565b8454835260019485019486945060209093019201611739565b9190820180921161115e57565b156117be57565b60405162461bcd60e51b815260206004820152601960248201527f496e73756666696369656e7420766f74696e6720706f776572000000000000006044820152606490fd5b80546801000000000000000081101561073a57611825916001820181556116e2565b819291549060031b91821b91600019901b1916179055565b90918060409360208452816020850152848401376000828201840152601f01601f1916010190565b6001600160a01b031690811561191c576001600160a01b03169182156118cc5760207f8c5be1e5ebec7d5bd14f71427d1e84f3dd0314c0f7b2291e5b200ac8c7c3b925918360005260018252604060002085600052825280604060002055604051908152a3565b60405162461bcd60e51b815260206004820152602260248201527f45524332303a20617070726f766520746f20746865207a65726f206164647265604482015261737360f01b6064820152608490fd5b60405162461bcd60e51b8152602060048201526024808201527f45524332303a20617070726f76652066726f6d20746865207a65726f206164646044820152637265737360e01b6064820152608490fd5b6001600160a01b0316908115611a99576001600160a01b0316918215611a48578160005260006020526040600020548181106119f457817fddf252ad1be2c89b69c2b068fc378daa952ba7f163c4a11628f55a4df523b3ef9260209285600052600084520360406000205584600052600082526040600020818154019055604051908152a3565b60405162461bcd60e51b815260206004820152602660248201527f45524332303a207472616e7366657220616d6f756e7420657863656564732062604482015265616c616e636560d01b6064820152608490fd5b60405162461bcd60e51b815260206004820152602360248201527f45524332303a207472616e7366657220746f20746865207a65726f206164647260448201526265737360e81b6064820152608490fd5b60405162461bcd60e51b815260206004820152602560248201527f45524332303a207472616e736665722066726f6d20746865207a65726f206164604482015264647265737360d81b6064820152608490fd5b6005546001600160a01b03163303611b0057565b606460405162461bcd60e51b815260206004820152602060248201527f4f776e61626c653a2063616c6c6572206973206e6f7420746865206f776e65726044820152fd5b600081815260086020526040812060058101600160ff198254161790556007810154600882015410916001820180548252600a602052611b9384604084209060ff801983541691151516179055565b600b546001600160a01b03169081611be3575b5050506006015460408051921515835260208301919091527f5add0b1fc2a3dfd95be33d1d5feb6709087e50213b7a73c3c3b2c387001221e791a2565b54813b15611c55579180807f5add0b1fc2a3dfd95be33d1d5feb6709087e50213b7a73c3c3b2c387001221e796959360446006966040519485938492636d9131ab60e11b845260048401528a60248401525af1611c45575b5081939450611ba6565b81611c4f916115c8565b38611c3b565b8280fdfe187cf2180cf205abb3a86a43c8a0e9e92ffdc0d1029d2982b525b335a50efe51a264697066735822122098eb7ef700e12091dacc8d725785eb8390c38b4913276ff4ea5607b31a500cbe64736f6c634300081c0033","opcodes":"PUSH1 0x80 PUSH1 0x40 MSTORE CALLVALUE PUSH2 0x379 JUMPI PUSH1 0x40 DUP1 MLOAD SWAP1 DUP2 ADD PUSH1 0x1 PUSH1 0x1 PUSH1 0x40 SHL SUB DUP2 GT DUP3 DUP3 LT OR PUSH2 0x284 JUMPI PUSH1 0x40 SWAP1 DUP2 MSTORE PUSH1 0x10 DUP3 MSTORE PUSH16 0x446573636920476F7665726E616E6365 PUSH1 0x80 SHL PUSH1 0x20 DUP4 ADD MSTORE DUP1 MLOAD SWAP1 DUP2 ADD PUSH1 0x1 PUSH1 0x1 PUSH1 0x40 SHL SUB DUP2 GT DUP3 DUP3 LT OR PUSH2 0x284 JUMPI PUSH1 0x40 MSTORE PUSH1 0x5 DUP2 MSTORE PUSH5 0x4445534349 PUSH1 0xD8 SHL PUSH1 0x20 DUP3 ADD MSTORE DUP2 MLOAD PUSH1 0x1 PUSH1 0x1 PUSH1 0x40 SHL SUB DUP2 GT PUSH2 0x284 JUMPI PUSH1 0x3 SLOAD PUSH1 0x1 DUP2 DUP2 SHR SWAP2 AND DUP1 ISZERO PUSH2 0x36F JUMPI JUMPDEST PUSH1 0x20 DUP3 LT EQ PUSH2 0x264 JUMPI PUSH1 0x1F DUP2 GT PUSH2 0x30A JUMPI JUMPDEST POP PUSH1 0x20 SWAP3 PUSH1 0x1F DUP3 GT PUSH1 0x1 EQ PUSH2 0x2A5 JUMPI SWAP3 DUP2 SWAP3 SWAP4 PUSH1 0x0 SWAP3 PUSH2 0x29A JUMPI JUMPDEST POP POP DUP2 PUSH1 0x1 SHL SWAP2 PUSH1 0x0 NOT SWAP1 PUSH1 0x3 SHL SHR NOT AND OR PUSH1 0x3 SSTORE JUMPDEST DUP1 MLOAD PUSH1 0x1 PUSH1 0x1 PUSH1 0x40 SHL SUB DUP2 GT PUSH2 0x284 JUMPI PUSH1 0x4 SLOAD PUSH1 0x1 DUP2 DUP2 SHR SWAP2 AND DUP1 ISZERO PUSH2 0x27A JUMPI JUMPDEST PUSH1 0x20 DUP3 LT EQ PUSH2 0x264 JUMPI PUSH1 0x1F DUP2 GT PUSH2 0x1FF JUMPI JUMPDEST POP PUSH1 0x20 SWAP2 PUSH1 0x1F DUP3 GT PUSH1 0x1 EQ PUSH2 0x19B JUMPI SWAP2 DUP2 SWAP3 PUSH1 0x0 SWAP3 PUSH2 0x190 JUMPI JUMPDEST POP POP DUP2 PUSH1 0x1 SHL SWAP2 PUSH1 0x0 NOT SWAP1 PUSH1 0x3 SHL SHR NOT AND OR PUSH1 0x4 SSTORE JUMPDEST PUSH1 0x5 DUP1 SLOAD CALLER PUSH1 0x1 PUSH1 0x1 PUSH1 0xA0 SHL SUB NOT DUP3 AND DUP2 OR SWAP1 SWAP3 SSTORE PUSH1 0x40 MLOAD SWAP2 SWAP1 PUSH1 0x1 PUSH1 0x1 PUSH1 0xA0 SHL SUB AND PUSH32 0x8BE0079C531659141344CD1FD0A4F28419497F9722A3DAAFE3B4186F6B6457E0 PUSH1 0x0 DUP1 LOG3 PUSH1 0x1 PUSH1 0x6 SSTORE PUSH2 0x1CAF SWAP1 DUP2 PUSH2 0x37F DUP3 CODECOPY RETURN JUMPDEST ADD MLOAD SWAP1 POP CODESIZE DUP1 PUSH2 0x121 JUMP JUMPDEST PUSH1 0x1F NOT DUP3 AND SWAP3 PUSH1 0x4 PUSH1 0x0 MSTORE DUP1 PUSH1 0x0 KECCAK256 SWAP2 PUSH1 0x0 JUMPDEST DUP6 DUP2 LT PUSH2 0x1E7 JUMPI POP DUP4 PUSH1 0x1 SWAP6 LT PUSH2 0x1CE JUMPI JUMPDEST POP POP POP DUP2 SHL ADD PUSH1 0x4 SSTORE PUSH2 0x137 JUMP JUMPDEST ADD MLOAD PUSH1 0x0 NOT PUSH1 0xF8 DUP5 PUSH1 0x3 SHL AND SHR NOT AND SWAP1 SSTORE CODESIZE DUP1 DUP1 PUSH2 0x1C0 JUMP JUMPDEST SWAP2 SWAP3 PUSH1 0x20 PUSH1 0x1 DUP2 SWAP3 DUP7 DUP6 ADD MLOAD DUP2 SSTORE ADD SWAP5 ADD SWAP3 ADD PUSH2 0x1AE JUMP JUMPDEST PUSH1 0x4 PUSH1 0x0 MSTORE PUSH32 0x8A35ACFBC15FF81A39AE7D344FD709F28E8600B4AA8C65C6B64BFE7FE36BD19B PUSH1 0x1F DUP4 ADD PUSH1 0x5 SHR DUP2 ADD SWAP2 PUSH1 0x20 DUP5 LT PUSH2 0x25A JUMPI JUMPDEST PUSH1 0x1F ADD PUSH1 0x5 SHR ADD SWAP1 JUMPDEST DUP2 DUP2 LT PUSH2 0x24E JUMPI POP PUSH2 0x107 JUMP JUMPDEST PUSH1 0x0 DUP2 SSTORE PUSH1 0x1 ADD PUSH2 0x241 JUMP JUMPDEST SWAP1 SWAP2 POP DUP2 SWAP1 PUSH2 0x238 JUMP JUMPDEST PUSH4 0x4E487B71 PUSH1 0xE0 SHL PUSH1 0x0 MSTORE PUSH1 0x22 PUSH1 0x4 MSTORE PUSH1 0x24 PUSH1 0x0 REVERT JUMPDEST SWAP1 PUSH1 0x7F AND SWAP1 PUSH2 0xF5 JUMP JUMPDEST PUSH4 0x4E487B71 PUSH1 0xE0 SHL PUSH1 0x0 MSTORE PUSH1 0x41 PUSH1 0x4 MSTORE PUSH1 0x24 PUSH1 0x0 REVERT JUMPDEST ADD MLOAD SWAP1 POP CODESIZE DUP1 PUSH2 0xBE JUMP JUMPDEST PUSH1 0x1F NOT DUP3 AND SWAP4 PUSH1 0x3 PUSH1 0x0 MSTORE DUP1 PUSH1 0x0 KECCAK256 SWAP2 PUSH1 0x0 JUMPDEST DUP7 DUP2 LT PUSH2 0x2F2 JUMPI POP DUP4 PUSH1 0x1 SWAP6 SWAP7 LT PUSH2 0x2D9 JUMPI JUMPDEST POP POP POP DUP2 SHL ADD PUSH1 0x3 SSTORE PUSH2 0xD4 JUMP JUMPDEST ADD MLOAD PUSH1 0x0 NOT PUSH1 0xF8 DUP5 PUSH1 0x3 SHL AND SHR NOT AND SWAP1 SSTORE CODESIZE DUP1 DUP1 PUSH2 0x2CB JUMP JUMPDEST SWAP2 SWAP3 PUSH1 0x20 PUSH1 0x1 DUP2 SWAP3 DUP7 DUP6 ADD MLOAD DUP2 SSTORE ADD SWAP5 ADD SWAP3 ADD PUSH2 0x2B8 JUMP JUMPDEST PUSH1 0x3 PUSH1 0x0 MSTORE PUSH32 0xC2575A0E9E593C00F959F8C92F12DB2869C3395A3B0502D05E2516446F71F85B PUSH1 0x1F DUP4 ADD PUSH1 0x5 SHR DUP2 ADD SWAP2 PUSH1 0x20 DUP5 LT PUSH2 0x365 JUMPI JUMPDEST PUSH1 0x1F ADD PUSH1 0x5 SHR ADD SWAP1 JUMPDEST DUP2 DUP2 LT PUSH2 0x359 JUMPI POP PUSH2 0xA3 JUMP JUMPDEST PUSH1 0x0 DUP2 SSTORE PUSH1 0x1 ADD PUSH2 0x34C JUMP JUMPDEST SWAP1 SWAP2 POP DUP2 SWAP1 PUSH2 0x343 JUMP JUMPDEST SWAP1 PUSH1 0x7F AND SWAP1 PUSH2 0x91 JUMP JUMPDEST PUSH1 0x0 DUP1 REVERT INVALID PUSH1 0x80 PUSH1 0x40 MSTORE PUSH1 0x4 CALLDATASIZE LT ISZERO PUSH2 0x12 JUMPI PUSH1 0x0 DUP1 REVERT JUMPDEST PUSH1 0x0 CALLDATALOAD PUSH1 0xE0 SHR DUP1 PUSH4 0x3C7881A EQ PUSH2 0x1469 JUMPI DUP1 PUSH4 0x6FDDE03 EQ PUSH2 0x13C1 JUMPI DUP1 PUSH4 0x95EA7B3 EQ PUSH2 0x139B JUMPI DUP1 PUSH4 0x16A0425E EQ PUSH2 0x1373 JUMPI DUP1 PUSH4 0x18160DDD EQ PUSH2 0x1355 JUMPI DUP1 PUSH4 0x23B872DD EQ PUSH2 0x1297 JUMPI DUP1 PUSH4 0x313CE567 EQ PUSH2 0x127B JUMPI DUP1 PUSH4 0x338AC581 EQ PUSH2 0x1079 JUMPI DUP1 PUSH4 0x39509351 EQ PUSH2 0x1027 JUMPI DUP1 PUSH4 0x43859632 EQ PUSH2 0xFD7 JUMPI DUP1 PUSH4 0x476343EE EQ PUSH2 0xEE7 JUMPI DUP1 PUSH4 0x4C31B638 EQ PUSH2 0xEB6 JUMPI DUP1 PUSH4 0x55FFBE04 EQ PUSH2 0xE8D JUMPI DUP1 PUSH4 0x564A565D EQ PUSH2 0xDE2 JUMPI DUP1 PUSH4 0x70A08231 EQ PUSH2 0xDA8 JUMPI DUP1 PUSH4 0x715018A6 EQ PUSH2 0xD4B JUMPI DUP1 PUSH4 0x805A8142 EQ PUSH2 0xD27 JUMPI DUP1 PUSH4 0x8DA5CB5B EQ PUSH2 0xCFE JUMPI DUP1 PUSH4 0x95D89B41 EQ PUSH2 0xC19 JUMPI DUP1 PUSH4 0x9C32C447 EQ PUSH2 0x9F3 JUMPI DUP1 PUSH4 0xA457C2D7 EQ PUSH2 0x94C JUMPI DUP1 PUSH4 0xA4F5DF12 EQ PUSH2 0x781 JUMPI DUP1 PUSH4 0xA9059CBB EQ PUSH2 0x750 JUMPI DUP1 PUSH4 0xADD1E0D3 EQ PUSH2 0x532 JUMPI DUP1 PUSH4 0xB0937BAA EQ PUSH2 0x4B3 JUMPI DUP1 PUSH4 0xC002D23D EQ PUSH2 0x490 JUMPI DUP1 PUSH4 0xC2B7B868 EQ PUSH2 0x418 JUMPI DUP1 PUSH4 0xD08D6A48 EQ PUSH2 0x3D0 JUMPI DUP1 PUSH4 0xDD62ED3E EQ PUSH2 0x37F JUMPI DUP1 PUSH4 0xE3A96CBD EQ PUSH2 0x2F5 JUMPI DUP1 PUSH4 0xE499C043 EQ PUSH2 0x249 JUMPI PUSH4 0xF2FDE38B EQ PUSH2 0x17C JUMPI PUSH1 0x0 DUP1 REVERT JUMPDEST CALLVALUE PUSH2 0x244 JUMPI PUSH1 0x20 CALLDATASIZE PUSH1 0x3 NOT ADD SLT PUSH2 0x244 JUMPI PUSH2 0x195 PUSH2 0x1537 JUMP JUMPDEST PUSH2 0x19D PUSH2 0x1AEC JUMP JUMPDEST PUSH1 0x1 PUSH1 0x1 PUSH1 0xA0 SHL SUB AND DUP1 ISZERO PUSH2 0x1F0 JUMPI PUSH1 0x5 DUP1 SLOAD PUSH1 0x1 PUSH1 0x1 PUSH1 0xA0 SHL SUB NOT DUP2 AND DUP4 OR SWAP1 SWAP2 SSTORE PUSH1 0x1 PUSH1 0x1 PUSH1 0xA0 SHL SUB AND PUSH32 0x8BE0079C531659141344CD1FD0A4F28419497F9722A3DAAFE3B4186F6B6457E0 PUSH1 0x0 DUP1 LOG3 STOP JUMPDEST PUSH1 0x40 MLOAD PUSH3 0x461BCD PUSH1 0xE5 SHL DUP2 MSTORE PUSH1 0x20 PUSH1 0x4 DUP3 ADD MSTORE PUSH1 0x26 PUSH1 0x24 DUP3 ADD MSTORE PUSH32 0x4F776E61626C653A206E6577206F776E657220697320746865207A65726F2061 PUSH1 0x44 DUP3 ADD MSTORE PUSH6 0x646472657373 PUSH1 0xD0 SHL PUSH1 0x64 DUP3 ADD MSTORE PUSH1 0x84 SWAP1 REVERT JUMPDEST PUSH1 0x0 DUP1 REVERT JUMPDEST CALLVALUE PUSH2 0x244 JUMPI PUSH1 0x20 CALLDATASIZE PUSH1 0x3 NOT ADD SLT PUSH2 0x244 JUMPI PUSH1 0x4 CALLDATALOAD PUSH1 0x0 MSTORE PUSH1 0x9 PUSH1 0x20 MSTORE PUSH1 0x40 PUSH1 0x0 KECCAK256 PUSH1 0x40 MLOAD DUP1 PUSH1 0x20 DUP4 SLOAD SWAP2 DUP3 DUP2 MSTORE ADD SWAP1 DUP2 SWAP4 PUSH1 0x0 MSTORE PUSH1 0x20 PUSH1 0x0 KECCAK256 SWAP1 PUSH1 0x0 JUMPDEST DUP2 DUP2 LT PUSH2 0x2DF JUMPI POP POP POP DUP2 PUSH2 0x29C SWAP2 SUB DUP3 PUSH2 0x15C8 JUMP JUMPDEST PUSH1 0x40 MLOAD SWAP2 DUP3 SWAP2 PUSH1 0x20 DUP4 ADD SWAP1 PUSH1 0x20 DUP5 MSTORE MLOAD DUP1 SWAP2 MSTORE PUSH1 0x40 DUP4 ADD SWAP2 SWAP1 PUSH1 0x0 JUMPDEST DUP2 DUP2 LT PUSH2 0x2C6 JUMPI POP POP POP SUB SWAP1 RETURN JUMPDEST DUP3 MLOAD DUP5 MSTORE DUP6 SWAP5 POP PUSH1 0x20 SWAP4 DUP5 ADD SWAP4 SWAP1 SWAP3 ADD SWAP2 PUSH1 0x1 ADD PUSH2 0x2B8 JUMP JUMPDEST DUP3 SLOAD DUP5 MSTORE PUSH1 0x20 SWAP1 SWAP4 ADD SWAP3 PUSH1 0x1 SWAP3 DUP4 ADD SWAP3 ADD PUSH2 0x286 JUMP JUMPDEST CALLVALUE PUSH2 0x244 JUMPI PUSH1 0x20 CALLDATASIZE PUSH1 0x3 NOT ADD SLT PUSH2 0x244 JUMPI PUSH1 0x4 CALLDATALOAD PUSH1 0x0 MSTORE PUSH1 0x8 PUSH1 0x20 MSTORE PUSH1 0x40 PUSH1 0x0 KECCAK256 PUSH1 0x1 DUP2 ADD SLOAD PUSH1 0x1 DUP1 PUSH1 0xA0 SHL SUB PUSH1 0x2 DUP4 ADD SLOAD AND SWAP2 PUSH1 0x4 DUP2 ADD SLOAD SWAP1 PUSH1 0xFF PUSH1 0x5 DUP3 ADD SLOAD AND PUSH2 0x369 PUSH2 0x34B PUSH1 0x3 PUSH1 0x6 DUP6 ADD SLOAD SWAP5 ADD PUSH2 0x15EA JUMP JUMPDEST PUSH1 0x40 MLOAD SWAP7 DUP8 SWAP7 DUP8 MSTORE PUSH1 0x20 DUP8 ADD MSTORE PUSH1 0xC0 PUSH1 0x40 DUP8 ADD MSTORE PUSH1 0xC0 DUP7 ADD SWAP1 PUSH2 0x154D JUMP JUMPDEST SWAP3 PUSH1 0x60 DUP6 ADD MSTORE ISZERO ISZERO PUSH1 0x80 DUP5 ADD MSTORE PUSH1 0xA0 DUP4 ADD MSTORE SUB SWAP1 RETURN JUMPDEST CALLVALUE PUSH2 0x244 JUMPI PUSH1 0x40 CALLDATASIZE PUSH1 0x3 NOT ADD SLT PUSH2 0x244 JUMPI PUSH2 0x398 PUSH2 0x1537 JUMP JUMPDEST PUSH2 0x3A0 PUSH2 0x1521 JUMP JUMPDEST PUSH1 0x1 PUSH1 0x1 PUSH1 0xA0 SHL SUB SWAP2 DUP3 AND PUSH1 0x0 SWAP1 DUP2 MSTORE PUSH1 0x1 PUSH1 0x20 SWAP1 DUP2 MSTORE PUSH1 0x40 DUP1 DUP4 KECCAK256 SWAP5 SWAP1 SWAP4 AND DUP3 MSTORE SWAP3 DUP4 MSTORE DUP2 SWAP1 KECCAK256 SLOAD SWAP1 MLOAD SWAP1 DUP2 MSTORE RETURN JUMPDEST CALLVALUE PUSH2 0x244 JUMPI PUSH1 0x40 CALLDATASIZE PUSH1 0x3 NOT ADD SLT PUSH2 0x244 JUMPI PUSH1 0x24 CALLDATALOAD PUSH1 0x4 CALLDATALOAD PUSH1 0x0 MSTORE PUSH1 0x9 PUSH1 0x20 MSTORE PUSH1 0x40 PUSH1 0x0 KECCAK256 DUP1 SLOAD DUP3 LT ISZERO PUSH2 0x244 JUMPI PUSH1 0x20 SWAP2 PUSH2 0x409 SWAP2 PUSH2 0x16E2 JUMP JUMPDEST SWAP1 SLOAD SWAP1 PUSH1 0x3 SHL SHR PUSH1 0x40 MLOAD SWAP1 DUP2 MSTORE RETURN JUMPDEST CALLVALUE PUSH2 0x244 JUMPI PUSH1 0x20 CALLDATASIZE PUSH1 0x3 NOT ADD SLT PUSH2 0x244 JUMPI PUSH1 0x4 CALLDATALOAD PUSH2 0x434 PUSH2 0x1AEC JUMP JUMPDEST DUP1 PUSH1 0x0 MSTORE PUSH1 0x8 PUSH1 0x20 MSTORE PUSH1 0xFF PUSH1 0x5 PUSH1 0x40 PUSH1 0x0 KECCAK256 ADD SLOAD AND PUSH2 0x458 JUMPI PUSH2 0x456 SWAP1 PUSH2 0x1B44 JUMP JUMPDEST STOP JUMPDEST PUSH1 0x40 MLOAD PUSH3 0x461BCD PUSH1 0xE5 SHL DUP2 MSTORE PUSH1 0x20 PUSH1 0x4 DUP3 ADD MSTORE PUSH1 0x10 PUSH1 0x24 DUP3 ADD MSTORE PUSH16 0x105B1C9958591E481C995CDBDB1D9959 PUSH1 0x82 SHL PUSH1 0x44 DUP3 ADD MSTORE PUSH1 0x64 SWAP1 REVERT JUMPDEST CALLVALUE PUSH2 0x244 JUMPI PUSH1 0x0 CALLDATASIZE PUSH1 0x3 NOT ADD SLT PUSH2 0x244 JUMPI PUSH1 0x20 PUSH1 0x40 MLOAD PUSH8 0x16345785D8A0000 DUP2 MSTORE RETURN JUMPDEST CALLVALUE PUSH2 0x244 JUMPI PUSH1 0x20 CALLDATASIZE PUSH1 0x3 NOT ADD SLT PUSH2 0x244 JUMPI PUSH2 0x4CC PUSH2 0x1537 JUMP JUMPDEST PUSH2 0x4D4 PUSH2 0x1AEC JUMP JUMPDEST PUSH1 0x1 PUSH1 0x1 PUSH1 0xA0 SHL SUB AND DUP1 ISZERO PUSH2 0x500 JUMPI PUSH12 0xFFFFFFFFFFFFFFFFFFFFFFFF PUSH1 0xA0 SHL PUSH1 0xB SLOAD AND OR PUSH1 0xB SSTORE PUSH1 0x0 DUP1 RETURN JUMPDEST PUSH1 0x40 MLOAD PUSH3 0x461BCD PUSH1 0xE5 SHL DUP2 MSTORE PUSH1 0x20 PUSH1 0x4 DUP3 ADD MSTORE PUSH1 0xA PUSH1 0x24 DUP3 ADD MSTORE PUSH10 0x69706E6674207A65726F PUSH1 0xB0 SHL PUSH1 0x44 DUP3 ADD MSTORE PUSH1 0x64 SWAP1 REVERT JUMPDEST CALLVALUE PUSH2 0x244 JUMPI PUSH2 0x540 CALLDATASIZE PUSH2 0x168E JUMP JUMPDEST SWAP2 SWAP1 PUSH2 0x54A PUSH2 0x1AEC JUMP JUMPDEST PUSH1 0x7 DUP1 SLOAD PUSH1 0x1 SWAP1 DUP2 ADD SWAP2 DUP3 SWAP1 SSTORE PUSH1 0x0 DUP3 DUP2 MSTORE PUSH1 0x8 PUSH1 0x20 MSTORE PUSH1 0x40 SWAP1 KECCAK256 DUP3 DUP2 SSTORE SWAP1 DUP2 ADD DUP5 SWAP1 SSTORE PUSH1 0x2 DUP2 ADD DUP1 SLOAD PUSH1 0x1 PUSH1 0x1 PUSH1 0xA0 SHL SUB NOT AND SWAP1 SSTORE SWAP1 SWAP3 SWAP1 PUSH1 0x3 ADD PUSH8 0xFFFFFFFFFFFFFFFF DUP6 GT PUSH2 0x73A JUMPI PUSH2 0x59F DUP2 SLOAD PUSH2 0x158E JUMP JUMPDEST PUSH1 0x1F DUP2 GT PUSH2 0x6F2 JUMPI JUMPDEST POP PUSH1 0x20 SWAP5 DUP5 SWAP2 PUSH1 0x0 PUSH1 0x1F DUP4 GT PUSH1 0x1 EQ PUSH2 0x67A JUMPI SWAP5 DUP3 SWAP2 PUSH1 0x0 DUP1 MLOAD PUSH1 0x20 PUSH2 0x1C5A DUP4 CODECOPY DUP2 MLOAD SWAP2 MSTORE SWAP4 PUSH1 0x0 SWAP8 DUP9 SWAP2 PUSH2 0x66F JUMPI JUMPDEST POP DUP4 PUSH1 0x1 SHL SWAP1 DUP9 NOT DUP6 PUSH1 0x3 SHL SHR NOT AND OR SWAP1 SSTORE JUMPDEST DUP4 DUP7 MSTORE PUSH1 0x8 DUP9 MSTORE TIMESTAMP PUSH1 0x4 PUSH1 0x40 DUP9 KECCAK256 ADD SSTORE DUP4 DUP7 MSTORE PUSH1 0x8 DUP9 MSTORE PUSH1 0x5 PUSH1 0x40 DUP8 KECCAK256 ADD PUSH1 0xFF NOT DUP2 SLOAD AND SWAP1 SSTORE DUP4 DUP7 MSTORE PUSH1 0x8 DUP9 MSTORE DUP6 PUSH1 0x6 PUSH1 0x40 DUP3 KECCAK256 ADD SSTORE DUP4 DUP7 MSTORE PUSH1 0x8 DUP9 MSTORE DUP6 PUSH1 0x7 PUSH1 0x40 DUP3 KECCAK256 ADD SSTORE DUP4 DUP7 MSTORE PUSH1 0x8 DUP9 MSTORE DUP6 PUSH1 0x8 PUSH1 0x40 DUP3 KECCAK256 ADD SSTORE DUP5 DUP7 MSTORE PUSH1 0x9 DUP9 MSTORE PUSH2 0x655 DUP5 PUSH1 0x40 DUP9 KECCAK256 PUSH2 0x1803 JUMP JUMPDEST PUSH2 0x664 PUSH1 0x40 MLOAD SWAP3 DUP4 SWAP3 DUP4 PUSH2 0x183D JUMP JUMPDEST SUB SWAP1 LOG4 PUSH1 0x40 MLOAD SWAP1 DUP2 MSTORE RETURN JUMPDEST SWAP1 POP DUP3 ADD CALLDATALOAD DUP11 PUSH2 0x5D8 JUMP JUMPDEST SWAP5 SWAP1 PUSH1 0x1F NOT DUP4 AND DUP2 DUP8 MSTORE DUP9 DUP8 KECCAK256 SWAP1 DUP8 JUMPDEST DUP2 DUP2 LT PUSH2 0x6D8 JUMPI POP SWAP1 PUSH1 0x0 SWAP8 DUP6 PUSH1 0x0 DUP1 MLOAD PUSH1 0x20 PUSH2 0x1C5A DUP4 CODECOPY DUP2 MLOAD SWAP2 MSTORE SWAP7 SWAP6 SWAP5 SWAP4 LT PUSH2 0x6BF JUMPI JUMPDEST POP POP PUSH1 0x1 DUP4 DUP2 SHL ADD SWAP1 SSTORE PUSH2 0x5EB JUMP JUMPDEST DUP9 NOT PUSH1 0xF8 DUP7 PUSH1 0x3 SHL AND SHR NOT SWAP1 DUP5 ADD CALLDATALOAD AND SWAP1 SSTORE DUP10 DUP1 PUSH2 0x6B0 JUMP JUMPDEST DUP5 DUP10 ADD CALLDATALOAD DUP4 SSTORE SWAP8 DUP11 ADD SWAP8 DUP10 SWAP7 POP PUSH1 0x1 SWAP1 SWAP3 ADD SWAP2 DUP11 ADD PUSH2 0x68A JUMP JUMPDEST DUP2 PUSH1 0x0 MSTORE PUSH1 0x20 PUSH1 0x0 KECCAK256 PUSH1 0x1F DUP8 ADD PUSH1 0x5 SHR DUP2 ADD SWAP2 PUSH1 0x20 DUP9 LT PUSH2 0x730 JUMPI JUMPDEST PUSH1 0x1F ADD PUSH1 0x5 SHR ADD SWAP1 JUMPDEST DUP2 DUP2 LT PUSH2 0x724 JUMPI POP PUSH2 0x5A8 JUMP JUMPDEST PUSH1 0x0 DUP2 SSTORE PUSH1 0x1 ADD PUSH2 0x717 JUMP JUMPDEST SWAP1 SWAP2 POP DUP2 SWAP1 PUSH2 0x70E JUMP JUMPDEST PUSH4 0x4E487B71 PUSH1 0xE0 SHL PUSH1 0x0 MSTORE PUSH1 0x41 PUSH1 0x4 MSTORE PUSH1 0x24 PUSH1 0x0 REVERT JUMPDEST CALLVALUE PUSH2 0x244 JUMPI PUSH1 0x40 CALLDATASIZE PUSH1 0x3 NOT ADD SLT PUSH2 0x244 JUMPI PUSH2 0x776 PUSH2 0x76C PUSH2 0x1537 JUMP JUMPDEST PUSH1 0x24 CALLDATALOAD SWAP1 CALLER PUSH2 0x196D JUMP JUMPDEST PUSH1 0x20 PUSH1 0x40 MLOAD PUSH1 0x1 DUP2 MSTORE RETURN JUMPDEST CALLVALUE PUSH2 0x244 JUMPI PUSH1 0x40 CALLDATASIZE PUSH1 0x3 NOT ADD SLT PUSH2 0x244 JUMPI PUSH1 0x4 CALLDATALOAD PUSH1 0x24 CALLDATALOAD DUP1 ISZERO ISZERO DUP2 SUB PUSH2 0x244 JUMPI DUP2 PUSH1 0x0 MSTORE PUSH1 0x8 PUSH1 0x20 MSTORE PUSH1 0x40 PUSH1 0x0 KECCAK256 SWAP1 PUSH1 0xFF PUSH1 0x5 DUP4 ADD SLOAD AND PUSH2 0x907 JUMPI CALLER PUSH1 0x0 SWAP1 DUP2 MSTORE PUSH1 0x9 DUP4 ADD PUSH1 0x20 DUP2 SWAP1 MSTORE PUSH1 0x40 SWAP1 SWAP2 KECCAK256 SLOAD PUSH1 0xFF AND PUSH2 0x8D2 JUMPI PUSH32 0xCBDF6214089CBA887ECBF35A0B6A734589959C9763342C756BB2A80CA2BC9F6E PUSH2 0x8A2 DUP6 SWAP3 CALLER PUSH1 0x0 MSTORE PUSH1 0x0 PUSH1 0x20 MSTORE PUSH2 0x821 PUSH9 0x56BC75E2D63100000 PUSH1 0x40 PUSH1 0x0 KECCAK256 SLOAD LT ISZERO PUSH2 0x17B7 JUMP JUMPDEST CALLER PUSH1 0x0 SWAP1 DUP2 MSTORE PUSH1 0x20 DUP2 DUP2 MSTORE PUSH1 0x40 DUP1 DUP4 KECCAK256 SLOAD SWAP4 DUP3 MSTORE DUP1 DUP4 KECCAK256 DUP1 SLOAD PUSH1 0x1 PUSH1 0xFF NOT SWAP2 DUP3 AND OR SWAP1 SWAP2 SSTORE PUSH1 0xA DUP11 ADD SWAP1 SWAP3 MSTORE SWAP1 SWAP2 KECCAK256 DUP1 SLOAD SWAP1 SWAP2 AND PUSH1 0xFF DUP8 ISZERO ISZERO AND OR SWAP1 SSTORE PUSH1 0x6 DUP7 ADD SWAP6 PUSH2 0x86E DUP3 DUP9 SLOAD PUSH2 0x17AA JUMP JUMPDEST DUP8 SSTORE DUP6 ISZERO PUSH2 0x8BD JUMPI PUSH1 0x7 ADD PUSH2 0x884 DUP3 DUP3 SLOAD PUSH2 0x17AA JUMP JUMPDEST SWAP1 SSTORE JUMPDEST PUSH1 0x40 DUP1 MLOAD SWAP6 ISZERO ISZERO DUP7 MSTORE PUSH1 0x20 DUP7 ADD SWAP2 SWAP1 SWAP2 MSTORE CALLER SWAP5 SWAP2 DUP3 SWAP2 DUP3 ADD SWAP1 JUMP JUMPDEST SUB SWAP1 LOG3 SLOAD PUSH1 0x2 SLOAD PUSH1 0x1 SHR GT ISZERO PUSH2 0x8B4 JUMPI STOP JUMPDEST PUSH2 0x456 SWAP1 PUSH2 0x1B44 JUMP JUMPDEST PUSH1 0x8 ADD PUSH2 0x8CB DUP3 DUP3 SLOAD PUSH2 0x17AA JUMP JUMPDEST SWAP1 SSTORE PUSH2 0x887 JUMP JUMPDEST PUSH1 0x40 MLOAD PUSH3 0x461BCD PUSH1 0xE5 SHL DUP2 MSTORE PUSH1 0x20 PUSH1 0x4 DUP3 ADD MSTORE PUSH1 0xD PUSH1 0x24 DUP3 ADD MSTORE PUSH13 0x105B1C9958591E481D9BDD1959 PUSH1 0x9A SHL PUSH1 0x44 DUP3 ADD MSTORE PUSH1 0x64 SWAP1 REVERT JUMPDEST PUSH1 0x40 MLOAD PUSH3 0x461BCD PUSH1 0xE5 SHL DUP2 MSTORE PUSH1 0x20 PUSH1 0x4 DUP3 ADD MSTORE PUSH1 0x18 PUSH1 0x24 DUP3 ADD MSTORE PUSH32 0x4469737075746520616C7265616479207265736F6C7665640000000000000000 PUSH1 0x44 DUP3 ADD MSTORE PUSH1 0x64 SWAP1 REVERT JUMPDEST CALLVALUE PUSH2 0x244 JUMPI PUSH1 0x40 CALLDATASIZE PUSH1 0x3 NOT ADD SLT PUSH2 0x244 JUMPI PUSH2 0x965 PUSH2 0x1537 JUMP JUMPDEST PUSH1 0x24 CALLDATALOAD SWAP1 CALLER PUSH1 0x0 MSTORE PUSH1 0x1 PUSH1 0x20 MSTORE PUSH1 0x40 PUSH1 0x0 KECCAK256 PUSH1 0x1 DUP1 PUSH1 0xA0 SHL SUB DUP3 AND PUSH1 0x0 MSTORE PUSH1 0x20 MSTORE PUSH1 0x40 PUSH1 0x0 KECCAK256 SLOAD SWAP2 DUP1 DUP4 LT PUSH2 0x9A0 JUMPI PUSH2 0x776 SWAP3 SUB SWAP1 CALLER PUSH2 0x1865 JUMP JUMPDEST PUSH1 0x40 MLOAD PUSH3 0x461BCD PUSH1 0xE5 SHL DUP2 MSTORE PUSH1 0x20 PUSH1 0x4 DUP3 ADD MSTORE PUSH1 0x25 PUSH1 0x24 DUP3 ADD MSTORE PUSH32 0x45524332303A2064656372656173656420616C6C6F77616E63652062656C6F77 PUSH1 0x44 DUP3 ADD MSTORE PUSH5 0x207A65726F PUSH1 0xD8 SHL PUSH1 0x64 DUP3 ADD MSTORE PUSH1 0x84 SWAP1 REVERT JUMPDEST CALLVALUE PUSH2 0x244 JUMPI PUSH2 0xA01 CALLDATASIZE PUSH2 0x168E JUMP JUMPDEST SWAP2 SWAP1 CALLER PUSH1 0x0 MSTORE PUSH1 0x0 PUSH1 0x20 MSTORE PUSH2 0xA26 PUSH9 0x56BC75E2D63100000 PUSH1 0x40 PUSH1 0x0 KECCAK256 SLOAD LT ISZERO PUSH2 0x17B7 JUMP JUMPDEST PUSH1 0x7 DUP1 SLOAD PUSH1 0x1 SWAP1 DUP2 ADD SWAP2 DUP3 SWAP1 SSTORE PUSH1 0x0 DUP3 DUP2 MSTORE PUSH1 0x8 PUSH1 0x20 MSTORE PUSH1 0x40 SWAP1 KECCAK256 DUP3 DUP2 SSTORE SWAP1 DUP2 ADD DUP5 SWAP1 SSTORE PUSH1 0x2 DUP2 ADD DUP1 SLOAD PUSH1 0x1 PUSH1 0x1 PUSH1 0xA0 SHL SUB NOT AND CALLER OR SWAP1 SSTORE SWAP1 SWAP3 SWAP1 PUSH1 0x3 ADD PUSH8 0xFFFFFFFFFFFFFFFF DUP6 GT PUSH2 0x73A JUMPI PUSH2 0xA7D DUP2 SLOAD PUSH2 0x158E JUMP JUMPDEST PUSH1 0x1F DUP2 GT PUSH2 0xBD1 JUMPI JUMPDEST POP PUSH1 0x20 SWAP5 DUP5 SWAP2 PUSH1 0x0 PUSH1 0x1F DUP4 GT PUSH1 0x1 EQ PUSH2 0xB5A JUMPI SWAP2 PUSH2 0x664 SWAP2 DUP2 PUSH1 0x0 DUP1 MLOAD PUSH1 0x20 PUSH2 0x1C5A DUP4 CODECOPY DUP2 MLOAD SWAP2 MSTORE SWAP5 PUSH1 0x0 SWAP2 PUSH2 0xB4F JUMPI JUMPDEST POP DUP3 PUSH1 0x1 SHL SWAP1 PUSH1 0x0 NOT DUP5 PUSH1 0x3 SHL SHR NOT AND OR SWAP1 SSTORE JUMPDEST DUP4 PUSH1 0x0 MSTORE PUSH1 0x8 DUP9 MSTORE TIMESTAMP PUSH1 0x4 PUSH1 0x40 PUSH1 0x0 KECCAK256 ADD SSTORE DUP4 PUSH1 0x0 MSTORE PUSH1 0x8 DUP9 MSTORE PUSH1 0x5 PUSH1 0x40 PUSH1 0x0 KECCAK256 ADD PUSH1 0xFF NOT DUP2 SLOAD AND SWAP1 SSTORE DUP4 PUSH1 0x0 MSTORE PUSH1 0x8 DUP9 MSTORE PUSH1 0x0 PUSH1 0x6 PUSH1 0x40 DUP3 KECCAK256 ADD SSTORE DUP4 PUSH1 0x0 MSTORE PUSH1 0x8 DUP9 MSTORE PUSH1 0x0 PUSH1 0x7 PUSH1 0x40 DUP3 KECCAK256 ADD SSTORE DUP4 PUSH1 0x0 MSTORE PUSH1 0x8 DUP9 MSTORE PUSH1 0x0 PUSH1 0x8 PUSH1 0x40 DUP3 KECCAK256 ADD SSTORE DUP5 PUSH1 0x0 MSTORE PUSH1 0x9 DUP9 MSTORE PUSH2 0xB41 DUP5 PUSH1 0x40 PUSH1 0x0 KECCAK256 PUSH2 0x1803 JUMP JUMPDEST PUSH1 0x40 MLOAD SWAP2 DUP3 SWAP2 CALLER SWAP8 DUP4 PUSH2 0x183D JUMP JUMPDEST SWAP1 POP DUP8 ADD CALLDATALOAD DUP11 PUSH2 0xAB7 JUMP JUMPDEST DUP2 DUP2 MSTORE DUP8 DUP2 KECCAK256 SWAP1 PUSH1 0x1F NOT DUP5 AND DUP2 JUMPDEST DUP2 DUP2 LT PUSH2 0xBB7 JUMPI POP SWAP2 PUSH2 0x664 SWAP4 SWAP2 DUP6 PUSH1 0x0 DUP1 MLOAD PUSH1 0x20 PUSH2 0x1C5A DUP4 CODECOPY DUP2 MLOAD SWAP2 MSTORE SWAP7 SWAP5 LT PUSH2 0xB9D JUMPI JUMPDEST POP POP PUSH1 0x1 DUP3 DUP2 SHL ADD SWAP1 SSTORE PUSH2 0xACB JUMP JUMPDEST DUP9 ADD CALLDATALOAD PUSH1 0x0 NOT PUSH1 0x3 DUP6 SWAP1 SHL PUSH1 0xF8 AND SHR NOT AND SWAP1 SSTORE DUP10 DUP1 PUSH2 0xB8E JUMP JUMPDEST DUP9 DUP4 ADD CALLDATALOAD DUP5 SSTORE DUP10 SWAP7 POP PUSH1 0x1 SWAP1 SWAP4 ADD SWAP3 SWAP2 DUP11 ADD SWAP2 DUP11 ADD PUSH2 0xB68 JUMP JUMPDEST DUP2 PUSH1 0x0 MSTORE PUSH1 0x20 PUSH1 0x0 KECCAK256 PUSH1 0x1F DUP8 ADD PUSH1 0x5 SHR DUP2 ADD SWAP2 PUSH1 0x20 DUP9 LT PUSH2 0xC0F JUMPI JUMPDEST PUSH1 0x1F ADD PUSH1 0x5 SHR ADD SWAP1 JUMPDEST DUP2 DUP2 LT PUSH2 0xC03 JUMPI POP PUSH2 0xA86 JUMP JUMPDEST PUSH1 0x0 DUP2 SSTORE PUSH1 0x1 ADD PUSH2 0xBF6 JUMP JUMPDEST SWAP1 SWAP2 POP DUP2 SWAP1 PUSH2 0xBED JUMP JUMPDEST CALLVALUE PUSH2 0x244 JUMPI PUSH1 0x0 CALLDATASIZE PUSH1 0x3 NOT ADD SLT PUSH2 0x244 JUMPI PUSH1 0x40 MLOAD PUSH1 0x0 PUSH1 0x4 SLOAD PUSH2 0xC3B DUP2 PUSH2 0x158E JUMP JUMPDEST DUP1 DUP5 MSTORE SWAP1 PUSH1 0x1 DUP2 AND SWAP1 DUP2 ISZERO PUSH2 0xCDA JUMPI POP PUSH1 0x1 EQ PUSH2 0xC7B JUMPI JUMPDEST PUSH2 0xC77 DUP4 PUSH2 0xC63 DUP2 DUP6 SUB DUP3 PUSH2 0x15C8 JUMP JUMPDEST PUSH1 0x40 MLOAD SWAP2 DUP3 SWAP2 PUSH1 0x20 DUP4 MSTORE PUSH1 0x20 DUP4 ADD SWAP1 PUSH2 0x154D JUMP JUMPDEST SUB SWAP1 RETURN JUMPDEST PUSH1 0x4 PUSH1 0x0 SWAP1 DUP2 MSTORE PUSH32 0x8A35ACFBC15FF81A39AE7D344FD709F28E8600B4AA8C65C6B64BFE7FE36BD19B SWAP4 SWAP3 POP SWAP1 JUMPDEST DUP1 DUP3 LT PUSH2 0xCC0 JUMPI POP SWAP1 SWAP2 POP DUP2 ADD PUSH1 0x20 ADD PUSH2 0xC63 PUSH2 0xC53 JUMP JUMPDEST SWAP2 SWAP3 PUSH1 0x1 DUP2 PUSH1 0x20 SWAP3 SLOAD DUP4 DUP6 DUP9 ADD ADD MSTORE ADD SWAP2 ADD SWAP1 SWAP3 SWAP2 PUSH2 0xCA8 JUMP JUMPDEST PUSH1 0xFF NOT AND PUSH1 0x20 DUP1 DUP7 ADD SWAP2 SWAP1 SWAP2 MSTORE SWAP2 ISZERO ISZERO PUSH1 0x5 SHL DUP5 ADD SWAP1 SWAP2 ADD SWAP2 POP PUSH2 0xC63 SWAP1 POP PUSH2 0xC53 JUMP JUMPDEST CALLVALUE PUSH2 0x244 JUMPI PUSH1 0x0 CALLDATASIZE PUSH1 0x3 NOT ADD SLT PUSH2 0x244 JUMPI PUSH1 0x5 SLOAD PUSH1 0x40 MLOAD PUSH1 0x1 PUSH1 0x1 PUSH1 0xA0 SHL SUB SWAP1 SWAP2 AND DUP2 MSTORE PUSH1 0x20 SWAP1 RETURN JUMPDEST CALLVALUE PUSH2 0x244 JUMPI PUSH1 0x0 CALLDATASIZE PUSH1 0x3 NOT ADD SLT PUSH2 0x244 JUMPI PUSH1 0x20 PUSH1 0x40 MLOAD PUSH9 0x56BC75E2D63100000 DUP2 MSTORE RETURN JUMPDEST CALLVALUE PUSH2 0x244 JUMPI PUSH1 0x0 CALLDATASIZE PUSH1 0x3 NOT ADD SLT PUSH2 0x244 JUMPI PUSH2 0xD64 PUSH2 0x1AEC JUMP JUMPDEST PUSH1 0x5 DUP1 SLOAD PUSH1 0x1 PUSH1 0x1 PUSH1 0xA0 SHL SUB NOT DUP2 AND SWAP1 SWAP2 SSTORE PUSH1 0x0 SWAP1 PUSH1 0x1 PUSH1 0x1 PUSH1 0xA0 SHL SUB AND PUSH32 0x8BE0079C531659141344CD1FD0A4F28419497F9722A3DAAFE3B4186F6B6457E0 DUP3 DUP1 LOG3 STOP JUMPDEST CALLVALUE PUSH2 0x244 JUMPI PUSH1 0x20 CALLDATASIZE PUSH1 0x3 NOT ADD SLT PUSH2 0x244 JUMPI PUSH1 0x1 PUSH1 0x1 PUSH1 0xA0 SHL SUB PUSH2 0xDC9 PUSH2 0x1537 JUMP JUMPDEST AND PUSH1 0x0 MSTORE PUSH1 0x0 PUSH1 0x20 MSTORE PUSH1 0x20 PUSH1 0x40 PUSH1 0x0 KECCAK256 SLOAD PUSH1 0x40 MLOAD SWAP1 DUP2 MSTORE RETURN JUMPDEST CALLVALUE PUSH2 0x244 JUMPI PUSH1 0x20 CALLDATASIZE PUSH1 0x3 NOT ADD SLT PUSH2 0x244 JUMPI PUSH1 0x4 CALLDATALOAD PUSH1 0x0 MSTORE PUSH1 0x8 PUSH1 0x20 MSTORE PUSH1 0x40 PUSH1 0x0 KECCAK256 DUP1 SLOAD PUSH1 0x1 DUP3 ADD SLOAD SWAP2 PUSH1 0x1 DUP1 PUSH1 0xA0 SHL SUB PUSH1 0x2 DUP3 ADD SLOAD AND PUSH2 0xE24 PUSH1 0x3 DUP4 ADD PUSH2 0x15EA JUMP JUMPDEST SWAP2 PUSH1 0x4 DUP2 ADD SLOAD SWAP3 PUSH1 0xFF PUSH1 0x5 DUP4 ADD SLOAD AND PUSH2 0xE6C PUSH1 0x6 DUP5 ADD SLOAD SWAP3 PUSH1 0x8 PUSH1 0x7 DUP7 ADD SLOAD SWAP6 ADD SLOAD SWAP6 PUSH1 0x40 MLOAD SWAP10 DUP11 SWAP10 DUP11 MSTORE PUSH1 0x20 DUP11 ADD MSTORE PUSH1 0x40 DUP10 ADD MSTORE PUSH2 0x120 PUSH1 0x60 DUP10 ADD MSTORE PUSH2 0x120 DUP9 ADD SWAP1 PUSH2 0x154D JUMP JUMPDEST SWAP5 PUSH1 0x80 DUP8 ADD MSTORE ISZERO ISZERO PUSH1 0xA0 DUP7 ADD MSTORE PUSH1 0xC0 DUP6 ADD MSTORE PUSH1 0xE0 DUP5 ADD MSTORE PUSH2 0x100 DUP4 ADD MSTORE SUB SWAP1 RETURN JUMPDEST CALLVALUE PUSH2 0x244 JUMPI PUSH1 0x0 CALLDATASIZE PUSH1 0x3 NOT ADD SLT PUSH2 0x244 JUMPI PUSH1 0xB SLOAD PUSH1 0x40 MLOAD PUSH1 0x1 PUSH1 0x1 PUSH1 0xA0 SHL SUB SWAP1 SWAP2 AND DUP2 MSTORE PUSH1 0x20 SWAP1 RETURN JUMPDEST CALLVALUE PUSH2 0x244 JUMPI PUSH1 0x20 CALLDATASIZE PUSH1 0x3 NOT ADD SLT PUSH2 0x244 JUMPI PUSH1 0x4 CALLDATALOAD PUSH1 0x0 MSTORE PUSH1 0xA PUSH1 0x20 MSTORE PUSH1 0x20 PUSH1 0xFF PUSH1 0x40 PUSH1 0x0 KECCAK256 SLOAD AND PUSH1 0x40 MLOAD SWAP1 ISZERO ISZERO DUP2 MSTORE RETURN JUMPDEST CALLVALUE PUSH2 0x244 JUMPI PUSH1 0x0 CALLDATASIZE PUSH1 0x3 NOT ADD SLT PUSH2 0x244 JUMPI PUSH2 0xF00 PUSH2 0x1AEC JUMP JUMPDEST SELFBALANCE DUP1 ISZERO PUSH2 0xF9C JUMPI PUSH1 0x5 SLOAD PUSH1 0x0 SWAP2 DUP3 SWAP2 DUP3 SWAP2 DUP3 SWAP2 PUSH1 0x1 PUSH1 0x1 PUSH1 0xA0 SHL SUB AND GAS CALL RETURNDATASIZE ISZERO PUSH2 0xF97 JUMPI RETURNDATASIZE PUSH8 0xFFFFFFFFFFFFFFFF DUP2 GT PUSH2 0x73A JUMPI PUSH1 0x40 MLOAD SWAP1 PUSH2 0xF4C PUSH1 0x1F DUP3 ADD PUSH1 0x1F NOT AND PUSH1 0x20 ADD DUP4 PUSH2 0x15C8 JUMP JUMPDEST DUP2 MSTORE PUSH1 0x0 PUSH1 0x20 RETURNDATASIZE SWAP3 ADD RETURNDATACOPY JUMPDEST ISZERO PUSH2 0xF5E JUMPI STOP JUMPDEST PUSH1 0x40 MLOAD PUSH3 0x461BCD PUSH1 0xE5 SHL DUP2 MSTORE PUSH1 0x20 PUSH1 0x4 DUP3 ADD MSTORE PUSH1 0x11 PUSH1 0x24 DUP3 ADD MSTORE PUSH17 0x15DA5D1A191C985DD85B0819985A5B1959 PUSH1 0x7A SHL PUSH1 0x44 DUP3 ADD MSTORE PUSH1 0x64 SWAP1 REVERT JUMPDEST PUSH2 0xF57 JUMP JUMPDEST PUSH1 0x40 MLOAD PUSH3 0x461BCD PUSH1 0xE5 SHL DUP2 MSTORE PUSH1 0x20 PUSH1 0x4 DUP3 ADD MSTORE PUSH1 0x13 PUSH1 0x24 DUP3 ADD MSTORE PUSH19 0x4E6F206665657320746F207769746864726177 PUSH1 0x68 SHL PUSH1 0x44 DUP3 ADD MSTORE PUSH1 0x64 SWAP1 REVERT JUMPDEST CALLVALUE PUSH2 0x244 JUMPI PUSH1 0x40 CALLDATASIZE PUSH1 0x3 NOT ADD SLT PUSH2 0x244 JUMPI PUSH2 0xFF0 PUSH2 0x1521 JUMP JUMPDEST PUSH1 0x4 CALLDATALOAD PUSH1 0x0 MSTORE PUSH1 0x8 PUSH1 0x20 MSTORE PUSH1 0x9 PUSH1 0x40 PUSH1 0x0 KECCAK256 ADD SWAP1 PUSH1 0x1 DUP1 PUSH1 0xA0 SHL SUB AND PUSH1 0x0 MSTORE PUSH1 0x20 MSTORE PUSH1 0x20 PUSH1 0xFF PUSH1 0x40 PUSH1 0x0 KECCAK256 SLOAD AND PUSH1 0x40 MLOAD SWAP1 ISZERO ISZERO DUP2 MSTORE RETURN JUMPDEST CALLVALUE PUSH2 0x244 JUMPI PUSH1 0x40 CALLDATASIZE PUSH1 0x3 NOT ADD SLT PUSH2 0x244 JUMPI PUSH2 0x776 PUSH2 0x1043 PUSH2 0x1537 JUMP JUMPDEST CALLER PUSH1 0x0 MSTORE PUSH1 0x1 PUSH1 0x20 MSTORE PUSH1 0x40 PUSH1 0x0 KECCAK256 PUSH1 0x1 DUP1 PUSH1 0xA0 SHL SUB DUP3 AND PUSH1 0x0 MSTORE PUSH1 0x20 MSTORE PUSH2 0x1072 PUSH1 0x40 PUSH1 0x0 KECCAK256 PUSH1 0x24 CALLDATALOAD SWAP1 SLOAD PUSH2 0x17AA JUMP JUMPDEST SWAP1 CALLER PUSH2 0x1865 JUMP JUMPDEST PUSH1 0x0 CALLDATASIZE PUSH1 0x3 NOT ADD SLT PUSH2 0x244 JUMPI PUSH1 0x2 PUSH1 0x6 SLOAD EQ PUSH2 0x1236 JUMPI PUSH1 0x2 PUSH1 0x6 SSTORE PUSH8 0x16345785D8A0000 CALLVALUE SUB PUSH2 0x11F1 JUMPI CALLVALUE ISZERO PUSH2 0x11B9 JUMPI CALLER ISZERO PUSH2 0x1174 JUMPI PUSH1 0x2 SLOAD PUSH9 0x56BC75E2D63100000 DUP2 ADD DUP1 SWAP2 GT PUSH2 0x115E JUMPI PUSH1 0x2 SSTORE CALLER PUSH1 0x0 MSTORE PUSH1 0x0 PUSH1 0x20 MSTORE PUSH1 0x40 PUSH1 0x0 KECCAK256 PUSH9 0x56BC75E2D63100000 DUP2 SLOAD ADD SWAP1 SSTORE PUSH1 0x40 MLOAD PUSH9 0x56BC75E2D63100000 DUP2 MSTORE PUSH1 0x0 PUSH32 0xDDF252AD1BE2C89B69C2B068FC378DAA952BA7F163C4A11628F55A4DF523B3EF PUSH1 0x20 CALLER SWAP4 LOG3 PUSH1 0x40 MLOAD PUSH9 0x56BC75E2D63100000 DUP2 MSTORE CALLVALUE PUSH1 0x20 DUP3 ADD MSTORE PUSH32 0x20AACAF9CE65922D5FFA1E3BFBF4959E5795C145AAF02CF7B09D7F2D7C993509 PUSH1 0x40 CALLER SWAP3 LOG2 PUSH1 0x1 PUSH1 0x6 SSTORE STOP JUMPDEST PUSH4 0x4E487B71 PUSH1 0xE0 SHL PUSH1 0x0 MSTORE PUSH1 0x11 PUSH1 0x4 MSTORE PUSH1 0x24 PUSH1 0x0 REVERT JUMPDEST PUSH1 0x40 MLOAD PUSH3 0x461BCD PUSH1 0xE5 SHL DUP2 MSTORE PUSH1 0x20 PUSH1 0x4 DUP3 ADD MSTORE PUSH1 0x1F PUSH1 0x24 DUP3 ADD MSTORE PUSH32 0x45524332303A206D696E7420746F20746865207A65726F206164647265737300 PUSH1 0x44 DUP3 ADD MSTORE PUSH1 0x64 SWAP1 REVERT JUMPDEST PUSH1 0x40 MLOAD PUSH3 0x461BCD PUSH1 0xE5 SHL DUP2 MSTORE PUSH1 0x20 PUSH1 0x4 DUP3 ADD MSTORE PUSH1 0x10 PUSH1 0x24 DUP3 ADD MSTORE PUSH16 0x14185E5B595B9D081C995C5D5A5C9959 PUSH1 0x82 SHL PUSH1 0x44 DUP3 ADD MSTORE PUSH1 0x64 SWAP1 REVERT JUMPDEST PUSH1 0x40 MLOAD PUSH3 0x461BCD PUSH1 0xE5 SHL DUP2 MSTORE PUSH1 0x20 PUSH1 0x4 DUP3 ADD MSTORE PUSH1 0x18 PUSH1 0x24 DUP3 ADD MSTORE PUSH32 0x496E636F7272656374207061796D656E7420616D6F756E740000000000000000 PUSH1 0x44 DUP3 ADD MSTORE PUSH1 0x64 SWAP1 REVERT JUMPDEST PUSH1 0x40 MLOAD PUSH3 0x461BCD PUSH1 0xE5 SHL DUP2 MSTORE PUSH1 0x20 PUSH1 0x4 DUP3 ADD MSTORE PUSH1 0x1F PUSH1 0x24 DUP3 ADD MSTORE PUSH32 0x5265656E7472616E637947756172643A207265656E7472616E742063616C6C00 PUSH1 0x44 DUP3 ADD MSTORE PUSH1 0x64 SWAP1 REVERT JUMPDEST CALLVALUE PUSH2 0x244 JUMPI PUSH1 0x0 CALLDATASIZE PUSH1 0x3 NOT ADD SLT PUSH2 0x244 JUMPI PUSH1 0x20 PUSH1 0x40 MLOAD PUSH1 0x12 DUP2 MSTORE RETURN JUMPDEST CALLVALUE PUSH2 0x244 JUMPI PUSH1 0x60 CALLDATASIZE PUSH1 0x3 NOT ADD SLT PUSH2 0x244 JUMPI PUSH2 0x12B0 PUSH2 0x1537 JUMP JUMPDEST PUSH2 0x12B8 PUSH2 0x1521 JUMP JUMPDEST PUSH1 0x1 PUSH1 0x1 PUSH1 0xA0 SHL SUB DUP3 AND PUSH1 0x0 SWAP1 DUP2 MSTORE PUSH1 0x1 PUSH1 0x20 DUP2 DUP2 MSTORE PUSH1 0x40 DUP1 DUP5 KECCAK256 CALLER DUP6 MSTORE SWAP1 SWAP2 MSTORE SWAP1 SWAP2 KECCAK256 SLOAD SWAP3 PUSH1 0x44 CALLDATALOAD SWAP3 SWAP2 DUP5 ADD PUSH2 0x12F4 JUMPI JUMPDEST PUSH2 0x776 SWAP4 POP PUSH2 0x196D JUMP JUMPDEST DUP3 DUP5 LT PUSH2 0x1310 JUMPI PUSH2 0x130B DUP4 PUSH2 0x776 SWAP6 SUB CALLER DUP4 PUSH2 0x1865 JUMP JUMPDEST PUSH2 0x12EA JUMP JUMPDEST PUSH1 0x40 MLOAD PUSH3 0x461BCD PUSH1 0xE5 SHL DUP2 MSTORE PUSH1 0x20 PUSH1 0x4 DUP3 ADD MSTORE PUSH1 0x1D PUSH1 0x24 DUP3 ADD MSTORE PUSH32 0x45524332303A20696E73756666696369656E7420616C6C6F77616E6365000000 PUSH1 0x44 DUP3 ADD MSTORE PUSH1 0x64 SWAP1 REVERT JUMPDEST CALLVALUE PUSH2 0x244 JUMPI PUSH1 0x0 CALLDATASIZE PUSH1 0x3 NOT ADD SLT PUSH2 0x244 JUMPI PUSH1 0x20 PUSH1 0x2 SLOAD PUSH1 0x40 MLOAD SWAP1 DUP2 MSTORE RETURN JUMPDEST CALLVALUE PUSH2 0x244 JUMPI PUSH1 0x20 CALLDATASIZE PUSH1 0x3 NOT ADD SLT PUSH2 0x244 JUMPI PUSH1 0x20 PUSH2 0x1391 PUSH1 0x4 CALLDATALOAD PUSH2 0x1710 JUMP JUMPDEST PUSH1 0x40 MLOAD SWAP1 ISZERO ISZERO DUP2 MSTORE RETURN JUMPDEST CALLVALUE PUSH2 0x244 JUMPI PUSH1 0x40 CALLDATASIZE PUSH1 0x3 NOT ADD SLT PUSH2 0x244 JUMPI PUSH2 0x776 PUSH2 0x13B7 PUSH2 0x1537 JUMP JUMPDEST PUSH1 0x24 CALLDATALOAD SWAP1 CALLER PUSH2 0x1865 JUMP JUMPDEST CALLVALUE PUSH2 0x244 JUMPI PUSH1 0x0 CALLDATASIZE PUSH1 0x3 NOT ADD SLT PUSH2 0x244 JUMPI PUSH1 0x40 MLOAD PUSH1 0x0 PUSH1 0x3 SLOAD PUSH2 0x13E3 DUP2 PUSH2 0x158E JUMP JUMPDEST DUP1 DUP5 MSTORE SWAP1 PUSH1 0x1 DUP2 AND SWAP1 DUP2 ISZERO PUSH2 0xCDA JUMPI POP PUSH1 0x1 EQ PUSH2 0x140A JUMPI PUSH2 0xC77 DUP4 PUSH2 0xC63 DUP2 DUP6 SUB DUP3 PUSH2 0x15C8 JUMP JUMPDEST PUSH1 0x3 PUSH1 0x0 SWAP1 DUP2 MSTORE PUSH32 0xC2575A0E9E593C00F959F8C92F12DB2869C3395A3B0502D05E2516446F71F85B SWAP4 SWAP3 POP SWAP1 JUMPDEST DUP1 DUP3 LT PUSH2 0x144F JUMPI POP SWAP1 SWAP2 POP DUP2 ADD PUSH1 0x20 ADD PUSH2 0xC63 PUSH2 0xC53 JUMP JUMPDEST SWAP2 SWAP3 PUSH1 0x1 DUP2 PUSH1 0x20 SWAP3 SLOAD DUP4 DUP6 DUP9 ADD ADD MSTORE ADD SWAP2 ADD SWAP1 SWAP3 SWAP2 PUSH2 0x1437 JUMP JUMPDEST CALLVALUE PUSH2 0x244 JUMPI PUSH1 0x40 CALLDATASIZE PUSH1 0x3 NOT ADD SLT PUSH2 0x244 JUMPI PUSH1 0x4 CALLDATALOAD PUSH2 0x1485 PUSH2 0x1521 JUMP JUMPDEST SWAP1 DUP1 PUSH1 0x0 MSTORE PUSH1 0x8 PUSH1 0x20 MSTORE PUSH1 0x9 PUSH1 0x40 PUSH1 0x0 KECCAK256 ADD PUSH1 0x1 DUP1 PUSH1 0xA0 SHL SUB DUP4 AND PUSH1 0x0 MSTORE PUSH1 0x20 MSTORE PUSH1 0xFF PUSH1 0x40 PUSH1 0x0 KECCAK256 SLOAD AND ISZERO PUSH2 0x14E8 JUMPI PUSH1 0x0 MSTORE PUSH1 0x8 PUSH1 0x20 MSTORE PUSH1 0xA PUSH1 0x40 PUSH1 0x0 KECCAK256 ADD SWAP1 PUSH1 0x1 DUP1 PUSH1 0xA0 SHL SUB AND PUSH1 0x0 MSTORE PUSH1 0x20 MSTORE PUSH1 0x20 PUSH1 0xFF PUSH1 0x40 PUSH1 0x0 KECCAK256 SLOAD AND PUSH1 0x40 MLOAD SWAP1 ISZERO ISZERO DUP2 MSTORE RETURN JUMPDEST PUSH1 0x40 MLOAD PUSH3 0x461BCD PUSH1 0xE5 SHL DUP2 MSTORE PUSH1 0x20 PUSH1 0x4 DUP3 ADD MSTORE PUSH1 0x11 PUSH1 0x24 DUP3 ADD MSTORE PUSH17 0x155CD95C881A185CDB89DD081D9BDD1959 PUSH1 0x7A SHL PUSH1 0x44 DUP3 ADD MSTORE PUSH1 0x64 SWAP1 REVERT JUMPDEST PUSH1 0x24 CALLDATALOAD SWAP1 PUSH1 0x1 PUSH1 0x1 PUSH1 0xA0 SHL SUB DUP3 AND DUP3 SUB PUSH2 0x244 JUMPI JUMP JUMPDEST PUSH1 0x4 CALLDATALOAD SWAP1 PUSH1 0x1 PUSH1 0x1 PUSH1 0xA0 SHL SUB DUP3 AND DUP3 SUB PUSH2 0x244 JUMPI JUMP JUMPDEST SWAP2 SWAP1 DUP3 MLOAD SWAP3 DUP4 DUP3 MSTORE PUSH1 0x0 JUMPDEST DUP5 DUP2 LT PUSH2 0x1579 JUMPI POP POP DUP3 PUSH1 0x0 PUSH1 0x20 DUP1 SWAP5 SWAP6 DUP5 ADD ADD MSTORE PUSH1 0x1F DUP1 NOT SWAP2 ADD AND ADD ADD SWAP1 JUMP JUMPDEST DUP1 PUSH1 0x20 DUP1 SWAP3 DUP5 ADD ADD MLOAD DUP3 DUP3 DUP7 ADD ADD MSTORE ADD PUSH2 0x1558 JUMP JUMPDEST SWAP1 PUSH1 0x1 DUP3 DUP2 SHR SWAP3 AND DUP1 ISZERO PUSH2 0x15BE JUMPI JUMPDEST PUSH1 0x20 DUP4 LT EQ PUSH2 0x15A8 JUMPI JUMP JUMPDEST PUSH4 0x4E487B71 PUSH1 0xE0 SHL PUSH1 0x0 MSTORE PUSH1 0x22 PUSH1 0x4 MSTORE PUSH1 0x24 PUSH1 0x0 REVERT JUMPDEST SWAP2 PUSH1 0x7F AND SWAP2 PUSH2 0x159D JUMP JUMPDEST SWAP1 PUSH1 0x1F DUP1 NOT SWAP2 ADD AND DUP2 ADD SWAP1 DUP2 LT PUSH8 0xFFFFFFFFFFFFFFFF DUP3 GT OR PUSH2 0x73A JUMPI PUSH1 0x40 MSTORE JUMP JUMPDEST SWAP1 PUSH1 0x40 MLOAD SWAP2 DUP3 PUSH1 0x0 DUP3 SLOAD SWAP3 PUSH2 0x15FE DUP5 PUSH2 0x158E JUMP JUMPDEST DUP1 DUP5 MSTORE SWAP4 PUSH1 0x1 DUP2 AND SWAP1 DUP2 ISZERO PUSH2 0x166C JUMPI POP PUSH1 0x1 EQ PUSH2 0x1625 JUMPI JUMPDEST POP PUSH2 0x1623 SWAP3 POP SUB DUP4 PUSH2 0x15C8 JUMP JUMPDEST JUMP JUMPDEST SWAP1 POP PUSH1 0x0 SWAP3 SWAP2 SWAP3 MSTORE PUSH1 0x20 PUSH1 0x0 KECCAK256 SWAP1 PUSH1 0x0 SWAP2 JUMPDEST DUP2 DUP4 LT PUSH2 0x1650 JUMPI POP POP SWAP1 PUSH1 0x20 PUSH2 0x1623 SWAP3 DUP3 ADD ADD CODESIZE PUSH2 0x1616 JUMP JUMPDEST PUSH1 0x20 SWAP2 SWAP4 POP DUP1 PUSH1 0x1 SWAP2 SLOAD DUP4 DUP6 DUP10 ADD ADD MSTORE ADD SWAP2 ADD SWAP1 SWAP2 DUP5 SWAP3 PUSH2 0x1637 JUMP JUMPDEST SWAP1 POP PUSH1 0x20 SWAP3 POP PUSH2 0x1623 SWAP5 SWAP2 POP PUSH1 0xFF NOT AND DUP3 DUP5 ADD MSTORE ISZERO ISZERO PUSH1 0x5 SHL DUP3 ADD ADD CODESIZE PUSH2 0x1616 JUMP JUMPDEST PUSH1 0x40 PUSH1 0x3 NOT DUP3 ADD SLT PUSH2 0x244 JUMPI PUSH1 0x4 CALLDATALOAD SWAP2 PUSH1 0x24 CALLDATALOAD PUSH8 0xFFFFFFFFFFFFFFFF DUP2 GT PUSH2 0x244 JUMPI DUP3 PUSH1 0x23 DUP3 ADD SLT ISZERO PUSH2 0x244 JUMPI DUP1 PUSH1 0x4 ADD CALLDATALOAD SWAP3 PUSH8 0xFFFFFFFFFFFFFFFF DUP5 GT PUSH2 0x244 JUMPI PUSH1 0x24 DUP5 DUP4 ADD ADD GT PUSH2 0x244 JUMPI PUSH1 0x24 ADD SWAP2 SWAP1 JUMP JUMPDEST DUP1 SLOAD DUP3 LT ISZERO PUSH2 0x16FA JUMPI PUSH1 0x0 MSTORE PUSH1 0x20 PUSH1 0x0 KECCAK256 ADD SWAP1 PUSH1 0x0 SWAP1 JUMP JUMPDEST PUSH4 0x4E487B71 PUSH1 0xE0 SHL PUSH1 0x0 MSTORE PUSH1 0x32 PUSH1 0x4 MSTORE PUSH1 0x24 PUSH1 0x0 REVERT JUMPDEST PUSH1 0x0 MSTORE PUSH1 0x9 PUSH1 0x20 MSTORE PUSH1 0x40 PUSH1 0x0 KECCAK256 PUSH1 0x40 MLOAD DUP1 DUP3 PUSH1 0x20 DUP3 SWAP5 SLOAD SWAP4 DUP5 DUP2 MSTORE ADD SWAP1 PUSH1 0x0 MSTORE PUSH1 0x20 PUSH1 0x0 KECCAK256 SWAP3 PUSH1 0x0 JUMPDEST DUP2 DUP2 LT PUSH2 0x1791 JUMPI POP POP PUSH2 0x174E SWAP3 POP SUB DUP3 PUSH2 0x15C8 JUMP JUMPDEST PUSH1 0x0 JUMPDEST DUP2 MLOAD DUP2 LT ISZERO PUSH2 0x178A JUMPI PUSH1 0xFF PUSH1 0x5 PUSH1 0x40 PUSH1 0x0 PUSH1 0x20 DUP6 DUP5 SHL DUP8 ADD ADD MLOAD DUP2 MSTORE PUSH1 0x8 PUSH1 0x20 MSTORE KECCAK256 ADD SLOAD AND ISZERO PUSH2 0x1783 JUMPI PUSH1 0x1 ADD PUSH2 0x1751 JUMP JUMPDEST POP POP PUSH1 0x1 SWAP1 JUMP JUMPDEST POP POP PUSH1 0x0 SWAP1 JUMP JUMPDEST DUP5 SLOAD DUP4 MSTORE PUSH1 0x1 SWAP5 DUP6 ADD SWAP5 DUP7 SWAP5 POP PUSH1 0x20 SWAP1 SWAP4 ADD SWAP3 ADD PUSH2 0x1739 JUMP JUMPDEST SWAP2 SWAP1 DUP3 ADD DUP1 SWAP3 GT PUSH2 0x115E JUMPI JUMP JUMPDEST ISZERO PUSH2 0x17BE JUMPI JUMP JUMPDEST PUSH1 0x40 MLOAD PUSH3 0x461BCD PUSH1 0xE5 SHL DUP2 MSTORE PUSH1 0x20 PUSH1 0x4 DUP3 ADD MSTORE PUSH1 0x19 PUSH1 0x24 DUP3 ADD MSTORE PUSH32 0x496E73756666696369656E7420766F74696E6720706F77657200000000000000 PUSH1 0x44 DUP3 ADD MSTORE PUSH1 0x64 SWAP1 REVERT JUMPDEST DUP1 SLOAD PUSH9 0x10000000000000000 DUP2 LT ISZERO PUSH2 0x73A JUMPI PUSH2 0x1825 SWAP2 PUSH1 0x1 DUP3 ADD DUP2 SSTORE PUSH2 0x16E2 JUMP JUMPDEST DUP2 SWAP3 SWAP2 SLOAD SWAP1 PUSH1 0x3 SHL SWAP2 DUP3 SHL SWAP2 PUSH1 0x0 NOT SWAP1 SHL NOT AND OR SWAP1 SSTORE JUMP JUMPDEST SWAP1 SWAP2 DUP1 PUSH1 0x40 SWAP4 PUSH1 0x20 DUP5 MSTORE DUP2 PUSH1 0x20 DUP6 ADD MSTORE DUP5 DUP5 ADD CALLDATACOPY PUSH1 0x0 DUP3 DUP3 ADD DUP5 ADD MSTORE PUSH1 0x1F ADD PUSH1 0x1F NOT AND ADD ADD SWAP1 JUMP JUMPDEST PUSH1 0x1 PUSH1 0x1 PUSH1 0xA0 SHL SUB AND SWAP1 DUP2 ISZERO PUSH2 0x191C JUMPI PUSH1 0x1 PUSH1 0x1 PUSH1 0xA0 SHL SUB AND SWAP2 DUP3 ISZERO PUSH2 0x18CC JUMPI PUSH1 0x20 PUSH32 0x8C5BE1E5EBEC7D5BD14F71427D1E84F3DD0314C0F7B2291E5B200AC8C7C3B925 SWAP2 DUP4 PUSH1 0x0 MSTORE PUSH1 0x1 DUP3 MSTORE PUSH1 0x40 PUSH1 0x0 KECCAK256 DUP6 PUSH1 0x0 MSTORE DUP3 MSTORE DUP1 PUSH1 0x40 PUSH1 0x0 KECCAK256 SSTORE PUSH1 0x40 MLOAD SWAP1 DUP2 MSTORE LOG3 JUMP JUMPDEST PUSH1 0x40 MLOAD PUSH3 0x461BCD PUSH1 0xE5 SHL DUP2 MSTORE PUSH1 0x20 PUSH1 0x4 DUP3 ADD MSTORE PUSH1 0x22 PUSH1 0x24 DUP3 ADD MSTORE PUSH32 0x45524332303A20617070726F766520746F20746865207A65726F206164647265 PUSH1 0x44 DUP3 ADD MSTORE PUSH2 0x7373 PUSH1 0xF0 SHL PUSH1 0x64 DUP3 ADD MSTORE PUSH1 0x84 SWAP1 REVERT JUMPDEST PUSH1 0x40 MLOAD PUSH3 0x461BCD PUSH1 0xE5 SHL DUP2 MSTORE PUSH1 0x20 PUSH1 0x4 DUP3 ADD MSTORE PUSH1 0x24 DUP1 DUP3 ADD MSTORE PUSH32 0x45524332303A20617070726F76652066726F6D20746865207A65726F20616464 PUSH1 0x44 DUP3 ADD MSTORE PUSH4 0x72657373 PUSH1 0xE0 SHL PUSH1 0x64 DUP3 ADD MSTORE PUSH1 0x84 SWAP1 REVERT JUMPDEST PUSH1 0x1 PUSH1 0x1 PUSH1 0xA0 SHL SUB AND SWAP1 DUP2 ISZERO PUSH2 0x1A99 JUMPI PUSH1 0x1 PUSH1 0x1 PUSH1 0xA0 SHL SUB AND SWAP2 DUP3 ISZERO PUSH2 0x1A48 JUMPI DUP2 PUSH1 0x0 MSTORE PUSH1 0x0 PUSH1 0x20 MSTORE PUSH1 0x40 PUSH1 0x0 KECCAK256 SLOAD DUP2 DUP2 LT PUSH2 0x19F4 JUMPI DUP2 PUSH32 0xDDF252AD1BE2C89B69C2B068FC378DAA952BA7F163C4A11628F55A4DF523B3EF SWAP3 PUSH1 0x20 SWAP3 DUP6 PUSH1 0x0 MSTORE PUSH1 0x0 DUP5 MSTORE SUB PUSH1 0x40 PUSH1 0x0 KECCAK256 SSTORE DUP5 PUSH1 0x0 MSTORE PUSH1 0x0 DUP3 MSTORE PUSH1 0x40 PUSH1 0x0 KECCAK256 DUP2 DUP2 SLOAD ADD SWAP1 SSTORE PUSH1 0x40 MLOAD SWAP1 DUP2 MSTORE LOG3 JUMP JUMPDEST PUSH1 0x40 MLOAD PUSH3 0x461BCD PUSH1 0xE5 SHL DUP2 MSTORE PUSH1 0x20 PUSH1 0x4 DUP3 ADD MSTORE PUSH1 0x26 PUSH1 0x24 DUP3 ADD MSTORE PUSH32 0x45524332303A207472616E7366657220616D6F756E7420657863656564732062 PUSH1 0x44 DUP3 ADD MSTORE PUSH6 0x616C616E6365 PUSH1 0xD0 SHL PUSH1 0x64 DUP3 ADD MSTORE PUSH1 0x84 SWAP1 REVERT JUMPDEST PUSH1 0x40 MLOAD PUSH3 0x461BCD PUSH1 0xE5 SHL DUP2 MSTORE PUSH1 0x20 PUSH1 0x4 DUP3 ADD MSTORE PUSH1 0x23 PUSH1 0x24 DUP3 ADD MSTORE PUSH32 0x45524332303A207472616E7366657220746F20746865207A65726F2061646472 PUSH1 0x44 DUP3 ADD MSTORE PUSH3 0x657373 PUSH1 0xE8 SHL PUSH1 0x64 DUP3 ADD MSTORE PUSH1 0x84 SWAP1 REVERT JUMPDEST PUSH1 0x40 MLOAD PUSH3 0x461BCD PUSH1 0xE5 SHL DUP2 MSTORE PUSH1 0x20 PUSH1 0x4 DUP3 ADD MSTORE PUSH1 0x25 PUSH1 0x24 DUP3 ADD MSTORE PUSH32 0x45524332303A207472616E736665722066726F6D20746865207A65726F206164 PUSH1 0x44 DUP3 ADD MSTORE PUSH5 0x6472657373 PUSH1 0xD8 SHL PUSH1 0x64 DUP3 ADD MSTORE PUSH1 0x84 SWAP1 REVERT JUMPDEST PUSH1 0x5 SLOAD PUSH1 0x1 PUSH1 0x1 PUSH1 0xA0 SHL SUB AND CALLER SUB PUSH2 0x1B00 JUMPI JUMP JUMPDEST PUSH1 0x64 PUSH1 0x40 MLOAD PUSH3 0x461BCD PUSH1 0xE5 SHL DUP2 MSTORE PUSH1 0x20 PUSH1 0x4 DUP3 ADD MSTORE PUSH1 0x20 PUSH1 0x24 DUP3 ADD MSTORE PUSH32 0x4F776E61626C653A2063616C6C6572206973206E6F7420746865206F776E6572 PUSH1 0x44 DUP3 ADD MSTORE REVERT JUMPDEST PUSH1 0x0 DUP2 DUP2 MSTORE PUSH1 0x8 PUSH1 0x20 MSTORE PUSH1 0x40 DUP2 KECCAK256 PUSH1 0x5 DUP2 ADD PUSH1 0x1 PUSH1 0xFF NOT DUP3 SLOAD AND OR SWAP1 SSTORE PUSH1 0x7 DUP2 ADD SLOAD PUSH1 0x8 DUP3 ADD SLOAD LT SWAP2 PUSH1 0x1 DUP3 ADD DUP1 SLOAD DUP3 MSTORE PUSH1 0xA PUSH1 0x20 MSTORE PUSH2 0x1B93 DUP5 PUSH1 0x40 DUP5 KECCAK256 SWAP1 PUSH1 0xFF DUP1 NOT DUP4 SLOAD AND SWAP2 ISZERO ISZERO AND OR SWAP1 SSTORE JUMP JUMPDEST PUSH1 0xB SLOAD PUSH1 0x1 PUSH1 0x1 PUSH1 0xA0 SHL SUB AND SWAP1 DUP2 PUSH2 0x1BE3 JUMPI JUMPDEST POP POP POP PUSH1 0x6 ADD SLOAD PUSH1 0x40 DUP1 MLOAD SWAP3 ISZERO ISZERO DUP4 MSTORE PUSH1 0x20 DUP4 ADD SWAP2 SWAP1 SWAP2 MSTORE PUSH32 0x5ADD0B1FC2A3DFD95BE33D1D5FEB6709087E50213B7A73C3C3B2C387001221E7 SWAP2 LOG2 JUMP JUMPDEST SLOAD DUP2 EXTCODESIZE ISZERO PUSH2 0x1C55 JUMPI SWAP2 DUP1 DUP1 PUSH32 0x5ADD0B1FC2A3DFD95BE33D1D5FEB6709087E50213B7A73C3C3B2C387001221E7 SWAP7 SWAP6 SWAP4 PUSH1 0x44 PUSH1 0x6 SWAP7 PUSH1 0x40 MLOAD SWAP5 DUP6 SWAP4 DUP5 SWAP3 PUSH4 0x6D9131AB PUSH1 0xE1 SHL DUP5 MSTORE PUSH1 0x4 DUP5 ADD MSTORE DUP11 PUSH1 0x24 DUP5 ADD MSTORE GAS CALL PUSH2 0x1C45 JUMPI JUMPDEST POP DUP2 SWAP4 SWAP5 POP PUSH2 0x1BA6 JUMP JUMPDEST DUP2 PUSH2 0x1C4F SWAP2 PUSH2 0x15C8 JUMP JUMPDEST CODESIZE PUSH2 0x1C3B JUMP JUMPDEST DUP3 DUP1 REVERT INVALID XOR PUSH29 0xF2180CF205ABB3A86A43C8A0E9E92FFDC0D1029D2982B525B335A50EFE MLOAD LOG2 PUSH5 0x6970667358 0x22 SLT KECCAK256 SWAP9 0xEB PUSH31 0xF700E12091DACC8D725785EB8390C38B4913276FF4EA5607B31A500CBE6473 PUSH16 0x6C634300081C00330000000000000000 "},"methodIdentifiers":{"MINT_PRICE()":"c002d23d","MIN_VOTING_POWER()":"805a8142","allowance(address,address)":"dd62ed3e","approve(address,uint256)":"095ea7b3","balanceOf(address)":"70a08231","createDispute(uint256,string)":"9c32c447","decimals()":"313ce567","decreaseAllowance(address,uint256)":"a457c2d7","disputes(uint256)":"564a565d","flagContentForReview(uint256,string)":"add1e0d3","getDispute(uint256)":"e3a96cbd","getDisputesForIP(uint256)":"e499c043","getUserVote(uint256,address)":"03c7881a","hasActiveDisputes(uint256)":"16a0425e","hasVoted(uint256,address)":"43859632","increaseAllowance(address,uint256)":"39509351","ipRevoked(uint256)":"4c31b638","ipToDisputes(uint256,uint256)":"d08d6a48","ipnft()":"55ffbe04","mintGovernanceTokens()":"338ac581","name()":"06fdde03","owner()":"8da5cb5b","renounceOwnership()":"715018a6","resolveDispute(uint256)":"c2b7b868","setIPNFT(address)":"b0937baa","symbol()":"95d89b41","totalSupply()":"18160ddd","transfer(address,uint256)":"a9059cbb","transferFrom(address,address,uint256)":"23b872dd","transferOwnership(address)":"f2fde38b","voteOnDispute(uint256,bool)":"a4f5df12","withdrawFees()":"476343ee"}}}}}