{"contracts/IPNFT.sol":{"IPNFT":{"abi":[{"inputs":[{"internalType":"string","name":"name_","type":"string"},{"internalType":"string","name":"symbol_","type":"string"}],"stateMutability":"nonpayable","type":"constructor"},{"anonymous":false,"inputs":[{"indexed":true,"internalType":"address","name":"owner","type":"address"},{"indexed":true,"internalType":"address","name":"approved","type":"address"},{"indexed":true,"internalType":"uint256","name":"tokenId","type":"uint256"}],"name":"Approval","type":"event"},{"anonymous":false,"inputs":[{"indexed":true,"internalType":"address","name":"owner","type":"address"},{"indexed":true,"internalType":"address","name":"operator","type":"address"},{"indexed":false,"internalType":"bool","name":"approved","type":"bool"}],"name":"ApprovalForAll","type":"event"},{"anonymous":false,"inputs":[{"indexed":false,"internalType":"uint256","name":"_fromTokenId","type":"uint256"},{"indexed":false,"internalType":"uint256","name":"_toTokenId","type":"uint256"}],"name":"BatchMetadataUpdate","type":"event"},{"anonymous":false,"inputs":[{"indexed":true,"internalType":"uint256","name":"tokenId","type":"uint256"},{"indexed":true,"internalType":"address","name":"author","type":"address"},{"indexed":false,"internalType":"string","name":"metadataURI","type":"string"},{"indexed":false,"internalType":"bytes32","name":"contentHash","type":"bytes32"},{"indexed":false,"internalType":"address","name":"splitter","type":"address"}],"name":"IPMinted","type":"event"},{"anonymous":false,"inputs":[{"indexed":true,"internalType":"uint256","name":"tokenId","type":"uint256"},{"indexed":false,"internalType":"address","name":"licenseContract","type":"address"}],"name":"LicenseLinked","type":"event"},{"anonymous":false,"inputs":[{"indexed":false,"internalType":"uint256","name":"_tokenId","type":"uint256"}],"name":"MetadataUpdate","type":"event"},{"anonymous":false,"inputs":[{"indexed":true,"internalType":"address","name":"previousOwner","type":"address"},{"indexed":true,"internalType":"address","name":"newOwner","type":"address"}],"name":"OwnershipTransferred","type":"event"},{"anonymous":false,"inputs":[{"indexed":true,"internalType":"address","name":"from","type":"address"},{"indexed":true,"internalType":"address","name":"to","type":"address"},{"indexed":true,"internalType":"uint256","name":"tokenId","type":"uint256"}],"name":"Transfer","type":"event"},{"inputs":[{"internalType":"uint256","name":"parentTokenId","type":"uint256"},{"internalType":"uint256","name":"derivativeTokenId","type":"uint256"}],"name":"addDerivative","outputs":[],"stateMutability":"nonpayable","type":"function"},{"inputs":[{"internalType":"address","name":"to","type":"address"},{"internalType":"uint256","name":"tokenId","type":"uint256"}],"name":"approve","outputs":[],"stateMutability":"nonpayable","type":"function"},{"inputs":[{"internalType":"address","name":"owner","type":"address"}],"name":"balanceOf","outputs":[{"internalType":"uint256","name":"","type":"uint256"}],"stateMutability":"view","type":"function"},{"inputs":[{"internalType":"uint256","name":"tokenId","type":"uint256"}],"name":"getApproved","outputs":[{"internalType":"address","name":"","type":"address"}],"stateMutability":"view","type":"function"},{"inputs":[{"internalType":"uint256","name":"tokenId","type":"uint256"}],"name":"getDerivatives","outputs":[{"internalType":"uint256[]","name":"","type":"uint256[]"}],"stateMutability":"view","type":"function"},{"inputs":[{"internalType":"uint256","name":"tokenId","type":"uint256"}],"name":"getPaymentSplitter","outputs":[{"internalType":"address","name":"","type":"address"}],"stateMutability":"view","type":"function"},{"inputs":[{"internalType":"uint256","name":"","type":"uint256"}],"name":"ipInfo","outputs":[{"internalType":"string","name":"metadataURI","type":"string"},{"internalType":"bytes32","name":"contentHash","type":"bytes32"},{"internalType":"address","name":"paymentSplitter","type":"address"}],"stateMutability":"view","type":"function"},{"inputs":[{"internalType":"address","name":"owner","type":"address"},{"internalType":"address","name":"operator","type":"address"}],"name":"isApprovedForAll","outputs":[{"internalType":"bool","name":"","type":"bool"}],"stateMutability":"view","type":"function"},{"inputs":[{"internalType":"address","name":"author","type":"address"},{"internalType":"string","name":"metadataURI","type":"string"},{"internalType":"bytes32","name":"contentHash","type":"bytes32"},{"internalType":"address","name":"royaltyRecipient","type":"address"},{"internalType":"uint96","name":"royaltyBps","type":"uint96"},{"internalType":"address[]","name":"payees","type":"address[]"},{"internalType":"uint256[]","name":"shares","type":"uint256[]"}],"name":"mintIP","outputs":[{"internalType":"uint256","name":"","type":"uint256"}],"stateMutability":"nonpayable","type":"function"},{"inputs":[],"name":"name","outputs":[{"internalType":"string","name":"","type":"string"}],"stateMutability":"view","type":"function"},{"inputs":[],"name":"owner","outputs":[{"internalType":"address","name":"","type":"address"}],"stateMutability":"view","type":"function"},{"inputs":[{"internalType":"uint256","name":"tokenId","type":"uint256"}],"name":"ownerOf","outputs":[{"internalType":"address","name":"","type":"address"}],"stateMutability":"view","type":"function"},{"inputs":[],"name":"renounceOwnership","outputs":[],"stateMutability":"nonpayable","type":"function"},{"inputs":[{"internalType":"uint256","name":"tokenId","type":"uint256"},{"internalType":"uint256","name":"salePrice","type":"uint256"}],"name":"royaltyInfo","outputs":[{"internalType":"address","name":"","type":"address"},{"internalType":"uint256","name":"","type":"uint256"}],"stateMutability":"view","type":"function"},{"inputs":[{"internalType":"address","name":"from","type":"address"},{"internalType":"address","name":"to","type":"address"},{"internalType":"uint256","name":"tokenId","type":"uint256"}],"name":"safeTransferFrom","outputs":[],"stateMutability":"nonpayable","type":"function"},{"inputs":[{"internalType":"address","name":"from","type":"address"},{"internalType":"address","name":"to","type":"address"},{"internalType":"uint256","name":"tokenId","type":"uint256"},{"internalType":"bytes","name":"data","type":"bytes"}],"name":"safeTransferFrom","outputs":[],"stateMutability":"nonpayable","type":"function"},{"inputs":[{"internalType":"address","name":"operator","type":"address"},{"internalType":"bool","name":"approved","type":"bool"}],"name":"setApprovalForAll","outputs":[],"stateMutability":"nonpayable","type":"function"},{"inputs":[{"internalType":"bytes4","name":"interfaceId","type":"bytes4"}],"name":"supportsInterface","outputs":[{"internalType":"bool","name":"","type":"bool"}],"stateMutability":"view","type":"function"},{"inputs":[],"name":"symbol","outputs":[{"internalType":"string","name":"","type":"string"}],"stateMutability":"view","type":"function"},{"inputs":[{"internalType":"uint256","name":"tokenId","type":"uint256"}],"name":"tokenURI","outputs":[{"internalType":"string","name":"","type":"string"}],"stateMutability":"view","type":"function"},{"inputs":[{"internalType":"address","name":"from","type":"address"},{"internalType":"address","name":"to","type":"address"},{"internalType":"uint256","name":"tokenId","type":"uint256"}],"name":"transferFrom","outputs":[],"stateMutability":"nonpayable","type":"function"},{"inputs":[{"internalType":"address","name":"newOwner","type":"address"}],"name":"transferOwnership","outputs":[],"stateMutability":"nonpayable","type":"function"}],"evm":{"bytecode":{"linkReferences":{},"object":"60806040523461036c576130e48038038061001981610371565b92833981019060408183031261036c5780516001600160401b03811161036c5782610045918301610396565b60208201519092906001600160401b03811161036c576100659201610396565b81516001600160401b03811161027957600054600181811c91168015610362575b602082101461025957601f81116102fe575b50602092601f821160011461029a579281929360009261028f575b50508160011b916000199060031b1c1916176000555b80516001600160401b03811161027957600154600181811c9116801561026f575b602082101461025957601f81116101f4575b50602091601f821160011461019057918192600092610185575b50508160011b916000199060031b1c1916176001555b60098054336001600160a01b03198216811790925560405191906001600160a01b03167f8be0079c531659141344cd1fd0a4f28419497f9722a3daafe3b4186f6b6457e0600080a36001600b55612ce290816104028239f35b015190503880610116565b601f198216926001600052806000209160005b8581106101dc575083600195106101c3575b505050811b0160015561012c565b015160001960f88460031b161c191690553880806101b5565b919260206001819286850151815501940192016101a3565b60016000527fb10e2d527612073b26eecdfd717e6a320cf44b4afac2b0732d9fcbe2b7fa0cf6601f830160051c8101916020841061024f575b601f0160051c01905b81811061024357506100fc565b60008155600101610236565b909150819061022d565b634e487b7160e01b600052602260045260246000fd5b90607f16906100ea565b634e487b7160e01b600052604160045260246000fd5b0151905038806100b3565b601f1982169360008052806000209160005b8681106102e657508360019596106102cd575b505050811b016000556100c9565b015160001960f88460031b161c191690553880806102bf565b919260206001819286850151815501940192016102ac565b600080527f290decd9548b62a8d60345a988386fc84ba6bc95484008f6362f93160ef3e563601f830160051c81019160208410610358575b601f0160051c01905b81811061034c5750610098565b6000815560010161033f565b9091508190610336565b90607f1690610086565b600080fd5b6040519190601f01601f191682016001600160401b0381118382101761027957604052565b81601f8201121561036c578051906001600160401b038211610279576103c5601f8301601f1916602001610371565b928284526020838301011161036c5760005b8281106103ec57505060206000918301015290565b806020809284010151828287010152016103d756fe608080604052600436101561001357600080fd5b60003560e01c90816301ffc9a7146115175750806306fdde0314611472578063081812fc14611454578063095ea7b3146112cb57806310306ea81461118857806323b872dd146111645780632a55205a146110b5578063408dfac0146107a857806342842e0e146107735780636352211e146107435780636da4d7391461067157806370a08231146105da578063715018a61461057d5780638da5cb5b1461055457806394ad7478146104f057806395d89b4114610423578063a22cb46514610351578063b88d4fde146102ca578063c87b56dd14610293578063e985e9c514610238578063f283f18b146101de5763f2fde38b1461011157600080fd5b346101d95760203660031901126101d95761012a6115f5565b61013261196d565b6001600160a01b0316801561018557600980546001600160a01b0319811683179091556001600160a01b03167f8be0079c531659141344cd1fd0a4f28419497f9722a3daafe3b4186f6b6457e0600080a3005b60405162461bcd60e51b815260206004820152602660248201527f4f776e61626c653a206e6577206f776e657220697320746865207a65726f206160448201526564647265737360d01b6064820152608490fd5b600080fd5b346101d95760203660031901126101d957600435600081815260026020526040902054610215906001600160a01b03161515611936565b600052600a602052602060018060a01b0360026040600020015416604051908152f35b346101d95760403660031901126101d9576102516115f5565b61025961160b565b9060018060a01b0316600052600560205260406000209060018060a01b0316600052602052602060ff604060002054166040519015158152f35b346101d95760203660031901126101d9576102c66102b2600435611c3d565b6040519182916020835260208301906115b6565b0390f35b346101d95760803660031901126101d9576102e36115f5565b6102eb61160b565b90606435906044356001600160401b0383116101d957366023840112156101d95761034f9361032761034a9436906024816004013591016117d6565b9261033a61033584336119c5565b61184b565b610345838383611a98565b611daa565b611c19565b005b346101d95760403660031901126101d95761036a6115f5565b602435908115158092036101d9576001600160a01b0316903382146103de57336000526005602052604060002082600052602052604060002060ff1981541660ff83161790556040519081527f17307eab39ab6107e8899845ad3d59bd9653f200f220920489ca2b5937696c3160203392a3005b60405162461bcd60e51b815260206004820152601960248201527f4552433732313a20617070726f766520746f2063616c6c6572000000000000006044820152606490fd5b346101d95760003660031901126101d9576040516000600154610445816116a1565b80845290600181169081156104cc575060011461046d575b6102c6836102b2818503826116f6565b600160009081527fb10e2d527612073b26eecdfd717e6a320cf44b4afac2b0732d9fcbe2b7fa0cf6939250905b8082106104b2575090915081016020016102b261045d565b91926001816020925483858801015201910190929161049a565b60ff191660208086019190915291151560051b840190910191506102b2905061045d565b346101d95760203660031901126101d957600435600052600a602052610545604060002061051d81611717565b90600181015490600260018060a01b03910154166040519384936060855260608501906115b6565b91602084015260408301520390f35b346101d95760003660031901126101d9576009546040516001600160a01b039091168152602090f35b346101d95760003660031901126101d95761059661196d565b600980546001600160a01b031981169091556000906001600160a01b03167f8be0079c531659141344cd1fd0a4f28419497f9722a3daafe3b4186f6b6457e08280a3005b346101d95760203660031901126101d9576001600160a01b036105fb6115f5565b16801561061a5760005260036020526020604060002054604051908152f35b60405162461bcd60e51b815260206004820152602960248201527f4552433732313a2061646472657373207a65726f206973206e6f7420612076616044820152683634b21037bbb732b960b91b6064820152608490fd5b346101d95760203660031901126101d9576004356000818152600260205260409020546106a8906001600160a01b03161515611936565b600052600a60205260036040600020016040518060208354918281520190819360005260206000209060005b81811061072d57505050816106ea9103826116f6565b6040519182916020830190602084525180915260408301919060005b818110610714575050500390f35b8251845285945060209384019390920191600101610706565b82548452602090930192600192830192016106d4565b346101d95760203660031901126101d9576020610761600435611910565b6040516001600160a01b039091168152f35b346101d95761034f61034a61078736611637565b90604051926107976020856116f6565b6000845261033a61033584336119c5565b346101d95760e03660031901126101d9576107c16115f5565b602435906001600160401b0382116101d957366023830112156101d9576001600160401b038260040135116101d9573660248360040135840101116101d957606435916001600160a01b03831683036101d9576084356001600160601b03811681036101d95760a4356001600160401b0381116101d957610846903690600401611671565b9360c4356001600160401b0381116101d957610866903690600401611671565b9690956001600160a01b038316156110825787811480611079575b1561103c57600b5496600019881461102657879460018601600b5560209961096861034a8c6002604051916108b681846116f6565b60008084528c815260026020526040812054909c906108e1906001600160a01b031615155b15611e03565b600081815260026020526040902054610904906001600160a01b031615156108db565b6001600160a01b038c16808e52600383526040808f2080546001019055918e52929091528b2080546001600160a01b031916821790558d908b7fddf252ad1be2c89b69c2b068fc378daa952ba7f163c4a11628f55a4df523b3ef8180a48c89611c89565b61097a368a6004013560248c016117d6565b60008b8152600260205260409020546001600160a01b031615610fca578a885260068c5260408820908051906001600160401b038211610fb6578d82918b6109c286546116a1565b83601f8211610f88575b50505081601f8411600114610f2057508b92610f15575b50508160011b916000199060031b1c19161790555b7ff8e1a15aba9398e019f0b49df1a4fde98ee17ae345cb5f6b5e2c27f5033e8ce78b6040518c8152a160405193610e5d9085828101106001600160401b038388011117610ebd5781611e50873960408683018181529081018290526060019390895b818110610ee0575050508401808303908c01528082526001600160fb1b038111610edc579183918b9360051b8092858301370103019084f0938415610ed157604051610aa689826116f6565b84815284368137604051608081018181106001600160401b03821117610df757604052610adb36896004013560248b016117d6565b81526044358a82015260018060a01b038716604082015260608101918252888652600a8a526040862081519182516001600160401b038111610ebd57610b2183546116a1565b8d601f8211610e84575b50508c8d601f8311600114610e16575081906003958b92610e0b575b50508160011b9160001990861b1c19161782555b808c01516001830155604001516002820180546001600160a01b0319166001600160a01b0392909216919091179055915180519291909101906001600160401b038311610df757600160401b8311610df7578a908254848455808510610ddd575b50908a9897969594939291019086528a8620865b838110610dc857505050506001600160a01b03821615801580610db6575b610c7a575b5050507fe51f07e1d75d0ed3432ba1e428420f8f896579defc71c782e7c706706ca1a7ea92916080916040519384926060845288600401356060850152886004013560248a01868601376004909801358381018501989098526044358a8401526001600160a01b0390811660408401521695601f01601f19168101030190a3604051908152f35b909192939495506127106001600160601b03831611610d5e57610d1957928694926080927fe51f07e1d75d0ed3432ba1e428420f8f896579defc71c782e7c706706ca1a7ea9560405191610ccd836116db565b6001600160a01b0390811683526001600160601b03919091168b830190815288855260088c52604085209251905160a01b6001600160a01b031916911617905592939092918391610bf3565b60405162461bcd60e51b815260048101899052601b60248201527f455243323938313a20496e76616c696420706172616d657465727300000000006044820152606490fd5b60405162461bcd60e51b8152600481018a9052602a60248201527f455243323938313a20726f79616c7479206665652077696c6c206578636565646044820152692073616c65507269636560b01b6064820152608490fd5b506001600160601b0382161515610bee565b8251818301558b9950918c0191600101610bd0565b838952828920610df19181019086016118ad565b8c610bbc565b634e487b7160e01b87526041600452602487fd5b015190508e80610b47565b91929394858b52828b20928b905b601f1986168210610e6c5750509183916001936003979695601f19811610610e54575b505050811b018255610b5b565b015160001983881b60f8161c191690558e8080610e47565b80600185968294968601518155019501930190610e24565b848b52808b20610eac92601f850160051c8201928510610eb3575b601f0160051c01906118ad565b8d8d610b2b565b9091508190610e9f565b634e487b7160e01b89526041600452602489fd5b6040513d85823e3d90fd5b8680fd5b919490919085356001600160a01b0381168103610f11576001600160a01b031681528e01948e019190600101610a5a565b8b80fd5b015190508e806109e3565b935090848c52838c20918c945b601f1985168610610f6f57506001945083601f19811610610f56575b505050811b0190556109f8565b015160001960f88460031b161c191690558e8080610f49565b8282015184559485019460019093019291820191610f2d565b8288610fae945220601f860160051c810191858710610eb357601f0160051c01906118ad565b8b38836109cc565b634e487b7160e01b8a52604160045260248afd5b60405162461bcd60e51b8152600481018d9052602e60248201527f45524337323155524953746f726167653a2055524920736574206f66206e6f6e60448201526d32bc34b9ba32b73a103a37b5b2b760911b6064820152608490fd5b634e487b7160e01b600052601160045260246000fd5b60405162461bcd60e51b8152602060048201526015602482015274696e76616c6964207061796565732f73686172657360581b6044820152606490fd5b50801515610881565b60405162461bcd60e51b815260206004820152600b60248201526a617574686f72207a65726f60a81b6044820152606490fd5b346101d9576110c336611621565b9060005260086020526040600020604051906110de826116db565b546001600160a01b03811680835260a09190911c60208301521561113b575b6001600160601b03602082015116918281029281840414901517156110265751604080516001600160a01b0390921682526127109092046020820152f35b50604051611148816116db565b6007546001600160a01b038116825260a01c60208201526110fd565b346101d95761034f61117536611637565b9161118361033584336119c5565b611a98565b346101d95761119636611621565b9061119f61196d565b6000818152600260205260409020546001600160a01b031615611286576000828152600260205260409020546001600160a01b03161561124157600052600a6020526003604060002001805490600160401b82101561122b57600182018082558210156112155760005260206000200155600080f35b634e487b7160e01b600052603260045260246000fd5b634e487b7160e01b600052604160045260246000fd5b60405162461bcd60e51b815260206004820152601e60248201527f6465726976617469766520746f6b656e20646f65736e277420657869737400006044820152606490fd5b60405162461bcd60e51b815260206004820152601a60248201527f706172656e7420746f6b656e20646f65736e27742065786973740000000000006044820152606490fd5b346101d95760403660031901126101d9576112e46115f5565b602435906001600160a01b036112f983611910565b6001600160a01b039092169116818114611405578033149081156113e0575b501561137557600082815260046020526040902080546001600160a01b031916821790556001600160a01b0361134d83611910565b167f8c5be1e5ebec7d5bd14f71427d1e84f3dd0314c0f7b2291e5b200ac8c7c3b925600080a4005b60405162461bcd60e51b815260206004820152603d60248201527f4552433732313a20617070726f76652063616c6c6572206973206e6f7420746f60448201527f6b656e206f776e6572206f7220617070726f76656420666f7220616c6c0000006064820152608490fd5b600090815260056020908152604080832033845290915290205460ff16905083611318565b60405162461bcd60e51b815260206004820152602160248201527f4552433732313a20617070726f76616c20746f2063757272656e74206f776e656044820152603960f91b6064820152608490fd5b346101d95760203660031901126101d957602061076160043561180d565b346101d95760003660031901126101d95760405160008054611493816116a1565b80845290600181169081156104cc57506001146114ba576102c6836102b2818503826116f6565b60008080527f290decd9548b62a8d60345a988386fc84ba6bc95484008f6362f93160ef3e563939250905b8082106114fd575090915081016020016102b261045d565b9192600181602092548385880101520191019092916114e5565b346101d95760203660031901126101d9576004359063ffffffff60e01b82168092036101d95760209163152a902d60e11b8114908115611559575b5015158152f35b632483248360e11b811491508115611573575b5083611552565b6380ac58cd60e01b8114915081156115a5575b8115611594575b508361156c565b6301ffc9a760e01b1490508361158d565b635b5e139f60e01b81149150611586565b919082518082526020808301940160005b8281106115e5575050600081602094950152601f8019910116010190565b81810151868201526020016115c7565b600435906001600160a01b03821682036101d957565b602435906001600160a01b03821682036101d957565b60409060031901126101d9576004359060243590565b60609060031901126101d9576004356001600160a01b03811681036101d957906024356001600160a01b03811681036101d9579060443590565b9181601f840112156101d9578235916001600160401b0383116101d9576020808501948460051b0101116101d957565b90600182811c921680156116d1575b60208310146116bb57565b634e487b7160e01b600052602260045260246000fd5b91607f16916116b0565b604081019081106001600160401b0382111761122b57604052565b90601f801991011681019081106001600160401b0382111761122b57604052565b906040519182600082549261172b846116a1565b80845293600181169081156117995750600114611752575b50611750925003836116f6565b565b90506000929192526020600020906000915b81831061177d5750509060206117509282010138611743565b6020919350806001915483858901015201910190918492611764565b90506020925061175094915060ff191682840152151560051b82010138611743565b6001600160401b03811161122b57601f01601f191660200190565b9291926117e2826117bb565b916117f060405193846116f6565b8294818452818301116101d9578281602093846000960137010152565b600081815260026020526040902054611830906001600160a01b031615156118c4565b6000908152600460205260409020546001600160a01b031690565b1561185257565b60405162461bcd60e51b815260206004820152602d60248201527f4552433732313a2063616c6c6572206973206e6f7420746f6b656e206f776e6560448201526c1c881bdc88185c1c1c9bdd9959609a1b6064820152608490fd5b8181106118b8575050565b600081556001016118ad565b156118cb57565b60405162461bcd60e51b815260206004820152601860248201527f4552433732313a20696e76616c696420746f6b656e20494400000000000000006044820152606490fd5b6000908152600260205260409020546001600160a01b03166119338115156118c4565b90565b1561193d57565b60405162461bcd60e51b81526020600482015260086024820152673737903a37b5b2b760c11b6044820152606490fd5b6009546001600160a01b0316330361198157565b606460405162461bcd60e51b815260206004820152602060248201527f4f776e61626c653a2063616c6c6572206973206e6f7420746865206f776e65726044820152fd5b906001600160a01b036119d782611910565b6001600160a01b0390931692168281149291908315611a17575b5082156119fd57505090565b9091506001600160a01b0390611a129061180d565b161490565b909250600052600560205260406000208160005260205260ff6040600020541691386119f1565b15611a4557565b60405162461bcd60e51b815260206004820152602560248201527f4552433732313a207472616e736665722066726f6d20696e636f72726563742060448201526437bbb732b960d91b6064820152608490fd5b90611ab9611aa584611910565b6001600160a01b0393841693168314611a3e565b6001600160a01b0316908115611b7557611ae5816001600160a01b03611ade86611910565b1614611a3e565b82600052600460205260406000206001600160601b0360a01b8154169055806000526003602052604060002060001981540190558160005260036020526040600020600181540190558260005260026020526040600020826001600160601b0360a01b8254161790557fddf252ad1be2c89b69c2b068fc378daa952ba7f163c4a11628f55a4df523b3ef600080a4565b60405162461bcd60e51b8152602060048201526024808201527f4552433732313a207472616e7366657220746f20746865207a65726f206164646044820152637265737360e01b6064820152608490fd5b60809060208152603260208201527f4552433732313a207472616e7366657220746f206e6f6e20455243373231526560408201527131b2b4bb32b91034b6b83632b6b2b73a32b960711b60608201520190565b15611c2057565b60405162461bcd60e51b815280611c3960048201611bc6565b0390fd5b600081815260026020526040902054611c60906001600160a01b031615156118c4565b6000526006602052611c756040600020611717565b6000604051611c856020826116f6565b5290565b91823b15611da257611ccf926020926000604051809681958294630a85bd0160e11b845233600485015284602485015260448401526080606484015260848301906115b6565b03926001600160a01b03165af18091600091611d58575b5090611d42573d15611d3b573d611cfc816117bb565b90611d0a60405192836116f6565b81523d6000602083013e5b80519081611d365760405162461bcd60e51b815280611c3960048201611bc6565b602001fd5b6060611d15565b6001600160e01b031916630a85bd0160e11b1490565b6020813d602011611d9a575b81611d71602093836116f6565b81010312611d965751906001600160e01b031982168203611d93575038611ce6565b80fd5b5080fd5b3d9150611d64565b505050600190565b919290803b15611dfa57611ccf93600060209460405196879586948593630a85bd0160e11b855233600486015260018060a01b0316602485015260448401526080606484015260848301906115b6565b50505050600190565b15611e0a57565b60405162461bcd60e51b815260206004820152601c60248201527f4552433732313a20746f6b656e20616c7265616479206d696e746564000000006044820152606490fdfe6080604052610e5d80380380610014816103fc565b9283398101906040818303126103d75780516001600160401b0381116103d75781019082601f830112156103d757815161005561005082610421565b6103fc565b9260208085848152019260051b820101908582116103d757602001915b8183106103dc575050506020810151906001600160401b0382116103d757019180601f840112156103d75782516100ab61005082610421565b9360208086848152019260051b8201019283116103d757602001905b8282106103c7575050508051825103610367578051156103225760005b8151811015610313576001600160a01b036100ff8284610438565b51169061010c8185610438565b5182156102b95780156102745782600052600260205260406000205461021b57600454680100000000000000008110156102055760018101806004558110156101ef577f8a35acfbc15ff81a39ae7d344fd709f28e8600b4aa8c65c6b64bfe7fe36bd19b0180546001600160a01b031916841790556000838152600260205260408120829055548082019081106101d9576001937f40c340f65e17194d14ddddb073d3c9f888e3cb52b5aae0c6c7706b4fbc905fac9260409260005582519182526020820152a1016100e4565b634e487b7160e01b600052601160045260246000fd5b634e487b7160e01b600052603260045260246000fd5b634e487b7160e01b600052604160045260246000fd5b60405162461bcd60e51b815260206004820152602b60248201527f5061796d656e7453706c69747465723a206163636f756e7420616c726561647960448201526a206861732073686172657360a81b6064820152608490fd5b60405162461bcd60e51b815260206004820152601d60248201527f5061796d656e7453706c69747465723a207368617265732061726520300000006044820152606490fd5b60405162461bcd60e51b815260206004820152602c60248201527f5061796d656e7453706c69747465723a206163636f756e74206973207468652060448201526b7a65726f206164647265737360a01b6064820152608490fd5b604051610a10908161044d8239f35b60405162461bcd60e51b815260206004820152601a60248201527f5061796d656e7453706c69747465723a206e6f207061796565730000000000006044820152606490fd5b60405162461bcd60e51b815260206004820152603260248201527f5061796d656e7453706c69747465723a2070617965657320616e6420736861726044820152710cae640d8cadccee8d040dad2e6dac2e8c6d60731b6064820152608490fd5b81518152602091820191016100c7565b600080fd5b82516001600160a01b03811681036103d757815260209283019201610072565b6040519190601f01601f191682016001600160401b0381118382101761020557604052565b6001600160401b0381116102055760051b60200190565b80518210156101ef5760209160051b01019056fe6080604052600436101561004c575b361561001957600080fd5b604080513381523460208201527f6ef95f06320e7a25a04a175ca677b7052bdd97131872c2192525a629f51be7709190a1005b60003560e01c806319165587146104c95780633a98ef39146104ab578063406072a91461045a57806348b75044146102635780638b83209b146101f25780639852595c146101b8578063a3f8eace14610195578063c45ac05014610161578063ce7c2ac214610127578063d79779b2146100ed5763e33b7de30361000e57346100e85760003660031901126100e8576020600154604051908152f35b600080fd5b346100e85760203660031901126100e8576001600160a01b0361010e61063f565b1660005260056020526020604060002054604051908152f35b346100e85760203660031901126100e8576001600160a01b0361014861063f565b1660005260026020526020604060002054604051908152f35b346100e85760403660031901126100e857602061018d61017f61063f565b610187610655565b906107b4565b604051908152f35b346100e85760203660031901126100e857602061018d6101b361063f565b610749565b346100e85760203660031901126100e8576001600160a01b036101d961063f565b1660005260036020526020604060002054604051908152f35b346100e85760203660031901126100e85760043560045481101561024d5760046000527f8a35acfbc15ff81a39ae7d344fd709f28e8600b4aa8c65c6b64bfe7fe36bd19b01546040516001600160a01b039091168152602090f35b634e487b7160e01b600052603260045260246000fd5b346100e85760403660031901126100e85761027c61063f565b610284610655565b9060018060a01b03821660005260026020526102a6604060002054151561066b565b6102b082826107b4565b906102bc8215156106c6565b60018060a01b03169081600052600560205260406000206102de828254610726565b905560008281526006602090815260408083206001600160a01b038716808552908352928190208054850190555163a9059cbb60e01b918101918252602481019290925260448083018490528252939061038f9061033d60648261077c565b6000806040978851936103508a8661077c565b602085527f5361666545524332303a206c6f772d6c6576656c2063616c6c206661696c65646020860152519082895af1610388610872565b908661090a565b8051908115918215610437575b5050156103e05792516001600160a01b0390931683526020830152907f3be5b7a71e84ed12875d241991c70855ac5817d847039e17a9d895c1ceb0f18a90604090a2005b835162461bcd60e51b815260206004820152602a60248201527f5361666545524332303a204552433230206f7065726174696f6e20646964206e6044820152691bdd081cdd58d8d9595960b21b6064820152608490fd5b81925090602091810103126100e8576020015180151581036100e857858061039c565b346100e85760403660031901126100e85761047361063f565b61047b610655565b6001600160a01b039182166000908152600660209081526040808320949093168252928352819020549051908152f35b346100e85760003660031901126100e8576020600054604051908152f35b346100e85760203660031901126100e8576004356001600160a01b038116908190036100e857806000526002602052610508604060002054151561066b565b61051181610749565b61051c8115156106c6565b61052881600154610726565b60015581600052600360205260406000208181540190558047106105fa57600080808084865af1610557610872565b501561058f577fdf20fd1e76bc69d672e4814fafb2c449bba3a5369d8359adf9e05e6fde87b0569160409182519182526020820152a1005b60405162461bcd60e51b815260206004820152603a60248201527f416464726573733a20756e61626c6520746f2073656e642076616c75652c207260448201527f6563697069656e74206d617920686176652072657665727465640000000000006064820152608490fd5b60405162461bcd60e51b815260206004820152601d60248201527f416464726573733a20696e73756666696369656e742062616c616e63650000006044820152606490fd5b600435906001600160a01b03821682036100e857565b602435906001600160a01b03821682036100e857565b1561067257565b60405162461bcd60e51b815260206004820152602660248201527f5061796d656e7453706c69747465723a206163636f756e7420686173206e6f2060448201526573686172657360d01b6064820152608490fd5b156106cd57565b60405162461bcd60e51b815260206004820152602b60248201527f5061796d656e7453706c69747465723a206163636f756e74206973206e6f742060448201526a191d59481c185e5b595b9d60aa1b6064820152608490fd5b9190820180921161073357565b634e487b7160e01b600052601160045260246000fd5b6107799061075a4760015490610726565b6001600160a01b038216600090815260036020526040902054916108b2565b90565b90601f8019910116810190811067ffffffffffffffff82111761079e57604052565b634e487b7160e01b600052604160045260246000fd5b6040516370a0823160e01b815230600482015291906001600160a01b0316602083602481845afa92831561086657600093610830575b506108076107799382600052600560205260406000205490610726565b906000526006602052604060002060018060a01b038316600052602052604060002054916108b2565b92506020833d60201161085e575b8161084b6020938361077c565b810103126100e8579151916108076107ea565b3d915061083e565b6040513d6000823e3d90fd5b3d156108ad573d9067ffffffffffffffff821161079e57604051916108a1601f8201601f19166020018461077c565b82523d6000602084013e565b606090565b6001600160a01b03166000908152600260205260409020548181029180159083049091141715610733576000549081156108f457049081039081116107335790565b634e487b7160e01b600052601260045260246000fd5b9192901561096c575081511561091e575090565b3b156109275790565b60405162461bcd60e51b815260206004820152601d60248201527f416464726573733a2063616c6c20746f206e6f6e2d636f6e74726163740000006044820152606490fd5b82519091501561097f5750805190602001fd5b6040519062461bcd60e51b8252602060048301528181519182602483015260005b8381106109c25750508160006044809484010152601f80199101168101030190fd5b602082820181015160448784010152859350016109a056fea2646970667358221220ef48195f761abf4e73ea1f92dee91adc62afaff9283169510c8307e22919deef64736f6c634300081c0033a26469706673582212201214207ddb266f58a0a9f52bacba0fdd47a4d66333fca9e1e0324bb60a9c9d0264736f6c634300081c0033","opcodes":"PUSH1 0x80 PUSH1 0x40 MSTORE CALLVALUE PUSH2 0x36C JUMPI PUSH2 0x30E4 DUP1 CODESIZE SUB DUP1 PUSH2 0x19 DUP2 PUSH2 0x371 JUMP JUMPDEST SWAP3 DUP4 CODECOPY DUP2 ADD SWAP1 PUSH1 0x40 DUP2 DUP4 SUB SLT PUSH2 0x36C JUMPI DUP1 MLOAD PUSH1 0x1 PUSH1 0x1 PUSH1 0x40 SHL SUB DUP2 GT PUSH2 0x36C JUMPI DUP3 PUSH2 0x45 SWAP2 DUP4 ADD PUSH2 0x396 JUMP JUMPDEST PUSH1 0x20 DUP3 ADD MLOAD SWAP1 SWAP3 SWAP1 PUSH1 0x1 PUSH1 0x1 PUSH1 0x40 SHL SUB DUP2 GT PUSH2 0x36C JUMPI PUSH2 0x65 SWAP3 ADD PUSH2 0x396 JUMP JUMPDEST DUP2 MLOAD PUSH1 0x1 PUSH1 0x1 PUSH1 0x40 SHL SUB DUP2 GT PUSH2 0x279 JUMPI PUSH1 0x0 SLOAD PUSH1 0x1 DUP2 DUP2 SHR SWAP2 AND DUP1 ISZERO PUSH2 0x362 JUMPI JUMPDEST PUSH1 0x20 DUP3 LT EQ PUSH2 0x259 JUMPI PUSH1 0x1F DUP2 GT PUSH2 0x2FE JUMPI JUMPDEST POP PUSH1 0x20 SWAP3 PUSH1 0x1F DUP3 GT PUSH1 0x1 EQ PUSH2 0x29A JUMPI SWAP3 DUP2 SWAP3 SWAP4 PUSH1 0x0 SWAP3 PUSH2 0x28F JUMPI JUMPDEST POP POP DUP2 PUSH1 0x1 SHL SWAP2 PUSH1 0x0 NOT SWAP1 PUSH1 0x3 SHL SHR NOT AND OR PUSH1 0x0 SSTORE JUMPDEST DUP1 MLOAD PUSH1 0x1 PUSH1 0x1 PUSH1 0x40 SHL SUB DUP2 GT PUSH2 0x279 JUMPI PUSH1 0x1 SLOAD PUSH1 0x1 DUP2 DUP2 SHR SWAP2 AND DUP1 ISZERO PUSH2 0x26F JUMPI JUMPDEST PUSH1 0x20 DUP3 LT EQ PUSH2 0x259 JUMPI PUSH1 0x1F DUP2 GT PUSH2 0x1F4 JUMPI JUMPDEST POP PUSH1 0x20 SWAP2 PUSH1 0x1F DUP3 GT PUSH1 0x1 EQ PUSH2 0x190 JUMPI SWAP2 DUP2 SWAP3 PUSH1 0x0 SWAP3 PUSH2 0x185 JUMPI JUMPDEST POP POP DUP2 PUSH1 0x1 SHL SWAP2 PUSH1 0x0 NOT SWAP1 PUSH1 0x3 SHL SHR NOT AND OR PUSH1 0x1 SSTORE JUMPDEST PUSH1 0x9 DUP1 SLOAD CALLER PUSH1 0x1 PUSH1 0x1 PUSH1 0xA0 SHL SUB NOT DUP3 AND DUP2 OR SWAP1 SWAP3 SSTORE PUSH1 0x40 MLOAD SWAP2 SWAP1 PUSH1 0x1 PUSH1 0x1 PUSH1 0xA0 SHL SUB AND PUSH32 0x8BE0079C531659141344CD1FD0A4F28419497F9722A3DAAFE3B4186F6B6457E0 PUSH1 0x0 DUP1 LOG3 PUSH1 0x1 PUSH1 0xB SSTORE PUSH2 0x2CE2 SWAP1 DUP2 PUSH2 0x402 DUP3 CODECOPY RETURN JUMPDEST ADD MLOAD SWAP1 POP CODESIZE DUP1 PUSH2 0x116 JUMP JUMPDEST PUSH1 0x1F NOT DUP3 AND SWAP3 PUSH1 0x1 PUSH1 0x0 MSTORE DUP1 PUSH1 0x0 KECCAK256 SWAP2 PUSH1 0x0 JUMPDEST DUP6 DUP2 LT PUSH2 0x1DC JUMPI POP DUP4 PUSH1 0x1 SWAP6 LT PUSH2 0x1C3 JUMPI JUMPDEST POP POP POP DUP2 SHL ADD PUSH1 0x1 SSTORE PUSH2 0x12C JUMP JUMPDEST ADD MLOAD PUSH1 0x0 NOT PUSH1 0xF8 DUP5 PUSH1 0x3 SHL AND SHR NOT AND SWAP1 SSTORE CODESIZE DUP1 DUP1 PUSH2 0x1B5 JUMP JUMPDEST SWAP2 SWAP3 PUSH1 0x20 PUSH1 0x1 DUP2 SWAP3 DUP7 DUP6 ADD MLOAD DUP2 SSTORE ADD SWAP5 ADD SWAP3 ADD PUSH2 0x1A3 JUMP JUMPDEST PUSH1 0x1 PUSH1 0x0 MSTORE PUSH32 0xB10E2D527612073B26EECDFD717E6A320CF44B4AFAC2B0732D9FCBE2B7FA0CF6 PUSH1 0x1F DUP4 ADD PUSH1 0x5 SHR DUP2 ADD SWAP2 PUSH1 0x20 DUP5 LT PUSH2 0x24F JUMPI JUMPDEST PUSH1 0x1F ADD PUSH1 0x5 SHR ADD SWAP1 JUMPDEST DUP2 DUP2 LT PUSH2 0x243 JUMPI POP PUSH2 0xFC JUMP JUMPDEST PUSH1 0x0 DUP2 SSTORE PUSH1 0x1 ADD PUSH2 0x236 JUMP JUMPDEST SWAP1 SWAP2 POP DUP2 SWAP1 PUSH2 0x22D JUMP JUMPDEST PUSH4 0x4E487B71 PUSH1 0xE0 SHL PUSH1 0x0 MSTORE PUSH1 0x22 PUSH1 0x4 MSTORE PUSH1 0x24 PUSH1 0x0 REVERT JUMPDEST SWAP1 PUSH1 0x7F AND SWAP1 PUSH2 0xEA JUMP JUMPDEST PUSH4 0x4E487B71 PUSH1 0xE0 SHL PUSH1 0x0 MSTORE PUSH1 0x41 PUSH1 0x4 MSTORE PUSH1 0x24 PUSH1 0x0 REVERT JUMPDEST ADD MLOAD SWAP1 POP CODESIZE DUP1 PUSH2 0xB3 JUMP JUMPDEST PUSH1 0x1F NOT DUP3 AND SWAP4 PUSH1 0x0 DUP1 MSTORE DUP1 PUSH1 0x0 KECCAK256 SWAP2 PUSH1 0x0 JUMPDEST DUP7 DUP2 LT PUSH2 0x2E6 JUMPI POP DUP4 PUSH1 0x1 SWAP6 SWAP7 LT PUSH2 0x2CD JUMPI JUMPDEST POP POP POP DUP2 SHL ADD PUSH1 0x0 SSTORE PUSH2 0xC9 JUMP JUMPDEST ADD MLOAD PUSH1 0x0 NOT PUSH1 0xF8 DUP5 PUSH1 0x3 SHL AND SHR NOT AND SWAP1 SSTORE CODESIZE DUP1 DUP1 PUSH2 0x2BF JUMP JUMPDEST SWAP2 SWAP3 PUSH1 0x20 PUSH1 0x1 DUP2 SWAP3 DUP7 DUP6 ADD MLOAD DUP2 SSTORE ADD SWAP5 ADD SWAP3 ADD PUSH2 0x2AC JUMP JUMPDEST PUSH1 0x0 DUP1 MSTORE PUSH32 0x290DECD9548B62A8D60345A988386FC84BA6BC95484008F6362F93160EF3E563 PUSH1 0x1F DUP4 ADD PUSH1 0x5 SHR DUP2 ADD SWAP2 PUSH1 0x20 DUP5 LT PUSH2 0x358 JUMPI JUMPDEST PUSH1 0x1F ADD PUSH1 0x5 SHR ADD SWAP1 JUMPDEST DUP2 DUP2 LT PUSH2 0x34C JUMPI POP PUSH2 0x98 JUMP JUMPDEST PUSH1 0x0 DUP2 SSTORE PUSH1 0x1 ADD PUSH2 0x33F JUMP JUMPDEST SWAP1 SWAP2 POP DUP2 SWAP1 PUSH2 0x336 JUMP JUMPDEST SWAP1 PUSH1 0x7F AND SWAP1 PUSH2 0x86 JUMP JUMPDEST PUSH1 0x0 DUP1 REVERT JUMPDEST PUSH1 0x40 MLOAD SWAP2 SWAP1 PUSH1 0x1F ADD PUSH1 0x1F NOT AND DUP3 ADD PUSH1 0x1 PUSH1 0x1 PUSH1 0x40 SHL SUB DUP2 GT DUP4 DUP3 LT OR PUSH2 0x279 JUMPI PUSH1 0x40 MSTORE JUMP JUMPDEST DUP2 PUSH1 0x1F DUP3 ADD SLT ISZERO PUSH2 0x36C JUMPI DUP1 MLOAD SWAP1 PUSH1 0x1 PUSH1 0x1 PUSH1 0x40 SHL SUB DUP3 GT PUSH2 0x279 JUMPI PUSH2 0x3C5 PUSH1 0x1F DUP4 ADD PUSH1 0x1F NOT AND PUSH1 0x20 ADD PUSH2 0x371 JUMP JUMPDEST SWAP3 DUP3 DUP5 MSTORE PUSH1 0x20 DUP4 DUP4 ADD ADD GT PUSH2 0x36C JUMPI PUSH1 0x0 JUMPDEST DUP3 DUP2 LT PUSH2 0x3EC JUMPI POP POP PUSH1 0x20 PUSH1 0x0 SWAP2 DUP4 ADD ADD MSTORE SWAP1 JUMP JUMPDEST DUP1 PUSH1 0x20 DUP1 SWAP3 DUP5 ADD ADD MLOAD DUP3 DUP3 DUP8 ADD ADD MSTORE ADD PUSH2 0x3D7 JUMP INVALID PUSH1 0x80 DUP1 PUSH1 0x40 MSTORE PUSH1 0x4 CALLDATASIZE LT ISZERO PUSH2 0x13 JUMPI PUSH1 0x0 DUP1 REVERT JUMPDEST PUSH1 0x0 CALLDATALOAD PUSH1 0xE0 SHR SWAP1 DUP2 PUSH4 0x1FFC9A7 EQ PUSH2 0x1517 JUMPI POP DUP1 PUSH4 0x6FDDE03 EQ PUSH2 0x1472 JUMPI DUP1 PUSH4 0x81812FC EQ PUSH2 0x1454 JUMPI DUP1 PUSH4 0x95EA7B3 EQ PUSH2 0x12CB JUMPI DUP1 PUSH4 0x10306EA8 EQ PUSH2 0x1188 JUMPI DUP1 PUSH4 0x23B872DD EQ PUSH2 0x1164 JUMPI DUP1 PUSH4 0x2A55205A EQ PUSH2 0x10B5 JUMPI DUP1 PUSH4 0x408DFAC0 EQ PUSH2 0x7A8 JUMPI DUP1 PUSH4 0x42842E0E EQ PUSH2 0x773 JUMPI DUP1 PUSH4 0x6352211E EQ PUSH2 0x743 JUMPI DUP1 PUSH4 0x6DA4D739 EQ PUSH2 0x671 JUMPI DUP1 PUSH4 0x70A08231 EQ PUSH2 0x5DA JUMPI DUP1 PUSH4 0x715018A6 EQ PUSH2 0x57D JUMPI DUP1 PUSH4 0x8DA5CB5B EQ PUSH2 0x554 JUMPI DUP1 PUSH4 0x94AD7478 EQ PUSH2 0x4F0 JUMPI DUP1 PUSH4 0x95D89B41 EQ PUSH2 0x423 JUMPI DUP1 PUSH4 0xA22CB465 EQ PUSH2 0x351 JUMPI DUP1 PUSH4 0xB88D4FDE EQ PUSH2 0x2CA JUMPI DUP1 PUSH4 0xC87B56DD EQ PUSH2 0x293 JUMPI DUP1 PUSH4 0xE985E9C5 EQ PUSH2 0x238 JUMPI DUP1 PUSH4 0xF283F18B EQ PUSH2 0x1DE JUMPI PUSH4 0xF2FDE38B EQ PUSH2 0x111 JUMPI PUSH1 0x0 DUP1 REVERT JUMPDEST CALLVALUE PUSH2 0x1D9 JUMPI PUSH1 0x20 CALLDATASIZE PUSH1 0x3 NOT ADD SLT PUSH2 0x1D9 JUMPI PUSH2 0x12A PUSH2 0x15F5 JUMP JUMPDEST PUSH2 0x132 PUSH2 0x196D JUMP JUMPDEST PUSH1 0x1 PUSH1 0x1 PUSH1 0xA0 SHL SUB AND DUP1 ISZERO PUSH2 0x185 JUMPI PUSH1 0x9 DUP1 SLOAD PUSH1 0x1 PUSH1 0x1 PUSH1 0xA0 SHL SUB NOT DUP2 AND DUP4 OR SWAP1 SWAP2 SSTORE PUSH1 0x1 PUSH1 0x1 PUSH1 0xA0 SHL SUB AND PUSH32 0x8BE0079C531659141344CD1FD0A4F28419497F9722A3DAAFE3B4186F6B6457E0 PUSH1 0x0 DUP1 LOG3 STOP JUMPDEST PUSH1 0x40 MLOAD PUSH3 0x461BCD PUSH1 0xE5 SHL DUP2 MSTORE PUSH1 0x20 PUSH1 0x4 DUP3 ADD MSTORE PUSH1 0x26 PUSH1 0x24 DUP3 ADD MSTORE PUSH32 0x4F776E61626C653A206E6577206F776E657220697320746865207A65726F2061 PUSH1 0x44 DUP3 ADD MSTORE PUSH6 0x646472657373 PUSH1 0xD0 SHL PUSH1 0x64 DUP3 ADD MSTORE PUSH1 0x84 SWAP1 REVERT JUMPDEST PUSH1 0x0 DUP1 REVERT JUMPDEST CALLVALUE PUSH2 0x1D9 JUMPI PUSH1 0x20 CALLDATASIZE PUSH1 0x3 NOT ADD SLT PUSH2 0x1D9 JUMPI PUSH1 0x4 CALLDATALOAD PUSH1 0x0 DUP2 DUP2 MSTORE PUSH1 0x2 PUSH1 0x20 MSTORE PUSH1 0x40 SWAP1 KECCAK256 SLOAD PUSH2 0x215 SWAP1 PUSH1 0x1 PUSH1 0x1 PUSH1 0xA0 SHL SUB AND ISZERO ISZERO PUSH2 0x1936 JUMP JUMPDEST PUSH1 0x0 MSTORE PUSH1 0xA PUSH1 0x20 MSTORE PUSH1 0x20 PUSH1 0x1 DUP1 PUSH1 0xA0 SHL SUB PUSH1 0x2 PUSH1 0x40 PUSH1 0x0 KECCAK256 ADD SLOAD AND PUSH1 0x40 MLOAD SWAP1 DUP2 MSTORE RETURN JUMPDEST CALLVALUE PUSH2 0x1D9 JUMPI PUSH1 0x40 CALLDATASIZE PUSH1 0x3 NOT ADD SLT PUSH2 0x1D9 JUMPI PUSH2 0x251 PUSH2 0x15F5 JUMP JUMPDEST PUSH2 0x259 PUSH2 0x160B JUMP JUMPDEST SWAP1 PUSH1 0x1 DUP1 PUSH1 0xA0 SHL SUB AND PUSH1 0x0 MSTORE PUSH1 0x5 PUSH1 0x20 MSTORE PUSH1 0x40 PUSH1 0x0 KECCAK256 SWAP1 PUSH1 0x1 DUP1 PUSH1 0xA0 SHL SUB AND PUSH1 0x0 MSTORE PUSH1 0x20 MSTORE PUSH1 0x20 PUSH1 0xFF PUSH1 0x40 PUSH1 0x0 KECCAK256 SLOAD AND PUSH1 0x40 MLOAD SWAP1 ISZERO ISZERO DUP2 MSTORE RETURN JUMPDEST CALLVALUE PUSH2 0x1D9 JUMPI PUSH1 0x20 CALLDATASIZE PUSH1 0x3 NOT ADD SLT PUSH2 0x1D9 JUMPI PUSH2 0x2C6 PUSH2 0x2B2 PUSH1 0x4 CALLDATALOAD PUSH2 0x1C3D JUMP JUMPDEST PUSH1 0x40 MLOAD SWAP2 DUP3 SWAP2 PUSH1 0x20 DUP4 MSTORE PUSH1 0x20 DUP4 ADD SWAP1 PUSH2 0x15B6 JUMP JUMPDEST SUB SWAP1 RETURN JUMPDEST CALLVALUE PUSH2 0x1D9 JUMPI PUSH1 0x80 CALLDATASIZE PUSH1 0x3 NOT ADD SLT PUSH2 0x1D9 JUMPI PUSH2 0x2E3 PUSH2 0x15F5 JUMP JUMPDEST PUSH2 0x2EB PUSH2 0x160B JUMP JUMPDEST SWAP1 PUSH1 0x64 CALLDATALOAD SWAP1 PUSH1 0x44 CALLDATALOAD PUSH1 0x1 PUSH1 0x1 PUSH1 0x40 SHL SUB DUP4 GT PUSH2 0x1D9 JUMPI CALLDATASIZE PUSH1 0x23 DUP5 ADD SLT ISZERO PUSH2 0x1D9 JUMPI PUSH2 0x34F SWAP4 PUSH2 0x327 PUSH2 0x34A SWAP5 CALLDATASIZE SWAP1 PUSH1 0x24 DUP2 PUSH1 0x4 ADD CALLDATALOAD SWAP2 ADD PUSH2 0x17D6 JUMP JUMPDEST SWAP3 PUSH2 0x33A PUSH2 0x335 DUP5 CALLER PUSH2 0x19C5 JUMP JUMPDEST PUSH2 0x184B JUMP JUMPDEST PUSH2 0x345 DUP4 DUP4 DUP4 PUSH2 0x1A98 JUMP JUMPDEST PUSH2 0x1DAA JUMP JUMPDEST PUSH2 0x1C19 JUMP JUMPDEST STOP JUMPDEST CALLVALUE PUSH2 0x1D9 JUMPI PUSH1 0x40 CALLDATASIZE PUSH1 0x3 NOT ADD SLT PUSH2 0x1D9 JUMPI PUSH2 0x36A PUSH2 0x15F5 JUMP JUMPDEST PUSH1 0x24 CALLDATALOAD SWAP1 DUP2 ISZERO ISZERO DUP1 SWAP3 SUB PUSH2 0x1D9 JUMPI PUSH1 0x1 PUSH1 0x1 PUSH1 0xA0 SHL SUB AND SWAP1 CALLER DUP3 EQ PUSH2 0x3DE JUMPI CALLER PUSH1 0x0 MSTORE PUSH1 0x5 PUSH1 0x20 MSTORE PUSH1 0x40 PUSH1 0x0 KECCAK256 DUP3 PUSH1 0x0 MSTORE PUSH1 0x20 MSTORE PUSH1 0x40 PUSH1 0x0 KECCAK256 PUSH1 0xFF NOT DUP2 SLOAD AND PUSH1 0xFF DUP4 AND OR SWAP1 SSTORE PUSH1 0x40 MLOAD SWAP1 DUP2 MSTORE PUSH32 0x17307EAB39AB6107E8899845AD3D59BD9653F200F220920489CA2B5937696C31 PUSH1 0x20 CALLER SWAP3 LOG3 STOP JUMPDEST PUSH1 0x40 MLOAD PUSH3 0x461BCD PUSH1 0xE5 SHL DUP2 MSTORE PUSH1 0x20 PUSH1 0x4 DUP3 ADD MSTORE PUSH1 0x19 PUSH1 0x24 DUP3 ADD MSTORE PUSH32 0x4552433732313A20617070726F766520746F2063616C6C657200000000000000 PUSH1 0x44 DUP3 ADD MSTORE PUSH1 0x64 SWAP1 REVERT JUMPDEST CALLVALUE PUSH2 0x1D9 JUMPI PUSH1 0x0 CALLDATASIZE PUSH1 0x3 NOT ADD SLT PUSH2 0x1D9 JUMPI PUSH1 0x40 MLOAD PUSH1 0x0 PUSH1 0x1 SLOAD PUSH2 0x445 DUP2 PUSH2 0x16A1 JUMP JUMPDEST DUP1 DUP5 MSTORE SWAP1 PUSH1 0x1 DUP2 AND SWAP1 DUP2 ISZERO PUSH2 0x4CC JUMPI POP PUSH1 0x1 EQ PUSH2 0x46D JUMPI JUMPDEST PUSH2 0x2C6 DUP4 PUSH2 0x2B2 DUP2 DUP6 SUB DUP3 PUSH2 0x16F6 JUMP JUMPDEST PUSH1 0x1 PUSH1 0x0 SWAP1 DUP2 MSTORE PUSH32 0xB10E2D527612073B26EECDFD717E6A320CF44B4AFAC2B0732D9FCBE2B7FA0CF6 SWAP4 SWAP3 POP SWAP1 JUMPDEST DUP1 DUP3 LT PUSH2 0x4B2 JUMPI POP SWAP1 SWAP2 POP DUP2 ADD PUSH1 0x20 ADD PUSH2 0x2B2 PUSH2 0x45D JUMP JUMPDEST SWAP2 SWAP3 PUSH1 0x1 DUP2 PUSH1 0x20 SWAP3 SLOAD DUP4 DUP6 DUP9 ADD ADD MSTORE ADD SWAP2 ADD SWAP1 SWAP3 SWAP2 PUSH2 0x49A JUMP JUMPDEST PUSH1 0xFF NOT AND PUSH1 0x20 DUP1 DUP7 ADD SWAP2 SWAP1 SWAP2 MSTORE SWAP2 ISZERO ISZERO PUSH1 0x5 SHL DUP5 ADD SWAP1 SWAP2 ADD SWAP2 POP PUSH2 0x2B2 SWAP1 POP PUSH2 0x45D JUMP JUMPDEST CALLVALUE PUSH2 0x1D9 JUMPI PUSH1 0x20 CALLDATASIZE PUSH1 0x3 NOT ADD SLT PUSH2 0x1D9 JUMPI PUSH1 0x4 CALLDATALOAD PUSH1 0x0 MSTORE PUSH1 0xA PUSH1 0x20 MSTORE PUSH2 0x545 PUSH1 0x40 PUSH1 0x0 KECCAK256 PUSH2 0x51D DUP2 PUSH2 0x1717 JUMP JUMPDEST SWAP1 PUSH1 0x1 DUP2 ADD SLOAD SWAP1 PUSH1 0x2 PUSH1 0x1 DUP1 PUSH1 0xA0 SHL SUB SWAP2 ADD SLOAD AND PUSH1 0x40 MLOAD SWAP4 DUP5 SWAP4 PUSH1 0x60 DUP6 MSTORE PUSH1 0x60 DUP6 ADD SWAP1 PUSH2 0x15B6 JUMP JUMPDEST SWAP2 PUSH1 0x20 DUP5 ADD MSTORE PUSH1 0x40 DUP4 ADD MSTORE SUB SWAP1 RETURN JUMPDEST CALLVALUE PUSH2 0x1D9 JUMPI PUSH1 0x0 CALLDATASIZE PUSH1 0x3 NOT ADD SLT PUSH2 0x1D9 JUMPI PUSH1 0x9 SLOAD PUSH1 0x40 MLOAD PUSH1 0x1 PUSH1 0x1 PUSH1 0xA0 SHL SUB SWAP1 SWAP2 AND DUP2 MSTORE PUSH1 0x20 SWAP1 RETURN JUMPDEST CALLVALUE PUSH2 0x1D9 JUMPI PUSH1 0x0 CALLDATASIZE PUSH1 0x3 NOT ADD SLT PUSH2 0x1D9 JUMPI PUSH2 0x596 PUSH2 0x196D JUMP JUMPDEST PUSH1 0x9 DUP1 SLOAD PUSH1 0x1 PUSH1 0x1 PUSH1 0xA0 SHL SUB NOT DUP2 AND SWAP1 SWAP2 SSTORE PUSH1 0x0 SWAP1 PUSH1 0x1 PUSH1 0x1 PUSH1 0xA0 SHL SUB AND PUSH32 0x8BE0079C531659141344CD1FD0A4F28419497F9722A3DAAFE3B4186F6B6457E0 DUP3 DUP1 LOG3 STOP JUMPDEST CALLVALUE PUSH2 0x1D9 JUMPI PUSH1 0x20 CALLDATASIZE PUSH1 0x3 NOT ADD SLT PUSH2 0x1D9 JUMPI PUSH1 0x1 PUSH1 0x1 PUSH1 0xA0 SHL SUB PUSH2 0x5FB PUSH2 0x15F5 JUMP JUMPDEST AND DUP1 ISZERO PUSH2 0x61A JUMPI PUSH1 0x0 MSTORE PUSH1 0x3 PUSH1 0x20 MSTORE PUSH1 0x20 PUSH1 0x40 PUSH1 0x0 KECCAK256 SLOAD PUSH1 0x40 MLOAD SWAP1 DUP2 MSTORE RETURN JUMPDEST PUSH1 0x40 MLOAD PUSH3 0x461BCD PUSH1 0xE5 SHL DUP2 MSTORE PUSH1 0x20 PUSH1 0x4 DUP3 ADD MSTORE PUSH1 0x29 PUSH1 0x24 DUP3 ADD MSTORE PUSH32 0x4552433732313A2061646472657373207A65726F206973206E6F742061207661 PUSH1 0x44 DUP3 ADD MSTORE PUSH9 0x3634B21037BBB732B9 PUSH1 0xB9 SHL PUSH1 0x64 DUP3 ADD MSTORE PUSH1 0x84 SWAP1 REVERT JUMPDEST CALLVALUE PUSH2 0x1D9 JUMPI PUSH1 0x20 CALLDATASIZE PUSH1 0x3 NOT ADD SLT PUSH2 0x1D9 JUMPI PUSH1 0x4 CALLDATALOAD PUSH1 0x0 DUP2 DUP2 MSTORE PUSH1 0x2 PUSH1 0x20 MSTORE PUSH1 0x40 SWAP1 KECCAK256 SLOAD PUSH2 0x6A8 SWAP1 PUSH1 0x1 PUSH1 0x1 PUSH1 0xA0 SHL SUB AND ISZERO ISZERO PUSH2 0x1936 JUMP JUMPDEST PUSH1 0x0 MSTORE PUSH1 0xA PUSH1 0x20 MSTORE PUSH1 0x3 PUSH1 0x40 PUSH1 0x0 KECCAK256 ADD PUSH1 0x40 MLOAD DUP1 PUSH1 0x20 DUP4 SLOAD SWAP2 DUP3 DUP2 MSTORE ADD SWAP1 DUP2 SWAP4 PUSH1 0x0 MSTORE PUSH1 0x20 PUSH1 0x0 KECCAK256 SWAP1 PUSH1 0x0 JUMPDEST DUP2 DUP2 LT PUSH2 0x72D JUMPI POP POP POP DUP2 PUSH2 0x6EA SWAP2 SUB DUP3 PUSH2 0x16F6 JUMP JUMPDEST PUSH1 0x40 MLOAD SWAP2 DUP3 SWAP2 PUSH1 0x20 DUP4 ADD SWAP1 PUSH1 0x20 DUP5 MSTORE MLOAD DUP1 SWAP2 MSTORE PUSH1 0x40 DUP4 ADD SWAP2 SWAP1 PUSH1 0x0 JUMPDEST DUP2 DUP2 LT PUSH2 0x714 JUMPI POP POP POP SUB SWAP1 RETURN JUMPDEST DUP3 MLOAD DUP5 MSTORE DUP6 SWAP5 POP PUSH1 0x20 SWAP4 DUP5 ADD SWAP4 SWAP1 SWAP3 ADD SWAP2 PUSH1 0x1 ADD PUSH2 0x706 JUMP JUMPDEST DUP3 SLOAD DUP5 MSTORE PUSH1 0x20 SWAP1 SWAP4 ADD SWAP3 PUSH1 0x1 SWAP3 DUP4 ADD SWAP3 ADD PUSH2 0x6D4 JUMP JUMPDEST CALLVALUE PUSH2 0x1D9 JUMPI PUSH1 0x20 CALLDATASIZE PUSH1 0x3 NOT ADD SLT PUSH2 0x1D9 JUMPI PUSH1 0x20 PUSH2 0x761 PUSH1 0x4 CALLDATALOAD PUSH2 0x1910 JUMP JUMPDEST PUSH1 0x40 MLOAD PUSH1 0x1 PUSH1 0x1 PUSH1 0xA0 SHL SUB SWAP1 SWAP2 AND DUP2 MSTORE RETURN JUMPDEST CALLVALUE PUSH2 0x1D9 JUMPI PUSH2 0x34F PUSH2 0x34A PUSH2 0x787 CALLDATASIZE PUSH2 0x1637 JUMP JUMPDEST SWAP1 PUSH1 0x40 MLOAD SWAP3 PUSH2 0x797 PUSH1 0x20 DUP6 PUSH2 0x16F6 JUMP JUMPDEST PUSH1 0x0 DUP5 MSTORE PUSH2 0x33A PUSH2 0x335 DUP5 CALLER PUSH2 0x19C5 JUMP JUMPDEST CALLVALUE PUSH2 0x1D9 JUMPI PUSH1 0xE0 CALLDATASIZE PUSH1 0x3 NOT ADD SLT PUSH2 0x1D9 JUMPI PUSH2 0x7C1 PUSH2 0x15F5 JUMP JUMPDEST PUSH1 0x24 CALLDATALOAD SWAP1 PUSH1 0x1 PUSH1 0x1 PUSH1 0x40 SHL SUB DUP3 GT PUSH2 0x1D9 JUMPI CALLDATASIZE PUSH1 0x23 DUP4 ADD SLT ISZERO PUSH2 0x1D9 JUMPI PUSH1 0x1 PUSH1 0x1 PUSH1 0x40 SHL SUB DUP3 PUSH1 0x4 ADD CALLDATALOAD GT PUSH2 0x1D9 JUMPI CALLDATASIZE PUSH1 0x24 DUP4 PUSH1 0x4 ADD CALLDATALOAD DUP5 ADD ADD GT PUSH2 0x1D9 JUMPI PUSH1 0x64 CALLDATALOAD SWAP2 PUSH1 0x1 PUSH1 0x1 PUSH1 0xA0 SHL SUB DUP4 AND DUP4 SUB PUSH2 0x1D9 JUMPI PUSH1 0x84 CALLDATALOAD PUSH1 0x1 PUSH1 0x1 PUSH1 0x60 SHL SUB DUP2 AND DUP2 SUB PUSH2 0x1D9 JUMPI PUSH1 0xA4 CALLDATALOAD PUSH1 0x1 PUSH1 0x1 PUSH1 0x40 SHL SUB DUP2 GT PUSH2 0x1D9 JUMPI PUSH2 0x846 SWAP1 CALLDATASIZE SWAP1 PUSH1 0x4 ADD PUSH2 0x1671 JUMP JUMPDEST SWAP4 PUSH1 0xC4 CALLDATALOAD PUSH1 0x1 PUSH1 0x1 PUSH1 0x40 SHL SUB DUP2 GT PUSH2 0x1D9 JUMPI PUSH2 0x866 SWAP1 CALLDATASIZE SWAP1 PUSH1 0x4 ADD PUSH2 0x1671 JUMP JUMPDEST SWAP7 SWAP1 SWAP6 PUSH1 0x1 PUSH1 0x1 PUSH1 0xA0 SHL SUB DUP4 AND ISZERO PUSH2 0x1082 JUMPI DUP8 DUP2 EQ DUP1 PUSH2 0x1079 JUMPI JUMPDEST ISZERO PUSH2 0x103C JUMPI PUSH1 0xB SLOAD SWAP7 PUSH1 0x0 NOT DUP9 EQ PUSH2 0x1026 JUMPI DUP8 SWAP5 PUSH1 0x1 DUP7 ADD PUSH1 0xB SSTORE PUSH1 0x20 SWAP10 PUSH2 0x968 PUSH2 0x34A DUP13 PUSH1 0x2 PUSH1 0x40 MLOAD SWAP2 PUSH2 0x8B6 DUP2 DUP5 PUSH2 0x16F6 JUMP JUMPDEST PUSH1 0x0 DUP1 DUP5 MSTORE DUP13 DUP2 MSTORE PUSH1 0x2 PUSH1 0x20 MSTORE PUSH1 0x40 DUP2 KECCAK256 SLOAD SWAP1 SWAP13 SWAP1 PUSH2 0x8E1 SWAP1 PUSH1 0x1 PUSH1 0x1 PUSH1 0xA0 SHL SUB AND ISZERO ISZERO JUMPDEST ISZERO PUSH2 0x1E03 JUMP JUMPDEST PUSH1 0x0 DUP2 DUP2 MSTORE PUSH1 0x2 PUSH1 0x20 MSTORE PUSH1 0x40 SWAP1 KECCAK256 SLOAD PUSH2 0x904 SWAP1 PUSH1 0x1 PUSH1 0x1 PUSH1 0xA0 SHL SUB AND ISZERO ISZERO PUSH2 0x8DB JUMP JUMPDEST PUSH1 0x1 PUSH1 0x1 PUSH1 0xA0 SHL SUB DUP13 AND DUP1 DUP15 MSTORE PUSH1 0x3 DUP4 MSTORE PUSH1 0x40 DUP1 DUP16 KECCAK256 DUP1 SLOAD PUSH1 0x1 ADD SWAP1 SSTORE SWAP2 DUP15 MSTORE SWAP3 SWAP1 SWAP2 MSTORE DUP12 KECCAK256 DUP1 SLOAD PUSH1 0x1 PUSH1 0x1 PUSH1 0xA0 SHL SUB NOT AND DUP3 OR SWAP1 SSTORE DUP14 SWAP1 DUP12 PUSH32 0xDDF252AD1BE2C89B69C2B068FC378DAA952BA7F163C4A11628F55A4DF523B3EF DUP2 DUP1 LOG4 DUP13 DUP10 PUSH2 0x1C89 JUMP JUMPDEST PUSH2 0x97A CALLDATASIZE DUP11 PUSH1 0x4 ADD CALLDATALOAD PUSH1 0x24 DUP13 ADD PUSH2 0x17D6 JUMP JUMPDEST PUSH1 0x0 DUP12 DUP2 MSTORE PUSH1 0x2 PUSH1 0x20 MSTORE PUSH1 0x40 SWAP1 KECCAK256 SLOAD PUSH1 0x1 PUSH1 0x1 PUSH1 0xA0 SHL SUB AND ISZERO PUSH2 0xFCA JUMPI DUP11 DUP9 MSTORE PUSH1 0x6 DUP13 MSTORE PUSH1 0x40 DUP9 KECCAK256 SWAP1 DUP1 MLOAD SWAP1 PUSH1 0x1 PUSH1 0x1 PUSH1 0x40 SHL SUB DUP3 GT PUSH2 0xFB6 JUMPI DUP14 DUP3 SWAP2 DUP12 PUSH2 0x9C2 DUP7 SLOAD PUSH2 0x16A1 JUMP JUMPDEST DUP4 PUSH1 0x1F DUP3 GT PUSH2 0xF88 JUMPI JUMPDEST POP POP POP DUP2 PUSH1 0x1F DUP5 GT PUSH1 0x1 EQ PUSH2 0xF20 JUMPI POP DUP12 SWAP3 PUSH2 0xF15 JUMPI JUMPDEST POP POP DUP2 PUSH1 0x1 SHL SWAP2 PUSH1 0x0 NOT SWAP1 PUSH1 0x3 SHL SHR NOT AND OR SWAP1 SSTORE JUMPDEST PUSH32 0xF8E1A15ABA9398E019F0B49DF1A4FDE98EE17AE345CB5F6B5E2C27F5033E8CE7 DUP12 PUSH1 0x40 MLOAD DUP13 DUP2 MSTORE LOG1 PUSH1 0x40 MLOAD SWAP4 PUSH2 0xE5D SWAP1 DUP6 DUP3 DUP2 ADD LT PUSH1 0x1 PUSH1 0x1 PUSH1 0x40 SHL SUB DUP4 DUP9 ADD GT OR PUSH2 0xEBD JUMPI DUP2 PUSH2 0x1E50 DUP8 CODECOPY PUSH1 0x40 DUP7 DUP4 ADD DUP2 DUP2 MSTORE SWAP1 DUP2 ADD DUP3 SWAP1 MSTORE PUSH1 0x60 ADD SWAP4 SWAP1 DUP10 JUMPDEST DUP2 DUP2 LT PUSH2 0xEE0 JUMPI POP POP POP DUP5 ADD DUP1 DUP4 SUB SWAP1 DUP13 ADD MSTORE DUP1 DUP3 MSTORE PUSH1 0x1 PUSH1 0x1 PUSH1 0xFB SHL SUB DUP2 GT PUSH2 0xEDC JUMPI SWAP2 DUP4 SWAP2 DUP12 SWAP4 PUSH1 0x5 SHL DUP1 SWAP3 DUP6 DUP4 ADD CALLDATACOPY ADD SUB ADD SWAP1 DUP5 CREATE SWAP4 DUP5 ISZERO PUSH2 0xED1 JUMPI PUSH1 0x40 MLOAD PUSH2 0xAA6 DUP10 DUP3 PUSH2 0x16F6 JUMP JUMPDEST DUP5 DUP2 MSTORE DUP5 CALLDATASIZE DUP2 CALLDATACOPY PUSH1 0x40 MLOAD PUSH1 0x80 DUP2 ADD DUP2 DUP2 LT PUSH1 0x1 PUSH1 0x1 PUSH1 0x40 SHL SUB DUP3 GT OR PUSH2 0xDF7 JUMPI PUSH1 0x40 MSTORE PUSH2 0xADB CALLDATASIZE DUP10 PUSH1 0x4 ADD CALLDATALOAD PUSH1 0x24 DUP12 ADD PUSH2 0x17D6 JUMP JUMPDEST DUP2 MSTORE PUSH1 0x44 CALLDATALOAD DUP11 DUP3 ADD MSTORE PUSH1 0x1 DUP1 PUSH1 0xA0 SHL SUB DUP8 AND PUSH1 0x40 DUP3 ADD MSTORE PUSH1 0x60 DUP2 ADD SWAP2 DUP3 MSTORE DUP9 DUP7 MSTORE PUSH1 0xA DUP11 MSTORE PUSH1 0x40 DUP7 KECCAK256 DUP2 MLOAD SWAP2 DUP3 MLOAD PUSH1 0x1 PUSH1 0x1 PUSH1 0x40 SHL SUB DUP2 GT PUSH2 0xEBD JUMPI PUSH2 0xB21 DUP4 SLOAD PUSH2 0x16A1 JUMP JUMPDEST DUP14 PUSH1 0x1F DUP3 GT PUSH2 0xE84 JUMPI JUMPDEST POP POP DUP13 DUP14 PUSH1 0x1F DUP4 GT PUSH1 0x1 EQ PUSH2 0xE16 JUMPI POP DUP2 SWAP1 PUSH1 0x3 SWAP6 DUP12 SWAP3 PUSH2 0xE0B JUMPI JUMPDEST POP POP DUP2 PUSH1 0x1 SHL SWAP2 PUSH1 0x0 NOT SWAP1 DUP7 SHL SHR NOT AND OR DUP3 SSTORE JUMPDEST DUP1 DUP13 ADD MLOAD PUSH1 0x1 DUP4 ADD SSTORE PUSH1 0x40 ADD MLOAD PUSH1 0x2 DUP3 ADD DUP1 SLOAD PUSH1 0x1 PUSH1 0x1 PUSH1 0xA0 SHL SUB NOT AND PUSH1 0x1 PUSH1 0x1 PUSH1 0xA0 SHL SUB SWAP3 SWAP1 SWAP3 AND SWAP2 SWAP1 SWAP2 OR SWAP1 SSTORE SWAP2 MLOAD DUP1 MLOAD SWAP3 SWAP2 SWAP1 SWAP2 ADD SWAP1 PUSH1 0x1 PUSH1 0x1 PUSH1 0x40 SHL SUB DUP4 GT PUSH2 0xDF7 JUMPI PUSH1 0x1 PUSH1 0x40 SHL DUP4 GT PUSH2 0xDF7 JUMPI DUP11 SWAP1 DUP3 SLOAD DUP5 DUP5 SSTORE DUP1 DUP6 LT PUSH2 0xDDD JUMPI JUMPDEST POP SWAP1 DUP11 SWAP9 SWAP8 SWAP7 SWAP6 SWAP5 SWAP4 SWAP3 SWAP2 ADD SWAP1 DUP7 MSTORE DUP11 DUP7 KECCAK256 DUP7 JUMPDEST DUP4 DUP2 LT PUSH2 0xDC8 JUMPI POP POP POP POP PUSH1 0x1 PUSH1 0x1 PUSH1 0xA0 SHL SUB DUP3 AND ISZERO DUP1 ISZERO DUP1 PUSH2 0xDB6 JUMPI JUMPDEST PUSH2 0xC7A JUMPI JUMPDEST POP POP POP PUSH32 0xE51F07E1D75D0ED3432BA1E428420F8F896579DEFC71C782E7C706706CA1A7EA SWAP3 SWAP2 PUSH1 0x80 SWAP2 PUSH1 0x40 MLOAD SWAP4 DUP5 SWAP3 PUSH1 0x60 DUP5 MSTORE DUP9 PUSH1 0x4 ADD CALLDATALOAD PUSH1 0x60 DUP6 ADD MSTORE DUP9 PUSH1 0x4 ADD CALLDATALOAD PUSH1 0x24 DUP11 ADD DUP7 DUP7 ADD CALLDATACOPY PUSH1 0x4 SWAP1 SWAP9 ADD CALLDATALOAD DUP4 DUP2 ADD DUP6 ADD SWAP9 SWAP1 SWAP9 MSTORE PUSH1 0x44 CALLDATALOAD DUP11 DUP5 ADD MSTORE PUSH1 0x1 PUSH1 0x1 PUSH1 0xA0 SHL SUB SWAP1 DUP2 AND PUSH1 0x40 DUP5 ADD MSTORE AND SWAP6 PUSH1 0x1F ADD PUSH1 0x1F NOT AND DUP2 ADD SUB ADD SWAP1 LOG3 PUSH1 0x40 MLOAD SWAP1 DUP2 MSTORE RETURN JUMPDEST SWAP1 SWAP2 SWAP3 SWAP4 SWAP5 SWAP6 POP PUSH2 0x2710 PUSH1 0x1 PUSH1 0x1 PUSH1 0x60 SHL SUB DUP4 AND GT PUSH2 0xD5E JUMPI PUSH2 0xD19 JUMPI SWAP3 DUP7 SWAP5 SWAP3 PUSH1 0x80 SWAP3 PUSH32 0xE51F07E1D75D0ED3432BA1E428420F8F896579DEFC71C782E7C706706CA1A7EA SWAP6 PUSH1 0x40 MLOAD SWAP2 PUSH2 0xCCD DUP4 PUSH2 0x16DB JUMP JUMPDEST PUSH1 0x1 PUSH1 0x1 PUSH1 0xA0 SHL SUB SWAP1 DUP2 AND DUP4 MSTORE PUSH1 0x1 PUSH1 0x1 PUSH1 0x60 SHL SUB SWAP2 SWAP1 SWAP2 AND DUP12 DUP4 ADD SWAP1 DUP2 MSTORE DUP9 DUP6 MSTORE PUSH1 0x8 DUP13 MSTORE PUSH1 0x40 DUP6 KECCAK256 SWAP3 MLOAD SWAP1 MLOAD PUSH1 0xA0 SHL PUSH1 0x1 PUSH1 0x1 PUSH1 0xA0 SHL SUB NOT AND SWAP2 AND OR SWAP1 SSTORE SWAP3 SWAP4 SWAP1 SWAP3 SWAP2 DUP4 SWAP2 PUSH2 0xBF3 JUMP JUMPDEST PUSH1 0x40 MLOAD PUSH3 0x461BCD PUSH1 0xE5 SHL DUP2 MSTORE PUSH1 0x4 DUP2 ADD DUP10 SWAP1 MSTORE PUSH1 0x1B PUSH1 0x24 DUP3 ADD MSTORE PUSH32 0x455243323938313A20496E76616C696420706172616D65746572730000000000 PUSH1 0x44 DUP3 ADD MSTORE PUSH1 0x64 SWAP1 REVERT JUMPDEST PUSH1 0x40 MLOAD PUSH3 0x461BCD PUSH1 0xE5 SHL DUP2 MSTORE PUSH1 0x4 DUP2 ADD DUP11 SWAP1 MSTORE PUSH1 0x2A PUSH1 0x24 DUP3 ADD MSTORE PUSH32 0x455243323938313A20726F79616C7479206665652077696C6C20657863656564 PUSH1 0x44 DUP3 ADD MSTORE PUSH10 0x2073616C655072696365 PUSH1 0xB0 SHL PUSH1 0x64 DUP3 ADD MSTORE PUSH1 0x84 SWAP1 REVERT JUMPDEST POP PUSH1 0x1 PUSH1 0x1 PUSH1 0x60 SHL SUB DUP3 AND ISZERO ISZERO PUSH2 0xBEE JUMP JUMPDEST DUP3 MLOAD DUP2 DUP4 ADD SSTORE DUP12 SWAP10 POP SWAP2 DUP13 ADD SWAP2 PUSH1 0x1 ADD PUSH2 0xBD0 JUMP JUMPDEST DUP4 DUP10 MSTORE DUP3 DUP10 KECCAK256 PUSH2 0xDF1 SWAP2 DUP2 ADD SWAP1 DUP7 ADD PUSH2 0x18AD JUMP JUMPDEST DUP13 PUSH2 0xBBC JUMP JUMPDEST PUSH4 0x4E487B71 PUSH1 0xE0 SHL DUP8 MSTORE PUSH1 0x41 PUSH1 0x4 MSTORE PUSH1 0x24 DUP8 REVERT JUMPDEST ADD MLOAD SWAP1 POP DUP15 DUP1 PUSH2 0xB47 JUMP JUMPDEST SWAP2 SWAP3 SWAP4 SWAP5 DUP6 DUP12 MSTORE DUP3 DUP12 KECCAK256 SWAP3 DUP12 SWAP1 JUMPDEST PUSH1 0x1F NOT DUP7 AND DUP3 LT PUSH2 0xE6C JUMPI POP POP SWAP2 DUP4 SWAP2 PUSH1 0x1 SWAP4 PUSH1 0x3 SWAP8 SWAP7 SWAP6 PUSH1 0x1F NOT DUP2 AND LT PUSH2 0xE54 JUMPI JUMPDEST POP POP POP DUP2 SHL ADD DUP3 SSTORE PUSH2 0xB5B JUMP JUMPDEST ADD MLOAD PUSH1 0x0 NOT DUP4 DUP9 SHL PUSH1 0xF8 AND SHR NOT AND SWAP1 SSTORE DUP15 DUP1 DUP1 PUSH2 0xE47 JUMP JUMPDEST DUP1 PUSH1 0x1 DUP6 SWAP7 DUP3 SWAP5 SWAP7 DUP7 ADD MLOAD DUP2 SSTORE ADD SWAP6 ADD SWAP4 ADD SWAP1 PUSH2 0xE24 JUMP JUMPDEST DUP5 DUP12 MSTORE DUP1 DUP12 KECCAK256 PUSH2 0xEAC SWAP3 PUSH1 0x1F DUP6 ADD PUSH1 0x5 SHR DUP3 ADD SWAP3 DUP6 LT PUSH2 0xEB3 JUMPI JUMPDEST PUSH1 0x1F ADD PUSH1 0x5 SHR ADD SWAP1 PUSH2 0x18AD JUMP JUMPDEST DUP14 DUP14 PUSH2 0xB2B JUMP JUMPDEST SWAP1 SWAP2 POP DUP2 SWAP1 PUSH2 0xE9F JUMP JUMPDEST PUSH4 0x4E487B71 PUSH1 0xE0 SHL DUP10 MSTORE PUSH1 0x41 PUSH1 0x4 MSTORE PUSH1 0x24 DUP10 REVERT JUMPDEST PUSH1 0x40 MLOAD RETURNDATASIZE DUP6 DUP3 RETURNDATACOPY RETURNDATASIZE SWAP1 REVERT JUMPDEST DUP7 DUP1 REVERT JUMPDEST SWAP2 SWAP5 SWAP1 SWAP2 SWAP1 DUP6 CALLDATALOAD PUSH1 0x1 PUSH1 0x1 PUSH1 0xA0 SHL SUB DUP2 AND DUP2 SUB PUSH2 0xF11 JUMPI PUSH1 0x1 PUSH1 0x1 PUSH1 0xA0 SHL SUB AND DUP2 MSTORE DUP15 ADD SWAP5 DUP15 ADD SWAP2 SWAP1 PUSH1 0x1 ADD PUSH2 0xA5A JUMP JUMPDEST DUP12 DUP1 REVERT JUMPDEST ADD MLOAD SWAP1 POP DUP15 DUP1 PUSH2 0x9E3 JUMP JUMPDEST SWAP4 POP SWAP1 DUP5 DUP13 MSTORE DUP4 DUP13 KECCAK256 SWAP2 DUP13 SWAP5 JUMPDEST PUSH1 0x1F NOT DUP6 AND DUP7 LT PUSH2 0xF6F JUMPI POP PUSH1 0x1 SWAP5 POP DUP4 PUSH1 0x1F NOT DUP2 AND LT PUSH2 0xF56 JUMPI JUMPDEST POP POP POP DUP2 SHL ADD SWAP1 SSTORE PUSH2 0x9F8 JUMP JUMPDEST ADD MLOAD PUSH1 0x0 NOT PUSH1 0xF8 DUP5 PUSH1 0x3 SHL AND SHR NOT AND SWAP1 SSTORE DUP15 DUP1 DUP1 PUSH2 0xF49 JUMP JUMPDEST DUP3 DUP3 ADD MLOAD DUP5 SSTORE SWAP5 DUP6 ADD SWAP5 PUSH1 0x1 SWAP1 SWAP4 ADD SWAP3 SWAP2 DUP3 ADD SWAP2 PUSH2 0xF2D JUMP JUMPDEST DUP3 DUP9 PUSH2 0xFAE SWAP5 MSTORE KECCAK256 PUSH1 0x1F DUP7 ADD PUSH1 0x5 SHR DUP2 ADD SWAP2 DUP6 DUP8 LT PUSH2 0xEB3 JUMPI PUSH1 0x1F ADD PUSH1 0x5 SHR ADD SWAP1 PUSH2 0x18AD JUMP JUMPDEST DUP12 CODESIZE DUP4 PUSH2 0x9CC JUMP JUMPDEST PUSH4 0x4E487B71 PUSH1 0xE0 SHL DUP11 MSTORE PUSH1 0x41 PUSH1 0x4 MSTORE PUSH1 0x24 DUP11 REVERT JUMPDEST PUSH1 0x40 MLOAD PUSH3 0x461BCD PUSH1 0xE5 SHL DUP2 MSTORE PUSH1 0x4 DUP2 ADD DUP14 SWAP1 MSTORE PUSH1 0x2E PUSH1 0x24 DUP3 ADD MSTORE PUSH32 0x45524337323155524953746F726167653A2055524920736574206F66206E6F6E PUSH1 0x44 DUP3 ADD MSTORE PUSH14 0x32BC34B9BA32B73A103A37B5B2B7 PUSH1 0x91 SHL PUSH1 0x64 DUP3 ADD MSTORE PUSH1 0x84 SWAP1 REVERT JUMPDEST PUSH4 0x4E487B71 PUSH1 0xE0 SHL PUSH1 0x0 MSTORE PUSH1 0x11 PUSH1 0x4 MSTORE PUSH1 0x24 PUSH1 0x0 REVERT JUMPDEST PUSH1 0x40 MLOAD PUSH3 0x461BCD PUSH1 0xE5 SHL DUP2 MSTORE PUSH1 0x20 PUSH1 0x4 DUP3 ADD MSTORE PUSH1 0x15 PUSH1 0x24 DUP3 ADD MSTORE PUSH21 0x696E76616C6964207061796565732F736861726573 PUSH1 0x58 SHL PUSH1 0x44 DUP3 ADD MSTORE PUSH1 0x64 SWAP1 REVERT JUMPDEST POP DUP1 ISZERO ISZERO PUSH2 0x881 JUMP JUMPDEST PUSH1 0x40 MLOAD PUSH3 0x461BCD PUSH1 0xE5 SHL DUP2 MSTORE PUSH1 0x20 PUSH1 0x4 DUP3 ADD MSTORE PUSH1 0xB PUSH1 0x24 DUP3 ADD MSTORE PUSH11 0x617574686F72207A65726F PUSH1 0xA8 SHL PUSH1 0x44 DUP3 ADD MSTORE PUSH1 0x64 SWAP1 REVERT JUMPDEST CALLVALUE PUSH2 0x1D9 JUMPI PUSH2 0x10C3 CALLDATASIZE PUSH2 0x1621 JUMP JUMPDEST SWAP1 PUSH1 0x0 MSTORE PUSH1 0x8 PUSH1 0x20 MSTORE PUSH1 0x40 PUSH1 0x0 KECCAK256 PUSH1 0x40 MLOAD SWAP1 PUSH2 0x10DE DUP3 PUSH2 0x16DB JUMP JUMPDEST SLOAD PUSH1 0x1 PUSH1 0x1 PUSH1 0xA0 SHL SUB DUP2 AND DUP1 DUP4 MSTORE PUSH1 0xA0 SWAP2 SWAP1 SWAP2 SHR PUSH1 0x20 DUP4 ADD MSTORE ISZERO PUSH2 0x113B JUMPI JUMPDEST PUSH1 0x1 PUSH1 0x1 PUSH1 0x60 SHL SUB PUSH1 0x20 DUP3 ADD MLOAD AND SWAP2 DUP3 DUP2 MUL SWAP3 DUP2 DUP5 DIV EQ SWAP1 ISZERO OR ISZERO PUSH2 0x1026 JUMPI MLOAD PUSH1 0x40 DUP1 MLOAD PUSH1 0x1 PUSH1 0x1 PUSH1 0xA0 SHL SUB SWAP1 SWAP3 AND DUP3 MSTORE PUSH2 0x2710 SWAP1 SWAP3 DIV PUSH1 0x20 DUP3 ADD MSTORE RETURN JUMPDEST POP PUSH1 0x40 MLOAD PUSH2 0x1148 DUP2 PUSH2 0x16DB JUMP JUMPDEST PUSH1 0x7 SLOAD PUSH1 0x1 PUSH1 0x1 PUSH1 0xA0 SHL SUB DUP2 AND DUP3 MSTORE PUSH1 0xA0 SHR PUSH1 0x20 DUP3 ADD MSTORE PUSH2 0x10FD JUMP JUMPDEST CALLVALUE PUSH2 0x1D9 JUMPI PUSH2 0x34F PUSH2 0x1175 CALLDATASIZE PUSH2 0x1637 JUMP JUMPDEST SWAP2 PUSH2 0x1183 PUSH2 0x335 DUP5 CALLER PUSH2 0x19C5 JUMP JUMPDEST PUSH2 0x1A98 JUMP JUMPDEST CALLVALUE PUSH2 0x1D9 JUMPI PUSH2 0x1196 CALLDATASIZE PUSH2 0x1621 JUMP JUMPDEST SWAP1 PUSH2 0x119F PUSH2 0x196D JUMP JUMPDEST PUSH1 0x0 DUP2 DUP2 MSTORE PUSH1 0x2 PUSH1 0x20 MSTORE PUSH1 0x40 SWAP1 KECCAK256 SLOAD PUSH1 0x1 PUSH1 0x1 PUSH1 0xA0 SHL SUB AND ISZERO PUSH2 0x1286 JUMPI PUSH1 0x0 DUP3 DUP2 MSTORE PUSH1 0x2 PUSH1 0x20 MSTORE PUSH1 0x40 SWAP1 KECCAK256 SLOAD PUSH1 0x1 PUSH1 0x1 PUSH1 0xA0 SHL SUB AND ISZERO PUSH2 0x1241 JUMPI PUSH1 0x0 MSTORE PUSH1 0xA PUSH1 0x20 MSTORE PUSH1 0x3 PUSH1 0x40 PUSH1 0x0 KECCAK256 ADD DUP1 SLOAD SWAP1 PUSH1 0x1 PUSH1 0x40 SHL DUP3 LT ISZERO PUSH2 0x122B JUMPI PUSH1 0x1 DUP3 ADD DUP1 DUP3 SSTORE DUP3 LT ISZERO PUSH2 0x1215 JUMPI PUSH1 0x0 MSTORE PUSH1 0x20 PUSH1 0x0 KECCAK256 ADD SSTORE PUSH1 0x0 DUP1 RETURN JUMPDEST PUSH4 0x4E487B71 PUSH1 0xE0 SHL PUSH1 0x0 MSTORE PUSH1 0x32 PUSH1 0x4 MSTORE PUSH1 0x24 PUSH1 0x0 REVERT JUMPDEST PUSH4 0x4E487B71 PUSH1 0xE0 SHL PUSH1 0x0 MSTORE PUSH1 0x41 PUSH1 0x4 MSTORE PUSH1 0x24 PUSH1 0x0 REVERT JUMPDEST PUSH1 0x40 MLOAD PUSH3 0x461BCD PUSH1 0xE5 SHL DUP2 MSTORE PUSH1 0x20 PUSH1 0x4 DUP3 ADD MSTORE PUSH1 0x1E PUSH1 0x24 DUP3 ADD MSTORE PUSH32 0x6465726976617469766520746F6B656E20646F65736E27742065786973740000 PUSH1 0x44 DUP3 ADD MSTORE PUSH1 0x64 SWAP1 REVERT JUMPDEST PUSH1 0x40 MLOAD PUSH3 0x461BCD PUSH1 0xE5 SHL DUP2 MSTORE PUSH1 0x20 PUSH1 0x4 DUP3 ADD MSTORE PUSH1 0x1A PUSH1 0x24 DUP3 ADD MSTORE PUSH32 0x706172656E7420746F6B656E20646F65736E2774206578697374000000000000 PUSH1 0x44 DUP3 ADD MSTORE PUSH1 0x64 SWAP1 REVERT JUMPDEST CALLVALUE PUSH2 0x1D9 JUMPI PUSH1 0x40 CALLDATASIZE PUSH1 0x3 NOT ADD SLT PUSH2 0x1D9 JUMPI PUSH2 0x12E4 PUSH2 0x15F5 JUMP JUMPDEST PUSH1 0x24 CALLDATALOAD SWAP1 PUSH1 0x1 PUSH1 0x1 PUSH1 0xA0 SHL SUB PUSH2 0x12F9 DUP4 PUSH2 0x1910 JUMP JUMPDEST PUSH1 0x1 PUSH1 0x1 PUSH1 0xA0 SHL SUB SWAP1 SWAP3 AND SWAP2 AND DUP2 DUP2 EQ PUSH2 0x1405 JUMPI DUP1 CALLER EQ SWAP1 DUP2 ISZERO PUSH2 0x13E0 JUMPI JUMPDEST POP ISZERO PUSH2 0x1375 JUMPI PUSH1 0x0 DUP3 DUP2 MSTORE PUSH1 0x4 PUSH1 0x20 MSTORE PUSH1 0x40 SWAP1 KECCAK256 DUP1 SLOAD PUSH1 0x1 PUSH1 0x1 PUSH1 0xA0 SHL SUB NOT AND DUP3 OR SWAP1 SSTORE PUSH1 0x1 PUSH1 0x1 PUSH1 0xA0 SHL SUB PUSH2 0x134D DUP4 PUSH2 0x1910 JUMP JUMPDEST AND PUSH32 0x8C5BE1E5EBEC7D5BD14F71427D1E84F3DD0314C0F7B2291E5B200AC8C7C3B925 PUSH1 0x0 DUP1 LOG4 STOP JUMPDEST PUSH1 0x40 MLOAD PUSH3 0x461BCD PUSH1 0xE5 SHL DUP2 MSTORE PUSH1 0x20 PUSH1 0x4 DUP3 ADD MSTORE PUSH1 0x3D PUSH1 0x24 DUP3 ADD MSTORE PUSH32 0x4552433732313A20617070726F76652063616C6C6572206973206E6F7420746F PUSH1 0x44 DUP3 ADD MSTORE PUSH32 0x6B656E206F776E6572206F7220617070726F76656420666F7220616C6C000000 PUSH1 0x64 DUP3 ADD MSTORE PUSH1 0x84 SWAP1 REVERT JUMPDEST PUSH1 0x0 SWAP1 DUP2 MSTORE PUSH1 0x5 PUSH1 0x20 SWAP1 DUP2 MSTORE PUSH1 0x40 DUP1 DUP4 KECCAK256 CALLER DUP5 MSTORE SWAP1 SWAP2 MSTORE SWAP1 KECCAK256 SLOAD PUSH1 0xFF AND SWAP1 POP DUP4 PUSH2 0x1318 JUMP JUMPDEST PUSH1 0x40 MLOAD PUSH3 0x461BCD PUSH1 0xE5 SHL DUP2 MSTORE PUSH1 0x20 PUSH1 0x4 DUP3 ADD MSTORE PUSH1 0x21 PUSH1 0x24 DUP3 ADD MSTORE PUSH32 0x4552433732313A20617070726F76616C20746F2063757272656E74206F776E65 PUSH1 0x44 DUP3 ADD MSTORE PUSH1 0x39 PUSH1 0xF9 SHL PUSH1 0x64 DUP3 ADD MSTORE PUSH1 0x84 SWAP1 REVERT JUMPDEST CALLVALUE PUSH2 0x1D9 JUMPI PUSH1 0x20 CALLDATASIZE PUSH1 0x3 NOT ADD SLT PUSH2 0x1D9 JUMPI PUSH1 0x20 PUSH2 0x761 PUSH1 0x4 CALLDATALOAD PUSH2 0x180D JUMP JUMPDEST CALLVALUE PUSH2 0x1D9 JUMPI PUSH1 0x0 CALLDATASIZE PUSH1 0x3 NOT ADD SLT PUSH2 0x1D9 JUMPI PUSH1 0x40 MLOAD PUSH1 0x0 DUP1 SLOAD PUSH2 0x1493 DUP2 PUSH2 0x16A1 JUMP JUMPDEST DUP1 DUP5 MSTORE SWAP1 PUSH1 0x1 DUP2 AND SWAP1 DUP2 ISZERO PUSH2 0x4CC JUMPI POP PUSH1 0x1 EQ PUSH2 0x14BA JUMPI PUSH2 0x2C6 DUP4 PUSH2 0x2B2 DUP2 DUP6 SUB DUP3 PUSH2 0x16F6 JUMP JUMPDEST PUSH1 0x0 DUP1 DUP1 MSTORE PUSH32 0x290DECD9548B62A8D60345A988386FC84BA6BC95484008F6362F93160EF3E563 SWAP4 SWAP3 POP SWAP1 JUMPDEST DUP1 DUP3 LT PUSH2 0x14FD JUMPI POP SWAP1 SWAP2 POP DUP2 ADD PUSH1 0x20 ADD PUSH2 0x2B2 PUSH2 0x45D JUMP JUMPDEST SWAP2 SWAP3 PUSH1 0x1 DUP2 PUSH1 0x20 SWAP3 SLOAD DUP4 DUP6 DUP9 ADD ADD MSTORE ADD SWAP2 ADD SWAP1 SWAP3 SWAP2 PUSH2 0x14E5 JUMP JUMPDEST CALLVALUE PUSH2 0x1D9 JUMPI PUSH1 0x20 CALLDATASIZE PUSH1 0x3 NOT ADD SLT PUSH2 0x1D9 JUMPI PUSH1 0x4 CALLDATALOAD SWAP1 PUSH4 0xFFFFFFFF PUSH1 0xE0 SHL DUP3 AND DUP1 SWAP3 SUB PUSH2 0x1D9 JUMPI PUSH1 0x20 SWAP2 PUSH4 0x152A902D PUSH1 0xE1 SHL DUP2 EQ SWAP1 DUP2 ISZERO PUSH2 0x1559 JUMPI JUMPDEST POP ISZERO ISZERO DUP2 MSTORE RETURN JUMPDEST PUSH4 0x24832483 PUSH1 0xE1 SHL DUP2 EQ SWAP2 POP DUP2 ISZERO PUSH2 0x1573 JUMPI JUMPDEST POP DUP4 PUSH2 0x1552 JUMP JUMPDEST PUSH4 0x80AC58CD PUSH1 0xE0 SHL DUP2 EQ SWAP2 POP DUP2 ISZERO PUSH2 0x15A5 JUMPI JUMPDEST DUP2 ISZERO PUSH2 0x1594 JUMPI JUMPDEST POP DUP4 PUSH2 0x156C JUMP JUMPDEST PUSH4 0x1FFC9A7 PUSH1 0xE0 SHL EQ SWAP1 POP DUP4 PUSH2 0x158D JUMP JUMPDEST PUSH4 0x5B5E139F PUSH1 0xE0 SHL DUP2 EQ SWAP2 POP PUSH2 0x1586 JUMP JUMPDEST SWAP2 SWAP1 DUP3 MLOAD DUP1 DUP3 MSTORE PUSH1 0x20 DUP1 DUP4 ADD SWAP5 ADD PUSH1 0x0 JUMPDEST DUP3 DUP2 LT PUSH2 0x15E5 JUMPI POP POP PUSH1 0x0 DUP2 PUSH1 0x20 SWAP5 SWAP6 ADD MSTORE PUSH1 0x1F DUP1 NOT SWAP2 ADD AND ADD ADD SWAP1 JUMP JUMPDEST DUP2 DUP2 ADD MLOAD DUP7 DUP3 ADD MSTORE PUSH1 0x20 ADD PUSH2 0x15C7 JUMP JUMPDEST PUSH1 0x4 CALLDATALOAD SWAP1 PUSH1 0x1 PUSH1 0x1 PUSH1 0xA0 SHL SUB DUP3 AND DUP3 SUB PUSH2 0x1D9 JUMPI JUMP JUMPDEST PUSH1 0x24 CALLDATALOAD SWAP1 PUSH1 0x1 PUSH1 0x1 PUSH1 0xA0 SHL SUB DUP3 AND DUP3 SUB PUSH2 0x1D9 JUMPI JUMP JUMPDEST PUSH1 0x40 SWAP1 PUSH1 0x3 NOT ADD SLT PUSH2 0x1D9 JUMPI PUSH1 0x4 CALLDATALOAD SWAP1 PUSH1 0x24 CALLDATALOAD SWAP1 JUMP JUMPDEST PUSH1 0x60 SWAP1 PUSH1 0x3 NOT ADD SLT PUSH2 0x1D9 JUMPI PUSH1 0x4 CALLDATALOAD PUSH1 0x1 PUSH1 0x1 PUSH1 0xA0 SHL SUB DUP2 AND DUP2 SUB PUSH2 0x1D9 JUMPI SWAP1 PUSH1 0x24 CALLDATALOAD PUSH1 0x1 PUSH1 0x1 PUSH1 0xA0 SHL SUB DUP2 AND DUP2 SUB PUSH2 0x1D9 JUMPI SWAP1 PUSH1 0x44 CALLDATALOAD SWAP1 JUMP JUMPDEST SWAP2 DUP2 PUSH1 0x1F DUP5 ADD SLT ISZERO PUSH2 0x1D9 JUMPI DUP3 CALLDATALOAD SWAP2 PUSH1 0x1 PUSH1 0x1 PUSH1 0x40 SHL SUB DUP4 GT PUSH2 0x1D9 JUMPI PUSH1 0x20 DUP1 DUP6 ADD SWAP5 DUP5 PUSH1 0x5 SHL ADD ADD GT PUSH2 0x1D9 JUMPI JUMP JUMPDEST SWAP1 PUSH1 0x1 DUP3 DUP2 SHR SWAP3 AND DUP1 ISZERO PUSH2 0x16D1 JUMPI JUMPDEST PUSH1 0x20 DUP4 LT EQ PUSH2 0x16BB JUMPI JUMP JUMPDEST PUSH4 0x4E487B71 PUSH1 0xE0 SHL PUSH1 0x0 MSTORE PUSH1 0x22 PUSH1 0x4 MSTORE PUSH1 0x24 PUSH1 0x0 REVERT JUMPDEST SWAP2 PUSH1 0x7F AND SWAP2 PUSH2 0x16B0 JUMP JUMPDEST PUSH1 0x40 DUP2 ADD SWAP1 DUP2 LT PUSH1 0x1 PUSH1 0x1 PUSH1 0x40 SHL SUB DUP3 GT OR PUSH2 0x122B JUMPI PUSH1 0x40 MSTORE JUMP JUMPDEST SWAP1 PUSH1 0x1F DUP1 NOT SWAP2 ADD AND DUP2 ADD SWAP1 DUP2 LT PUSH1 0x1 PUSH1 0x1 PUSH1 0x40 SHL SUB DUP3 GT OR PUSH2 0x122B JUMPI PUSH1 0x40 MSTORE JUMP JUMPDEST SWAP1 PUSH1 0x40 MLOAD SWAP2 DUP3 PUSH1 0x0 DUP3 SLOAD SWAP3 PUSH2 0x172B DUP5 PUSH2 0x16A1 JUMP JUMPDEST DUP1 DUP5 MSTORE SWAP4 PUSH1 0x1 DUP2 AND SWAP1 DUP2 ISZERO PUSH2 0x1799 JUMPI POP PUSH1 0x1 EQ PUSH2 0x1752 JUMPI JUMPDEST POP PUSH2 0x1750 SWAP3 POP SUB DUP4 PUSH2 0x16F6 JUMP JUMPDEST JUMP JUMPDEST SWAP1 POP PUSH1 0x0 SWAP3 SWAP2 SWAP3 MSTORE PUSH1 0x20 PUSH1 0x0 KECCAK256 SWAP1 PUSH1 0x0 SWAP2 JUMPDEST DUP2 DUP4 LT PUSH2 0x177D JUMPI POP POP SWAP1 PUSH1 0x20 PUSH2 0x1750 SWAP3 DUP3 ADD ADD CODESIZE PUSH2 0x1743 JUMP JUMPDEST PUSH1 0x20 SWAP2 SWAP4 POP DUP1 PUSH1 0x1 SWAP2 SLOAD DUP4 DUP6 DUP10 ADD ADD MSTORE ADD SWAP2 ADD SWAP1 SWAP2 DUP5 SWAP3 PUSH2 0x1764 JUMP JUMPDEST SWAP1 POP PUSH1 0x20 SWAP3 POP PUSH2 0x1750 SWAP5 SWAP2 POP PUSH1 0xFF NOT AND DUP3 DUP5 ADD MSTORE ISZERO ISZERO PUSH1 0x5 SHL DUP3 ADD ADD CODESIZE PUSH2 0x1743 JUMP JUMPDEST PUSH1 0x1 PUSH1 0x1 PUSH1 0x40 SHL SUB DUP2 GT PUSH2 0x122B JUMPI PUSH1 0x1F ADD PUSH1 0x1F NOT AND PUSH1 0x20 ADD SWAP1 JUMP JUMPDEST SWAP3 SWAP2 SWAP3 PUSH2 0x17E2 DUP3 PUSH2 0x17BB JUMP JUMPDEST SWAP2 PUSH2 0x17F0 PUSH1 0x40 MLOAD SWAP4 DUP5 PUSH2 0x16F6 JUMP JUMPDEST DUP3 SWAP5 DUP2 DUP5 MSTORE DUP2 DUP4 ADD GT PUSH2 0x1D9 JUMPI DUP3 DUP2 PUSH1 0x20 SWAP4 DUP5 PUSH1 0x0 SWAP7 ADD CALLDATACOPY ADD ADD MSTORE JUMP JUMPDEST PUSH1 0x0 DUP2 DUP2 MSTORE PUSH1 0x2 PUSH1 0x20 MSTORE PUSH1 0x40 SWAP1 KECCAK256 SLOAD PUSH2 0x1830 SWAP1 PUSH1 0x1 PUSH1 0x1 PUSH1 0xA0 SHL SUB AND ISZERO ISZERO PUSH2 0x18C4 JUMP JUMPDEST PUSH1 0x0 SWAP1 DUP2 MSTORE PUSH1 0x4 PUSH1 0x20 MSTORE PUSH1 0x40 SWAP1 KECCAK256 SLOAD PUSH1 0x1 PUSH1 0x1 PUSH1 0xA0 SHL SUB AND SWAP1 JUMP JUMPDEST ISZERO PUSH2 0x1852 JUMPI JUMP JUMPDEST PUSH1 0x40 MLOAD PUSH3 0x461BCD PUSH1 0xE5 SHL DUP2 MSTORE PUSH1 0x20 PUSH1 0x4 DUP3 ADD MSTORE PUSH1 0x2D PUSH1 0x24 DUP3 ADD MSTORE PUSH32 0x4552433732313A2063616C6C6572206973206E6F7420746F6B656E206F776E65 PUSH1 0x44 DUP3 ADD MSTORE PUSH13 0x1C881BDC88185C1C1C9BDD9959 PUSH1 0x9A SHL PUSH1 0x64 DUP3 ADD MSTORE PUSH1 0x84 SWAP1 REVERT JUMPDEST DUP2 DUP2 LT PUSH2 0x18B8 JUMPI POP POP JUMP JUMPDEST PUSH1 0x0 DUP2 SSTORE PUSH1 0x1 ADD PUSH2 0x18AD JUMP JUMPDEST ISZERO PUSH2 0x18CB JUMPI JUMP JUMPDEST PUSH1 0x40 MLOAD PUSH3 0x461BCD PUSH1 0xE5 SHL DUP2 MSTORE PUSH1 0x20 PUSH1 0x4 DUP3 ADD MSTORE PUSH1 0x18 PUSH1 0x24 DUP3 ADD MSTORE PUSH32 0x4552433732313A20696E76616C696420746F6B656E2049440000000000000000 PUSH1 0x44 DUP3 ADD MSTORE PUSH1 0x64 SWAP1 REVERT JUMPDEST PUSH1 0x0 SWAP1 DUP2 MSTORE PUSH1 0x2 PUSH1 0x20 MSTORE PUSH1 0x40 SWAP1 KECCAK256 SLOAD PUSH1 0x1 PUSH1 0x1 PUSH1 0xA0 SHL SUB AND PUSH2 0x1933 DUP2 ISZERO ISZERO PUSH2 0x18C4 JUMP JUMPDEST SWAP1 JUMP JUMPDEST ISZERO PUSH2 0x193D JUMPI JUMP JUMPDEST PUSH1 0x40 MLOAD PUSH3 0x461BCD PUSH1 0xE5 SHL DUP2 MSTORE PUSH1 0x20 PUSH1 0x4 DUP3 ADD MSTORE PUSH1 0x8 PUSH1 0x24 DUP3 ADD MSTORE PUSH8 0x3737903A37B5B2B7 PUSH1 0xC1 SHL PUSH1 0x44 DUP3 ADD MSTORE PUSH1 0x64 SWAP1 REVERT JUMPDEST PUSH1 0x9 SLOAD PUSH1 0x1 PUSH1 0x1 PUSH1 0xA0 SHL SUB AND CALLER SUB PUSH2 0x1981 JUMPI JUMP JUMPDEST PUSH1 0x64 PUSH1 0x40 MLOAD PUSH3 0x461BCD PUSH1 0xE5 SHL DUP2 MSTORE PUSH1 0x20 PUSH1 0x4 DUP3 ADD MSTORE PUSH1 0x20 PUSH1 0x24 DUP3 ADD MSTORE PUSH32 0x4F776E61626C653A2063616C6C6572206973206E6F7420746865206F776E6572 PUSH1 0x44 DUP3 ADD MSTORE REVERT JUMPDEST SWAP1 PUSH1 0x1 PUSH1 0x1 PUSH1 0xA0 SHL SUB PUSH2 0x19D7 DUP3 PUSH2 0x1910 JUMP JUMPDEST PUSH1 0x1 PUSH1 0x1 PUSH1 0xA0 SHL SUB SWAP1 SWAP4 AND SWAP3 AND DUP3 DUP2 EQ SWAP3 SWAP2 SWAP1 DUP4 ISZERO PUSH2 0x1A17 JUMPI JUMPDEST POP DUP3 ISZERO PUSH2 0x19FD JUMPI POP POP SWAP1 JUMP JUMPDEST SWAP1 SWAP2 POP PUSH1 0x1 PUSH1 0x1 PUSH1 0xA0 SHL SUB SWAP1 PUSH2 0x1A12 SWAP1 PUSH2 0x180D JUMP JUMPDEST AND EQ SWAP1 JUMP JUMPDEST SWAP1 SWAP3 POP PUSH1 0x0 MSTORE PUSH1 0x5 PUSH1 0x20 MSTORE PUSH1 0x40 PUSH1 0x0 KECCAK256 DUP2 PUSH1 0x0 MSTORE PUSH1 0x20 MSTORE PUSH1 0xFF PUSH1 0x40 PUSH1 0x0 KECCAK256 SLOAD AND SWAP2 CODESIZE PUSH2 0x19F1 JUMP JUMPDEST ISZERO PUSH2 0x1A45 JUMPI JUMP JUMPDEST PUSH1 0x40 MLOAD PUSH3 0x461BCD PUSH1 0xE5 SHL DUP2 MSTORE PUSH1 0x20 PUSH1 0x4 DUP3 ADD MSTORE PUSH1 0x25 PUSH1 0x24 DUP3 ADD MSTORE PUSH32 0x4552433732313A207472616E736665722066726F6D20696E636F727265637420 PUSH1 0x44 DUP3 ADD MSTORE PUSH5 0x37BBB732B9 PUSH1 0xD9 SHL PUSH1 0x64 DUP3 ADD MSTORE PUSH1 0x84 SWAP1 REVERT JUMPDEST SWAP1 PUSH2 0x1AB9 PUSH2 0x1AA5 DUP5 PUSH2 0x1910 JUMP JUMPDEST PUSH1 0x1 PUSH1 0x1 PUSH1 0xA0 SHL SUB SWAP4 DUP5 AND SWAP4 AND DUP4 EQ PUSH2 0x1A3E JUMP JUMPDEST PUSH1 0x1 PUSH1 0x1 PUSH1 0xA0 SHL SUB AND SWAP1 DUP2 ISZERO PUSH2 0x1B75 JUMPI PUSH2 0x1AE5 DUP2 PUSH1 0x1 PUSH1 0x1 PUSH1 0xA0 SHL SUB PUSH2 0x1ADE DUP7 PUSH2 0x1910 JUMP JUMPDEST AND EQ PUSH2 0x1A3E JUMP JUMPDEST DUP3 PUSH1 0x0 MSTORE PUSH1 0x4 PUSH1 0x20 MSTORE PUSH1 0x40 PUSH1 0x0 KECCAK256 PUSH1 0x1 PUSH1 0x1 PUSH1 0x60 SHL SUB PUSH1 0xA0 SHL DUP2 SLOAD AND SWAP1 SSTORE DUP1 PUSH1 0x0 MSTORE PUSH1 0x3 PUSH1 0x20 MSTORE PUSH1 0x40 PUSH1 0x0 KECCAK256 PUSH1 0x0 NOT DUP2 SLOAD ADD SWAP1 SSTORE DUP2 PUSH1 0x0 MSTORE PUSH1 0x3 PUSH1 0x20 MSTORE PUSH1 0x40 PUSH1 0x0 KECCAK256 PUSH1 0x1 DUP2 SLOAD ADD SWAP1 SSTORE DUP3 PUSH1 0x0 MSTORE PUSH1 0x2 PUSH1 0x20 MSTORE PUSH1 0x40 PUSH1 0x0 KECCAK256 DUP3 PUSH1 0x1 PUSH1 0x1 PUSH1 0x60 SHL SUB PUSH1 0xA0 SHL DUP3 SLOAD AND OR SWAP1 SSTORE PUSH32 0xDDF252AD1BE2C89B69C2B068FC378DAA952BA7F163C4A11628F55A4DF523B3EF PUSH1 0x0 DUP1 LOG4 JUMP JUMPDEST PUSH1 0x40 MLOAD PUSH3 0x461BCD PUSH1 0xE5 SHL DUP2 MSTORE PUSH1 0x20 PUSH1 0x4 DUP3 ADD MSTORE PUSH1 0x24 DUP1 DUP3 ADD MSTORE PUSH32 0x4552433732313A207472616E7366657220746F20746865207A65726F20616464 PUSH1 0x44 DUP3 ADD MSTORE PUSH4 0x72657373 PUSH1 0xE0 SHL PUSH1 0x64 DUP3 ADD MSTORE PUSH1 0x84 SWAP1 REVERT JUMPDEST PUSH1 0x80 SWAP1 PUSH1 0x20 DUP2 MSTORE PUSH1 0x32 PUSH1 0x20 DUP3 ADD MSTORE PUSH32 0x4552433732313A207472616E7366657220746F206E6F6E204552433732315265 PUSH1 0x40 DUP3 ADD MSTORE PUSH18 0x31B2B4BB32B91034B6B83632B6B2B73A32B9 PUSH1 0x71 SHL PUSH1 0x60 DUP3 ADD MSTORE ADD SWAP1 JUMP JUMPDEST ISZERO PUSH2 0x1C20 JUMPI JUMP JUMPDEST PUSH1 0x40 MLOAD PUSH3 0x461BCD PUSH1 0xE5 SHL DUP2 MSTORE DUP1 PUSH2 0x1C39 PUSH1 0x4 DUP3 ADD PUSH2 0x1BC6 JUMP JUMPDEST SUB SWAP1 REVERT JUMPDEST PUSH1 0x0 DUP2 DUP2 MSTORE PUSH1 0x2 PUSH1 0x20 MSTORE PUSH1 0x40 SWAP1 KECCAK256 SLOAD PUSH2 0x1C60 SWAP1 PUSH1 0x1 PUSH1 0x1 PUSH1 0xA0 SHL SUB AND ISZERO ISZERO PUSH2 0x18C4 JUMP JUMPDEST PUSH1 0x0 MSTORE PUSH1 0x6 PUSH1 0x20 MSTORE PUSH2 0x1C75 PUSH1 0x40 PUSH1 0x0 KECCAK256 PUSH2 0x1717 JUMP JUMPDEST PUSH1 0x0 PUSH1 0x40 MLOAD PUSH2 0x1C85 PUSH1 0x20 DUP3 PUSH2 0x16F6 JUMP JUMPDEST MSTORE SWAP1 JUMP JUMPDEST SWAP2 DUP3 EXTCODESIZE ISZERO PUSH2 0x1DA2 JUMPI PUSH2 0x1CCF SWAP3 PUSH1 0x20 SWAP3 PUSH1 0x0 PUSH1 0x40 MLOAD DUP1 SWAP7 DUP2 SWAP6 DUP3 SWAP5 PUSH4 0xA85BD01 PUSH1 0xE1 SHL DUP5 MSTORE CALLER PUSH1 0x4 DUP6 ADD MSTORE DUP5 PUSH1 0x24 DUP6 ADD MSTORE PUSH1 0x44 DUP5 ADD MSTORE PUSH1 0x80 PUSH1 0x64 DUP5 ADD MSTORE PUSH1 0x84 DUP4 ADD SWAP1 PUSH2 0x15B6 JUMP JUMPDEST SUB SWAP3 PUSH1 0x1 PUSH1 0x1 PUSH1 0xA0 SHL SUB AND GAS CALL DUP1 SWAP2 PUSH1 0x0 SWAP2 PUSH2 0x1D58 JUMPI JUMPDEST POP SWAP1 PUSH2 0x1D42 JUMPI RETURNDATASIZE ISZERO PUSH2 0x1D3B JUMPI RETURNDATASIZE PUSH2 0x1CFC DUP2 PUSH2 0x17BB JUMP JUMPDEST SWAP1 PUSH2 0x1D0A PUSH1 0x40 MLOAD SWAP3 DUP4 PUSH2 0x16F6 JUMP JUMPDEST DUP2 MSTORE RETURNDATASIZE PUSH1 0x0 PUSH1 0x20 DUP4 ADD RETURNDATACOPY JUMPDEST DUP1 MLOAD SWAP1 DUP2 PUSH2 0x1D36 JUMPI PUSH1 0x40 MLOAD PUSH3 0x461BCD PUSH1 0xE5 SHL DUP2 MSTORE DUP1 PUSH2 0x1C39 PUSH1 0x4 DUP3 ADD PUSH2 0x1BC6 JUMP JUMPDEST PUSH1 0x20 ADD REVERT JUMPDEST PUSH1 0x60 PUSH2 0x1D15 JUMP JUMPDEST PUSH1 0x1 PUSH1 0x1 PUSH1 0xE0 SHL SUB NOT AND PUSH4 0xA85BD01 PUSH1 0xE1 SHL EQ SWAP1 JUMP JUMPDEST PUSH1 0x20 DUP2 RETURNDATASIZE PUSH1 0x20 GT PUSH2 0x1D9A JUMPI JUMPDEST DUP2 PUSH2 0x1D71 PUSH1 0x20 SWAP4 DUP4 PUSH2 0x16F6 JUMP JUMPDEST DUP2 ADD SUB SLT PUSH2 0x1D96 JUMPI MLOAD SWAP1 PUSH1 0x1 PUSH1 0x1 PUSH1 0xE0 SHL SUB NOT DUP3 AND DUP3 SUB PUSH2 0x1D93 JUMPI POP CODESIZE PUSH2 0x1CE6 JUMP JUMPDEST DUP1 REVERT JUMPDEST POP DUP1 REVERT JUMPDEST RETURNDATASIZE SWAP2 POP PUSH2 0x1D64 JUMP JUMPDEST POP POP POP PUSH1 0x1 SWAP1 JUMP JUMPDEST SWAP2 SWAP3 SWAP1 DUP1 EXTCODESIZE ISZERO PUSH2 0x1DFA JUMPI PUSH2 0x1CCF SWAP4 PUSH1 0x0 PUSH1 0x20 SWAP5 PUSH1 0x40 MLOAD SWAP7 DUP8 SWAP6 DUP7 SWAP5 DUP6 SWAP4 PUSH4 0xA85BD01 PUSH1 0xE1 SHL DUP6 MSTORE CALLER PUSH1 0x4 DUP7 ADD MSTORE PUSH1 0x1 DUP1 PUSH1 0xA0 SHL SUB AND PUSH1 0x24 DUP6 ADD MSTORE PUSH1 0x44 DUP5 ADD MSTORE PUSH1 0x80 PUSH1 0x64 DUP5 ADD MSTORE PUSH1 0x84 DUP4 ADD SWAP1 PUSH2 0x15B6 JUMP JUMPDEST POP POP POP POP PUSH1 0x1 SWAP1 JUMP JUMPDEST ISZERO PUSH2 0x1E0A JUMPI JUMP JUMPDEST PUSH1 0x40 MLOAD PUSH3 0x461BCD PUSH1 0xE5 SHL DUP2 MSTORE PUSH1 0x20 PUSH1 0x4 DUP3 ADD MSTORE PUSH1 0x1C PUSH1 0x24 DUP3 ADD MSTORE PUSH32 0x4552433732313A20746F6B656E20616C7265616479206D696E74656400000000 PUSH1 0x44 DUP3 ADD MSTORE PUSH1 0x64 SWAP1 REVERT INVALID PUSH1 0x80 PUSH1 0x40 MSTORE PUSH2 0xE5D DUP1 CODESIZE SUB DUP1 PUSH2 0x14 DUP2 PUSH2 0x3FC JUMP JUMPDEST SWAP3 DUP4 CODECOPY DUP2 ADD SWAP1 PUSH1 0x40 DUP2 DUP4 SUB SLT PUSH2 0x3D7 JUMPI DUP1 MLOAD PUSH1 0x1 PUSH1 0x1 PUSH1 0x40 SHL SUB DUP2 GT PUSH2 0x3D7 JUMPI DUP2 ADD SWAP1 DUP3 PUSH1 0x1F DUP4 ADD SLT ISZERO PUSH2 0x3D7 JUMPI DUP2 MLOAD PUSH2 0x55 PUSH2 0x50 DUP3 PUSH2 0x421 JUMP JUMPDEST PUSH2 0x3FC JUMP JUMPDEST SWAP3 PUSH1 0x20 DUP1 DUP6 DUP5 DUP2 MSTORE ADD SWAP3 PUSH1 0x5 SHL DUP3 ADD ADD SWAP1 DUP6 DUP3 GT PUSH2 0x3D7 JUMPI PUSH1 0x20 ADD SWAP2 JUMPDEST DUP2 DUP4 LT PUSH2 0x3DC JUMPI POP POP POP PUSH1 0x20 DUP2 ADD MLOAD SWAP1 PUSH1 0x1 PUSH1 0x1 PUSH1 0x40 SHL SUB DUP3 GT PUSH2 0x3D7 JUMPI ADD SWAP2 DUP1 PUSH1 0x1F DUP5 ADD SLT ISZERO PUSH2 0x3D7 JUMPI DUP3 MLOAD PUSH2 0xAB PUSH2 0x50 DUP3 PUSH2 0x421 JUMP JUMPDEST SWAP4 PUSH1 0x20 DUP1 DUP7 DUP5 DUP2 MSTORE ADD SWAP3 PUSH1 0x5 SHL DUP3 ADD ADD SWAP3 DUP4 GT PUSH2 0x3D7 JUMPI PUSH1 0x20 ADD SWAP1 JUMPDEST DUP3 DUP3 LT PUSH2 0x3C7 JUMPI POP POP POP DUP1 MLOAD DUP3 MLOAD SUB PUSH2 0x367 JUMPI DUP1 MLOAD ISZERO PUSH2 0x322 JUMPI PUSH1 0x0 JUMPDEST DUP2 MLOAD DUP2 LT ISZERO PUSH2 0x313 JUMPI PUSH1 0x1 PUSH1 0x1 PUSH1 0xA0 SHL SUB PUSH2 0xFF DUP3 DUP5 PUSH2 0x438 JUMP JUMPDEST MLOAD AND SWAP1 PUSH2 0x10C DUP2 DUP6 PUSH2 0x438 JUMP JUMPDEST MLOAD DUP3 ISZERO PUSH2 0x2B9 JUMPI DUP1 ISZERO PUSH2 0x274 JUMPI DUP3 PUSH1 0x0 MSTORE PUSH1 0x2 PUSH1 0x20 MSTORE PUSH1 0x40 PUSH1 0x0 KECCAK256 SLOAD PUSH2 0x21B JUMPI PUSH1 0x4 SLOAD PUSH9 0x10000000000000000 DUP2 LT ISZERO PUSH2 0x205 JUMPI PUSH1 0x1 DUP2 ADD DUP1 PUSH1 0x4 SSTORE DUP2 LT ISZERO PUSH2 0x1EF JUMPI PUSH32 0x8A35ACFBC15FF81A39AE7D344FD709F28E8600B4AA8C65C6B64BFE7FE36BD19B ADD DUP1 SLOAD PUSH1 0x1 PUSH1 0x1 PUSH1 0xA0 SHL SUB NOT AND DUP5 OR SWAP1 SSTORE PUSH1 0x0 DUP4 DUP2 MSTORE PUSH1 0x2 PUSH1 0x20 MSTORE PUSH1 0x40 DUP2 KECCAK256 DUP3 SWAP1 SSTORE SLOAD DUP1 DUP3 ADD SWAP1 DUP2 LT PUSH2 0x1D9 JUMPI PUSH1 0x1 SWAP4 PUSH32 0x40C340F65E17194D14DDDDB073D3C9F888E3CB52B5AAE0C6C7706B4FBC905FAC SWAP3 PUSH1 0x40 SWAP3 PUSH1 0x0 SSTORE DUP3 MLOAD SWAP2 DUP3 MSTORE PUSH1 0x20 DUP3 ADD MSTORE LOG1 ADD PUSH2 0xE4 JUMP JUMPDEST PUSH4 0x4E487B71 PUSH1 0xE0 SHL PUSH1 0x0 MSTORE PUSH1 0x11 PUSH1 0x4 MSTORE PUSH1 0x24 PUSH1 0x0 REVERT JUMPDEST PUSH4 0x4E487B71 PUSH1 0xE0 SHL PUSH1 0x0 MSTORE PUSH1 0x32 PUSH1 0x4 MSTORE PUSH1 0x24 PUSH1 0x0 REVERT JUMPDEST PUSH4 0x4E487B71 PUSH1 0xE0 SHL PUSH1 0x0 MSTORE PUSH1 0x41 PUSH1 0x4 MSTORE PUSH1 0x24 PUSH1 0x0 REVERT JUMPDEST PUSH1 0x40 MLOAD PUSH3 0x461BCD PUSH1 0xE5 SHL DUP2 MSTORE PUSH1 0x20 PUSH1 0x4 DUP3 ADD MSTORE PUSH1 0x2B PUSH1 0x24 DUP3 ADD MSTORE PUSH32 0x5061796D656E7453706C69747465723A206163636F756E7420616C7265616479 PUSH1 0x44 DUP3 ADD MSTORE PUSH11 0x2068617320736861726573 PUSH1 0xA8 SHL PUSH1 0x64 DUP3 ADD MSTORE PUSH1 0x84 SWAP1 REVERT JUMPDEST PUSH1 0x40 MLOAD PUSH3 0x461BCD PUSH1 0xE5 SHL DUP2 MSTORE PUSH1 0x20 PUSH1 0x4 DUP3 ADD MSTORE PUSH1 0x1D PUSH1 0x24 DUP3 ADD MSTORE PUSH32 0x5061796D656E7453706C69747465723A20736861726573206172652030000000 PUSH1 0x44 DUP3 ADD MSTORE PUSH1 0x64 SWAP1 REVERT JUMPDEST PUSH1 0x40 MLOAD PUSH3 0x461BCD PUSH1 0xE5 SHL DUP2 MSTORE PUSH1 0x20 PUSH1 0x4 DUP3 ADD MSTORE PUSH1 0x2C PUSH1 0x24 DUP3 ADD MSTORE PUSH32 0x5061796D656E7453706C69747465723A206163636F756E742069732074686520 PUSH1 0x44 DUP3 ADD MSTORE PUSH12 0x7A65726F2061646472657373 PUSH1 0xA0 SHL PUSH1 0x64 DUP3 ADD MSTORE PUSH1 0x84 SWAP1 REVERT JUMPDEST PUSH1 0x40 MLOAD PUSH2 0xA10 SWAP1 DUP2 PUSH2 0x44D DUP3 CODECOPY RETURN JUMPDEST PUSH1 0x40 MLOAD PUSH3 0x461BCD PUSH1 0xE5 SHL DUP2 MSTORE PUSH1 0x20 PUSH1 0x4 DUP3 ADD MSTORE PUSH1 0x1A PUSH1 0x24 DUP3 ADD MSTORE PUSH32 0x5061796D656E7453706C69747465723A206E6F20706179656573000000000000 PUSH1 0x44 DUP3 ADD MSTORE PUSH1 0x64 SWAP1 REVERT JUMPDEST PUSH1 0x40 MLOAD PUSH3 0x461BCD PUSH1 0xE5 SHL DUP2 MSTORE PUSH1 0x20 PUSH1 0x4 DUP3 ADD MSTORE PUSH1 0x32 PUSH1 0x24 DUP3 ADD MSTORE PUSH32 0x5061796D656E7453706C69747465723A2070617965657320616E642073686172 PUSH1 0x44 DUP3 ADD MSTORE PUSH18 0xCAE640D8CADCCEE8D040DAD2E6DAC2E8C6D PUSH1 0x73 SHL PUSH1 0x64 DUP3 ADD MSTORE PUSH1 0x84 SWAP1 REVERT JUMPDEST DUP2 MLOAD DUP2 MSTORE PUSH1 0x20 SWAP2 DUP3 ADD SWAP2 ADD PUSH2 0xC7 JUMP JUMPDEST PUSH1 0x0 DUP1 REVERT JUMPDEST DUP3 MLOAD PUSH1 0x1 PUSH1 0x1 PUSH1 0xA0 SHL SUB DUP2 AND DUP2 SUB PUSH2 0x3D7 JUMPI DUP2 MSTORE PUSH1 0x20 SWAP3 DUP4 ADD SWAP3 ADD PUSH2 0x72 JUMP JUMPDEST PUSH1 0x40 MLOAD SWAP2 SWAP1 PUSH1 0x1F ADD PUSH1 0x1F NOT AND DUP3 ADD PUSH1 0x1 PUSH1 0x1 PUSH1 0x40 SHL SUB DUP2 GT DUP4 DUP3 LT OR PUSH2 0x205 JUMPI PUSH1 0x40 MSTORE JUMP JUMPDEST PUSH1 0x1 PUSH1 0x1 PUSH1 0x40 SHL SUB DUP2 GT PUSH2 0x205 JUMPI PUSH1 0x5 SHL PUSH1 0x20 ADD SWAP1 JUMP JUMPDEST DUP1 MLOAD DUP3 LT ISZERO PUSH2 0x1EF JUMPI PUSH1 0x20 SWAP2 PUSH1 0x5 SHL ADD ADD SWAP1 JUMP INVALID PUSH1 0x80 PUSH1 0x40 MSTORE PUSH1 0x4 CALLDATASIZE LT ISZERO PUSH2 0x4C JUMPI JUMPDEST CALLDATASIZE ISZERO PUSH2 0x19 JUMPI PUSH1 0x0 DUP1 REVERT JUMPDEST PUSH1 0x40 DUP1 MLOAD CALLER DUP2 MSTORE CALLVALUE PUSH1 0x20 DUP3 ADD MSTORE PUSH32 0x6EF95F06320E7A25A04A175CA677B7052BDD97131872C2192525A629F51BE770 SWAP2 SWAP1 LOG1 STOP JUMPDEST PUSH1 0x0 CALLDATALOAD PUSH1 0xE0 SHR DUP1 PUSH4 0x19165587 EQ PUSH2 0x4C9 JUMPI DUP1 PUSH4 0x3A98EF39 EQ PUSH2 0x4AB JUMPI DUP1 PUSH4 0x406072A9 EQ PUSH2 0x45A JUMPI DUP1 PUSH4 0x48B75044 EQ PUSH2 0x263 JUMPI DUP1 PUSH4 0x8B83209B EQ PUSH2 0x1F2 JUMPI DUP1 PUSH4 0x9852595C EQ PUSH2 0x1B8 JUMPI DUP1 PUSH4 0xA3F8EACE EQ PUSH2 0x195 JUMPI DUP1 PUSH4 0xC45AC050 EQ PUSH2 0x161 JUMPI DUP1 PUSH4 0xCE7C2AC2 EQ PUSH2 0x127 JUMPI DUP1 PUSH4 0xD79779B2 EQ PUSH2 0xED JUMPI PUSH4 0xE33B7DE3 SUB PUSH2 0xE JUMPI CALLVALUE PUSH2 0xE8 JUMPI PUSH1 0x0 CALLDATASIZE PUSH1 0x3 NOT ADD SLT PUSH2 0xE8 JUMPI PUSH1 0x20 PUSH1 0x1 SLOAD PUSH1 0x40 MLOAD SWAP1 DUP2 MSTORE RETURN JUMPDEST PUSH1 0x0 DUP1 REVERT JUMPDEST CALLVALUE PUSH2 0xE8 JUMPI PUSH1 0x20 CALLDATASIZE PUSH1 0x3 NOT ADD SLT PUSH2 0xE8 JUMPI PUSH1 0x1 PUSH1 0x1 PUSH1 0xA0 SHL SUB PUSH2 0x10E PUSH2 0x63F JUMP JUMPDEST AND PUSH1 0x0 MSTORE PUSH1 0x5 PUSH1 0x20 MSTORE PUSH1 0x20 PUSH1 0x40 PUSH1 0x0 KECCAK256 SLOAD PUSH1 0x40 MLOAD SWAP1 DUP2 MSTORE RETURN JUMPDEST CALLVALUE PUSH2 0xE8 JUMPI PUSH1 0x20 CALLDATASIZE PUSH1 0x3 NOT ADD SLT PUSH2 0xE8 JUMPI PUSH1 0x1 PUSH1 0x1 PUSH1 0xA0 SHL SUB PUSH2 0x148 PUSH2 0x63F JUMP JUMPDEST AND PUSH1 0x0 MSTORE PUSH1 0x2 PUSH1 0x20 MSTORE PUSH1 0x20 PUSH1 0x40 PUSH1 0x0 KECCAK256 SLOAD PUSH1 0x40 MLOAD SWAP1 DUP2 MSTORE RETURN JUMPDEST CALLVALUE PUSH2 0xE8 JUMPI PUSH1 0x40 CALLDATASIZE PUSH1 0x3 NOT ADD SLT PUSH2 0xE8 JUMPI PUSH1 0x20 PUSH2 0x18D PUSH2 0x17F PUSH2 0x63F JUMP JUMPDEST PUSH2 0x187 PUSH2 0x655 JUMP JUMPDEST SWAP1 PUSH2 0x7B4 JUMP JUMPDEST PUSH1 0x40 MLOAD SWAP1 DUP2 MSTORE RETURN JUMPDEST CALLVALUE PUSH2 0xE8 JUMPI PUSH1 0x20 CALLDATASIZE PUSH1 0x3 NOT ADD SLT PUSH2 0xE8 JUMPI PUSH1 0x20 PUSH2 0x18D PUSH2 0x1B3 PUSH2 0x63F JUMP JUMPDEST PUSH2 0x749 JUMP JUMPDEST CALLVALUE PUSH2 0xE8 JUMPI PUSH1 0x20 CALLDATASIZE PUSH1 0x3 NOT ADD SLT PUSH2 0xE8 JUMPI PUSH1 0x1 PUSH1 0x1 PUSH1 0xA0 SHL SUB PUSH2 0x1D9 PUSH2 0x63F JUMP JUMPDEST AND PUSH1 0x0 MSTORE PUSH1 0x3 PUSH1 0x20 MSTORE PUSH1 0x20 PUSH1 0x40 PUSH1 0x0 KECCAK256 SLOAD PUSH1 0x40 MLOAD SWAP1 DUP2 MSTORE RETURN JUMPDEST CALLVALUE PUSH2 0xE8 JUMPI PUSH1 0x20 CALLDATASIZE PUSH1 0x3 NOT ADD SLT PUSH2 0xE8 JUMPI PUSH1 0x4 CALLDATALOAD PUSH1 0x4 SLOAD DUP2 LT ISZERO PUSH2 0x24D JUMPI PUSH1 0x4 PUSH1 0x0 MSTORE PUSH32 0x8A35ACFBC15FF81A39AE7D344FD709F28E8600B4AA8C65C6B64BFE7FE36BD19B ADD SLOAD PUSH1 0x40 MLOAD PUSH1 0x1 PUSH1 0x1 PUSH1 0xA0 SHL SUB SWAP1 SWAP2 AND DUP2 MSTORE PUSH1 0x20 SWAP1 RETURN JUMPDEST PUSH4 0x4E487B71 PUSH1 0xE0 SHL PUSH1 0x0 MSTORE PUSH1 0x32 PUSH1 0x4 MSTORE PUSH1 0x24 PUSH1 0x0 REVERT JUMPDEST CALLVALUE PUSH2 0xE8 JUMPI PUSH1 0x40 CALLDATASIZE PUSH1 0x3 NOT ADD SLT PUSH2 0xE8 JUMPI PUSH2 0x27C PUSH2 0x63F JUMP JUMPDEST PUSH2 0x284 PUSH2 0x655 JUMP JUMPDEST SWAP1 PUSH1 0x1 DUP1 PUSH1 0xA0 SHL SUB DUP3 AND PUSH1 0x0 MSTORE PUSH1 0x2 PUSH1 0x20 MSTORE PUSH2 0x2A6 PUSH1 0x40 PUSH1 0x0 KECCAK256 SLOAD ISZERO ISZERO PUSH2 0x66B JUMP JUMPDEST PUSH2 0x2B0 DUP3 DUP3 PUSH2 0x7B4 JUMP JUMPDEST SWAP1 PUSH2 0x2BC DUP3 ISZERO ISZERO PUSH2 0x6C6 JUMP JUMPDEST PUSH1 0x1 DUP1 PUSH1 0xA0 SHL SUB AND SWAP1 DUP2 PUSH1 0x0 MSTORE PUSH1 0x5 PUSH1 0x20 MSTORE PUSH1 0x40 PUSH1 0x0 KECCAK256 PUSH2 0x2DE DUP3 DUP3 SLOAD PUSH2 0x726 JUMP JUMPDEST SWAP1 SSTORE PUSH1 0x0 DUP3 DUP2 MSTORE PUSH1 0x6 PUSH1 0x20 SWAP1 DUP2 MSTORE PUSH1 0x40 DUP1 DUP4 KECCAK256 PUSH1 0x1 PUSH1 0x1 PUSH1 0xA0 SHL SUB DUP8 AND DUP1 DUP6 MSTORE SWAP1 DUP4 MSTORE SWAP3 DUP2 SWAP1 KECCAK256 DUP1 SLOAD DUP6 ADD SWAP1 SSTORE MLOAD PUSH4 0xA9059CBB PUSH1 0xE0 SHL SWAP2 DUP2 ADD SWAP2 DUP3 MSTORE PUSH1 0x24 DUP2 ADD SWAP3 SWAP1 SWAP3 MSTORE PUSH1 0x44 DUP1 DUP4 ADD DUP5 SWAP1 MSTORE DUP3 MSTORE SWAP4 SWAP1 PUSH2 0x38F SWAP1 PUSH2 0x33D PUSH1 0x64 DUP3 PUSH2 0x77C JUMP JUMPDEST PUSH1 0x0 DUP1 PUSH1 0x40 SWAP8 DUP9 MLOAD SWAP4 PUSH2 0x350 DUP11 DUP7 PUSH2 0x77C JUMP JUMPDEST PUSH1 0x20 DUP6 MSTORE PUSH32 0x5361666545524332303A206C6F772D6C6576656C2063616C6C206661696C6564 PUSH1 0x20 DUP7 ADD MSTORE MLOAD SWAP1 DUP3 DUP10 GAS CALL PUSH2 0x388 PUSH2 0x872 JUMP JUMPDEST SWAP1 DUP7 PUSH2 0x90A JUMP JUMPDEST DUP1 MLOAD SWAP1 DUP2 ISZERO SWAP2 DUP3 ISZERO PUSH2 0x437 JUMPI JUMPDEST POP POP ISZERO PUSH2 0x3E0 JUMPI SWAP3 MLOAD PUSH1 0x1 PUSH1 0x1 PUSH1 0xA0 SHL SUB SWAP1 SWAP4 AND DUP4 MSTORE PUSH1 0x20 DUP4 ADD MSTORE SWAP1 PUSH32 0x3BE5B7A71E84ED12875D241991C70855AC5817D847039E17A9D895C1CEB0F18A SWAP1 PUSH1 0x40 SWAP1 LOG2 STOP JUMPDEST DUP4 MLOAD PUSH3 0x461BCD PUSH1 0xE5 SHL DUP2 MSTORE PUSH1 0x20 PUSH1 0x4 DUP3 ADD MSTORE PUSH1 0x2A PUSH1 0x24 DUP3 ADD MSTORE PUSH32 0x5361666545524332303A204552433230206F7065726174696F6E20646964206E PUSH1 0x44 DUP3 ADD MSTORE PUSH10 0x1BDD081CDD58D8D95959 PUSH1 0xB2 SHL PUSH1 0x64 DUP3 ADD MSTORE PUSH1 0x84 SWAP1 REVERT JUMPDEST DUP2 SWAP3 POP SWAP1 PUSH1 0x20 SWAP2 DUP2 ADD SUB SLT PUSH2 0xE8 JUMPI PUSH1 0x20 ADD MLOAD DUP1 ISZERO ISZERO DUP2 SUB PUSH2 0xE8 JUMPI DUP6 DUP1 PUSH2 0x39C JUMP JUMPDEST CALLVALUE PUSH2 0xE8 JUMPI PUSH1 0x40 CALLDATASIZE PUSH1 0x3 NOT ADD SLT PUSH2 0xE8 JUMPI PUSH2 0x473 PUSH2 0x63F JUMP JUMPDEST PUSH2 0x47B PUSH2 0x655 JUMP JUMPDEST PUSH1 0x1 PUSH1 0x1 PUSH1 0xA0 SHL SUB SWAP2 DUP3 AND PUSH1 0x0 SWAP1 DUP2 MSTORE PUSH1 0x6 PUSH1 0x20 SWAP1 DUP2 MSTORE PUSH1 0x40 DUP1 DUP4 KECCAK256 SWAP5 SWAP1 SWAP4 AND DUP3 MSTORE SWAP3 DUP4 MSTORE DUP2 SWAP1 KECCAK256 SLOAD SWAP1 MLOAD SWAP1 DUP2 MSTORE RETURN JUMPDEST CALLVALUE PUSH2 0xE8 JUMPI PUSH1 0x0 CALLDATASIZE PUSH1 0x3 NOT ADD SLT PUSH2 0xE8 JUMPI PUSH1 0x20 PUSH1 0x0 SLOAD PUSH1 0x40 MLOAD SWAP1 DUP2 MSTORE RETURN JUMPDEST CALLVALUE PUSH2 0xE8 JUMPI PUSH1 0x20 CALLDATASIZE PUSH1 0x3 NOT ADD SLT PUSH2 0xE8 JUMPI PUSH1 0x4 CALLDATALOAD PUSH1 0x1 PUSH1 0x1 PUSH1 0xA0 SHL SUB DUP2 AND SWAP1 DUP2 SWAP1 SUB PUSH2 0xE8 JUMPI DUP1 PUSH1 0x0 MSTORE PUSH1 0x2 PUSH1 0x20 MSTORE PUSH2 0x508 PUSH1 0x40 PUSH1 0x0 KECCAK256 SLOAD ISZERO ISZERO PUSH2 0x66B JUMP JUMPDEST PUSH2 0x511 DUP2 PUSH2 0x749 JUMP JUMPDEST PUSH2 0x51C DUP2 ISZERO ISZERO PUSH2 0x6C6 JUMP JUMPDEST PUSH2 0x528 DUP2 PUSH1 0x1 SLOAD PUSH2 0x726 JUMP JUMPDEST PUSH1 0x1 SSTORE DUP2 PUSH1 0x0 MSTORE PUSH1 0x3 PUSH1 0x20 MSTORE PUSH1 0x40 PUSH1 0x0 KECCAK256 DUP2 DUP2 SLOAD ADD SWAP1 SSTORE DUP1 SELFBALANCE LT PUSH2 0x5FA JUMPI PUSH1 0x0 DUP1 DUP1 DUP1 DUP5 DUP7 GAS CALL PUSH2 0x557 PUSH2 0x872 JUMP JUMPDEST POP ISZERO PUSH2 0x58F JUMPI PUSH32 0xDF20FD1E76BC69D672E4814FAFB2C449BBA3A5369D8359ADF9E05E6FDE87B056 SWAP2 PUSH1 0x40 SWAP2 DUP3 MLOAD SWAP2 DUP3 MSTORE PUSH1 0x20 DUP3 ADD MSTORE LOG1 STOP JUMPDEST PUSH1 0x40 MLOAD PUSH3 0x461BCD PUSH1 0xE5 SHL DUP2 MSTORE PUSH1 0x20 PUSH1 0x4 DUP3 ADD MSTORE PUSH1 0x3A PUSH1 0x24 DUP3 ADD MSTORE PUSH32 0x416464726573733A20756E61626C6520746F2073656E642076616C75652C2072 PUSH1 0x44 DUP3 ADD MSTORE PUSH32 0x6563697069656E74206D61792068617665207265766572746564000000000000 PUSH1 0x64 DUP3 ADD MSTORE PUSH1 0x84 SWAP1 REVERT JUMPDEST PUSH1 0x40 MLOAD PUSH3 0x461BCD PUSH1 0xE5 SHL DUP2 MSTORE PUSH1 0x20 PUSH1 0x4 DUP3 ADD MSTORE PUSH1 0x1D PUSH1 0x24 DUP3 ADD MSTORE PUSH32 0x416464726573733A20696E73756666696369656E742062616C616E6365000000 PUSH1 0x44 DUP3 ADD MSTORE PUSH1 0x64 SWAP1 REVERT JUMPDEST PUSH1 0x4 CALLDATALOAD SWAP1 PUSH1 0x1 PUSH1 0x1 PUSH1 0xA0 SHL SUB DUP3 AND DUP3 SUB PUSH2 0xE8 JUMPI JUMP JUMPDEST PUSH1 0x24 CALLDATALOAD SWAP1 PUSH1 0x1 PUSH1 0x1 PUSH1 0xA0 SHL SUB DUP3 AND DUP3 SUB PUSH2 0xE8 JUMPI JUMP JUMPDEST ISZERO PUSH2 0x672 JUMPI JUMP JUMPDEST PUSH1 0x40 MLOAD PUSH3 0x461BCD PUSH1 0xE5 SHL DUP2 MSTORE PUSH1 0x20 PUSH1 0x4 DUP3 ADD MSTORE PUSH1 0x26 PUSH1 0x24 DUP3 ADD MSTORE PUSH32 0x5061796D656E7453706C69747465723A206163636F756E7420686173206E6F20 PUSH1 0x44 DUP3 ADD MSTORE PUSH6 0x736861726573 PUSH1 0xD0 SHL PUSH1 0x64 DUP3 ADD MSTORE PUSH1 0x84 SWAP1 REVERT JUMPDEST ISZERO PUSH2 0x6CD JUMPI JUMP JUMPDEST PUSH1 0x40 MLOAD PUSH3 0x461BCD PUSH1 0xE5 SHL DUP2 MSTORE PUSH1 0x20 PUSH1 0x4 DUP3 ADD MSTORE PUSH1 0x2B PUSH1 0x24 DUP3 ADD MSTORE PUSH32 0x5061796D656E7453706C69747465723A206163636F756E74206973206E6F7420 PUSH1 0x44 DUP3 ADD MSTORE PUSH11 0x191D59481C185E5B595B9D PUSH1 0xAA SHL PUSH1 0x64 DUP3 ADD MSTORE PUSH1 0x84 SWAP1 REVERT JUMPDEST SWAP2 SWAP1 DUP3 ADD DUP1 SWAP3 GT PUSH2 0x733 JUMPI JUMP JUMPDEST PUSH4 0x4E487B71 PUSH1 0xE0 SHL PUSH1 0x0 MSTORE PUSH1 0x11 PUSH1 0x4 MSTORE PUSH1 0x24 PUSH1 0x0 REVERT JUMPDEST PUSH2 0x779 SWAP1 PUSH2 0x75A SELFBALANCE PUSH1 0x1 SLOAD SWAP1 PUSH2 0x726 JUMP JUMPDEST PUSH1 0x1 PUSH1 0x1 PUSH1 0xA0 SHL SUB DUP3 AND PUSH1 0x0 SWAP1 DUP2 MSTORE PUSH1 0x3 PUSH1 0x20 MSTORE PUSH1 0x40 SWAP1 KECCAK256 SLOAD SWAP2 PUSH2 0x8B2 JUMP JUMPDEST SWAP1 JUMP JUMPDEST SWAP1 PUSH1 0x1F DUP1 NOT SWAP2 ADD AND DUP2 ADD SWAP1 DUP2 LT PUSH8 0xFFFFFFFFFFFFFFFF DUP3 GT OR PUSH2 0x79E JUMPI PUSH1 0x40 MSTORE JUMP JUMPDEST PUSH4 0x4E487B71 PUSH1 0xE0 SHL PUSH1 0x0 MSTORE PUSH1 0x41 PUSH1 0x4 MSTORE PUSH1 0x24 PUSH1 0x0 REVERT JUMPDEST PUSH1 0x40 MLOAD PUSH4 0x70A08231 PUSH1 0xE0 SHL DUP2 MSTORE ADDRESS PUSH1 0x4 DUP3 ADD MSTORE SWAP2 SWAP1 PUSH1 0x1 PUSH1 0x1 PUSH1 0xA0 SHL SUB AND PUSH1 0x20 DUP4 PUSH1 0x24 DUP2 DUP5 GAS STATICCALL SWAP3 DUP4 ISZERO PUSH2 0x866 JUMPI PUSH1 0x0 SWAP4 PUSH2 0x830 JUMPI JUMPDEST POP PUSH2 0x807 PUSH2 0x779 SWAP4 DUP3 PUSH1 0x0 MSTORE PUSH1 0x5 PUSH1 0x20 MSTORE PUSH1 0x40 PUSH1 0x0 KECCAK256 SLOAD SWAP1 PUSH2 0x726 JUMP JUMPDEST SWAP1 PUSH1 0x0 MSTORE PUSH1 0x6 PUSH1 0x20 MSTORE PUSH1 0x40 PUSH1 0x0 KECCAK256 PUSH1 0x1 DUP1 PUSH1 0xA0 SHL SUB DUP4 AND PUSH1 0x0 MSTORE PUSH1 0x20 MSTORE PUSH1 0x40 PUSH1 0x0 KECCAK256 SLOAD SWAP2 PUSH2 0x8B2 JUMP JUMPDEST SWAP3 POP PUSH1 0x20 DUP4 RETURNDATASIZE PUSH1 0x20 GT PUSH2 0x85E JUMPI JUMPDEST DUP2 PUSH2 0x84B PUSH1 0x20 SWAP4 DUP4 PUSH2 0x77C JUMP JUMPDEST DUP2 ADD SUB SLT PUSH2 0xE8 JUMPI SWAP2 MLOAD SWAP2 PUSH2 0x807 PUSH2 0x7EA JUMP JUMPDEST RETURNDATASIZE SWAP2 POP PUSH2 0x83E JUMP JUMPDEST PUSH1 0x40 MLOAD RETURNDATASIZE PUSH1 0x0 DUP3 RETURNDATACOPY RETURNDATASIZE SWAP1 REVERT JUMPDEST RETURNDATASIZE ISZERO PUSH2 0x8AD JUMPI RETURNDATASIZE SWAP1 PUSH8 0xFFFFFFFFFFFFFFFF DUP3 GT PUSH2 0x79E JUMPI PUSH1 0x40 MLOAD SWAP2 PUSH2 0x8A1 PUSH1 0x1F DUP3 ADD PUSH1 0x1F NOT AND PUSH1 0x20 ADD DUP5 PUSH2 0x77C JUMP JUMPDEST DUP3 MSTORE RETURNDATASIZE PUSH1 0x0 PUSH1 0x20 DUP5 ADD RETURNDATACOPY JUMP JUMPDEST PUSH1 0x60 SWAP1 JUMP JUMPDEST PUSH1 0x1 PUSH1 0x1 PUSH1 0xA0 SHL SUB AND PUSH1 0x0 SWAP1 DUP2 MSTORE PUSH1 0x2 PUSH1 0x20 MSTORE PUSH1 0x40 SWAP1 KECCAK256 SLOAD DUP2 DUP2 MUL SWAP2 DUP1 ISZERO SWAP1 DUP4 DIV SWAP1 SWAP2 EQ OR ISZERO PUSH2 0x733 JUMPI PUSH1 0x0 SLOAD SWAP1 DUP2 ISZERO PUSH2 0x8F4 JUMPI DIV SWAP1 DUP2 SUB SWAP1 DUP2 GT PUSH2 0x733 JUMPI SWAP1 JUMP JUMPDEST PUSH4 0x4E487B71 PUSH1 0xE0 SHL PUSH1 0x0 MSTORE PUSH1 0x12 PUSH1 0x4 MSTORE PUSH1 0x24 PUSH1 0x0 REVERT JUMPDEST SWAP2 SWAP3 SWAP1 ISZERO PUSH2 0x96C JUMPI POP DUP2 MLOAD ISZERO PUSH2 0x91E JUMPI POP SWAP1 JUMP JUMPDEST EXTCODESIZE ISZERO PUSH2 0x927 JUMPI SWAP1 JUMP JUMPDEST PUSH1 0x40 MLOAD PUSH3 0x461BCD PUSH1 0xE5 SHL DUP2 MSTORE PUSH1 0x20 PUSH1 0x4 DUP3 ADD MSTORE PUSH1 0x1D PUSH1 0x24 DUP3 ADD MSTORE PUSH32 0x416464726573733A2063616C6C20746F206E6F6E2D636F6E7472616374000000 PUSH1 0x44 DUP3 ADD MSTORE PUSH1 0x64 SWAP1 REVERT JUMPDEST DUP3 MLOAD SWAP1 SWAP2 POP ISZERO PUSH2 0x97F JUMPI POP DUP1 MLOAD SWAP1 PUSH1 0x20 ADD REVERT JUMPDEST PUSH1 0x40 MLOAD SWAP1 PUSH3 0x461BCD PUSH1 0xE5 SHL DUP3 MSTORE PUSH1 0x20 PUSH1 0x4 DUP4 ADD MSTORE DUP2 DUP2 MLOAD SWAP2 DUP3 PUSH1 0x24 DUP4 ADD MSTORE PUSH1 0x0 JUMPDEST DUP4 DUP2 LT PUSH2 0x9C2 JUMPI POP POP DUP2 PUSH1 0x0 PUSH1 0x44 DUP1 SWAP5 DUP5 ADD ADD MSTORE PUSH1 0x1F DUP1 NOT SWAP2 ADD AND DUP2 ADD SUB ADD SWAP1 REVERT JUMPDEST PUSH1 0x20 DUP3 DUP3 ADD DUP2 ADD MLOAD PUSH1 0x44 DUP8 DUP5 ADD ADD MSTORE DUP6 SWAP4 POP ADD PUSH2 0x9A0 JUMP INVALID LOG2 PUSH5 0x6970667358 0x22 SLT KECCAK256 0xEF BASEFEE NOT PUSH0 PUSH23 0x1ABF4E73EA1F92DEE91ADC62AFAFF9283169510C8307E2 0x29 NOT 0xDE 0xEF PUSH5 0x736F6C6343 STOP ADDMOD SHR STOP CALLER LOG2 PUSH5 0x6970667358 0x22 SLT KECCAK256 SLT EQ KECCAK256 PUSH30 0xDB266F58A0A9F52BACBA0FDD47A4D66333FCA9E1E0324BB60A9C9D026473 PUSH16 0x6C634300081C00330000000000000000 "},"methodIdentifiers":{"addDerivative(uint256,uint256)":"10306ea8","approve(address,uint256)":"095ea7b3","balanceOf(address)":"70a08231","getApproved(uint256)":"081812fc","getDerivatives(uint256)":"6da4d739","getPaymentSplitter(uint256)":"f283f18b","ipInfo(uint256)":"94ad7478","isApprovedForAll(address,address)":"e985e9c5","mintIP(address,string,bytes32,address,uint96,address[],uint256[])":"408dfac0","name()":"06fdde03","owner()":"8da5cb5b","ownerOf(uint256)":"6352211e","renounceOwnership()":"715018a6","royaltyInfo(uint256,uint256)":"2a55205a","safeTransferFrom(address,address,uint256)":"42842e0e","safeTransferFrom(address,address,uint256,bytes)":"b88d4fde","setApprovalForAll(address,bool)":"a22cb465","supportsInterface(bytes4)":"01ffc9a7","symbol()":"95d89b41","tokenURI(uint256)":"c87b56dd","transferFrom(address,address,uint256)":"23b872dd","transferOwnership(address)":"f2fde38b"}}}}}