{"contracts/DerivativeIP.sol":{"DerivativeIP":{"abi":[{"inputs":[{"internalType":"address","name":"_ipContract","type":"address"},{"internalType":"address","name":"_licenseContract","type":"address"},{"internalType":"string","name":"name_","type":"string"},{"internalType":"string","name":"symbol_","type":"string"}],"stateMutability":"nonpayable","type":"constructor"},{"anonymous":false,"inputs":[{"indexed":true,"internalType":"address","name":"owner","type":"address"},{"indexed":true,"internalType":"address","name":"approved","type":"address"},{"indexed":true,"internalType":"uint256","name":"tokenId","type":"uint256"}],"name":"Approval","type":"event"},{"anonymous":false,"inputs":[{"indexed":true,"internalType":"address","name":"owner","type":"address"},{"indexed":true,"internalType":"address","name":"operator","type":"address"},{"indexed":false,"internalType":"bool","name":"approved","type":"bool"}],"name":"ApprovalForAll","type":"event"},{"anonymous":false,"inputs":[{"indexed":false,"internalType":"uint256","name":"_fromTokenId","type":"uint256"},{"indexed":false,"internalType":"uint256","name":"_toTokenId","type":"uint256"}],"name":"BatchMetadataUpdate","type":"event"},{"anonymous":false,"inputs":[{"indexed":true,"internalType":"uint256","name":"derivativeTokenId","type":"uint256"},{"indexed":false,"internalType":"uint256[]","name":"parentTokenIds","type":"uint256[]"},{"indexed":true,"internalType":"address","name":"creator","type":"address"},{"indexed":false,"internalType":"enum DerivativeIP.DerivativeType","name":"derivativeType","type":"uint8"},{"indexed":false,"internalType":"bool","name":"isCommercial","type":"bool"},{"indexed":false,"internalType":"uint256[]","name":"consumedLicenseIds","type":"uint256[]"}],"name":"DerivativeCreated","type":"event"},{"anonymous":false,"inputs":[{"indexed":true,"internalType":"uint256","name":"licenseTokenId","type":"uint256"},{"indexed":true,"internalType":"uint256","name":"derivativeTokenId","type":"uint256"}],"name":"LicenseConsumed","type":"event"},{"anonymous":false,"inputs":[{"indexed":false,"internalType":"uint256","name":"_tokenId","type":"uint256"}],"name":"MetadataUpdate","type":"event"},{"anonymous":false,"inputs":[{"indexed":true,"internalType":"address","name":"previousOwner","type":"address"},{"indexed":true,"internalType":"address","name":"newOwner","type":"address"}],"name":"OwnershipTransferred","type":"event"},{"anonymous":false,"inputs":[{"indexed":true,"internalType":"uint256","name":"derivativeTokenId","type":"uint256"},{"indexed":true,"internalType":"uint256","name":"parentTokenId","type":"uint256"}],"name":"ParentAttributed","type":"event"},{"anonymous":false,"inputs":[{"indexed":true,"internalType":"address","name":"from","type":"address"},{"indexed":true,"internalType":"address","name":"to","type":"address"},{"indexed":true,"internalType":"uint256","name":"tokenId","type":"uint256"}],"name":"Transfer","type":"event"},{"inputs":[{"internalType":"address","name":"to","type":"address"},{"internalType":"uint256","name":"tokenId","type":"uint256"}],"name":"approve","outputs":[],"stateMutability":"nonpayable","type":"function"},{"inputs":[{"internalType":"address","name":"owner","type":"address"}],"name":"balanceOf","outputs":[{"internalType":"uint256","name":"","type":"uint256"}],"stateMutability":"view","type":"function"},{"inputs":[{"internalType":"uint256","name":"derivativeTokenId","type":"uint256"}],"name":"canBeLicensed","outputs":[{"internalType":"bool","name":"","type":"bool"}],"stateMutability":"view","type":"function"},{"inputs":[{"internalType":"uint256","name":"","type":"uint256"}],"name":"consumedLicenses","outputs":[{"internalType":"bool","name":"","type":"bool"}],"stateMutability":"view","type":"function"},{"inputs":[{"internalType":"uint256[]","name":"parentTokenIds","type":"uint256[]"},{"internalType":"uint256[]","name":"licenseTokenIds","type":"uint256[]"},{"internalType":"string","name":"metadataURI","type":"string"},{"internalType":"bytes32","name":"contentHash","type":"bytes32"},{"internalType":"enum DerivativeIP.DerivativeType","name":"derivativeType","type":"uint8"},{"internalType":"bool","name":"isCommercial","type":"bool"}],"name":"createDerivative","outputs":[{"internalType":"uint256","name":"","type":"uint256"}],"stateMutability":"nonpayable","type":"function"},{"inputs":[{"internalType":"uint256","name":"","type":"uint256"}],"name":"derivativeInfo","outputs":[{"internalType":"uint256","name":"derivativeTokenId","type":"uint256"},{"internalType":"address","name":"creator","type":"address"},{"internalType":"string","name":"metadataURI","type":"string"},{"internalType":"bytes32","name":"contentHash","type":"bytes32"},{"internalType":"enum DerivativeIP.DerivativeType","name":"derivativeType","type":"uint8"},{"internalType":"uint256","name":"creationTimestamp","type":"uint256"},{"internalType":"bool","name":"isCommercial","type":"bool"}],"stateMutability":"view","type":"function"},{"inputs":[{"internalType":"uint256","name":"","type":"uint256"},{"internalType":"uint256","name":"","type":"uint256"}],"name":"derivativeToParents","outputs":[{"internalType":"uint256","name":"","type":"uint256"}],"stateMutability":"view","type":"function"},{"inputs":[{"internalType":"uint256","name":"tokenId","type":"uint256"}],"name":"getApproved","outputs":[{"internalType":"address","name":"","type":"address"}],"stateMutability":"view","type":"function"},{"inputs":[{"internalType":"uint256","name":"derivativeTokenId","type":"uint256"}],"name":"getDerivativeInfo","outputs":[{"internalType":"uint256[]","name":"parentTokenIds","type":"uint256[]"},{"internalType":"address","name":"creator","type":"address"},{"internalType":"string","name":"metadataURI","type":"string"},{"internalType":"bytes32","name":"contentHash","type":"bytes32"},{"internalType":"enum DerivativeIP.DerivativeType","name":"derivativeType","type":"uint8"},{"internalType":"uint256","name":"creationTimestamp","type":"uint256"},{"internalType":"bool","name":"isCommercial","type":"bool"},{"internalType":"uint256[]","name":"consumedLicenseIds","type":"uint256[]"}],"stateMutability":"view","type":"function"},{"inputs":[{"internalType":"uint256","name":"derivativeTokenId","type":"uint256"}],"name":"getDerivativeTypeString","outputs":[{"internalType":"string","name":"","type":"string"}],"stateMutability":"view","type":"function"},{"inputs":[{"internalType":"uint256","name":"parentTokenId","type":"uint256"}],"name":"getDerivativesOfParent","outputs":[{"internalType":"uint256[]","name":"","type":"uint256[]"}],"stateMutability":"view","type":"function"},{"inputs":[{"internalType":"uint256","name":"derivativeTokenId","type":"uint256"}],"name":"getParentsOfDerivative","outputs":[{"internalType":"uint256[]","name":"","type":"uint256[]"}],"stateMutability":"view","type":"function"},{"inputs":[],"name":"ipContract","outputs":[{"internalType":"contract IPNFT","name":"","type":"address"}],"stateMutability":"view","type":"function"},{"inputs":[{"internalType":"uint256","name":"","type":"uint256"},{"internalType":"uint256","name":"","type":"uint256"}],"name":"ipToDerivatives","outputs":[{"internalType":"uint256","name":"","type":"uint256"}],"stateMutability":"view","type":"function"},{"inputs":[{"internalType":"address","name":"owner","type":"address"},{"internalType":"address","name":"operator","type":"address"}],"name":"isApprovedForAll","outputs":[{"internalType":"bool","name":"","type":"bool"}],"stateMutability":"view","type":"function"},{"inputs":[{"internalType":"uint256","name":"licenseTokenId","type":"uint256"}],"name":"isLicenseConsumed","outputs":[{"internalType":"bool","name":"","type":"bool"}],"stateMutability":"view","type":"function"},{"inputs":[],"name":"licenseContract","outputs":[{"internalType":"contract LicenseNFT","name":"","type":"address"}],"stateMutability":"view","type":"function"},{"inputs":[],"name":"name","outputs":[{"internalType":"string","name":"","type":"string"}],"stateMutability":"view","type":"function"},{"inputs":[],"name":"owner","outputs":[{"internalType":"address","name":"","type":"address"}],"stateMutability":"view","type":"function"},{"inputs":[{"internalType":"uint256","name":"tokenId","type":"uint256"}],"name":"ownerOf","outputs":[{"internalType":"address","name":"","type":"address"}],"stateMutability":"view","type":"function"},{"inputs":[],"name":"renounceOwnership","outputs":[],"stateMutability":"nonpayable","type":"function"},{"inputs":[{"internalType":"address","name":"from","type":"address"},{"internalType":"address","name":"to","type":"address"},{"internalType":"uint256","name":"tokenId","type":"uint256"}],"name":"safeTransferFrom","outputs":[],"stateMutability":"nonpayable","type":"function"},{"inputs":[{"internalType":"address","name":"from","type":"address"},{"internalType":"address","name":"to","type":"address"},{"internalType":"uint256","name":"tokenId","type":"uint256"},{"internalType":"bytes","name":"data","type":"bytes"}],"name":"safeTransferFrom","outputs":[],"stateMutability":"nonpayable","type":"function"},{"inputs":[{"internalType":"address","name":"operator","type":"address"},{"internalType":"bool","name":"approved","type":"bool"}],"name":"setApprovalForAll","outputs":[],"stateMutability":"nonpayable","type":"function"},{"inputs":[{"internalType":"bytes4","name":"interfaceId","type":"bytes4"}],"name":"supportsInterface","outputs":[{"internalType":"bool","name":"","type":"bool"}],"stateMutability":"view","type":"function"},{"inputs":[],"name":"symbol","outputs":[{"internalType":"string","name":"","type":"string"}],"stateMutability":"view","type":"function"},{"inputs":[{"internalType":"uint256","name":"tokenId","type":"uint256"}],"name":"tokenURI","outputs":[{"internalType":"string","name":"","type":"string"}],"stateMutability":"view","type":"function"},{"inputs":[{"internalType":"address","name":"from","type":"address"},{"internalType":"address","name":"to","type":"address"},{"internalType":"uint256","name":"tokenId","type":"uint256"}],"name":"transferFrom","outputs":[],"stateMutability":"nonpayable","type":"function"},{"inputs":[{"internalType":"address","name":"newOwner","type":"address"}],"name":"transferOwnership","outputs":[],"stateMutability":"nonpayable","type":"function"}],"evm":{"bytecode":{"linkReferences":{},"object":"60806040523461044b576129b88038038061001981610450565b92833981019060808183031261044b5761003281610475565b61003e60208301610475565b60408301519092906001600160401b03811161044b5784610060918301610489565b60608201519094906001600160401b03811161044b576100809201610489565b83519092906001600160401b03811161035657600054600181811c91168015610441575b602082101461033657601f81116103dd575b50602094601f82116001146103775794819293949560009261036c575b50508160011b916000199060031b1c1916176000555b82516001600160401b03811161035657600154600181811c9116801561034c575b602082101461033657601f81116102d1575b506020601f821160011461026a578192939460009261025f575b50508160011b916000199060031b1c1916176001555b60078054336001600160a01b0319821681179092556040519391906001600160a01b03167f8be0079c531659141344cd1fd0a4f28419497f9722a3daafe3b4186f6b6457e0600080a36001600160a01b031691821561022a57506001600160a01b03169081156101e55760018060a01b0319600854161760085560018060a01b031960095416176009556040516124c390816104f58239f35b60405162461bcd60e51b815260206004820152601560248201527f4c6963656e736520636f6e7472616374207a65726f00000000000000000000006044820152606490fd5b62461bcd60e51b815260206004820152601060248201526f495020636f6e7472616374207a65726f60801b6044820152606490fd5b015190503880610136565b601f198216906001600052806000209160005b8181106102b9575095836001959697106102a0575b505050811b0160015561014c565b015160001960f88460031b161c19169055388080610292565b9192602060018192868b01518155019401920161027d565b60016000527fb10e2d527612073b26eecdfd717e6a320cf44b4afac2b0732d9fcbe2b7fa0cf6601f830160051c8101916020841061032c575b601f0160051c01905b818110610320575061011c565b60008155600101610313565b909150819061030a565b634e487b7160e01b600052602260045260246000fd5b90607f169061010a565b634e487b7160e01b600052604160045260246000fd5b0151905038806100d3565b601f1982169560008052806000209160005b8881106103c5575083600195969798106103ac575b505050811b016000556100e9565b015160001960f88460031b161c1916905538808061039e565b91926020600181928685015181550194019201610389565b600080527f290decd9548b62a8d60345a988386fc84ba6bc95484008f6362f93160ef3e563601f830160051c81019160208410610437575b601f0160051c01905b81811061042b57506100b6565b6000815560010161041e565b9091508190610415565b90607f16906100a4565b600080fd5b6040519190601f01601f191682016001600160401b0381118382101761035657604052565b51906001600160a01b038216820361044b57565b81601f8201121561044b578051906001600160401b038211610356576104b8601f8301601f1916602001610450565b928284526020838301011161044b5760005b8281106104df57505060206000918301015290565b806020809284010151828287010152016104ca56fe608080604052600436101561001357600080fd5b60003560e01c90816301ffc9a7146117c65750806306fdde0314611721578063081812fc14611703578063095ea7b31461157a57806323b872dd1461155657806342842e0e146115215780636352211e146114f15780636866c1361461092a57806370a08231146108935780637139f4a214610867578063715018a61461080a5780637d7e1450146105235780637efd7a73146107d95780638da5cb5b146107b057806395d89b41146106e3578063961838ab146106a35780639c976464146106635780639cfa06fa1461062f578063a22cb46514610554578063a42df5bf14610523578063a653bf2b14610484578063b88d4fde146103fd578063ba8db95b1461032e578063c87b56dd1461030f578063e29037a2146102d8578063e2c52b9d146102af578063e985e9c514610254578063edecce741461022b5763f2fde38b1461015e57600080fd5b346102265760203660031901126102265761017761188a565b61017f6121b4565b6001600160a01b031680156101d257600780546001600160a01b0319811683179091556001600160a01b03167f8be0079c531659141344cd1fd0a4f28419497f9722a3daafe3b4186f6b6457e0600080a3005b60405162461bcd60e51b815260206004820152602660248201527f4f776e61626c653a206e6577206f776e657220697320746865207a65726f206160448201526564647265737360d01b6064820152608490fd5b600080fd5b34610226576000366003190112610226576008546040516001600160a01b039091168152602090f35b346102265760403660031901126102265761026d61188a565b6102756118a0565b9060018060a01b0316600052600560205260406000209060018060a01b0316600052602052602060ff604060002054166040519015158152f35b34610226576000366003190112610226576009546040516001600160a01b039091168152602090f35b346102265760203660031901126102265761030b6102f7600435611d5d565b60405191829160208352602083019061184b565b0390f35b346102265760203660031901126102265761030b6102f7600435612283565b3461022657602036600319011261022657600435600052600b6020526103c1604060002061030b60018060a01b036002830154169160048101549060ff60058201541660068201546103e460ff600785015416926103d461039160018701611d12565b986103aa60086103a360038a016119f3565b9801611d12565b966040519b8c9b6101008d526101008d0190611920565b9160208c01528a820360408c015261184b565b9560608901526080880190611a97565b60a0860152151560c085015283820360e0850152611920565b346102265760803660031901126102265761041661188a565b61041e6118a0565b90606435906044356001600160401b0383116102265736602384011215610226576104829361045a61047d943690602481600401359101611ad5565b9261046d6104688433611e96565b611b4a565b610478838383611f69565b6123e8565b61225f565b005b34610226576020366003190112610226576004356000908152600b60205260409020805460028201546001600160a01b0316916104c3600382016119f3565b60048201549161051360ff60058301541661050360ff6007600686015495015416946040519889988952602089015260e0604089015260e088019061184b565b9460608701526080860190611a97565b60a0840152151560c08301520390f35b3461022657602036600319011261022657600435600052600e602052602060ff604060002054166040519015158152f35b346102265760403660031901126102265761056d61188a565b6024359081151590818303610226576001600160a01b0316913383146105ea576105bc9033600052600560205260406000208460005260205260406000209060ff801983541691151516179055565b6040519081527f17307eab39ab6107e8899845ad3d59bd9653f200f220920489ca2b5937696c3160203392a3005b60405162461bcd60e51b815260206004820152601960248201527f4552433732313a20617070726f766520746f2063616c6c6572000000000000006044820152606490fd5b3461022657602036600319011261022657600435600052600b602052602060ff600760406000200154166040519015158152f35b3461022657602036600319011261022657600435600052600d60205261030b61068f6040600020611d12565b604051918291602083526020830190611920565b34610226576106b136611954565b90600052600d60205260406000208054821015610226576020916106d49161196a565b90549060031b1c604051908152f35b3461022657600036600319011261022657604051600060015461070581611998565b808452906001811690811561078c575060011461072d575b61030b836102f7818503826119d2565b600160009081527fb10e2d527612073b26eecdfd717e6a320cf44b4afac2b0732d9fcbe2b7fa0cf6939250905b808210610772575090915081016020016102f761071d565b91926001816020925483858801015201910190929161075a565b60ff191660208086019190915291151560051b840190910191506102f7905061071d565b34610226576000366003190112610226576007546040516001600160a01b039091168152602090f35b34610226576107e736611954565b90600052600c60205260406000208054821015610226576020916106d49161196a565b34610226576000366003190112610226576108236121b4565b600780546001600160a01b031981169091556000906001600160a01b03167f8be0079c531659141344cd1fd0a4f28419497f9722a3daafe3b4186f6b6457e08280a3005b3461022657602036600319011261022657600435600052600c60205261030b61068f6040600020611d12565b34610226576020366003190112610226576001600160a01b036108b461188a565b1680156108d35760005260036020526020604060002054604051908152f35b60405162461bcd60e51b815260206004820152602960248201527f4552433732313a2061646472657373207a65726f206973206e6f7420612076616044820152683634b21037bbb732b960b91b6064820152608490fd5b346102265760c0366003190112610226576004356001600160401b0381116102265761095a9036906004016118f0565b906024356001600160401b0381116102265761097a9036906004016118f0565b604435906001600160401b0382116102265736602383011215610226578160040135946001600160401b038611610226576024830192602487369201011161022657600560843510156102265760a4359081151582036102265780156114ac57600a8111611474576008546001600160a01b03166000805b8381106113fd575b501561139c575b60005b82811061129a57505060005b83811061115157506001600a54019586600a55602097604051610a338a826119d2565b60008152331561110e57600089815260026020526040902054610aea9161047d91610a6a906001600160a01b031615155b15612441565b60008b815260026020526040902054610a8d906001600160a01b03161515610a64565b33600081815260038e526040808220805460010190558d825260028f52812080546001600160a01b031916831790558c91907fddf252ad1be2c89b69c2b068fc378daa952ba7f163c4a11628f55a4df523b3ef8180a48a336122cf565b610af5368288611ad5565b6000898152600260205260409020546001600160a01b0316156110b2578860005260068a526040600020908051906001600160401b038211610ffa578190610b3d8454611998565b8d601f8211611081575b50508c908d601f841160011461101b5750600092611010575b50508160011b916000199060031b1c19161790555b7ff8e1a15aba9398e019f0b49df1a4fde98ee17ae345cb5f6b5e2c27f5033e8ce7896040518a8152a1604051956101208701918783106001600160401b03841117610ffa57610be092604052898852610bcf368686611c4d565b8b8901523360408901523691611ad5565b6060860152606435608086015260009460843560a08201524260c082015283151560e0820152610c11368689611c4d565b610100820152878652600b89526040862081518155898201518051906001600160401b038211610fb657600160401b8211610fb6578b906001840154836001860155808410610fdd575b50016001830189528b89208c8a5b848110610fca575050505060408301516002830180546001600160a01b0319166001600160a01b03929092169190911790555060608201518051906001600160401b038211610fb6578190610cc16003850154611998565b8d601f8211610f7a575b50508c908d601f8411600114610f0e57508a92610f03575b50508160011b916000199060031b1c19161760038201555b608082015160048201556005810160a08301516005811015610eef57916008916101009360ff8019835416911617905560c08401516006820155610d5460e08501511515600783019060ff801983541691151516179055565b01910151908151916001600160401b038311610edb57600160401b8311610edb578a908254848455808510610ec1575b50908a9594939291019088528a8820885b838110610eac5750505050855b828110610e5d575090610de27f8f36b77b00926c962bbaefa267bed2c20e83b0462c1169ecfcf6726d2bd949599260405192608084526080840191611cee565b93610df18a8301608435611a97565b15156040820152808403606082015280610e0d3395878a611cee565b0390a3815b818110610e23578585604051908152f35b8085610e326001938588611c1e565b357f61c74fd4e4d8450d8b40f8ca33601721223dfd582edd02138603bee2063880578680a301610e12565b829350610e6e818394600194611c1e565b358752600c8a52610e828960408920611cb9565b888752600d8a52610ea260408820610e9b838787611c1e565b3590611cb9565b0190879291610da2565b8251818301558b9650918c0191600101610d95565b838a52828a20610ed5918101908601611ca2565b8c610d84565b634e487b7160e01b88526041600452602488fd5b634e487b7160e01b89526021600452602489fd5b015190508c80610ce3565b600386018c52808c209350601f198516908c905b828210610f62575050908460019594939210610f49575b505050811b016003820155610cfb565b015160001960f88460031b161c191690558c8080610f39565b80600186978294978701518155019601940190610f22565b600386018c52808c20610fa592601f860160051c8201928610610fac575b601f0160051c0190611ca2565b8d8d610ccb565b9091508190610f98565b634e487b7160e01b89526041600452602489fd5b8351838201559201918d90600101610c69565b600185018b52828b20610ff4918101908501611ca2565b8d610c5b565b634e487b7160e01b600052604160045260246000fd5b015190508c80610b60565b60008681528181209450601f198616915b828210611069575050908460019594939210611050575b505050811b019055610b75565b015160001960f88460031b161c191690558c8080611043565b8060018697829497870151815501960194019061102c565b6110ab91866000528160002090601f860160051c8201928610610fac57601f0160051c0190611ca2565b8d8d610b47565b60405162461bcd60e51b8152600481018b9052602e60248201527f45524337323155524953746f726167653a2055524920736574206f66206e6f6e60448201526d32bc34b9ba32b73a103a37b5b2b760911b6064820152608490fd5b60648a6040519062461bcd60e51b825280600483015260248201527f4552433732313a206d696e7420746f20746865207a65726f20616464726573736044820152fd5b61115c818588611c1e565b359081600052600e60205260ff60406000205416611255576009546040516331a9108f60e11b81526004810184905290602090829060249082906001600160a01b03165afa9081156112495760009161121b575b50336001600160a01b03909116036111e257600191600052600e60205260406000208260ff1982541617905501610a10565b60405162461bcd60e51b81526020600482015260116024820152702737ba103634b1b2b739b29037bbb732b960791b6044820152606490fd5b61123c915060203d8111611242575b61123481836119d2565b810190611c2e565b8a6111b0565b503d61122a565b6040513d6000823e3d90fd5b60405162461bcd60e51b815260206004820152601860248201527f4c6963656e736520616c726561647920636f6e73756d656400000000000000006044820152606490fd5b6112a581848a611c1e565b6040516331a9108f60e11b815290356004820152602081602481865afa9081156112495760009161137e575b506001600160a01b031615611342576112f78588336112f185888e611c1e565b356120a1565b1561130457600101610a04565b60405162461bcd60e51b815260206004820152601660248201527504e6f2061636365737320746f20706172656e742049560541b6044820152606490fd5b60405162461bcd60e51b815260206004820152601460248201527314185c995b9d08191bd95cdb89dd08195e1a5cdd60621b6044820152606490fd5b611396915060203d81116112425761123481836119d2565b8a6112d1565b83610a015760405162461bcd60e51b815260206004820152602e60248201527f4d7573742070726f76696465206174206c65617374206f6e65206c6963656e7360448201526d329034b3103737ba1037bbb732b960911b6064820152608490fd5b61140881858b611c1e565b6040516331a9108f60e11b815290356004820152602081602481875afa90811561124957600091611456575b506001600160a01b0316331461144c576001016109f2565b50506001896109fa565b61146e915060203d81116112425761123481836119d2565b8b611434565b60405162461bcd60e51b815260206004820152601060248201526f546f6f206d616e7920706172656e747360801b6044820152606490fd5b60405162461bcd60e51b815260206004820152601d60248201527f4d7573742068617665206174206c65617374206f6e6520706172656e740000006044820152606490fd5b3461022657602036600319011261022657602061150f600435611bf8565b6040516001600160a01b039091168152f35b346102265761048261047d611535366118b6565b90604051926115456020856119d2565b6000845261046d6104688433611e96565b3461022657610482611567366118b6565b916115756104688433611e96565b611f69565b346102265760403660031901126102265761159361188a565b602435906001600160a01b036115a883611bf8565b6001600160a01b0390921691168181146116b45780331490811561168f575b501561162457600082815260046020526040902080546001600160a01b031916821790556001600160a01b036115fc83611bf8565b167f8c5be1e5ebec7d5bd14f71427d1e84f3dd0314c0f7b2291e5b200ac8c7c3b925600080a4005b60405162461bcd60e51b815260206004820152603d60248201527f4552433732313a20617070726f76652063616c6c6572206973206e6f7420746f60448201527f6b656e206f776e6572206f7220617070726f76656420666f7220616c6c0000006064820152608490fd5b600090815260056020908152604080832033845290915290205460ff169050836115c7565b60405162461bcd60e51b815260206004820152602160248201527f4552433732313a20617070726f76616c20746f2063757272656e74206f776e656044820152603960f91b6064820152608490fd5b3461022657602036600319011261022657602061150f600435611b0c565b34610226576000366003190112610226576040516000805461174281611998565b808452906001811690811561078c57506001146117695761030b836102f7818503826119d2565b60008080527f290decd9548b62a8d60345a988386fc84ba6bc95484008f6362f93160ef3e563939250905b8082106117ac575090915081016020016102f761071d565b919260018160209254838588010152019101909291611794565b34610226576020366003190112610226576004359063ffffffff60e01b821680920361022657602091632483248360e11b8114908115611808575b5015158152f35b6380ac58cd60e01b81149150811561183a575b8115611829575b5083611801565b6301ffc9a760e01b14905083611822565b635b5e139f60e01b8114915061181b565b919082518082526020808301940160005b82811061187a575050600081602094950152601f8019910116010190565b818101518682015260200161185c565b600435906001600160a01b038216820361022657565b602435906001600160a01b038216820361022657565b6060906003190112610226576004356001600160a01b038116810361022657906024356001600160a01b0381168103610226579060443590565b9181601f84011215610226578235916001600160401b038311610226576020808501948460051b01011161022657565b906020808351928381520192019060005b81811061193e5750505090565b8251845260209384019390920191600101611931565b6040906003190112610226576004359060243590565b80548210156119825760005260206000200190600090565b634e487b7160e01b600052603260045260246000fd5b90600182811c921680156119c8575b60208310146119b257565b634e487b7160e01b600052602260045260246000fd5b91607f16916119a7565b90601f801991011681019081106001600160401b03821117610ffa57604052565b9060405191826000825492611a0784611998565b8084529360018116908115611a755750600114611a2e575b50611a2c925003836119d2565b565b90506000929192526020600020906000915b818310611a59575050906020611a2c9282010138611a1f565b6020919350806001915483858901015201910190918492611a40565b905060209250611a2c94915060ff191682840152151560051b82010138611a1f565b906005821015611aa45752565b634e487b7160e01b600052602160045260246000fd5b6001600160401b038111610ffa57601f01601f191660200190565b929192611ae182611aba565b91611aef60405193846119d2565b829481845281830111610226578281602093846000960137010152565b600081815260026020526040902054611b2f906001600160a01b03161515611bac565b6000908152600460205260409020546001600160a01b031690565b15611b5157565b60405162461bcd60e51b815260206004820152602d60248201527f4552433732313a2063616c6c6572206973206e6f7420746f6b656e206f776e6560448201526c1c881bdc88185c1c1c9bdd9959609a1b6064820152608490fd5b15611bb357565b60405162461bcd60e51b815260206004820152601860248201527f4552433732313a20696e76616c696420746f6b656e20494400000000000000006044820152606490fd5b6000908152600260205260409020546001600160a01b0316611c1b811515611bac565b90565b91908110156119825760051b0190565b9081602091031261022657516001600160a01b03811681036102265790565b929190926001600160401b038411610ffa578360051b906020604051611c75828501826119d2565b809681520191810192831161022657905b828210611c9257505050565b8135815260209182019101611c86565b818110611cad575050565b60008155600101611ca2565b8054600160401b811015610ffa57611cd69160018201815561196a565b819291549060031b91821b91600019901b1916179055565b81835290916001600160fb1b0383116102265760209260051b809284830137010190565b906040519182815491828252602082019060005260206000209260005b818110611d44575050611a2c925003836119d2565b8454835260019485019487945060209093019201611d2f565b600052600b60205260ff600560406000200154166005811015611aa4578015611e7257600060018214611e48575060028114611e1c5760009060038114611df2576004915014611dcc57604051611db56040826119d2565b60078152662ab735b737bbb760c91b602082015290565b604051611dda6040826119d2565b6008815267437269746971756560c01b602082015290565b5050604051611e026040826119d2565b600a8152692b30b634b230ba34b7b760b11b602082015290565b50604051611e2b6040826119d2565b600d81526c21b7b63630b137b930ba34b7b760991b602082015290565b50506040805190611e5990826119d2565b600981526822bc3a32b739b4b7b760b91b602082015290565b50604051611e816040826119d2565b60058152640a4cadad2f60db1b602082015290565b906001600160a01b03611ea882611bf8565b6001600160a01b0390931692168281149291908315611ee8575b508215611ece57505090565b9091506001600160a01b0390611ee390611b0c565b161490565b909250600052600560205260406000208160005260205260ff604060002054169138611ec2565b15611f1657565b60405162461bcd60e51b815260206004820152602560248201527f4552433732313a207472616e736665722066726f6d20696e636f72726563742060448201526437bbb732b960d91b6064820152608490fd5b90611f8a611f7684611bf8565b6001600160a01b0393841693168314611f0f565b6001600160a01b031690811561205057611fb6816001600160a01b03611faf86611bf8565b1614611f0f565b82600052600460205260406000206bffffffffffffffffffffffff60a01b8154169055806000526003602052604060002060001981540190558160005260036020526040600020600181540190558260005260026020526040600020826bffffffffffffffffffffffff60a01b8254161790557fddf252ad1be2c89b69c2b068fc378daa952ba7f163c4a11628f55a4df523b3ef600080a4565b60405162461bcd60e51b8152602060048201526024808201527f4552433732313a207472616e7366657220746f20746865207a65726f206164646044820152637265737360e01b6064820152608490fd5b919290602060018060a01b0360085416936024604051809681936331a9108f60e11b835260048301525afa92831561124957600093612193575b506001600160a01b039081169216821461218b5760095490926001600160a01b039091169060005b848110612114575050505050600090565b61211f818684611c1e565b6040516331a9108f60e11b815290356004820152602081602481875afa801561124957859160009161216d575b506001600160a01b03161461216357600101612103565b5050505050600190565b612185915060203d81116112425761123481836119d2565b3861214c565b505050600190565b6121ad91935060203d6020116112425761123481836119d2565b91386120db565b6007546001600160a01b031633036121c857565b606460405162461bcd60e51b815260206004820152602060248201527f4f776e61626c653a2063616c6c6572206973206e6f7420746865206f776e65726044820152fd5b60809060208152603260208201527f4552433732313a207472616e7366657220746f206e6f6e20455243373231526560408201527131b2b4bb32b91034b6b83632b6b2b73a32b960711b60608201520190565b1561226657565b60405162461bcd60e51b81528061227f6004820161220c565b0390fd5b6000818152600260205260409020546122a6906001600160a01b03161515611bac565b60005260066020526122bb60406000206119f3565b60006040516122cb6020826119d2565b5290565b91823b1561218b57612315926020926000604051809681958294630a85bd0160e11b8452336004850152846024850152604484015260806064840152608483019061184b565b03926001600160a01b03165af1809160009161239e575b5090612388573d15612381573d61234281611aba565b9061235060405192836119d2565b81523d6000602083013e5b8051908161237c5760405162461bcd60e51b81528061227f6004820161220c565b602001fd5b606061235b565b6001600160e01b031916630a85bd0160e11b1490565b6020813d6020116123e0575b816123b7602093836119d2565b810103126123dc5751906001600160e01b0319821682036123d957503861232c565b80fd5b5080fd5b3d91506123aa565b919290803b156124385761231593600060209460405196879586948593630a85bd0160e11b855233600486015260018060a01b03166024850152604484015260806064840152608483019061184b565b50505050600190565b1561244857565b60405162461bcd60e51b815260206004820152601c60248201527f4552433732313a20746f6b656e20616c7265616479206d696e746564000000006044820152606490fdfea26469706673582212200fba6f8d9bbb72f41b2d36036a6fd12d2987a017838516a13102dfb75410e24b64736f6c634300081c0033","opcodes":"PUSH1 0x80 PUSH1 0x40 MSTORE CALLVALUE PUSH2 0x44B JUMPI PUSH2 0x29B8 DUP1 CODESIZE SUB DUP1 PUSH2 0x19 DUP2 PUSH2 0x450 JUMP JUMPDEST SWAP3 DUP4 CODECOPY DUP2 ADD SWAP1 PUSH1 0x80 DUP2 DUP4 SUB SLT PUSH2 0x44B JUMPI PUSH2 0x32 DUP2 PUSH2 0x475 JUMP JUMPDEST PUSH2 0x3E PUSH1 0x20 DUP4 ADD PUSH2 0x475 JUMP JUMPDEST PUSH1 0x40 DUP4 ADD MLOAD SWAP1 SWAP3 SWAP1 PUSH1 0x1 PUSH1 0x1 PUSH1 0x40 SHL SUB DUP2 GT PUSH2 0x44B JUMPI DUP5 PUSH2 0x60 SWAP2 DUP4 ADD PUSH2 0x489 JUMP JUMPDEST PUSH1 0x60 DUP3 ADD MLOAD SWAP1 SWAP5 SWAP1 PUSH1 0x1 PUSH1 0x1 PUSH1 0x40 SHL SUB DUP2 GT PUSH2 0x44B JUMPI PUSH2 0x80 SWAP3 ADD PUSH2 0x489 JUMP JUMPDEST DUP4 MLOAD SWAP1 SWAP3 SWAP1 PUSH1 0x1 PUSH1 0x1 PUSH1 0x40 SHL SUB DUP2 GT PUSH2 0x356 JUMPI PUSH1 0x0 SLOAD PUSH1 0x1 DUP2 DUP2 SHR SWAP2 AND DUP1 ISZERO PUSH2 0x441 JUMPI JUMPDEST PUSH1 0x20 DUP3 LT EQ PUSH2 0x336 JUMPI PUSH1 0x1F DUP2 GT PUSH2 0x3DD JUMPI JUMPDEST POP PUSH1 0x20 SWAP5 PUSH1 0x1F DUP3 GT PUSH1 0x1 EQ PUSH2 0x377 JUMPI SWAP5 DUP2 SWAP3 SWAP4 SWAP5 SWAP6 PUSH1 0x0 SWAP3 PUSH2 0x36C JUMPI JUMPDEST POP POP DUP2 PUSH1 0x1 SHL SWAP2 PUSH1 0x0 NOT SWAP1 PUSH1 0x3 SHL SHR NOT AND OR PUSH1 0x0 SSTORE JUMPDEST DUP3 MLOAD PUSH1 0x1 PUSH1 0x1 PUSH1 0x40 SHL SUB DUP2 GT PUSH2 0x356 JUMPI PUSH1 0x1 SLOAD PUSH1 0x1 DUP2 DUP2 SHR SWAP2 AND DUP1 ISZERO PUSH2 0x34C JUMPI JUMPDEST PUSH1 0x20 DUP3 LT EQ PUSH2 0x336 JUMPI PUSH1 0x1F DUP2 GT PUSH2 0x2D1 JUMPI JUMPDEST POP PUSH1 0x20 PUSH1 0x1F DUP3 GT PUSH1 0x1 EQ PUSH2 0x26A JUMPI DUP2 SWAP3 SWAP4 SWAP5 PUSH1 0x0 SWAP3 PUSH2 0x25F JUMPI JUMPDEST POP POP DUP2 PUSH1 0x1 SHL SWAP2 PUSH1 0x0 NOT SWAP1 PUSH1 0x3 SHL SHR NOT AND OR PUSH1 0x1 SSTORE JUMPDEST PUSH1 0x7 DUP1 SLOAD CALLER PUSH1 0x1 PUSH1 0x1 PUSH1 0xA0 SHL SUB NOT DUP3 AND DUP2 OR SWAP1 SWAP3 SSTORE PUSH1 0x40 MLOAD SWAP4 SWAP2 SWAP1 PUSH1 0x1 PUSH1 0x1 PUSH1 0xA0 SHL SUB AND PUSH32 0x8BE0079C531659141344CD1FD0A4F28419497F9722A3DAAFE3B4186F6B6457E0 PUSH1 0x0 DUP1 LOG3 PUSH1 0x1 PUSH1 0x1 PUSH1 0xA0 SHL SUB AND SWAP2 DUP3 ISZERO PUSH2 0x22A JUMPI POP PUSH1 0x1 PUSH1 0x1 PUSH1 0xA0 SHL SUB AND SWAP1 DUP2 ISZERO PUSH2 0x1E5 JUMPI PUSH1 0x1 DUP1 PUSH1 0xA0 SHL SUB NOT PUSH1 0x8 SLOAD AND OR PUSH1 0x8 SSTORE PUSH1 0x1 DUP1 PUSH1 0xA0 SHL SUB NOT PUSH1 0x9 SLOAD AND OR PUSH1 0x9 SSTORE PUSH1 0x40 MLOAD PUSH2 0x24C3 SWAP1 DUP2 PUSH2 0x4F5 DUP3 CODECOPY RETURN JUMPDEST PUSH1 0x40 MLOAD PUSH3 0x461BCD PUSH1 0xE5 SHL DUP2 MSTORE PUSH1 0x20 PUSH1 0x4 DUP3 ADD MSTORE PUSH1 0x15 PUSH1 0x24 DUP3 ADD MSTORE PUSH32 0x4C6963656E736520636F6E7472616374207A65726F0000000000000000000000 PUSH1 0x44 DUP3 ADD MSTORE PUSH1 0x64 SWAP1 REVERT JUMPDEST PUSH3 0x461BCD PUSH1 0xE5 SHL DUP2 MSTORE PUSH1 0x20 PUSH1 0x4 DUP3 ADD MSTORE PUSH1 0x10 PUSH1 0x24 DUP3 ADD MSTORE PUSH16 0x495020636F6E7472616374207A65726F PUSH1 0x80 SHL PUSH1 0x44 DUP3 ADD MSTORE PUSH1 0x64 SWAP1 REVERT JUMPDEST ADD MLOAD SWAP1 POP CODESIZE DUP1 PUSH2 0x136 JUMP JUMPDEST PUSH1 0x1F NOT DUP3 AND SWAP1 PUSH1 0x1 PUSH1 0x0 MSTORE DUP1 PUSH1 0x0 KECCAK256 SWAP2 PUSH1 0x0 JUMPDEST DUP2 DUP2 LT PUSH2 0x2B9 JUMPI POP SWAP6 DUP4 PUSH1 0x1 SWAP6 SWAP7 SWAP8 LT PUSH2 0x2A0 JUMPI JUMPDEST POP POP POP DUP2 SHL ADD PUSH1 0x1 SSTORE PUSH2 0x14C JUMP JUMPDEST ADD MLOAD PUSH1 0x0 NOT PUSH1 0xF8 DUP5 PUSH1 0x3 SHL AND SHR NOT AND SWAP1 SSTORE CODESIZE DUP1 DUP1 PUSH2 0x292 JUMP JUMPDEST SWAP2 SWAP3 PUSH1 0x20 PUSH1 0x1 DUP2 SWAP3 DUP7 DUP12 ADD MLOAD DUP2 SSTORE ADD SWAP5 ADD SWAP3 ADD PUSH2 0x27D JUMP JUMPDEST PUSH1 0x1 PUSH1 0x0 MSTORE PUSH32 0xB10E2D527612073B26EECDFD717E6A320CF44B4AFAC2B0732D9FCBE2B7FA0CF6 PUSH1 0x1F DUP4 ADD PUSH1 0x5 SHR DUP2 ADD SWAP2 PUSH1 0x20 DUP5 LT PUSH2 0x32C JUMPI JUMPDEST PUSH1 0x1F ADD PUSH1 0x5 SHR ADD SWAP1 JUMPDEST DUP2 DUP2 LT PUSH2 0x320 JUMPI POP PUSH2 0x11C JUMP JUMPDEST PUSH1 0x0 DUP2 SSTORE PUSH1 0x1 ADD PUSH2 0x313 JUMP JUMPDEST SWAP1 SWAP2 POP DUP2 SWAP1 PUSH2 0x30A JUMP JUMPDEST PUSH4 0x4E487B71 PUSH1 0xE0 SHL PUSH1 0x0 MSTORE PUSH1 0x22 PUSH1 0x4 MSTORE PUSH1 0x24 PUSH1 0x0 REVERT JUMPDEST SWAP1 PUSH1 0x7F AND SWAP1 PUSH2 0x10A JUMP JUMPDEST PUSH4 0x4E487B71 PUSH1 0xE0 SHL PUSH1 0x0 MSTORE PUSH1 0x41 PUSH1 0x4 MSTORE PUSH1 0x24 PUSH1 0x0 REVERT JUMPDEST ADD MLOAD SWAP1 POP CODESIZE DUP1 PUSH2 0xD3 JUMP JUMPDEST PUSH1 0x1F NOT DUP3 AND SWAP6 PUSH1 0x0 DUP1 MSTORE DUP1 PUSH1 0x0 KECCAK256 SWAP2 PUSH1 0x0 JUMPDEST DUP9 DUP2 LT PUSH2 0x3C5 JUMPI POP DUP4 PUSH1 0x1 SWAP6 SWAP7 SWAP8 SWAP9 LT PUSH2 0x3AC JUMPI JUMPDEST POP POP POP DUP2 SHL ADD PUSH1 0x0 SSTORE PUSH2 0xE9 JUMP JUMPDEST ADD MLOAD PUSH1 0x0 NOT PUSH1 0xF8 DUP5 PUSH1 0x3 SHL AND SHR NOT AND SWAP1 SSTORE CODESIZE DUP1 DUP1 PUSH2 0x39E JUMP JUMPDEST SWAP2 SWAP3 PUSH1 0x20 PUSH1 0x1 DUP2 SWAP3 DUP7 DUP6 ADD MLOAD DUP2 SSTORE ADD SWAP5 ADD SWAP3 ADD PUSH2 0x389 JUMP JUMPDEST PUSH1 0x0 DUP1 MSTORE PUSH32 0x290DECD9548B62A8D60345A988386FC84BA6BC95484008F6362F93160EF3E563 PUSH1 0x1F DUP4 ADD PUSH1 0x5 SHR DUP2 ADD SWAP2 PUSH1 0x20 DUP5 LT PUSH2 0x437 JUMPI JUMPDEST PUSH1 0x1F ADD PUSH1 0x5 SHR ADD SWAP1 JUMPDEST DUP2 DUP2 LT PUSH2 0x42B JUMPI POP PUSH2 0xB6 JUMP JUMPDEST PUSH1 0x0 DUP2 SSTORE PUSH1 0x1 ADD PUSH2 0x41E JUMP JUMPDEST SWAP1 SWAP2 POP DUP2 SWAP1 PUSH2 0x415 JUMP JUMPDEST SWAP1 PUSH1 0x7F AND SWAP1 PUSH2 0xA4 JUMP JUMPDEST PUSH1 0x0 DUP1 REVERT JUMPDEST PUSH1 0x40 MLOAD SWAP2 SWAP1 PUSH1 0x1F ADD PUSH1 0x1F NOT AND DUP3 ADD PUSH1 0x1 PUSH1 0x1 PUSH1 0x40 SHL SUB DUP2 GT DUP4 DUP3 LT OR PUSH2 0x356 JUMPI PUSH1 0x40 MSTORE JUMP JUMPDEST MLOAD SWAP1 PUSH1 0x1 PUSH1 0x1 PUSH1 0xA0 SHL SUB DUP3 AND DUP3 SUB PUSH2 0x44B JUMPI JUMP JUMPDEST DUP2 PUSH1 0x1F DUP3 ADD SLT ISZERO PUSH2 0x44B JUMPI DUP1 MLOAD SWAP1 PUSH1 0x1 PUSH1 0x1 PUSH1 0x40 SHL SUB DUP3 GT PUSH2 0x356 JUMPI PUSH2 0x4B8 PUSH1 0x1F DUP4 ADD PUSH1 0x1F NOT AND PUSH1 0x20 ADD PUSH2 0x450 JUMP JUMPDEST SWAP3 DUP3 DUP5 MSTORE PUSH1 0x20 DUP4 DUP4 ADD ADD GT PUSH2 0x44B JUMPI PUSH1 0x0 JUMPDEST DUP3 DUP2 LT PUSH2 0x4DF JUMPI POP POP PUSH1 0x20 PUSH1 0x0 SWAP2 DUP4 ADD ADD MSTORE SWAP1 JUMP JUMPDEST DUP1 PUSH1 0x20 DUP1 SWAP3 DUP5 ADD ADD MLOAD DUP3 DUP3 DUP8 ADD ADD MSTORE ADD PUSH2 0x4CA JUMP INVALID PUSH1 0x80 DUP1 PUSH1 0x40 MSTORE PUSH1 0x4 CALLDATASIZE LT ISZERO PUSH2 0x13 JUMPI PUSH1 0x0 DUP1 REVERT JUMPDEST PUSH1 0x0 CALLDATALOAD PUSH1 0xE0 SHR SWAP1 DUP2 PUSH4 0x1FFC9A7 EQ PUSH2 0x17C6 JUMPI POP DUP1 PUSH4 0x6FDDE03 EQ PUSH2 0x1721 JUMPI DUP1 PUSH4 0x81812FC EQ PUSH2 0x1703 JUMPI DUP1 PUSH4 0x95EA7B3 EQ PUSH2 0x157A JUMPI DUP1 PUSH4 0x23B872DD EQ PUSH2 0x1556 JUMPI DUP1 PUSH4 0x42842E0E EQ PUSH2 0x1521 JUMPI DUP1 PUSH4 0x6352211E EQ PUSH2 0x14F1 JUMPI DUP1 PUSH4 0x6866C136 EQ PUSH2 0x92A JUMPI DUP1 PUSH4 0x70A08231 EQ PUSH2 0x893 JUMPI DUP1 PUSH4 0x7139F4A2 EQ PUSH2 0x867 JUMPI DUP1 PUSH4 0x715018A6 EQ PUSH2 0x80A JUMPI DUP1 PUSH4 0x7D7E1450 EQ PUSH2 0x523 JUMPI DUP1 PUSH4 0x7EFD7A73 EQ PUSH2 0x7D9 JUMPI DUP1 PUSH4 0x8DA5CB5B EQ PUSH2 0x7B0 JUMPI DUP1 PUSH4 0x95D89B41 EQ PUSH2 0x6E3 JUMPI DUP1 PUSH4 0x961838AB EQ PUSH2 0x6A3 JUMPI DUP1 PUSH4 0x9C976464 EQ PUSH2 0x663 JUMPI DUP1 PUSH4 0x9CFA06FA EQ PUSH2 0x62F JUMPI DUP1 PUSH4 0xA22CB465 EQ PUSH2 0x554 JUMPI DUP1 PUSH4 0xA42DF5BF EQ PUSH2 0x523 JUMPI DUP1 PUSH4 0xA653BF2B EQ PUSH2 0x484 JUMPI DUP1 PUSH4 0xB88D4FDE EQ PUSH2 0x3FD JUMPI DUP1 PUSH4 0xBA8DB95B EQ PUSH2 0x32E JUMPI DUP1 PUSH4 0xC87B56DD EQ PUSH2 0x30F JUMPI DUP1 PUSH4 0xE29037A2 EQ PUSH2 0x2D8 JUMPI DUP1 PUSH4 0xE2C52B9D EQ PUSH2 0x2AF JUMPI DUP1 PUSH4 0xE985E9C5 EQ PUSH2 0x254 JUMPI DUP1 PUSH4 0xEDECCE74 EQ PUSH2 0x22B JUMPI PUSH4 0xF2FDE38B EQ PUSH2 0x15E JUMPI PUSH1 0x0 DUP1 REVERT JUMPDEST CALLVALUE PUSH2 0x226 JUMPI PUSH1 0x20 CALLDATASIZE PUSH1 0x3 NOT ADD SLT PUSH2 0x226 JUMPI PUSH2 0x177 PUSH2 0x188A JUMP JUMPDEST PUSH2 0x17F PUSH2 0x21B4 JUMP JUMPDEST PUSH1 0x1 PUSH1 0x1 PUSH1 0xA0 SHL SUB AND DUP1 ISZERO PUSH2 0x1D2 JUMPI PUSH1 0x7 DUP1 SLOAD PUSH1 0x1 PUSH1 0x1 PUSH1 0xA0 SHL SUB NOT DUP2 AND DUP4 OR SWAP1 SWAP2 SSTORE PUSH1 0x1 PUSH1 0x1 PUSH1 0xA0 SHL SUB AND PUSH32 0x8BE0079C531659141344CD1FD0A4F28419497F9722A3DAAFE3B4186F6B6457E0 PUSH1 0x0 DUP1 LOG3 STOP JUMPDEST PUSH1 0x40 MLOAD PUSH3 0x461BCD PUSH1 0xE5 SHL DUP2 MSTORE PUSH1 0x20 PUSH1 0x4 DUP3 ADD MSTORE PUSH1 0x26 PUSH1 0x24 DUP3 ADD MSTORE PUSH32 0x4F776E61626C653A206E6577206F776E657220697320746865207A65726F2061 PUSH1 0x44 DUP3 ADD MSTORE PUSH6 0x646472657373 PUSH1 0xD0 SHL PUSH1 0x64 DUP3 ADD MSTORE PUSH1 0x84 SWAP1 REVERT JUMPDEST PUSH1 0x0 DUP1 REVERT JUMPDEST CALLVALUE PUSH2 0x226 JUMPI PUSH1 0x0 CALLDATASIZE PUSH1 0x3 NOT ADD SLT PUSH2 0x226 JUMPI PUSH1 0x8 SLOAD PUSH1 0x40 MLOAD PUSH1 0x1 PUSH1 0x1 PUSH1 0xA0 SHL SUB SWAP1 SWAP2 AND DUP2 MSTORE PUSH1 0x20 SWAP1 RETURN JUMPDEST CALLVALUE PUSH2 0x226 JUMPI PUSH1 0x40 CALLDATASIZE PUSH1 0x3 NOT ADD SLT PUSH2 0x226 JUMPI PUSH2 0x26D PUSH2 0x188A JUMP JUMPDEST PUSH2 0x275 PUSH2 0x18A0 JUMP JUMPDEST SWAP1 PUSH1 0x1 DUP1 PUSH1 0xA0 SHL SUB AND PUSH1 0x0 MSTORE PUSH1 0x5 PUSH1 0x20 MSTORE PUSH1 0x40 PUSH1 0x0 KECCAK256 SWAP1 PUSH1 0x1 DUP1 PUSH1 0xA0 SHL SUB AND PUSH1 0x0 MSTORE PUSH1 0x20 MSTORE PUSH1 0x20 PUSH1 0xFF PUSH1 0x40 PUSH1 0x0 KECCAK256 SLOAD AND PUSH1 0x40 MLOAD SWAP1 ISZERO ISZERO DUP2 MSTORE RETURN JUMPDEST CALLVALUE PUSH2 0x226 JUMPI PUSH1 0x0 CALLDATASIZE PUSH1 0x3 NOT ADD SLT PUSH2 0x226 JUMPI PUSH1 0x9 SLOAD PUSH1 0x40 MLOAD PUSH1 0x1 PUSH1 0x1 PUSH1 0xA0 SHL SUB SWAP1 SWAP2 AND DUP2 MSTORE PUSH1 0x20 SWAP1 RETURN JUMPDEST CALLVALUE PUSH2 0x226 JUMPI PUSH1 0x20 CALLDATASIZE PUSH1 0x3 NOT ADD SLT PUSH2 0x226 JUMPI PUSH2 0x30B PUSH2 0x2F7 PUSH1 0x4 CALLDATALOAD PUSH2 0x1D5D JUMP JUMPDEST PUSH1 0x40 MLOAD SWAP2 DUP3 SWAP2 PUSH1 0x20 DUP4 MSTORE PUSH1 0x20 DUP4 ADD SWAP1 PUSH2 0x184B JUMP JUMPDEST SUB SWAP1 RETURN JUMPDEST CALLVALUE PUSH2 0x226 JUMPI PUSH1 0x20 CALLDATASIZE PUSH1 0x3 NOT ADD SLT PUSH2 0x226 JUMPI PUSH2 0x30B PUSH2 0x2F7 PUSH1 0x4 CALLDATALOAD PUSH2 0x2283 JUMP JUMPDEST CALLVALUE PUSH2 0x226 JUMPI PUSH1 0x20 CALLDATASIZE PUSH1 0x3 NOT ADD SLT PUSH2 0x226 JUMPI PUSH1 0x4 CALLDATALOAD PUSH1 0x0 MSTORE PUSH1 0xB PUSH1 0x20 MSTORE PUSH2 0x3C1 PUSH1 0x40 PUSH1 0x0 KECCAK256 PUSH2 0x30B PUSH1 0x1 DUP1 PUSH1 0xA0 SHL SUB PUSH1 0x2 DUP4 ADD SLOAD AND SWAP2 PUSH1 0x4 DUP2 ADD SLOAD SWAP1 PUSH1 0xFF PUSH1 0x5 DUP3 ADD SLOAD AND PUSH1 0x6 DUP3 ADD SLOAD PUSH2 0x3E4 PUSH1 0xFF PUSH1 0x7 DUP6 ADD SLOAD AND SWAP3 PUSH2 0x3D4 PUSH2 0x391 PUSH1 0x1 DUP8 ADD PUSH2 0x1D12 JUMP JUMPDEST SWAP9 PUSH2 0x3AA PUSH1 0x8 PUSH2 0x3A3 PUSH1 0x3 DUP11 ADD PUSH2 0x19F3 JUMP JUMPDEST SWAP9 ADD PUSH2 0x1D12 JUMP JUMPDEST SWAP7 PUSH1 0x40 MLOAD SWAP12 DUP13 SWAP12 PUSH2 0x100 DUP14 MSTORE PUSH2 0x100 DUP14 ADD SWAP1 PUSH2 0x1920 JUMP JUMPDEST SWAP2 PUSH1 0x20 DUP13 ADD MSTORE DUP11 DUP3 SUB PUSH1 0x40 DUP13 ADD MSTORE PUSH2 0x184B JUMP JUMPDEST SWAP6 PUSH1 0x60 DUP10 ADD MSTORE PUSH1 0x80 DUP9 ADD SWAP1 PUSH2 0x1A97 JUMP JUMPDEST PUSH1 0xA0 DUP7 ADD MSTORE ISZERO ISZERO PUSH1 0xC0 DUP6 ADD MSTORE DUP4 DUP3 SUB PUSH1 0xE0 DUP6 ADD MSTORE PUSH2 0x1920 JUMP JUMPDEST CALLVALUE PUSH2 0x226 JUMPI PUSH1 0x80 CALLDATASIZE PUSH1 0x3 NOT ADD SLT PUSH2 0x226 JUMPI PUSH2 0x416 PUSH2 0x188A JUMP JUMPDEST PUSH2 0x41E PUSH2 0x18A0 JUMP JUMPDEST SWAP1 PUSH1 0x64 CALLDATALOAD SWAP1 PUSH1 0x44 CALLDATALOAD PUSH1 0x1 PUSH1 0x1 PUSH1 0x40 SHL SUB DUP4 GT PUSH2 0x226 JUMPI CALLDATASIZE PUSH1 0x23 DUP5 ADD SLT ISZERO PUSH2 0x226 JUMPI PUSH2 0x482 SWAP4 PUSH2 0x45A PUSH2 0x47D SWAP5 CALLDATASIZE SWAP1 PUSH1 0x24 DUP2 PUSH1 0x4 ADD CALLDATALOAD SWAP2 ADD PUSH2 0x1AD5 JUMP JUMPDEST SWAP3 PUSH2 0x46D PUSH2 0x468 DUP5 CALLER PUSH2 0x1E96 JUMP JUMPDEST PUSH2 0x1B4A JUMP JUMPDEST PUSH2 0x478 DUP4 DUP4 DUP4 PUSH2 0x1F69 JUMP JUMPDEST PUSH2 0x23E8 JUMP JUMPDEST PUSH2 0x225F JUMP JUMPDEST STOP JUMPDEST CALLVALUE PUSH2 0x226 JUMPI PUSH1 0x20 CALLDATASIZE PUSH1 0x3 NOT ADD SLT PUSH2 0x226 JUMPI PUSH1 0x4 CALLDATALOAD PUSH1 0x0 SWAP1 DUP2 MSTORE PUSH1 0xB PUSH1 0x20 MSTORE PUSH1 0x40 SWAP1 KECCAK256 DUP1 SLOAD PUSH1 0x2 DUP3 ADD SLOAD PUSH1 0x1 PUSH1 0x1 PUSH1 0xA0 SHL SUB AND SWAP2 PUSH2 0x4C3 PUSH1 0x3 DUP3 ADD PUSH2 0x19F3 JUMP JUMPDEST PUSH1 0x4 DUP3 ADD SLOAD SWAP2 PUSH2 0x513 PUSH1 0xFF PUSH1 0x5 DUP4 ADD SLOAD AND PUSH2 0x503 PUSH1 0xFF PUSH1 0x7 PUSH1 0x6 DUP7 ADD SLOAD SWAP6 ADD SLOAD AND SWAP5 PUSH1 0x40 MLOAD SWAP9 DUP10 SWAP9 DUP10 MSTORE PUSH1 0x20 DUP10 ADD MSTORE PUSH1 0xE0 PUSH1 0x40 DUP10 ADD MSTORE PUSH1 0xE0 DUP9 ADD SWAP1 PUSH2 0x184B JUMP JUMPDEST SWAP5 PUSH1 0x60 DUP8 ADD MSTORE PUSH1 0x80 DUP7 ADD SWAP1 PUSH2 0x1A97 JUMP JUMPDEST PUSH1 0xA0 DUP5 ADD MSTORE ISZERO ISZERO PUSH1 0xC0 DUP4 ADD MSTORE SUB SWAP1 RETURN JUMPDEST CALLVALUE PUSH2 0x226 JUMPI PUSH1 0x20 CALLDATASIZE PUSH1 0x3 NOT ADD SLT PUSH2 0x226 JUMPI PUSH1 0x4 CALLDATALOAD PUSH1 0x0 MSTORE PUSH1 0xE PUSH1 0x20 MSTORE PUSH1 0x20 PUSH1 0xFF PUSH1 0x40 PUSH1 0x0 KECCAK256 SLOAD AND PUSH1 0x40 MLOAD SWAP1 ISZERO ISZERO DUP2 MSTORE RETURN JUMPDEST CALLVALUE PUSH2 0x226 JUMPI PUSH1 0x40 CALLDATASIZE PUSH1 0x3 NOT ADD SLT PUSH2 0x226 JUMPI PUSH2 0x56D PUSH2 0x188A JUMP JUMPDEST PUSH1 0x24 CALLDATALOAD SWAP1 DUP2 ISZERO ISZERO SWAP1 DUP2 DUP4 SUB PUSH2 0x226 JUMPI PUSH1 0x1 PUSH1 0x1 PUSH1 0xA0 SHL SUB AND SWAP2 CALLER DUP4 EQ PUSH2 0x5EA JUMPI PUSH2 0x5BC SWAP1 CALLER PUSH1 0x0 MSTORE PUSH1 0x5 PUSH1 0x20 MSTORE PUSH1 0x40 PUSH1 0x0 KECCAK256 DUP5 PUSH1 0x0 MSTORE PUSH1 0x20 MSTORE PUSH1 0x40 PUSH1 0x0 KECCAK256 SWAP1 PUSH1 0xFF DUP1 NOT DUP4 SLOAD AND SWAP2 ISZERO ISZERO AND OR SWAP1 SSTORE JUMP JUMPDEST PUSH1 0x40 MLOAD SWAP1 DUP2 MSTORE PUSH32 0x17307EAB39AB6107E8899845AD3D59BD9653F200F220920489CA2B5937696C31 PUSH1 0x20 CALLER SWAP3 LOG3 STOP JUMPDEST PUSH1 0x40 MLOAD PUSH3 0x461BCD PUSH1 0xE5 SHL DUP2 MSTORE PUSH1 0x20 PUSH1 0x4 DUP3 ADD MSTORE PUSH1 0x19 PUSH1 0x24 DUP3 ADD MSTORE PUSH32 0x4552433732313A20617070726F766520746F2063616C6C657200000000000000 PUSH1 0x44 DUP3 ADD MSTORE PUSH1 0x64 SWAP1 REVERT JUMPDEST CALLVALUE PUSH2 0x226 JUMPI PUSH1 0x20 CALLDATASIZE PUSH1 0x3 NOT ADD SLT PUSH2 0x226 JUMPI PUSH1 0x4 CALLDATALOAD PUSH1 0x0 MSTORE PUSH1 0xB PUSH1 0x20 MSTORE PUSH1 0x20 PUSH1 0xFF PUSH1 0x7 PUSH1 0x40 PUSH1 0x0 KECCAK256 ADD SLOAD AND PUSH1 0x40 MLOAD SWAP1 ISZERO ISZERO DUP2 MSTORE RETURN JUMPDEST CALLVALUE PUSH2 0x226 JUMPI PUSH1 0x20 CALLDATASIZE PUSH1 0x3 NOT ADD SLT PUSH2 0x226 JUMPI PUSH1 0x4 CALLDATALOAD PUSH1 0x0 MSTORE PUSH1 0xD PUSH1 0x20 MSTORE PUSH2 0x30B PUSH2 0x68F PUSH1 0x40 PUSH1 0x0 KECCAK256 PUSH2 0x1D12 JUMP JUMPDEST PUSH1 0x40 MLOAD SWAP2 DUP3 SWAP2 PUSH1 0x20 DUP4 MSTORE PUSH1 0x20 DUP4 ADD SWAP1 PUSH2 0x1920 JUMP JUMPDEST CALLVALUE PUSH2 0x226 JUMPI PUSH2 0x6B1 CALLDATASIZE PUSH2 0x1954 JUMP JUMPDEST SWAP1 PUSH1 0x0 MSTORE PUSH1 0xD PUSH1 0x20 MSTORE PUSH1 0x40 PUSH1 0x0 KECCAK256 DUP1 SLOAD DUP3 LT ISZERO PUSH2 0x226 JUMPI PUSH1 0x20 SWAP2 PUSH2 0x6D4 SWAP2 PUSH2 0x196A JUMP JUMPDEST SWAP1 SLOAD SWAP1 PUSH1 0x3 SHL SHR PUSH1 0x40 MLOAD SWAP1 DUP2 MSTORE RETURN JUMPDEST CALLVALUE PUSH2 0x226 JUMPI PUSH1 0x0 CALLDATASIZE PUSH1 0x3 NOT ADD SLT PUSH2 0x226 JUMPI PUSH1 0x40 MLOAD PUSH1 0x0 PUSH1 0x1 SLOAD PUSH2 0x705 DUP2 PUSH2 0x1998 JUMP JUMPDEST DUP1 DUP5 MSTORE SWAP1 PUSH1 0x1 DUP2 AND SWAP1 DUP2 ISZERO PUSH2 0x78C JUMPI POP PUSH1 0x1 EQ PUSH2 0x72D JUMPI JUMPDEST PUSH2 0x30B DUP4 PUSH2 0x2F7 DUP2 DUP6 SUB DUP3 PUSH2 0x19D2 JUMP JUMPDEST PUSH1 0x1 PUSH1 0x0 SWAP1 DUP2 MSTORE PUSH32 0xB10E2D527612073B26EECDFD717E6A320CF44B4AFAC2B0732D9FCBE2B7FA0CF6 SWAP4 SWAP3 POP SWAP1 JUMPDEST DUP1 DUP3 LT PUSH2 0x772 JUMPI POP SWAP1 SWAP2 POP DUP2 ADD PUSH1 0x20 ADD PUSH2 0x2F7 PUSH2 0x71D JUMP JUMPDEST SWAP2 SWAP3 PUSH1 0x1 DUP2 PUSH1 0x20 SWAP3 SLOAD DUP4 DUP6 DUP9 ADD ADD MSTORE ADD SWAP2 ADD SWAP1 SWAP3 SWAP2 PUSH2 0x75A JUMP JUMPDEST PUSH1 0xFF NOT AND PUSH1 0x20 DUP1 DUP7 ADD SWAP2 SWAP1 SWAP2 MSTORE SWAP2 ISZERO ISZERO PUSH1 0x5 SHL DUP5 ADD SWAP1 SWAP2 ADD SWAP2 POP PUSH2 0x2F7 SWAP1 POP PUSH2 0x71D JUMP JUMPDEST CALLVALUE PUSH2 0x226 JUMPI PUSH1 0x0 CALLDATASIZE PUSH1 0x3 NOT ADD SLT PUSH2 0x226 JUMPI PUSH1 0x7 SLOAD PUSH1 0x40 MLOAD PUSH1 0x1 PUSH1 0x1 PUSH1 0xA0 SHL SUB SWAP1 SWAP2 AND DUP2 MSTORE PUSH1 0x20 SWAP1 RETURN JUMPDEST CALLVALUE PUSH2 0x226 JUMPI PUSH2 0x7E7 CALLDATASIZE PUSH2 0x1954 JUMP JUMPDEST SWAP1 PUSH1 0x0 MSTORE PUSH1 0xC PUSH1 0x20 MSTORE PUSH1 0x40 PUSH1 0x0 KECCAK256 DUP1 SLOAD DUP3 LT ISZERO PUSH2 0x226 JUMPI PUSH1 0x20 SWAP2 PUSH2 0x6D4 SWAP2 PUSH2 0x196A JUMP JUMPDEST CALLVALUE PUSH2 0x226 JUMPI PUSH1 0x0 CALLDATASIZE PUSH1 0x3 NOT ADD SLT PUSH2 0x226 JUMPI PUSH2 0x823 PUSH2 0x21B4 JUMP JUMPDEST PUSH1 0x7 DUP1 SLOAD PUSH1 0x1 PUSH1 0x1 PUSH1 0xA0 SHL SUB NOT DUP2 AND SWAP1 SWAP2 SSTORE PUSH1 0x0 SWAP1 PUSH1 0x1 PUSH1 0x1 PUSH1 0xA0 SHL SUB AND PUSH32 0x8BE0079C531659141344CD1FD0A4F28419497F9722A3DAAFE3B4186F6B6457E0 DUP3 DUP1 LOG3 STOP JUMPDEST CALLVALUE PUSH2 0x226 JUMPI PUSH1 0x20 CALLDATASIZE PUSH1 0x3 NOT ADD SLT PUSH2 0x226 JUMPI PUSH1 0x4 CALLDATALOAD PUSH1 0x0 MSTORE PUSH1 0xC PUSH1 0x20 MSTORE PUSH2 0x30B PUSH2 0x68F PUSH1 0x40 PUSH1 0x0 KECCAK256 PUSH2 0x1D12 JUMP JUMPDEST CALLVALUE PUSH2 0x226 JUMPI PUSH1 0x20 CALLDATASIZE PUSH1 0x3 NOT ADD SLT PUSH2 0x226 JUMPI PUSH1 0x1 PUSH1 0x1 PUSH1 0xA0 SHL SUB PUSH2 0x8B4 PUSH2 0x188A JUMP JUMPDEST AND DUP1 ISZERO PUSH2 0x8D3 JUMPI PUSH1 0x0 MSTORE PUSH1 0x3 PUSH1 0x20 MSTORE PUSH1 0x20 PUSH1 0x40 PUSH1 0x0 KECCAK256 SLOAD PUSH1 0x40 MLOAD SWAP1 DUP2 MSTORE RETURN JUMPDEST PUSH1 0x40 MLOAD PUSH3 0x461BCD PUSH1 0xE5 SHL DUP2 MSTORE PUSH1 0x20 PUSH1 0x4 DUP3 ADD MSTORE PUSH1 0x29 PUSH1 0x24 DUP3 ADD MSTORE PUSH32 0x4552433732313A2061646472657373207A65726F206973206E6F742061207661 PUSH1 0x44 DUP3 ADD MSTORE PUSH9 0x3634B21037BBB732B9 PUSH1 0xB9 SHL PUSH1 0x64 DUP3 ADD MSTORE PUSH1 0x84 SWAP1 REVERT JUMPDEST CALLVALUE PUSH2 0x226 JUMPI PUSH1 0xC0 CALLDATASIZE PUSH1 0x3 NOT ADD SLT PUSH2 0x226 JUMPI PUSH1 0x4 CALLDATALOAD PUSH1 0x1 PUSH1 0x1 PUSH1 0x40 SHL SUB DUP2 GT PUSH2 0x226 JUMPI PUSH2 0x95A SWAP1 CALLDATASIZE SWAP1 PUSH1 0x4 ADD PUSH2 0x18F0 JUMP JUMPDEST SWAP1 PUSH1 0x24 CALLDATALOAD PUSH1 0x1 PUSH1 0x1 PUSH1 0x40 SHL SUB DUP2 GT PUSH2 0x226 JUMPI PUSH2 0x97A SWAP1 CALLDATASIZE SWAP1 PUSH1 0x4 ADD PUSH2 0x18F0 JUMP JUMPDEST PUSH1 0x44 CALLDATALOAD SWAP1 PUSH1 0x1 PUSH1 0x1 PUSH1 0x40 SHL SUB DUP3 GT PUSH2 0x226 JUMPI CALLDATASIZE PUSH1 0x23 DUP4 ADD SLT ISZERO PUSH2 0x226 JUMPI DUP2 PUSH1 0x4 ADD CALLDATALOAD SWAP5 PUSH1 0x1 PUSH1 0x1 PUSH1 0x40 SHL SUB DUP7 GT PUSH2 0x226 JUMPI PUSH1 0x24 DUP4 ADD SWAP3 PUSH1 0x24 DUP8 CALLDATASIZE SWAP3 ADD ADD GT PUSH2 0x226 JUMPI PUSH1 0x5 PUSH1 0x84 CALLDATALOAD LT ISZERO PUSH2 0x226 JUMPI PUSH1 0xA4 CALLDATALOAD SWAP1 DUP2 ISZERO ISZERO DUP3 SUB PUSH2 0x226 JUMPI DUP1 ISZERO PUSH2 0x14AC JUMPI PUSH1 0xA DUP2 GT PUSH2 0x1474 JUMPI PUSH1 0x8 SLOAD PUSH1 0x1 PUSH1 0x1 PUSH1 0xA0 SHL SUB AND PUSH1 0x0 DUP1 JUMPDEST DUP4 DUP2 LT PUSH2 0x13FD JUMPI JUMPDEST POP ISZERO PUSH2 0x139C JUMPI JUMPDEST PUSH1 0x0 JUMPDEST DUP3 DUP2 LT PUSH2 0x129A JUMPI POP POP PUSH1 0x0 JUMPDEST DUP4 DUP2 LT PUSH2 0x1151 JUMPI POP PUSH1 0x1 PUSH1 0xA SLOAD ADD SWAP6 DUP7 PUSH1 0xA SSTORE PUSH1 0x20 SWAP8 PUSH1 0x40 MLOAD PUSH2 0xA33 DUP11 DUP3 PUSH2 0x19D2 JUMP JUMPDEST PUSH1 0x0 DUP2 MSTORE CALLER ISZERO PUSH2 0x110E JUMPI PUSH1 0x0 DUP10 DUP2 MSTORE PUSH1 0x2 PUSH1 0x20 MSTORE PUSH1 0x40 SWAP1 KECCAK256 SLOAD PUSH2 0xAEA SWAP2 PUSH2 0x47D SWAP2 PUSH2 0xA6A SWAP1 PUSH1 0x1 PUSH1 0x1 PUSH1 0xA0 SHL SUB AND ISZERO ISZERO JUMPDEST ISZERO PUSH2 0x2441 JUMP JUMPDEST PUSH1 0x0 DUP12 DUP2 MSTORE PUSH1 0x2 PUSH1 0x20 MSTORE PUSH1 0x40 SWAP1 KECCAK256 SLOAD PUSH2 0xA8D SWAP1 PUSH1 0x1 PUSH1 0x1 PUSH1 0xA0 SHL SUB AND ISZERO ISZERO PUSH2 0xA64 JUMP JUMPDEST CALLER PUSH1 0x0 DUP2 DUP2 MSTORE PUSH1 0x3 DUP15 MSTORE PUSH1 0x40 DUP1 DUP3 KECCAK256 DUP1 SLOAD PUSH1 0x1 ADD SWAP1 SSTORE DUP14 DUP3 MSTORE PUSH1 0x2 DUP16 MSTORE DUP2 KECCAK256 DUP1 SLOAD PUSH1 0x1 PUSH1 0x1 PUSH1 0xA0 SHL SUB NOT AND DUP4 OR SWAP1 SSTORE DUP13 SWAP2 SWAP1 PUSH32 0xDDF252AD1BE2C89B69C2B068FC378DAA952BA7F163C4A11628F55A4DF523B3EF DUP2 DUP1 LOG4 DUP11 CALLER PUSH2 0x22CF JUMP JUMPDEST PUSH2 0xAF5 CALLDATASIZE DUP3 DUP9 PUSH2 0x1AD5 JUMP JUMPDEST PUSH1 0x0 DUP10 DUP2 MSTORE PUSH1 0x2 PUSH1 0x20 MSTORE PUSH1 0x40 SWAP1 KECCAK256 SLOAD PUSH1 0x1 PUSH1 0x1 PUSH1 0xA0 SHL SUB AND ISZERO PUSH2 0x10B2 JUMPI DUP9 PUSH1 0x0 MSTORE PUSH1 0x6 DUP11 MSTORE PUSH1 0x40 PUSH1 0x0 KECCAK256 SWAP1 DUP1 MLOAD SWAP1 PUSH1 0x1 PUSH1 0x1 PUSH1 0x40 SHL SUB DUP3 GT PUSH2 0xFFA JUMPI DUP2 SWAP1 PUSH2 0xB3D DUP5 SLOAD PUSH2 0x1998 JUMP JUMPDEST DUP14 PUSH1 0x1F DUP3 GT PUSH2 0x1081 JUMPI JUMPDEST POP POP DUP13 SWAP1 DUP14 PUSH1 0x1F DUP5 GT PUSH1 0x1 EQ PUSH2 0x101B JUMPI POP PUSH1 0x0 SWAP3 PUSH2 0x1010 JUMPI JUMPDEST POP POP DUP2 PUSH1 0x1 SHL SWAP2 PUSH1 0x0 NOT SWAP1 PUSH1 0x3 SHL SHR NOT AND OR SWAP1 SSTORE JUMPDEST PUSH32 0xF8E1A15ABA9398E019F0B49DF1A4FDE98EE17AE345CB5F6B5E2C27F5033E8CE7 DUP10 PUSH1 0x40 MLOAD DUP11 DUP2 MSTORE LOG1 PUSH1 0x40 MLOAD SWAP6 PUSH2 0x120 DUP8 ADD SWAP2 DUP8 DUP4 LT PUSH1 0x1 PUSH1 0x1 PUSH1 0x40 SHL SUB DUP5 GT OR PUSH2 0xFFA JUMPI PUSH2 0xBE0 SWAP3 PUSH1 0x40 MSTORE DUP10 DUP9 MSTORE PUSH2 0xBCF CALLDATASIZE DUP7 DUP7 PUSH2 0x1C4D JUMP JUMPDEST DUP12 DUP10 ADD MSTORE CALLER PUSH1 0x40 DUP10 ADD MSTORE CALLDATASIZE SWAP2 PUSH2 0x1AD5 JUMP JUMPDEST PUSH1 0x60 DUP7 ADD MSTORE PUSH1 0x64 CALLDATALOAD PUSH1 0x80 DUP7 ADD MSTORE PUSH1 0x0 SWAP5 PUSH1 0x84 CALLDATALOAD PUSH1 0xA0 DUP3 ADD MSTORE TIMESTAMP PUSH1 0xC0 DUP3 ADD MSTORE DUP4 ISZERO ISZERO PUSH1 0xE0 DUP3 ADD MSTORE PUSH2 0xC11 CALLDATASIZE DUP7 DUP10 PUSH2 0x1C4D JUMP JUMPDEST PUSH2 0x100 DUP3 ADD MSTORE DUP8 DUP7 MSTORE PUSH1 0xB DUP10 MSTORE PUSH1 0x40 DUP7 KECCAK256 DUP2 MLOAD DUP2 SSTORE DUP10 DUP3 ADD MLOAD DUP1 MLOAD SWAP1 PUSH1 0x1 PUSH1 0x1 PUSH1 0x40 SHL SUB DUP3 GT PUSH2 0xFB6 JUMPI PUSH1 0x1 PUSH1 0x40 SHL DUP3 GT PUSH2 0xFB6 JUMPI DUP12 SWAP1 PUSH1 0x1 DUP5 ADD SLOAD DUP4 PUSH1 0x1 DUP7 ADD SSTORE DUP1 DUP5 LT PUSH2 0xFDD JUMPI JUMPDEST POP ADD PUSH1 0x1 DUP4 ADD DUP10 MSTORE DUP12 DUP10 KECCAK256 DUP13 DUP11 JUMPDEST DUP5 DUP2 LT PUSH2 0xFCA JUMPI POP POP POP POP PUSH1 0x40 DUP4 ADD MLOAD PUSH1 0x2 DUP4 ADD DUP1 SLOAD PUSH1 0x1 PUSH1 0x1 PUSH1 0xA0 SHL SUB NOT AND PUSH1 0x1 PUSH1 0x1 PUSH1 0xA0 SHL SUB SWAP3 SWAP1 SWAP3 AND SWAP2 SWAP1 SWAP2 OR SWAP1 SSTORE POP PUSH1 0x60 DUP3 ADD MLOAD DUP1 MLOAD SWAP1 PUSH1 0x1 PUSH1 0x1 PUSH1 0x40 SHL SUB DUP3 GT PUSH2 0xFB6 JUMPI DUP2 SWAP1 PUSH2 0xCC1 PUSH1 0x3 DUP6 ADD SLOAD PUSH2 0x1998 JUMP JUMPDEST DUP14 PUSH1 0x1F DUP3 GT PUSH2 0xF7A JUMPI JUMPDEST POP POP DUP13 SWAP1 DUP14 PUSH1 0x1F DUP5 GT PUSH1 0x1 EQ PUSH2 0xF0E JUMPI POP DUP11 SWAP3 PUSH2 0xF03 JUMPI JUMPDEST POP POP DUP2 PUSH1 0x1 SHL SWAP2 PUSH1 0x0 NOT SWAP1 PUSH1 0x3 SHL SHR NOT AND OR PUSH1 0x3 DUP3 ADD SSTORE JUMPDEST PUSH1 0x80 DUP3 ADD MLOAD PUSH1 0x4 DUP3 ADD SSTORE PUSH1 0x5 DUP2 ADD PUSH1 0xA0 DUP4 ADD MLOAD PUSH1 0x5 DUP2 LT ISZERO PUSH2 0xEEF JUMPI SWAP2 PUSH1 0x8 SWAP2 PUSH2 0x100 SWAP4 PUSH1 0xFF DUP1 NOT DUP4 SLOAD AND SWAP2 AND OR SWAP1 SSTORE PUSH1 0xC0 DUP5 ADD MLOAD PUSH1 0x6 DUP3 ADD SSTORE PUSH2 0xD54 PUSH1 0xE0 DUP6 ADD MLOAD ISZERO ISZERO PUSH1 0x7 DUP4 ADD SWAP1 PUSH1 0xFF DUP1 NOT DUP4 SLOAD AND SWAP2 ISZERO ISZERO AND OR SWAP1 SSTORE JUMP JUMPDEST ADD SWAP2 ADD MLOAD SWAP1 DUP2 MLOAD SWAP2 PUSH1 0x1 PUSH1 0x1 PUSH1 0x40 SHL SUB DUP4 GT PUSH2 0xEDB JUMPI PUSH1 0x1 PUSH1 0x40 SHL DUP4 GT PUSH2 0xEDB JUMPI DUP11 SWAP1 DUP3 SLOAD DUP5 DUP5 SSTORE DUP1 DUP6 LT PUSH2 0xEC1 JUMPI JUMPDEST POP SWAP1 DUP11 SWAP6 SWAP5 SWAP4 SWAP3 SWAP2 ADD SWAP1 DUP9 MSTORE DUP11 DUP9 KECCAK256 DUP9 JUMPDEST DUP4 DUP2 LT PUSH2 0xEAC JUMPI POP POP POP POP DUP6 JUMPDEST DUP3 DUP2 LT PUSH2 0xE5D JUMPI POP SWAP1 PUSH2 0xDE2 PUSH32 0x8F36B77B00926C962BBAEFA267BED2C20E83B0462C1169ECFCF6726D2BD94959 SWAP3 PUSH1 0x40 MLOAD SWAP3 PUSH1 0x80 DUP5 MSTORE PUSH1 0x80 DUP5 ADD SWAP2 PUSH2 0x1CEE JUMP JUMPDEST SWAP4 PUSH2 0xDF1 DUP11 DUP4 ADD PUSH1 0x84 CALLDATALOAD PUSH2 0x1A97 JUMP JUMPDEST ISZERO ISZERO PUSH1 0x40 DUP3 ADD MSTORE DUP1 DUP5 SUB PUSH1 0x60 DUP3 ADD MSTORE DUP1 PUSH2 0xE0D CALLER SWAP6 DUP8 DUP11 PUSH2 0x1CEE JUMP JUMPDEST SUB SWAP1 LOG3 DUP2 JUMPDEST DUP2 DUP2 LT PUSH2 0xE23 JUMPI DUP6 DUP6 PUSH1 0x40 MLOAD SWAP1 DUP2 MSTORE RETURN JUMPDEST DUP1 DUP6 PUSH2 0xE32 PUSH1 0x1 SWAP4 DUP6 DUP9 PUSH2 0x1C1E JUMP JUMPDEST CALLDATALOAD PUSH32 0x61C74FD4E4D8450D8B40F8CA33601721223DFD582EDD02138603BEE206388057 DUP7 DUP1 LOG3 ADD PUSH2 0xE12 JUMP JUMPDEST DUP3 SWAP4 POP PUSH2 0xE6E DUP2 DUP4 SWAP5 PUSH1 0x1 SWAP5 PUSH2 0x1C1E JUMP JUMPDEST CALLDATALOAD DUP8 MSTORE PUSH1 0xC DUP11 MSTORE PUSH2 0xE82 DUP10 PUSH1 0x40 DUP10 KECCAK256 PUSH2 0x1CB9 JUMP JUMPDEST DUP9 DUP8 MSTORE PUSH1 0xD DUP11 MSTORE PUSH2 0xEA2 PUSH1 0x40 DUP9 KECCAK256 PUSH2 0xE9B DUP4 DUP8 DUP8 PUSH2 0x1C1E JUMP JUMPDEST CALLDATALOAD SWAP1 PUSH2 0x1CB9 JUMP JUMPDEST ADD SWAP1 DUP8 SWAP3 SWAP2 PUSH2 0xDA2 JUMP JUMPDEST DUP3 MLOAD DUP2 DUP4 ADD SSTORE DUP12 SWAP7 POP SWAP2 DUP13 ADD SWAP2 PUSH1 0x1 ADD PUSH2 0xD95 JUMP JUMPDEST DUP4 DUP11 MSTORE DUP3 DUP11 KECCAK256 PUSH2 0xED5 SWAP2 DUP2 ADD SWAP1 DUP7 ADD PUSH2 0x1CA2 JUMP JUMPDEST DUP13 PUSH2 0xD84 JUMP JUMPDEST PUSH4 0x4E487B71 PUSH1 0xE0 SHL DUP9 MSTORE PUSH1 0x41 PUSH1 0x4 MSTORE PUSH1 0x24 DUP9 REVERT JUMPDEST PUSH4 0x4E487B71 PUSH1 0xE0 SHL DUP10 MSTORE PUSH1 0x21 PUSH1 0x4 MSTORE PUSH1 0x24 DUP10 REVERT JUMPDEST ADD MLOAD SWAP1 POP DUP13 DUP1 PUSH2 0xCE3 JUMP JUMPDEST PUSH1 0x3 DUP7 ADD DUP13 MSTORE DUP1 DUP13 KECCAK256 SWAP4 POP PUSH1 0x1F NOT DUP6 AND SWAP1 DUP13 SWAP1 JUMPDEST DUP3 DUP3 LT PUSH2 0xF62 JUMPI POP POP SWAP1 DUP5 PUSH1 0x1 SWAP6 SWAP5 SWAP4 SWAP3 LT PUSH2 0xF49 JUMPI JUMPDEST POP POP POP DUP2 SHL ADD PUSH1 0x3 DUP3 ADD SSTORE PUSH2 0xCFB JUMP JUMPDEST ADD MLOAD PUSH1 0x0 NOT PUSH1 0xF8 DUP5 PUSH1 0x3 SHL AND SHR NOT AND SWAP1 SSTORE DUP13 DUP1 DUP1 PUSH2 0xF39 JUMP JUMPDEST DUP1 PUSH1 0x1 DUP7 SWAP8 DUP3 SWAP5 SWAP8 DUP8 ADD MLOAD DUP2 SSTORE ADD SWAP7 ADD SWAP5 ADD SWAP1 PUSH2 0xF22 JUMP JUMPDEST PUSH1 0x3 DUP7 ADD DUP13 MSTORE DUP1 DUP13 KECCAK256 PUSH2 0xFA5 SWAP3 PUSH1 0x1F DUP7 ADD PUSH1 0x5 SHR DUP3 ADD SWAP3 DUP7 LT PUSH2 0xFAC JUMPI JUMPDEST PUSH1 0x1F ADD PUSH1 0x5 SHR ADD SWAP1 PUSH2 0x1CA2 JUMP JUMPDEST DUP14 DUP14 PUSH2 0xCCB JUMP JUMPDEST SWAP1 SWAP2 POP DUP2 SWAP1 PUSH2 0xF98 JUMP JUMPDEST PUSH4 0x4E487B71 PUSH1 0xE0 SHL DUP10 MSTORE PUSH1 0x41 PUSH1 0x4 MSTORE PUSH1 0x24 DUP10 REVERT JUMPDEST DUP4 MLOAD DUP4 DUP3 ADD SSTORE SWAP3 ADD SWAP2 DUP14 SWAP1 PUSH1 0x1 ADD PUSH2 0xC69 JUMP JUMPDEST PUSH1 0x1 DUP6 ADD DUP12 MSTORE DUP3 DUP12 KECCAK256 PUSH2 0xFF4 SWAP2 DUP2 ADD SWAP1 DUP6 ADD PUSH2 0x1CA2 JUMP JUMPDEST DUP14 PUSH2 0xC5B JUMP JUMPDEST PUSH4 0x4E487B71 PUSH1 0xE0 SHL PUSH1 0x0 MSTORE PUSH1 0x41 PUSH1 0x4 MSTORE PUSH1 0x24 PUSH1 0x0 REVERT JUMPDEST ADD MLOAD SWAP1 POP DUP13 DUP1 PUSH2 0xB60 JUMP JUMPDEST PUSH1 0x0 DUP7 DUP2 MSTORE DUP2 DUP2 KECCAK256 SWAP5 POP PUSH1 0x1F NOT DUP7 AND SWAP2 JUMPDEST DUP3 DUP3 LT PUSH2 0x1069 JUMPI POP POP SWAP1 DUP5 PUSH1 0x1 SWAP6 SWAP5 SWAP4 SWAP3 LT PUSH2 0x1050 JUMPI JUMPDEST POP POP POP DUP2 SHL ADD SWAP1 SSTORE PUSH2 0xB75 JUMP JUMPDEST ADD MLOAD PUSH1 0x0 NOT PUSH1 0xF8 DUP5 PUSH1 0x3 SHL AND SHR NOT AND SWAP1 SSTORE DUP13 DUP1 DUP1 PUSH2 0x1043 JUMP JUMPDEST DUP1 PUSH1 0x1 DUP7 SWAP8 DUP3 SWAP5 SWAP8 DUP8 ADD MLOAD DUP2 SSTORE ADD SWAP7 ADD SWAP5 ADD SWAP1 PUSH2 0x102C JUMP JUMPDEST PUSH2 0x10AB SWAP2 DUP7 PUSH1 0x0 MSTORE DUP2 PUSH1 0x0 KECCAK256 SWAP1 PUSH1 0x1F DUP7 ADD PUSH1 0x5 SHR DUP3 ADD SWAP3 DUP7 LT PUSH2 0xFAC JUMPI PUSH1 0x1F ADD PUSH1 0x5 SHR ADD SWAP1 PUSH2 0x1CA2 JUMP JUMPDEST DUP14 DUP14 PUSH2 0xB47 JUMP JUMPDEST PUSH1 0x40 MLOAD PUSH3 0x461BCD PUSH1 0xE5 SHL DUP2 MSTORE PUSH1 0x4 DUP2 ADD DUP12 SWAP1 MSTORE PUSH1 0x2E PUSH1 0x24 DUP3 ADD MSTORE PUSH32 0x45524337323155524953746F726167653A2055524920736574206F66206E6F6E PUSH1 0x44 DUP3 ADD MSTORE PUSH14 0x32BC34B9BA32B73A103A37B5B2B7 PUSH1 0x91 SHL PUSH1 0x64 DUP3 ADD MSTORE PUSH1 0x84 SWAP1 REVERT JUMPDEST PUSH1 0x64 DUP11 PUSH1 0x40 MLOAD SWAP1 PUSH3 0x461BCD PUSH1 0xE5 SHL DUP3 MSTORE DUP1 PUSH1 0x4 DUP4 ADD MSTORE PUSH1 0x24 DUP3 ADD MSTORE PUSH32 0x4552433732313A206D696E7420746F20746865207A65726F2061646472657373 PUSH1 0x44 DUP3 ADD MSTORE REVERT JUMPDEST PUSH2 0x115C DUP2 DUP6 DUP9 PUSH2 0x1C1E JUMP JUMPDEST CALLDATALOAD SWAP1 DUP2 PUSH1 0x0 MSTORE PUSH1 0xE PUSH1 0x20 MSTORE PUSH1 0xFF PUSH1 0x40 PUSH1 0x0 KECCAK256 SLOAD AND PUSH2 0x1255 JUMPI PUSH1 0x9 SLOAD PUSH1 0x40 MLOAD PUSH4 0x31A9108F PUSH1 0xE1 SHL DUP2 MSTORE PUSH1 0x4 DUP2 ADD DUP5 SWAP1 MSTORE SWAP1 PUSH1 0x20 SWAP1 DUP3 SWAP1 PUSH1 0x24 SWAP1 DUP3 SWAP1 PUSH1 0x1 PUSH1 0x1 PUSH1 0xA0 SHL SUB AND GAS STATICCALL SWAP1 DUP2 ISZERO PUSH2 0x1249 JUMPI PUSH1 0x0 SWAP2 PUSH2 0x121B JUMPI JUMPDEST POP CALLER PUSH1 0x1 PUSH1 0x1 PUSH1 0xA0 SHL SUB SWAP1 SWAP2 AND SUB PUSH2 0x11E2 JUMPI PUSH1 0x1 SWAP2 PUSH1 0x0 MSTORE PUSH1 0xE PUSH1 0x20 MSTORE PUSH1 0x40 PUSH1 0x0 KECCAK256 DUP3 PUSH1 0xFF NOT DUP3 SLOAD AND OR SWAP1 SSTORE ADD PUSH2 0xA10 JUMP JUMPDEST PUSH1 0x40 MLOAD PUSH3 0x461BCD PUSH1 0xE5 SHL DUP2 MSTORE PUSH1 0x20 PUSH1 0x4 DUP3 ADD MSTORE PUSH1 0x11 PUSH1 0x24 DUP3 ADD MSTORE PUSH17 0x2737BA103634B1B2B739B29037BBB732B9 PUSH1 0x79 SHL PUSH1 0x44 DUP3 ADD MSTORE PUSH1 0x64 SWAP1 REVERT JUMPDEST PUSH2 0x123C SWAP2 POP PUSH1 0x20 RETURNDATASIZE DUP2 GT PUSH2 0x1242 JUMPI JUMPDEST PUSH2 0x1234 DUP2 DUP4 PUSH2 0x19D2 JUMP JUMPDEST DUP2 ADD SWAP1 PUSH2 0x1C2E JUMP JUMPDEST DUP11 PUSH2 0x11B0 JUMP JUMPDEST POP RETURNDATASIZE PUSH2 0x122A JUMP JUMPDEST PUSH1 0x40 MLOAD RETURNDATASIZE PUSH1 0x0 DUP3 RETURNDATACOPY RETURNDATASIZE SWAP1 REVERT JUMPDEST PUSH1 0x40 MLOAD PUSH3 0x461BCD PUSH1 0xE5 SHL DUP2 MSTORE PUSH1 0x20 PUSH1 0x4 DUP3 ADD MSTORE PUSH1 0x18 PUSH1 0x24 DUP3 ADD MSTORE PUSH32 0x4C6963656E736520616C726561647920636F6E73756D65640000000000000000 PUSH1 0x44 DUP3 ADD MSTORE PUSH1 0x64 SWAP1 REVERT JUMPDEST PUSH2 0x12A5 DUP2 DUP5 DUP11 PUSH2 0x1C1E JUMP JUMPDEST PUSH1 0x40 MLOAD PUSH4 0x31A9108F PUSH1 0xE1 SHL DUP2 MSTORE SWAP1 CALLDATALOAD PUSH1 0x4 DUP3 ADD MSTORE PUSH1 0x20 DUP2 PUSH1 0x24 DUP2 DUP7 GAS STATICCALL SWAP1 DUP2 ISZERO PUSH2 0x1249 JUMPI PUSH1 0x0 SWAP2 PUSH2 0x137E JUMPI JUMPDEST POP PUSH1 0x1 PUSH1 0x1 PUSH1 0xA0 SHL SUB AND ISZERO PUSH2 0x1342 JUMPI PUSH2 0x12F7 DUP6 DUP9 CALLER PUSH2 0x12F1 DUP6 DUP9 DUP15 PUSH2 0x1C1E JUMP JUMPDEST CALLDATALOAD PUSH2 0x20A1 JUMP JUMPDEST ISZERO PUSH2 0x1304 JUMPI PUSH1 0x1 ADD PUSH2 0xA04 JUMP JUMPDEST PUSH1 0x40 MLOAD PUSH3 0x461BCD PUSH1 0xE5 SHL DUP2 MSTORE PUSH1 0x20 PUSH1 0x4 DUP3 ADD MSTORE PUSH1 0x16 PUSH1 0x24 DUP3 ADD MSTORE PUSH22 0x4E6F2061636365737320746F20706172656E7420495 PUSH1 0x54 SHL PUSH1 0x44 DUP3 ADD MSTORE PUSH1 0x64 SWAP1 REVERT JUMPDEST PUSH1 0x40 MLOAD PUSH3 0x461BCD PUSH1 0xE5 SHL DUP2 MSTORE PUSH1 0x20 PUSH1 0x4 DUP3 ADD MSTORE PUSH1 0x14 PUSH1 0x24 DUP3 ADD MSTORE PUSH20 0x14185C995B9D08191BD95CDB89DD08195E1A5CDD PUSH1 0x62 SHL PUSH1 0x44 DUP3 ADD MSTORE PUSH1 0x64 SWAP1 REVERT JUMPDEST PUSH2 0x1396 SWAP2 POP PUSH1 0x20 RETURNDATASIZE DUP2 GT PUSH2 0x1242 JUMPI PUSH2 0x1234 DUP2 DUP4 PUSH2 0x19D2 JUMP JUMPDEST DUP11 PUSH2 0x12D1 JUMP JUMPDEST DUP4 PUSH2 0xA01 JUMPI PUSH1 0x40 MLOAD PUSH3 0x461BCD PUSH1 0xE5 SHL DUP2 MSTORE PUSH1 0x20 PUSH1 0x4 DUP3 ADD MSTORE PUSH1 0x2E PUSH1 0x24 DUP3 ADD MSTORE PUSH32 0x4D7573742070726F76696465206174206C65617374206F6E65206C6963656E73 PUSH1 0x44 DUP3 ADD MSTORE PUSH14 0x329034B3103737BA1037BBB732B9 PUSH1 0x91 SHL PUSH1 0x64 DUP3 ADD MSTORE PUSH1 0x84 SWAP1 REVERT JUMPDEST PUSH2 0x1408 DUP2 DUP6 DUP12 PUSH2 0x1C1E JUMP JUMPDEST PUSH1 0x40 MLOAD PUSH4 0x31A9108F PUSH1 0xE1 SHL DUP2 MSTORE SWAP1 CALLDATALOAD PUSH1 0x4 DUP3 ADD MSTORE PUSH1 0x20 DUP2 PUSH1 0x24 DUP2 DUP8 GAS STATICCALL SWAP1 DUP2 ISZERO PUSH2 0x1249 JUMPI PUSH1 0x0 SWAP2 PUSH2 0x1456 JUMPI JUMPDEST POP PUSH1 0x1 PUSH1 0x1 PUSH1 0xA0 SHL SUB AND CALLER EQ PUSH2 0x144C JUMPI PUSH1 0x1 ADD PUSH2 0x9F2 JUMP JUMPDEST POP POP PUSH1 0x1 DUP10 PUSH2 0x9FA JUMP JUMPDEST PUSH2 0x146E SWAP2 POP PUSH1 0x20 RETURNDATASIZE DUP2 GT PUSH2 0x1242 JUMPI PUSH2 0x1234 DUP2 DUP4 PUSH2 0x19D2 JUMP JUMPDEST DUP12 PUSH2 0x1434 JUMP JUMPDEST PUSH1 0x40 MLOAD PUSH3 0x461BCD PUSH1 0xE5 SHL DUP2 MSTORE PUSH1 0x20 PUSH1 0x4 DUP3 ADD MSTORE PUSH1 0x10 PUSH1 0x24 DUP3 ADD MSTORE PUSH16 0x546F6F206D616E7920706172656E7473 PUSH1 0x80 SHL PUSH1 0x44 DUP3 ADD MSTORE PUSH1 0x64 SWAP1 REVERT JUMPDEST PUSH1 0x40 MLOAD PUSH3 0x461BCD PUSH1 0xE5 SHL DUP2 MSTORE PUSH1 0x20 PUSH1 0x4 DUP3 ADD MSTORE PUSH1 0x1D PUSH1 0x24 DUP3 ADD MSTORE PUSH32 0x4D7573742068617665206174206C65617374206F6E6520706172656E74000000 PUSH1 0x44 DUP3 ADD MSTORE PUSH1 0x64 SWAP1 REVERT JUMPDEST CALLVALUE PUSH2 0x226 JUMPI PUSH1 0x20 CALLDATASIZE PUSH1 0x3 NOT ADD SLT PUSH2 0x226 JUMPI PUSH1 0x20 PUSH2 0x150F PUSH1 0x4 CALLDATALOAD PUSH2 0x1BF8 JUMP JUMPDEST PUSH1 0x40 MLOAD PUSH1 0x1 PUSH1 0x1 PUSH1 0xA0 SHL SUB SWAP1 SWAP2 AND DUP2 MSTORE RETURN JUMPDEST CALLVALUE PUSH2 0x226 JUMPI PUSH2 0x482 PUSH2 0x47D PUSH2 0x1535 CALLDATASIZE PUSH2 0x18B6 JUMP JUMPDEST SWAP1 PUSH1 0x40 MLOAD SWAP3 PUSH2 0x1545 PUSH1 0x20 DUP6 PUSH2 0x19D2 JUMP JUMPDEST PUSH1 0x0 DUP5 MSTORE PUSH2 0x46D PUSH2 0x468 DUP5 CALLER PUSH2 0x1E96 JUMP JUMPDEST CALLVALUE PUSH2 0x226 JUMPI PUSH2 0x482 PUSH2 0x1567 CALLDATASIZE PUSH2 0x18B6 JUMP JUMPDEST SWAP2 PUSH2 0x1575 PUSH2 0x468 DUP5 CALLER PUSH2 0x1E96 JUMP JUMPDEST PUSH2 0x1F69 JUMP JUMPDEST CALLVALUE PUSH2 0x226 JUMPI PUSH1 0x40 CALLDATASIZE PUSH1 0x3 NOT ADD SLT PUSH2 0x226 JUMPI PUSH2 0x1593 PUSH2 0x188A JUMP JUMPDEST PUSH1 0x24 CALLDATALOAD SWAP1 PUSH1 0x1 PUSH1 0x1 PUSH1 0xA0 SHL SUB PUSH2 0x15A8 DUP4 PUSH2 0x1BF8 JUMP JUMPDEST PUSH1 0x1 PUSH1 0x1 PUSH1 0xA0 SHL SUB SWAP1 SWAP3 AND SWAP2 AND DUP2 DUP2 EQ PUSH2 0x16B4 JUMPI DUP1 CALLER EQ SWAP1 DUP2 ISZERO PUSH2 0x168F JUMPI JUMPDEST POP ISZERO PUSH2 0x1624 JUMPI PUSH1 0x0 DUP3 DUP2 MSTORE PUSH1 0x4 PUSH1 0x20 MSTORE PUSH1 0x40 SWAP1 KECCAK256 DUP1 SLOAD PUSH1 0x1 PUSH1 0x1 PUSH1 0xA0 SHL SUB NOT AND DUP3 OR SWAP1 SSTORE PUSH1 0x1 PUSH1 0x1 PUSH1 0xA0 SHL SUB PUSH2 0x15FC DUP4 PUSH2 0x1BF8 JUMP JUMPDEST AND PUSH32 0x8C5BE1E5EBEC7D5BD14F71427D1E84F3DD0314C0F7B2291E5B200AC8C7C3B925 PUSH1 0x0 DUP1 LOG4 STOP JUMPDEST PUSH1 0x40 MLOAD PUSH3 0x461BCD PUSH1 0xE5 SHL DUP2 MSTORE PUSH1 0x20 PUSH1 0x4 DUP3 ADD MSTORE PUSH1 0x3D PUSH1 0x24 DUP3 ADD MSTORE PUSH32 0x4552433732313A20617070726F76652063616C6C6572206973206E6F7420746F PUSH1 0x44 DUP3 ADD MSTORE PUSH32 0x6B656E206F776E6572206F7220617070726F76656420666F7220616C6C000000 PUSH1 0x64 DUP3 ADD MSTORE PUSH1 0x84 SWAP1 REVERT JUMPDEST PUSH1 0x0 SWAP1 DUP2 MSTORE PUSH1 0x5 PUSH1 0x20 SWAP1 DUP2 MSTORE PUSH1 0x40 DUP1 DUP4 KECCAK256 CALLER DUP5 MSTORE SWAP1 SWAP2 MSTORE SWAP1 KECCAK256 SLOAD PUSH1 0xFF AND SWAP1 POP DUP4 PUSH2 0x15C7 JUMP JUMPDEST PUSH1 0x40 MLOAD PUSH3 0x461BCD PUSH1 0xE5 SHL DUP2 MSTORE PUSH1 0x20 PUSH1 0x4 DUP3 ADD MSTORE PUSH1 0x21 PUSH1 0x24 DUP3 ADD MSTORE PUSH32 0x4552433732313A20617070726F76616C20746F2063757272656E74206F776E65 PUSH1 0x44 DUP3 ADD MSTORE PUSH1 0x39 PUSH1 0xF9 SHL PUSH1 0x64 DUP3 ADD MSTORE PUSH1 0x84 SWAP1 REVERT JUMPDEST CALLVALUE PUSH2 0x226 JUMPI PUSH1 0x20 CALLDATASIZE PUSH1 0x3 NOT ADD SLT PUSH2 0x226 JUMPI PUSH1 0x20 PUSH2 0x150F PUSH1 0x4 CALLDATALOAD PUSH2 0x1B0C JUMP JUMPDEST CALLVALUE PUSH2 0x226 JUMPI PUSH1 0x0 CALLDATASIZE PUSH1 0x3 NOT ADD SLT PUSH2 0x226 JUMPI PUSH1 0x40 MLOAD PUSH1 0x0 DUP1 SLOAD PUSH2 0x1742 DUP2 PUSH2 0x1998 JUMP JUMPDEST DUP1 DUP5 MSTORE SWAP1 PUSH1 0x1 DUP2 AND SWAP1 DUP2 ISZERO PUSH2 0x78C JUMPI POP PUSH1 0x1 EQ PUSH2 0x1769 JUMPI PUSH2 0x30B DUP4 PUSH2 0x2F7 DUP2 DUP6 SUB DUP3 PUSH2 0x19D2 JUMP JUMPDEST PUSH1 0x0 DUP1 DUP1 MSTORE PUSH32 0x290DECD9548B62A8D60345A988386FC84BA6BC95484008F6362F93160EF3E563 SWAP4 SWAP3 POP SWAP1 JUMPDEST DUP1 DUP3 LT PUSH2 0x17AC JUMPI POP SWAP1 SWAP2 POP DUP2 ADD PUSH1 0x20 ADD PUSH2 0x2F7 PUSH2 0x71D JUMP JUMPDEST SWAP2 SWAP3 PUSH1 0x1 DUP2 PUSH1 0x20 SWAP3 SLOAD DUP4 DUP6 DUP9 ADD ADD MSTORE ADD SWAP2 ADD SWAP1 SWAP3 SWAP2 PUSH2 0x1794 JUMP JUMPDEST CALLVALUE PUSH2 0x226 JUMPI PUSH1 0x20 CALLDATASIZE PUSH1 0x3 NOT ADD SLT PUSH2 0x226 JUMPI PUSH1 0x4 CALLDATALOAD SWAP1 PUSH4 0xFFFFFFFF PUSH1 0xE0 SHL DUP3 AND DUP1 SWAP3 SUB PUSH2 0x226 JUMPI PUSH1 0x20 SWAP2 PUSH4 0x24832483 PUSH1 0xE1 SHL DUP2 EQ SWAP1 DUP2 ISZERO PUSH2 0x1808 JUMPI JUMPDEST POP ISZERO ISZERO DUP2 MSTORE RETURN JUMPDEST PUSH4 0x80AC58CD PUSH1 0xE0 SHL DUP2 EQ SWAP2 POP DUP2 ISZERO PUSH2 0x183A JUMPI JUMPDEST DUP2 ISZERO PUSH2 0x1829 JUMPI JUMPDEST POP DUP4 PUSH2 0x1801 JUMP JUMPDEST PUSH4 0x1FFC9A7 PUSH1 0xE0 SHL EQ SWAP1 POP DUP4 PUSH2 0x1822 JUMP JUMPDEST PUSH4 0x5B5E139F PUSH1 0xE0 SHL DUP2 EQ SWAP2 POP PUSH2 0x181B JUMP JUMPDEST SWAP2 SWAP1 DUP3 MLOAD DUP1 DUP3 MSTORE PUSH1 0x20 DUP1 DUP4 ADD SWAP5 ADD PUSH1 0x0 JUMPDEST DUP3 DUP2 LT PUSH2 0x187A JUMPI POP POP PUSH1 0x0 DUP2 PUSH1 0x20 SWAP5 SWAP6 ADD MSTORE PUSH1 0x1F DUP1 NOT SWAP2 ADD AND ADD ADD SWAP1 JUMP JUMPDEST DUP2 DUP2 ADD MLOAD DUP7 DUP3 ADD MSTORE PUSH1 0x20 ADD PUSH2 0x185C JUMP JUMPDEST PUSH1 0x4 CALLDATALOAD SWAP1 PUSH1 0x1 PUSH1 0x1 PUSH1 0xA0 SHL SUB DUP3 AND DUP3 SUB PUSH2 0x226 JUMPI JUMP JUMPDEST PUSH1 0x24 CALLDATALOAD SWAP1 PUSH1 0x1 PUSH1 0x1 PUSH1 0xA0 SHL SUB DUP3 AND DUP3 SUB PUSH2 0x226 JUMPI JUMP JUMPDEST PUSH1 0x60 SWAP1 PUSH1 0x3 NOT ADD SLT PUSH2 0x226 JUMPI PUSH1 0x4 CALLDATALOAD PUSH1 0x1 PUSH1 0x1 PUSH1 0xA0 SHL SUB DUP2 AND DUP2 SUB PUSH2 0x226 JUMPI SWAP1 PUSH1 0x24 CALLDATALOAD PUSH1 0x1 PUSH1 0x1 PUSH1 0xA0 SHL SUB DUP2 AND DUP2 SUB PUSH2 0x226 JUMPI SWAP1 PUSH1 0x44 CALLDATALOAD SWAP1 JUMP JUMPDEST SWAP2 DUP2 PUSH1 0x1F DUP5 ADD SLT ISZERO PUSH2 0x226 JUMPI DUP3 CALLDATALOAD SWAP2 PUSH1 0x1 PUSH1 0x1 PUSH1 0x40 SHL SUB DUP4 GT PUSH2 0x226 JUMPI PUSH1 0x20 DUP1 DUP6 ADD SWAP5 DUP5 PUSH1 0x5 SHL ADD ADD GT PUSH2 0x226 JUMPI JUMP JUMPDEST SWAP1 PUSH1 0x20 DUP1 DUP4 MLOAD SWAP3 DUP4 DUP2 MSTORE ADD SWAP3 ADD SWAP1 PUSH1 0x0 JUMPDEST DUP2 DUP2 LT PUSH2 0x193E JUMPI POP POP POP SWAP1 JUMP JUMPDEST DUP3 MLOAD DUP5 MSTORE PUSH1 0x20 SWAP4 DUP5 ADD SWAP4 SWAP1 SWAP3 ADD SWAP2 PUSH1 0x1 ADD PUSH2 0x1931 JUMP JUMPDEST PUSH1 0x40 SWAP1 PUSH1 0x3 NOT ADD SLT PUSH2 0x226 JUMPI PUSH1 0x4 CALLDATALOAD SWAP1 PUSH1 0x24 CALLDATALOAD SWAP1 JUMP JUMPDEST DUP1 SLOAD DUP3 LT ISZERO PUSH2 0x1982 JUMPI PUSH1 0x0 MSTORE PUSH1 0x20 PUSH1 0x0 KECCAK256 ADD SWAP1 PUSH1 0x0 SWAP1 JUMP JUMPDEST PUSH4 0x4E487B71 PUSH1 0xE0 SHL PUSH1 0x0 MSTORE PUSH1 0x32 PUSH1 0x4 MSTORE PUSH1 0x24 PUSH1 0x0 REVERT JUMPDEST SWAP1 PUSH1 0x1 DUP3 DUP2 SHR SWAP3 AND DUP1 ISZERO PUSH2 0x19C8 JUMPI JUMPDEST PUSH1 0x20 DUP4 LT EQ PUSH2 0x19B2 JUMPI JUMP JUMPDEST PUSH4 0x4E487B71 PUSH1 0xE0 SHL PUSH1 0x0 MSTORE PUSH1 0x22 PUSH1 0x4 MSTORE PUSH1 0x24 PUSH1 0x0 REVERT JUMPDEST SWAP2 PUSH1 0x7F AND SWAP2 PUSH2 0x19A7 JUMP JUMPDEST SWAP1 PUSH1 0x1F DUP1 NOT SWAP2 ADD AND DUP2 ADD SWAP1 DUP2 LT PUSH1 0x1 PUSH1 0x1 PUSH1 0x40 SHL SUB DUP3 GT OR PUSH2 0xFFA JUMPI PUSH1 0x40 MSTORE JUMP JUMPDEST SWAP1 PUSH1 0x40 MLOAD SWAP2 DUP3 PUSH1 0x0 DUP3 SLOAD SWAP3 PUSH2 0x1A07 DUP5 PUSH2 0x1998 JUMP JUMPDEST DUP1 DUP5 MSTORE SWAP4 PUSH1 0x1 DUP2 AND SWAP1 DUP2 ISZERO PUSH2 0x1A75 JUMPI POP PUSH1 0x1 EQ PUSH2 0x1A2E JUMPI JUMPDEST POP PUSH2 0x1A2C SWAP3 POP SUB DUP4 PUSH2 0x19D2 JUMP JUMPDEST JUMP JUMPDEST SWAP1 POP PUSH1 0x0 SWAP3 SWAP2 SWAP3 MSTORE PUSH1 0x20 PUSH1 0x0 KECCAK256 SWAP1 PUSH1 0x0 SWAP2 JUMPDEST DUP2 DUP4 LT PUSH2 0x1A59 JUMPI POP POP SWAP1 PUSH1 0x20 PUSH2 0x1A2C SWAP3 DUP3 ADD ADD CODESIZE PUSH2 0x1A1F JUMP JUMPDEST PUSH1 0x20 SWAP2 SWAP4 POP DUP1 PUSH1 0x1 SWAP2 SLOAD DUP4 DUP6 DUP10 ADD ADD MSTORE ADD SWAP2 ADD SWAP1 SWAP2 DUP5 SWAP3 PUSH2 0x1A40 JUMP JUMPDEST SWAP1 POP PUSH1 0x20 SWAP3 POP PUSH2 0x1A2C SWAP5 SWAP2 POP PUSH1 0xFF NOT AND DUP3 DUP5 ADD MSTORE ISZERO ISZERO PUSH1 0x5 SHL DUP3 ADD ADD CODESIZE PUSH2 0x1A1F JUMP JUMPDEST SWAP1 PUSH1 0x5 DUP3 LT ISZERO PUSH2 0x1AA4 JUMPI MSTORE JUMP JUMPDEST PUSH4 0x4E487B71 PUSH1 0xE0 SHL PUSH1 0x0 MSTORE PUSH1 0x21 PUSH1 0x4 MSTORE PUSH1 0x24 PUSH1 0x0 REVERT JUMPDEST PUSH1 0x1 PUSH1 0x1 PUSH1 0x40 SHL SUB DUP2 GT PUSH2 0xFFA JUMPI PUSH1 0x1F ADD PUSH1 0x1F NOT AND PUSH1 0x20 ADD SWAP1 JUMP JUMPDEST SWAP3 SWAP2 SWAP3 PUSH2 0x1AE1 DUP3 PUSH2 0x1ABA JUMP JUMPDEST SWAP2 PUSH2 0x1AEF PUSH1 0x40 MLOAD SWAP4 DUP5 PUSH2 0x19D2 JUMP JUMPDEST DUP3 SWAP5 DUP2 DUP5 MSTORE DUP2 DUP4 ADD GT PUSH2 0x226 JUMPI DUP3 DUP2 PUSH1 0x20 SWAP4 DUP5 PUSH1 0x0 SWAP7 ADD CALLDATACOPY ADD ADD MSTORE JUMP JUMPDEST PUSH1 0x0 DUP2 DUP2 MSTORE PUSH1 0x2 PUSH1 0x20 MSTORE PUSH1 0x40 SWAP1 KECCAK256 SLOAD PUSH2 0x1B2F SWAP1 PUSH1 0x1 PUSH1 0x1 PUSH1 0xA0 SHL SUB AND ISZERO ISZERO PUSH2 0x1BAC JUMP JUMPDEST PUSH1 0x0 SWAP1 DUP2 MSTORE PUSH1 0x4 PUSH1 0x20 MSTORE PUSH1 0x40 SWAP1 KECCAK256 SLOAD PUSH1 0x1 PUSH1 0x1 PUSH1 0xA0 SHL SUB AND SWAP1 JUMP JUMPDEST ISZERO PUSH2 0x1B51 JUMPI JUMP JUMPDEST PUSH1 0x40 MLOAD PUSH3 0x461BCD PUSH1 0xE5 SHL DUP2 MSTORE PUSH1 0x20 PUSH1 0x4 DUP3 ADD MSTORE PUSH1 0x2D PUSH1 0x24 DUP3 ADD MSTORE PUSH32 0x4552433732313A2063616C6C6572206973206E6F7420746F6B656E206F776E65 PUSH1 0x44 DUP3 ADD MSTORE PUSH13 0x1C881BDC88185C1C1C9BDD9959 PUSH1 0x9A SHL PUSH1 0x64 DUP3 ADD MSTORE PUSH1 0x84 SWAP1 REVERT JUMPDEST ISZERO PUSH2 0x1BB3 JUMPI JUMP JUMPDEST PUSH1 0x40 MLOAD PUSH3 0x461BCD PUSH1 0xE5 SHL DUP2 MSTORE PUSH1 0x20 PUSH1 0x4 DUP3 ADD MSTORE PUSH1 0x18 PUSH1 0x24 DUP3 ADD MSTORE PUSH32 0x4552433732313A20696E76616C696420746F6B656E2049440000000000000000 PUSH1 0x44 DUP3 ADD MSTORE PUSH1 0x64 SWAP1 REVERT JUMPDEST PUSH1 0x0 SWAP1 DUP2 MSTORE PUSH1 0x2 PUSH1 0x20 MSTORE PUSH1 0x40 SWAP1 KECCAK256 SLOAD PUSH1 0x1 PUSH1 0x1 PUSH1 0xA0 SHL SUB AND PUSH2 0x1C1B DUP2 ISZERO ISZERO PUSH2 0x1BAC JUMP JUMPDEST SWAP1 JUMP JUMPDEST SWAP2 SWAP1 DUP2 LT ISZERO PUSH2 0x1982 JUMPI PUSH1 0x5 SHL ADD SWAP1 JUMP JUMPDEST SWAP1 DUP2 PUSH1 0x20 SWAP2 SUB SLT PUSH2 0x226 JUMPI MLOAD PUSH1 0x1 PUSH1 0x1 PUSH1 0xA0 SHL SUB DUP2 AND DUP2 SUB PUSH2 0x226 JUMPI SWAP1 JUMP JUMPDEST SWAP3 SWAP2 SWAP1 SWAP3 PUSH1 0x1 PUSH1 0x1 PUSH1 0x40 SHL SUB DUP5 GT PUSH2 0xFFA JUMPI DUP4 PUSH1 0x5 SHL SWAP1 PUSH1 0x20 PUSH1 0x40 MLOAD PUSH2 0x1C75 DUP3 DUP6 ADD DUP3 PUSH2 0x19D2 JUMP JUMPDEST DUP1 SWAP7 DUP2 MSTORE ADD SWAP2 DUP2 ADD SWAP3 DUP4 GT PUSH2 0x226 JUMPI SWAP1 JUMPDEST DUP3 DUP3 LT PUSH2 0x1C92 JUMPI POP POP POP JUMP JUMPDEST DUP2 CALLDATALOAD DUP2 MSTORE PUSH1 0x20 SWAP2 DUP3 ADD SWAP2 ADD PUSH2 0x1C86 JUMP JUMPDEST DUP2 DUP2 LT PUSH2 0x1CAD JUMPI POP POP JUMP JUMPDEST PUSH1 0x0 DUP2 SSTORE PUSH1 0x1 ADD PUSH2 0x1CA2 JUMP JUMPDEST DUP1 SLOAD PUSH1 0x1 PUSH1 0x40 SHL DUP2 LT ISZERO PUSH2 0xFFA JUMPI PUSH2 0x1CD6 SWAP2 PUSH1 0x1 DUP3 ADD DUP2 SSTORE PUSH2 0x196A JUMP JUMPDEST DUP2 SWAP3 SWAP2 SLOAD SWAP1 PUSH1 0x3 SHL SWAP2 DUP3 SHL SWAP2 PUSH1 0x0 NOT SWAP1 SHL NOT AND OR SWAP1 SSTORE JUMP JUMPDEST DUP2 DUP4 MSTORE SWAP1 SWAP2 PUSH1 0x1 PUSH1 0x1 PUSH1 0xFB SHL SUB DUP4 GT PUSH2 0x226 JUMPI PUSH1 0x20 SWAP3 PUSH1 0x5 SHL DUP1 SWAP3 DUP5 DUP4 ADD CALLDATACOPY ADD ADD SWAP1 JUMP JUMPDEST SWAP1 PUSH1 0x40 MLOAD SWAP2 DUP3 DUP2 SLOAD SWAP2 DUP3 DUP3 MSTORE PUSH1 0x20 DUP3 ADD SWAP1 PUSH1 0x0 MSTORE PUSH1 0x20 PUSH1 0x0 KECCAK256 SWAP3 PUSH1 0x0 JUMPDEST DUP2 DUP2 LT PUSH2 0x1D44 JUMPI POP POP PUSH2 0x1A2C SWAP3 POP SUB DUP4 PUSH2 0x19D2 JUMP JUMPDEST DUP5 SLOAD DUP4 MSTORE PUSH1 0x1 SWAP5 DUP6 ADD SWAP5 DUP8 SWAP5 POP PUSH1 0x20 SWAP1 SWAP4 ADD SWAP3 ADD PUSH2 0x1D2F JUMP JUMPDEST PUSH1 0x0 MSTORE PUSH1 0xB PUSH1 0x20 MSTORE PUSH1 0xFF PUSH1 0x5 PUSH1 0x40 PUSH1 0x0 KECCAK256 ADD SLOAD AND PUSH1 0x5 DUP2 LT ISZERO PUSH2 0x1AA4 JUMPI DUP1 ISZERO PUSH2 0x1E72 JUMPI PUSH1 0x0 PUSH1 0x1 DUP3 EQ PUSH2 0x1E48 JUMPI POP PUSH1 0x2 DUP2 EQ PUSH2 0x1E1C JUMPI PUSH1 0x0 SWAP1 PUSH1 0x3 DUP2 EQ PUSH2 0x1DF2 JUMPI PUSH1 0x4 SWAP2 POP EQ PUSH2 0x1DCC JUMPI PUSH1 0x40 MLOAD PUSH2 0x1DB5 PUSH1 0x40 DUP3 PUSH2 0x19D2 JUMP JUMPDEST PUSH1 0x7 DUP2 MSTORE PUSH7 0x2AB735B737BBB7 PUSH1 0xC9 SHL PUSH1 0x20 DUP3 ADD MSTORE SWAP1 JUMP JUMPDEST PUSH1 0x40 MLOAD PUSH2 0x1DDA PUSH1 0x40 DUP3 PUSH2 0x19D2 JUMP JUMPDEST PUSH1 0x8 DUP2 MSTORE PUSH8 0x4372697469717565 PUSH1 0xC0 SHL PUSH1 0x20 DUP3 ADD MSTORE SWAP1 JUMP JUMPDEST POP POP PUSH1 0x40 MLOAD PUSH2 0x1E02 PUSH1 0x40 DUP3 PUSH2 0x19D2 JUMP JUMPDEST PUSH1 0xA DUP2 MSTORE PUSH10 0x2B30B634B230BA34B7B7 PUSH1 0xB1 SHL PUSH1 0x20 DUP3 ADD MSTORE SWAP1 JUMP JUMPDEST POP PUSH1 0x40 MLOAD PUSH2 0x1E2B PUSH1 0x40 DUP3 PUSH2 0x19D2 JUMP JUMPDEST PUSH1 0xD DUP2 MSTORE PUSH13 0x21B7B63630B137B930BA34B7B7 PUSH1 0x99 SHL PUSH1 0x20 DUP3 ADD MSTORE SWAP1 JUMP JUMPDEST POP POP PUSH1 0x40 DUP1 MLOAD SWAP1 PUSH2 0x1E59 SWAP1 DUP3 PUSH2 0x19D2 JUMP JUMPDEST PUSH1 0x9 DUP2 MSTORE PUSH9 0x22BC3A32B739B4B7B7 PUSH1 0xB9 SHL PUSH1 0x20 DUP3 ADD MSTORE SWAP1 JUMP JUMPDEST POP PUSH1 0x40 MLOAD PUSH2 0x1E81 PUSH1 0x40 DUP3 PUSH2 0x19D2 JUMP JUMPDEST PUSH1 0x5 DUP2 MSTORE PUSH5 0xA4CADAD2F PUSH1 0xDB SHL PUSH1 0x20 DUP3 ADD MSTORE SWAP1 JUMP JUMPDEST SWAP1 PUSH1 0x1 PUSH1 0x1 PUSH1 0xA0 SHL SUB PUSH2 0x1EA8 DUP3 PUSH2 0x1BF8 JUMP JUMPDEST PUSH1 0x1 PUSH1 0x1 PUSH1 0xA0 SHL SUB SWAP1 SWAP4 AND SWAP3 AND DUP3 DUP2 EQ SWAP3 SWAP2 SWAP1 DUP4 ISZERO PUSH2 0x1EE8 JUMPI JUMPDEST POP DUP3 ISZERO PUSH2 0x1ECE JUMPI POP POP SWAP1 JUMP JUMPDEST SWAP1 SWAP2 POP PUSH1 0x1 PUSH1 0x1 PUSH1 0xA0 SHL SUB SWAP1 PUSH2 0x1EE3 SWAP1 PUSH2 0x1B0C JUMP JUMPDEST AND EQ SWAP1 JUMP JUMPDEST SWAP1 SWAP3 POP PUSH1 0x0 MSTORE PUSH1 0x5 PUSH1 0x20 MSTORE PUSH1 0x40 PUSH1 0x0 KECCAK256 DUP2 PUSH1 0x0 MSTORE PUSH1 0x20 MSTORE PUSH1 0xFF PUSH1 0x40 PUSH1 0x0 KECCAK256 SLOAD AND SWAP2 CODESIZE PUSH2 0x1EC2 JUMP JUMPDEST ISZERO PUSH2 0x1F16 JUMPI JUMP JUMPDEST PUSH1 0x40 MLOAD PUSH3 0x461BCD PUSH1 0xE5 SHL DUP2 MSTORE PUSH1 0x20 PUSH1 0x4 DUP3 ADD MSTORE PUSH1 0x25 PUSH1 0x24 DUP3 ADD MSTORE PUSH32 0x4552433732313A207472616E736665722066726F6D20696E636F727265637420 PUSH1 0x44 DUP3 ADD MSTORE PUSH5 0x37BBB732B9 PUSH1 0xD9 SHL PUSH1 0x64 DUP3 ADD MSTORE PUSH1 0x84 SWAP1 REVERT JUMPDEST SWAP1 PUSH2 0x1F8A PUSH2 0x1F76 DUP5 PUSH2 0x1BF8 JUMP JUMPDEST PUSH1 0x1 PUSH1 0x1 PUSH1 0xA0 SHL SUB SWAP4 DUP5 AND SWAP4 AND DUP4 EQ PUSH2 0x1F0F JUMP JUMPDEST PUSH1 0x1 PUSH1 0x1 PUSH1 0xA0 SHL SUB AND SWAP1 DUP2 ISZERO PUSH2 0x2050 JUMPI PUSH2 0x1FB6 DUP2 PUSH1 0x1 PUSH1 0x1 PUSH1 0xA0 SHL SUB PUSH2 0x1FAF DUP7 PUSH2 0x1BF8 JUMP JUMPDEST AND EQ PUSH2 0x1F0F JUMP JUMPDEST DUP3 PUSH1 0x0 MSTORE PUSH1 0x4 PUSH1 0x20 MSTORE PUSH1 0x40 PUSH1 0x0 KECCAK256 PUSH12 0xFFFFFFFFFFFFFFFFFFFFFFFF PUSH1 0xA0 SHL DUP2 SLOAD AND SWAP1 SSTORE DUP1 PUSH1 0x0 MSTORE PUSH1 0x3 PUSH1 0x20 MSTORE PUSH1 0x40 PUSH1 0x0 KECCAK256 PUSH1 0x0 NOT DUP2 SLOAD ADD SWAP1 SSTORE DUP2 PUSH1 0x0 MSTORE PUSH1 0x3 PUSH1 0x20 MSTORE PUSH1 0x40 PUSH1 0x0 KECCAK256 PUSH1 0x1 DUP2 SLOAD ADD SWAP1 SSTORE DUP3 PUSH1 0x0 MSTORE PUSH1 0x2 PUSH1 0x20 MSTORE PUSH1 0x40 PUSH1 0x0 KECCAK256 DUP3 PUSH12 0xFFFFFFFFFFFFFFFFFFFFFFFF PUSH1 0xA0 SHL DUP3 SLOAD AND OR SWAP1 SSTORE PUSH32 0xDDF252AD1BE2C89B69C2B068FC378DAA952BA7F163C4A11628F55A4DF523B3EF PUSH1 0x0 DUP1 LOG4 JUMP JUMPDEST PUSH1 0x40 MLOAD PUSH3 0x461BCD PUSH1 0xE5 SHL DUP2 MSTORE PUSH1 0x20 PUSH1 0x4 DUP3 ADD MSTORE PUSH1 0x24 DUP1 DUP3 ADD MSTORE PUSH32 0x4552433732313A207472616E7366657220746F20746865207A65726F20616464 PUSH1 0x44 DUP3 ADD MSTORE PUSH4 0x72657373 PUSH1 0xE0 SHL PUSH1 0x64 DUP3 ADD MSTORE PUSH1 0x84 SWAP1 REVERT JUMPDEST SWAP2 SWAP3 SWAP1 PUSH1 0x20 PUSH1 0x1 DUP1 PUSH1 0xA0 SHL SUB PUSH1 0x8 SLOAD AND SWAP4 PUSH1 0x24 PUSH1 0x40 MLOAD DUP1 SWAP7 DUP2 SWAP4 PUSH4 0x31A9108F PUSH1 0xE1 SHL DUP4 MSTORE PUSH1 0x4 DUP4 ADD MSTORE GAS STATICCALL SWAP3 DUP4 ISZERO PUSH2 0x1249 JUMPI PUSH1 0x0 SWAP4 PUSH2 0x2193 JUMPI JUMPDEST POP PUSH1 0x1 PUSH1 0x1 PUSH1 0xA0 SHL SUB SWAP1 DUP2 AND SWAP3 AND DUP3 EQ PUSH2 0x218B JUMPI PUSH1 0x9 SLOAD SWAP1 SWAP3 PUSH1 0x1 PUSH1 0x1 PUSH1 0xA0 SHL SUB SWAP1 SWAP2 AND SWAP1 PUSH1 0x0 JUMPDEST DUP5 DUP2 LT PUSH2 0x2114 JUMPI POP POP POP POP POP PUSH1 0x0 SWAP1 JUMP JUMPDEST PUSH2 0x211F DUP2 DUP7 DUP5 PUSH2 0x1C1E JUMP JUMPDEST PUSH1 0x40 MLOAD PUSH4 0x31A9108F PUSH1 0xE1 SHL DUP2 MSTORE SWAP1 CALLDATALOAD PUSH1 0x4 DUP3 ADD MSTORE PUSH1 0x20 DUP2 PUSH1 0x24 DUP2 DUP8 GAS STATICCALL DUP1 ISZERO PUSH2 0x1249 JUMPI DUP6 SWAP2 PUSH1 0x0 SWAP2 PUSH2 0x216D JUMPI JUMPDEST POP PUSH1 0x1 PUSH1 0x1 PUSH1 0xA0 SHL SUB AND EQ PUSH2 0x2163 JUMPI PUSH1 0x1 ADD PUSH2 0x2103 JUMP JUMPDEST POP POP POP POP POP PUSH1 0x1 SWAP1 JUMP JUMPDEST PUSH2 0x2185 SWAP2 POP PUSH1 0x20 RETURNDATASIZE DUP2 GT PUSH2 0x1242 JUMPI PUSH2 0x1234 DUP2 DUP4 PUSH2 0x19D2 JUMP JUMPDEST CODESIZE PUSH2 0x214C JUMP JUMPDEST POP POP POP PUSH1 0x1 SWAP1 JUMP JUMPDEST PUSH2 0x21AD SWAP2 SWAP4 POP PUSH1 0x20 RETURNDATASIZE PUSH1 0x20 GT PUSH2 0x1242 JUMPI PUSH2 0x1234 DUP2 DUP4 PUSH2 0x19D2 JUMP JUMPDEST SWAP2 CODESIZE PUSH2 0x20DB JUMP JUMPDEST PUSH1 0x7 SLOAD PUSH1 0x1 PUSH1 0x1 PUSH1 0xA0 SHL SUB AND CALLER SUB PUSH2 0x21C8 JUMPI JUMP JUMPDEST PUSH1 0x64 PUSH1 0x40 MLOAD PUSH3 0x461BCD PUSH1 0xE5 SHL DUP2 MSTORE PUSH1 0x20 PUSH1 0x4 DUP3 ADD MSTORE PUSH1 0x20 PUSH1 0x24 DUP3 ADD MSTORE PUSH32 0x4F776E61626C653A2063616C6C6572206973206E6F7420746865206F776E6572 PUSH1 0x44 DUP3 ADD MSTORE REVERT JUMPDEST PUSH1 0x80 SWAP1 PUSH1 0x20 DUP2 MSTORE PUSH1 0x32 PUSH1 0x20 DUP3 ADD MSTORE PUSH32 0x4552433732313A207472616E7366657220746F206E6F6E204552433732315265 PUSH1 0x40 DUP3 ADD MSTORE PUSH18 0x31B2B4BB32B91034B6B83632B6B2B73A32B9 PUSH1 0x71 SHL PUSH1 0x60 DUP3 ADD MSTORE ADD SWAP1 JUMP JUMPDEST ISZERO PUSH2 0x2266 JUMPI JUMP JUMPDEST PUSH1 0x40 MLOAD PUSH3 0x461BCD PUSH1 0xE5 SHL DUP2 MSTORE DUP1 PUSH2 0x227F PUSH1 0x4 DUP3 ADD PUSH2 0x220C JUMP JUMPDEST SUB SWAP1 REVERT JUMPDEST PUSH1 0x0 DUP2 DUP2 MSTORE PUSH1 0x2 PUSH1 0x20 MSTORE PUSH1 0x40 SWAP1 KECCAK256 SLOAD PUSH2 0x22A6 SWAP1 PUSH1 0x1 PUSH1 0x1 PUSH1 0xA0 SHL SUB AND ISZERO ISZERO PUSH2 0x1BAC JUMP JUMPDEST PUSH1 0x0 MSTORE PUSH1 0x6 PUSH1 0x20 MSTORE PUSH2 0x22BB PUSH1 0x40 PUSH1 0x0 KECCAK256 PUSH2 0x19F3 JUMP JUMPDEST PUSH1 0x0 PUSH1 0x40 MLOAD PUSH2 0x22CB PUSH1 0x20 DUP3 PUSH2 0x19D2 JUMP JUMPDEST MSTORE SWAP1 JUMP JUMPDEST SWAP2 DUP3 EXTCODESIZE ISZERO PUSH2 0x218B JUMPI PUSH2 0x2315 SWAP3 PUSH1 0x20 SWAP3 PUSH1 0x0 PUSH1 0x40 MLOAD DUP1 SWAP7 DUP2 SWAP6 DUP3 SWAP5 PUSH4 0xA85BD01 PUSH1 0xE1 SHL DUP5 MSTORE CALLER PUSH1 0x4 DUP6 ADD MSTORE DUP5 PUSH1 0x24 DUP6 ADD MSTORE PUSH1 0x44 DUP5 ADD MSTORE PUSH1 0x80 PUSH1 0x64 DUP5 ADD MSTORE PUSH1 0x84 DUP4 ADD SWAP1 PUSH2 0x184B JUMP JUMPDEST SUB SWAP3 PUSH1 0x1 PUSH1 0x1 PUSH1 0xA0 SHL SUB AND GAS CALL DUP1 SWAP2 PUSH1 0x0 SWAP2 PUSH2 0x239E JUMPI JUMPDEST POP SWAP1 PUSH2 0x2388 JUMPI RETURNDATASIZE ISZERO PUSH2 0x2381 JUMPI RETURNDATASIZE PUSH2 0x2342 DUP2 PUSH2 0x1ABA JUMP JUMPDEST SWAP1 PUSH2 0x2350 PUSH1 0x40 MLOAD SWAP3 DUP4 PUSH2 0x19D2 JUMP JUMPDEST DUP2 MSTORE RETURNDATASIZE PUSH1 0x0 PUSH1 0x20 DUP4 ADD RETURNDATACOPY JUMPDEST DUP1 MLOAD SWAP1 DUP2 PUSH2 0x237C JUMPI PUSH1 0x40 MLOAD PUSH3 0x461BCD PUSH1 0xE5 SHL DUP2 MSTORE DUP1 PUSH2 0x227F PUSH1 0x4 DUP3 ADD PUSH2 0x220C JUMP JUMPDEST PUSH1 0x20 ADD REVERT JUMPDEST PUSH1 0x60 PUSH2 0x235B JUMP JUMPDEST PUSH1 0x1 PUSH1 0x1 PUSH1 0xE0 SHL SUB NOT AND PUSH4 0xA85BD01 PUSH1 0xE1 SHL EQ SWAP1 JUMP JUMPDEST PUSH1 0x20 DUP2 RETURNDATASIZE PUSH1 0x20 GT PUSH2 0x23E0 JUMPI JUMPDEST DUP2 PUSH2 0x23B7 PUSH1 0x20 SWAP4 DUP4 PUSH2 0x19D2 JUMP JUMPDEST DUP2 ADD SUB SLT PUSH2 0x23DC JUMPI MLOAD SWAP1 PUSH1 0x1 PUSH1 0x1 PUSH1 0xE0 SHL SUB NOT DUP3 AND DUP3 SUB PUSH2 0x23D9 JUMPI POP CODESIZE PUSH2 0x232C JUMP JUMPDEST DUP1 REVERT JUMPDEST POP DUP1 REVERT JUMPDEST RETURNDATASIZE SWAP2 POP PUSH2 0x23AA JUMP JUMPDEST SWAP2 SWAP3 SWAP1 DUP1 EXTCODESIZE ISZERO PUSH2 0x2438 JUMPI PUSH2 0x2315 SWAP4 PUSH1 0x0 PUSH1 0x20 SWAP5 PUSH1 0x40 MLOAD SWAP7 DUP8 SWAP6 DUP7 SWAP5 DUP6 SWAP4 PUSH4 0xA85BD01 PUSH1 0xE1 SHL DUP6 MSTORE CALLER PUSH1 0x4 DUP7 ADD MSTORE PUSH1 0x1 DUP1 PUSH1 0xA0 SHL SUB AND PUSH1 0x24 DUP6 ADD MSTORE PUSH1 0x44 DUP5 ADD MSTORE PUSH1 0x80 PUSH1 0x64 DUP5 ADD MSTORE PUSH1 0x84 DUP4 ADD SWAP1 PUSH2 0x184B JUMP JUMPDEST POP POP POP POP PUSH1 0x1 SWAP1 JUMP JUMPDEST ISZERO PUSH2 0x2448 JUMPI JUMP JUMPDEST PUSH1 0x40 MLOAD PUSH3 0x461BCD PUSH1 0xE5 SHL DUP2 MSTORE PUSH1 0x20 PUSH1 0x4 DUP3 ADD MSTORE PUSH1 0x1C PUSH1 0x24 DUP3 ADD MSTORE PUSH32 0x4552433732313A20746F6B656E20616C7265616479206D696E74656400000000 PUSH1 0x44 DUP3 ADD MSTORE PUSH1 0x64 SWAP1 REVERT INVALID LOG2 PUSH5 0x6970667358 0x22 SLT KECCAK256 0xF 0xBA PUSH16 0x8D9BBB72F41B2D36036A6FD12D2987A0 OR DUP4 DUP6 AND LOG1 BALANCE MUL 0xDF 0xB7 SLOAD LT 0xE2 0x4B PUSH5 0x736F6C6343 STOP ADDMOD SHR STOP CALLER "},"methodIdentifiers":{"approve(address,uint256)":"095ea7b3","balanceOf(address)":"70a08231","canBeLicensed(uint256)":"9cfa06fa","consumedLicenses(uint256)":"7d7e1450","createDerivative(uint256[],uint256[],string,bytes32,uint8,bool)":"6866c136","derivativeInfo(uint256)":"a653bf2b","derivativeToParents(uint256,uint256)":"961838ab","getApproved(uint256)":"081812fc","getDerivativeInfo(uint256)":"ba8db95b","getDerivativeTypeString(uint256)":"e29037a2","getDerivativesOfParent(uint256)":"7139f4a2","getParentsOfDerivative(uint256)":"9c976464","ipContract()":"edecce74","ipToDerivatives(uint256,uint256)":"7efd7a73","isApprovedForAll(address,address)":"e985e9c5","isLicenseConsumed(uint256)":"a42df5bf","licenseContract()":"e2c52b9d","name()":"06fdde03","owner()":"8da5cb5b","ownerOf(uint256)":"6352211e","renounceOwnership()":"715018a6","safeTransferFrom(address,address,uint256)":"42842e0e","safeTransferFrom(address,address,uint256,bytes)":"b88d4fde","setApprovalForAll(address,bool)":"a22cb465","supportsInterface(bytes4)":"01ffc9a7","symbol()":"95d89b41","tokenURI(uint256)":"c87b56dd","transferFrom(address,address,uint256)":"23b872dd","transferOwnership(address)":"f2fde38b"}}}}}