{
  "_format": "hh-sol-artifact-1",
  "contractName": "PaymentSplitter",
  "sourceName": "@openzeppelin/contracts/finance/PaymentSplitter.sol",
  "abi": [
    {
      "inputs": [
        {
          "internalType": "address[]",
          "name": "payees",
          "type": "address[]"
        },
        {
          "internalType": "uint256[]",
          "name": "shares_",
          "type": "uint256[]"
        }
      ],
      "stateMutability": "payable",
      "type": "constructor"
    },
    {
      "anonymous": false,
      "inputs": [
        {
          "indexed": true,
          "internalType": "contract IERC20",
          "name": "token",
          "type": "address"
        },
        {
          "indexed": false,
          "internalType": "address",
          "name": "to",
          "type": "address"
        },
        {
          "indexed": false,
          "internalType": "uint256",
          "name": "amount",
          "type": "uint256"
        }
      ],
      "name": "ERC20PaymentReleased",
      "type": "event"
    },
    {
      "anonymous": false,
      "inputs": [
        {
          "indexed": false,
          "internalType": "address",
          "name": "account",
          "type": "address"
        },
        {
          "indexed": false,
          "internalType": "uint256",
          "name": "shares",
          "type": "uint256"
        }
      ],
      "name": "PayeeAdded",
      "type": "event"
    },
    {
      "anonymous": false,
      "inputs": [
        {
          "indexed": false,
          "internalType": "address",
          "name": "from",
          "type": "address"
        },
        {
          "indexed": false,
          "internalType": "uint256",
          "name": "amount",
          "type": "uint256"
        }
      ],
      "name": "PaymentReceived",
      "type": "event"
    },
    {
      "anonymous": false,
      "inputs": [
        {
          "indexed": false,
          "internalType": "address",
          "name": "to",
          "type": "address"
        },
        {
          "indexed": false,
          "internalType": "uint256",
          "name": "amount",
          "type": "uint256"
        }
      ],
      "name": "PaymentReleased",
      "type": "event"
    },
    {
      "inputs": [
        {
          "internalType": "uint256",
          "name": "index",
          "type": "uint256"
        }
      ],
      "name": "payee",
      "outputs": [
        {
          "internalType": "address",
          "name": "",
          "type": "address"
        }
      ],
      "stateMutability": "view",
      "type": "function"
    },
    {
      "inputs": [
        {
          "internalType": "address",
          "name": "account",
          "type": "address"
        }
      ],
      "name": "releasable",
      "outputs": [
        {
          "internalType": "uint256",
          "name": "",
          "type": "uint256"
        }
      ],
      "stateMutability": "view",
      "type": "function"
    },
    {
      "inputs": [
        {
          "internalType": "contract IERC20",
          "name": "token",
          "type": "address"
        },
        {
          "internalType": "address",
          "name": "account",
          "type": "address"
        }
      ],
      "name": "releasable",
      "outputs": [
        {
          "internalType": "uint256",
          "name": "",
          "type": "uint256"
        }
      ],
      "stateMutability": "view",
      "type": "function"
    },
    {
      "inputs": [
        {
          "internalType": "address payable",
          "name": "account",
          "type": "address"
        }
      ],
      "name": "release",
      "outputs": [],
      "stateMutability": "nonpayable",
      "type": "function"
    },
    {
      "inputs": [
        {
          "internalType": "contract IERC20",
          "name": "token",
          "type": "address"
        },
        {
          "internalType": "address",
          "name": "account",
          "type": "address"
        }
      ],
      "name": "release",
      "outputs": [],
      "stateMutability": "nonpayable",
      "type": "function"
    },
    {
      "inputs": [
        {
          "internalType": "contract IERC20",
          "name": "token",
          "type": "address"
        },
        {
          "internalType": "address",
          "name": "account",
          "type": "address"
        }
      ],
      "name": "released",
      "outputs": [
        {
          "internalType": "uint256",
          "name": "",
          "type": "uint256"
        }
      ],
      "stateMutability": "view",
      "type": "function"
    },
    {
      "inputs": [
        {
          "internalType": "address",
          "name": "account",
          "type": "address"
        }
      ],
      "name": "released",
      "outputs": [
        {
          "internalType": "uint256",
          "name": "",
          "type": "uint256"
        }
      ],
      "stateMutability": "view",
      "type": "function"
    },
    {
      "inputs": [
        {
          "internalType": "address",
          "name": "account",
          "type": "address"
        }
      ],
      "name": "shares",
      "outputs": [
        {
          "internalType": "uint256",
          "name": "",
          "type": "uint256"
        }
      ],
      "stateMutability": "view",
      "type": "function"
    },
    {
      "inputs": [
        {
          "internalType": "contract IERC20",
          "name": "token",
          "type": "address"
        }
      ],
      "name": "totalReleased",
      "outputs": [
        {
          "internalType": "uint256",
          "name": "",
          "type": "uint256"
        }
      ],
      "stateMutability": "view",
      "type": "function"
    },
    {
      "inputs": [],
      "name": "totalReleased",
      "outputs": [
        {
          "internalType": "uint256",
          "name": "",
          "type": "uint256"
        }
      ],
      "stateMutability": "view",
      "type": "function"
    },
    {
      "inputs": [],
      "name": "totalShares",
      "outputs": [
        {
          "internalType": "uint256",
          "name": "",
          "type": "uint256"
        }
      ],
      "stateMutability": "view",
      "type": "function"
    },
    {
      "stateMutability": "payable",
      "type": "receive"
    }
  ],
  "bytecode": "0x6080604052610e5d80380380610014816103fc565b9283398101906040818303126103d75780516001600160401b0381116103d75781019082601f830112156103d757815161005561005082610421565b6103fc565b9260208085848152019260051b820101908582116103d757602001915b8183106103dc575050506020810151906001600160401b0382116103d757019180601f840112156103d75782516100ab61005082610421565b9360208086848152019260051b8201019283116103d757602001905b8282106103c7575050508051825103610367578051156103225760005b8151811015610313576001600160a01b036100ff8284610438565b51169061010c8185610438565b5182156102b95780156102745782600052600260205260406000205461021b57600454680100000000000000008110156102055760018101806004558110156101ef577f8a35acfbc15ff81a39ae7d344fd709f28e8600b4aa8c65c6b64bfe7fe36bd19b0180546001600160a01b031916841790556000838152600260205260408120829055548082019081106101d9576001937f40c340f65e17194d14ddddb073d3c9f888e3cb52b5aae0c6c7706b4fbc905fac9260409260005582519182526020820152a1016100e4565b634e487b7160e01b600052601160045260246000fd5b634e487b7160e01b600052603260045260246000fd5b634e487b7160e01b600052604160045260246000fd5b60405162461bcd60e51b815260206004820152602b60248201527f5061796d656e7453706c69747465723a206163636f756e7420616c726561647960448201526a206861732073686172657360a81b6064820152608490fd5b60405162461bcd60e51b815260206004820152601d60248201527f5061796d656e7453706c69747465723a207368617265732061726520300000006044820152606490fd5b60405162461bcd60e51b815260206004820152602c60248201527f5061796d656e7453706c69747465723a206163636f756e74206973207468652060448201526b7a65726f206164647265737360a01b6064820152608490fd5b604051610a10908161044d8239f35b60405162461bcd60e51b815260206004820152601a60248201527f5061796d656e7453706c69747465723a206e6f207061796565730000000000006044820152606490fd5b60405162461bcd60e51b815260206004820152603260248201527f5061796d656e7453706c69747465723a2070617965657320616e6420736861726044820152710cae640d8cadccee8d040dad2e6dac2e8c6d60731b6064820152608490fd5b81518152602091820191016100c7565b600080fd5b82516001600160a01b03811681036103d757815260209283019201610072565b6040519190601f01601f191682016001600160401b0381118382101761020557604052565b6001600160401b0381116102055760051b60200190565b80518210156101ef5760209160051b01019056fe6080604052600436101561004c575b361561001957600080fd5b604080513381523460208201527f6ef95f06320e7a25a04a175ca677b7052bdd97131872c2192525a629f51be7709190a1005b60003560e01c806319165587146104c95780633a98ef39146104ab578063406072a91461045a57806348b75044146102635780638b83209b146101f25780639852595c146101b8578063a3f8eace14610195578063c45ac05014610161578063ce7c2ac214610127578063d79779b2146100ed5763e33b7de30361000e57346100e85760003660031901126100e8576020600154604051908152f35b600080fd5b346100e85760203660031901126100e8576001600160a01b0361010e61063f565b1660005260056020526020604060002054604051908152f35b346100e85760203660031901126100e8576001600160a01b0361014861063f565b1660005260026020526020604060002054604051908152f35b346100e85760403660031901126100e857602061018d61017f61063f565b610187610655565b906107b4565b604051908152f35b346100e85760203660031901126100e857602061018d6101b361063f565b610749565b346100e85760203660031901126100e8576001600160a01b036101d961063f565b1660005260036020526020604060002054604051908152f35b346100e85760203660031901126100e85760043560045481101561024d5760046000527f8a35acfbc15ff81a39ae7d344fd709f28e8600b4aa8c65c6b64bfe7fe36bd19b01546040516001600160a01b039091168152602090f35b634e487b7160e01b600052603260045260246000fd5b346100e85760403660031901126100e85761027c61063f565b610284610655565b9060018060a01b03821660005260026020526102a6604060002054151561066b565b6102b082826107b4565b906102bc8215156106c6565b60018060a01b03169081600052600560205260406000206102de828254610726565b905560008281526006602090815260408083206001600160a01b038716808552908352928190208054850190555163a9059cbb60e01b918101918252602481019290925260448083018490528252939061038f9061033d60648261077c565b6000806040978851936103508a8661077c565b602085527f5361666545524332303a206c6f772d6c6576656c2063616c6c206661696c65646020860152519082895af1610388610872565b908661090a565b8051908115918215610437575b5050156103e05792516001600160a01b0390931683526020830152907f3be5b7a71e84ed12875d241991c70855ac5817d847039e17a9d895c1ceb0f18a90604090a2005b835162461bcd60e51b815260206004820152602a60248201527f5361666545524332303a204552433230206f7065726174696f6e20646964206e6044820152691bdd081cdd58d8d9595960b21b6064820152608490fd5b81925090602091810103126100e8576020015180151581036100e857858061039c565b346100e85760403660031901126100e85761047361063f565b61047b610655565b6001600160a01b039182166000908152600660209081526040808320949093168252928352819020549051908152f35b346100e85760003660031901126100e8576020600054604051908152f35b346100e85760203660031901126100e8576004356001600160a01b038116908190036100e857806000526002602052610508604060002054151561066b565b61051181610749565b61051c8115156106c6565b61052881600154610726565b60015581600052600360205260406000208181540190558047106105fa57600080808084865af1610557610872565b501561058f577fdf20fd1e76bc69d672e4814fafb2c449bba3a5369d8359adf9e05e6fde87b0569160409182519182526020820152a1005b60405162461bcd60e51b815260206004820152603a60248201527f416464726573733a20756e61626c6520746f2073656e642076616c75652c207260448201527f6563697069656e74206d617920686176652072657665727465640000000000006064820152608490fd5b60405162461bcd60e51b815260206004820152601d60248201527f416464726573733a20696e73756666696369656e742062616c616e63650000006044820152606490fd5b600435906001600160a01b03821682036100e857565b602435906001600160a01b03821682036100e857565b1561067257565b60405162461bcd60e51b815260206004820152602660248201527f5061796d656e7453706c69747465723a206163636f756e7420686173206e6f2060448201526573686172657360d01b6064820152608490fd5b156106cd57565b60405162461bcd60e51b815260206004820152602b60248201527f5061796d656e7453706c69747465723a206163636f756e74206973206e6f742060448201526a191d59481c185e5b595b9d60aa1b6064820152608490fd5b9190820180921161073357565b634e487b7160e01b600052601160045260246000fd5b6107799061075a4760015490610726565b6001600160a01b038216600090815260036020526040902054916108b2565b90565b90601f8019910116810190811067ffffffffffffffff82111761079e57604052565b634e487b7160e01b600052604160045260246000fd5b6040516370a0823160e01b815230600482015291906001600160a01b0316602083602481845afa92831561086657600093610830575b506108076107799382600052600560205260406000205490610726565b906000526006602052604060002060018060a01b038316600052602052604060002054916108b2565b92506020833d60201161085e575b8161084b6020938361077c565b810103126100e8579151916108076107ea565b3d915061083e565b6040513d6000823e3d90fd5b3d156108ad573d9067ffffffffffffffff821161079e57604051916108a1601f8201601f19166020018461077c565b82523d6000602084013e565b606090565b6001600160a01b03166000908152600260205260409020548181029180159083049091141715610733576000549081156108f457049081039081116107335790565b634e487b7160e01b600052601260045260246000fd5b9192901561096c575081511561091e575090565b3b156109275790565b60405162461bcd60e51b815260206004820152601d60248201527f416464726573733a2063616c6c20746f206e6f6e2d636f6e74726163740000006044820152606490fd5b82519091501561097f5750805190602001fd5b6040519062461bcd60e51b8252602060048301528181519182602483015260005b8381106109c25750508160006044809484010152601f80199101168101030190fd5b602082820181015160448784010152859350016109a056fea2646970667358221220ef48195f761abf4e73ea1f92dee91adc62afaff9283169510c8307e22919deef64736f6c634300081c0033",
  "linkReferences": {},
  "deployedLinkReferences": {}
}