{
  "_format": "hh-sol-artifact-1",
  "contractName": "DerivativeIP",
  "sourceName": "contracts/DerivativeIP.sol",
  "abi": [
    {
      "inputs": [
        {
          "internalType": "address",
          "name": "_ipContract",
          "type": "address"
        },
        {
          "internalType": "address",
          "name": "_licenseContract",
          "type": "address"
        },
        {
          "internalType": "string",
          "name": "name_",
          "type": "string"
        },
        {
          "internalType": "string",
          "name": "symbol_",
          "type": "string"
        }
      ],
      "stateMutability": "nonpayable",
      "type": "constructor"
    },
    {
      "anonymous": false,
      "inputs": [
        {
          "indexed": true,
          "internalType": "address",
          "name": "owner",
          "type": "address"
        },
        {
          "indexed": true,
          "internalType": "address",
          "name": "approved",
          "type": "address"
        },
        {
          "indexed": true,
          "internalType": "uint256",
          "name": "tokenId",
          "type": "uint256"
        }
      ],
      "name": "Approval",
      "type": "event"
    },
    {
      "anonymous": false,
      "inputs": [
        {
          "indexed": true,
          "internalType": "address",
          "name": "owner",
          "type": "address"
        },
        {
          "indexed": true,
          "internalType": "address",
          "name": "operator",
          "type": "address"
        },
        {
          "indexed": false,
          "internalType": "bool",
          "name": "approved",
          "type": "bool"
        }
      ],
      "name": "ApprovalForAll",
      "type": "event"
    },
    {
      "anonymous": false,
      "inputs": [
        {
          "indexed": false,
          "internalType": "uint256",
          "name": "_fromTokenId",
          "type": "uint256"
        },
        {
          "indexed": false,
          "internalType": "uint256",
          "name": "_toTokenId",
          "type": "uint256"
        }
      ],
      "name": "BatchMetadataUpdate",
      "type": "event"
    },
    {
      "anonymous": false,
      "inputs": [
        {
          "indexed": true,
          "internalType": "uint256",
          "name": "derivativeTokenId",
          "type": "uint256"
        },
        {
          "indexed": false,
          "internalType": "uint256[]",
          "name": "parentTokenIds",
          "type": "uint256[]"
        },
        {
          "indexed": true,
          "internalType": "address",
          "name": "creator",
          "type": "address"
        },
        {
          "indexed": false,
          "internalType": "enum DerivativeIP.DerivativeType",
          "name": "derivativeType",
          "type": "uint8"
        },
        {
          "indexed": false,
          "internalType": "bool",
          "name": "isCommercial",
          "type": "bool"
        },
        {
          "indexed": false,
          "internalType": "uint256[]",
          "name": "consumedLicenseIds",
          "type": "uint256[]"
        }
      ],
      "name": "DerivativeCreated",
      "type": "event"
    },
    {
      "anonymous": false,
      "inputs": [
        {
          "indexed": true,
          "internalType": "uint256",
          "name": "licenseTokenId",
          "type": "uint256"
        },
        {
          "indexed": true,
          "internalType": "uint256",
          "name": "derivativeTokenId",
          "type": "uint256"
        }
      ],
      "name": "LicenseConsumed",
      "type": "event"
    },
    {
      "anonymous": false,
      "inputs": [
        {
          "indexed": false,
          "internalType": "uint256",
          "name": "_tokenId",
          "type": "uint256"
        }
      ],
      "name": "MetadataUpdate",
      "type": "event"
    },
    {
      "anonymous": false,
      "inputs": [
        {
          "indexed": true,
          "internalType": "address",
          "name": "previousOwner",
          "type": "address"
        },
        {
          "indexed": true,
          "internalType": "address",
          "name": "newOwner",
          "type": "address"
        }
      ],
      "name": "OwnershipTransferred",
      "type": "event"
    },
    {
      "anonymous": false,
      "inputs": [
        {
          "indexed": true,
          "internalType": "uint256",
          "name": "derivativeTokenId",
          "type": "uint256"
        },
        {
          "indexed": true,
          "internalType": "uint256",
          "name": "parentTokenId",
          "type": "uint256"
        }
      ],
      "name": "ParentAttributed",
      "type": "event"
    },
    {
      "anonymous": false,
      "inputs": [
        {
          "indexed": true,
          "internalType": "address",
          "name": "from",
          "type": "address"
        },
        {
          "indexed": true,
          "internalType": "address",
          "name": "to",
          "type": "address"
        },
        {
          "indexed": true,
          "internalType": "uint256",
          "name": "tokenId",
          "type": "uint256"
        }
      ],
      "name": "Transfer",
      "type": "event"
    },
    {
      "inputs": [
        {
          "internalType": "address",
          "name": "to",
          "type": "address"
        },
        {
          "internalType": "uint256",
          "name": "tokenId",
          "type": "uint256"
        }
      ],
      "name": "approve",
      "outputs": [],
      "stateMutability": "nonpayable",
      "type": "function"
    },
    {
      "inputs": [
        {
          "internalType": "address",
          "name": "owner",
          "type": "address"
        }
      ],
      "name": "balanceOf",
      "outputs": [
        {
          "internalType": "uint256",
          "name": "",
          "type": "uint256"
        }
      ],
      "stateMutability": "view",
      "type": "function"
    },
    {
      "inputs": [
        {
          "internalType": "uint256",
          "name": "derivativeTokenId",
          "type": "uint256"
        }
      ],
      "name": "canBeLicensed",
      "outputs": [
        {
          "internalType": "bool",
          "name": "",
          "type": "bool"
        }
      ],
      "stateMutability": "view",
      "type": "function"
    },
    {
      "inputs": [
        {
          "internalType": "uint256",
          "name": "",
          "type": "uint256"
        }
      ],
      "name": "consumedLicenses",
      "outputs": [
        {
          "internalType": "bool",
          "name": "",
          "type": "bool"
        }
      ],
      "stateMutability": "view",
      "type": "function"
    },
    {
      "inputs": [
        {
          "internalType": "uint256[]",
          "name": "parentTokenIds",
          "type": "uint256[]"
        },
        {
          "internalType": "uint256[]",
          "name": "licenseTokenIds",
          "type": "uint256[]"
        },
        {
          "internalType": "string",
          "name": "metadataURI",
          "type": "string"
        },
        {
          "internalType": "bytes32",
          "name": "contentHash",
          "type": "bytes32"
        },
        {
          "internalType": "enum DerivativeIP.DerivativeType",
          "name": "derivativeType",
          "type": "uint8"
        },
        {
          "internalType": "bool",
          "name": "isCommercial",
          "type": "bool"
        }
      ],
      "name": "createDerivative",
      "outputs": [
        {
          "internalType": "uint256",
          "name": "",
          "type": "uint256"
        }
      ],
      "stateMutability": "nonpayable",
      "type": "function"
    },
    {
      "inputs": [
        {
          "internalType": "uint256",
          "name": "",
          "type": "uint256"
        }
      ],
      "name": "derivativeInfo",
      "outputs": [
        {
          "internalType": "uint256",
          "name": "derivativeTokenId",
          "type": "uint256"
        },
        {
          "internalType": "address",
          "name": "creator",
          "type": "address"
        },
        {
          "internalType": "string",
          "name": "metadataURI",
          "type": "string"
        },
        {
          "internalType": "bytes32",
          "name": "contentHash",
          "type": "bytes32"
        },
        {
          "internalType": "enum DerivativeIP.DerivativeType",
          "name": "derivativeType",
          "type": "uint8"
        },
        {
          "internalType": "uint256",
          "name": "creationTimestamp",
          "type": "uint256"
        },
        {
          "internalType": "bool",
          "name": "isCommercial",
          "type": "bool"
        }
      ],
      "stateMutability": "view",
      "type": "function"
    },
    {
      "inputs": [
        {
          "internalType": "uint256",
          "name": "",
          "type": "uint256"
        },
        {
          "internalType": "uint256",
          "name": "",
          "type": "uint256"
        }
      ],
      "name": "derivativeToParents",
      "outputs": [
        {
          "internalType": "uint256",
          "name": "",
          "type": "uint256"
        }
      ],
      "stateMutability": "view",
      "type": "function"
    },
    {
      "inputs": [
        {
          "internalType": "uint256",
          "name": "tokenId",
          "type": "uint256"
        }
      ],
      "name": "getApproved",
      "outputs": [
        {
          "internalType": "address",
          "name": "",
          "type": "address"
        }
      ],
      "stateMutability": "view",
      "type": "function"
    },
    {
      "inputs": [
        {
          "internalType": "uint256",
          "name": "derivativeTokenId",
          "type": "uint256"
        }
      ],
      "name": "getDerivativeInfo",
      "outputs": [
        {
          "internalType": "uint256[]",
          "name": "parentTokenIds",
          "type": "uint256[]"
        },
        {
          "internalType": "address",
          "name": "creator",
          "type": "address"
        },
        {
          "internalType": "string",
          "name": "metadataURI",
          "type": "string"
        },
        {
          "internalType": "bytes32",
          "name": "contentHash",
          "type": "bytes32"
        },
        {
          "internalType": "enum DerivativeIP.DerivativeType",
          "name": "derivativeType",
          "type": "uint8"
        },
        {
          "internalType": "uint256",
          "name": "creationTimestamp",
          "type": "uint256"
        },
        {
          "internalType": "bool",
          "name": "isCommercial",
          "type": "bool"
        },
        {
          "internalType": "uint256[]",
          "name": "consumedLicenseIds",
          "type": "uint256[]"
        }
      ],
      "stateMutability": "view",
      "type": "function"
    },
    {
      "inputs": [
        {
          "internalType": "uint256",
          "name": "derivativeTokenId",
          "type": "uint256"
        }
      ],
      "name": "getDerivativeTypeString",
      "outputs": [
        {
          "internalType": "string",
          "name": "",
          "type": "string"
        }
      ],
      "stateMutability": "view",
      "type": "function"
    },
    {
      "inputs": [
        {
          "internalType": "uint256",
          "name": "parentTokenId",
          "type": "uint256"
        }
      ],
      "name": "getDerivativesOfParent",
      "outputs": [
        {
          "internalType": "uint256[]",
          "name": "",
          "type": "uint256[]"
        }
      ],
      "stateMutability": "view",
      "type": "function"
    },
    {
      "inputs": [
        {
          "internalType": "uint256",
          "name": "derivativeTokenId",
          "type": "uint256"
        }
      ],
      "name": "getParentsOfDerivative",
      "outputs": [
        {
          "internalType": "uint256[]",
          "name": "",
          "type": "uint256[]"
        }
      ],
      "stateMutability": "view",
      "type": "function"
    },
    {
      "inputs": [],
      "name": "ipContract",
      "outputs": [
        {
          "internalType": "contract IPNFT",
          "name": "",
          "type": "address"
        }
      ],
      "stateMutability": "view",
      "type": "function"
    },
    {
      "inputs": [
        {
          "internalType": "uint256",
          "name": "",
          "type": "uint256"
        },
        {
          "internalType": "uint256",
          "name": "",
          "type": "uint256"
        }
      ],
      "name": "ipToDerivatives",
      "outputs": [
        {
          "internalType": "uint256",
          "name": "",
          "type": "uint256"
        }
      ],
      "stateMutability": "view",
      "type": "function"
    },
    {
      "inputs": [
        {
          "internalType": "address",
          "name": "owner",
          "type": "address"
        },
        {
          "internalType": "address",
          "name": "operator",
          "type": "address"
        }
      ],
      "name": "isApprovedForAll",
      "outputs": [
        {
          "internalType": "bool",
          "name": "",
          "type": "bool"
        }
      ],
      "stateMutability": "view",
      "type": "function"
    },
    {
      "inputs": [
        {
          "internalType": "uint256",
          "name": "licenseTokenId",
          "type": "uint256"
        }
      ],
      "name": "isLicenseConsumed",
      "outputs": [
        {
          "internalType": "bool",
          "name": "",
          "type": "bool"
        }
      ],
      "stateMutability": "view",
      "type": "function"
    },
    {
      "inputs": [],
      "name": "licenseContract",
      "outputs": [
        {
          "internalType": "contract LicenseNFT",
          "name": "",
          "type": "address"
        }
      ],
      "stateMutability": "view",
      "type": "function"
    },
    {
      "inputs": [],
      "name": "name",
      "outputs": [
        {
          "internalType": "string",
          "name": "",
          "type": "string"
        }
      ],
      "stateMutability": "view",
      "type": "function"
    },
    {
      "inputs": [],
      "name": "owner",
      "outputs": [
        {
          "internalType": "address",
          "name": "",
          "type": "address"
        }
      ],
      "stateMutability": "view",
      "type": "function"
    },
    {
      "inputs": [
        {
          "internalType": "uint256",
          "name": "tokenId",
          "type": "uint256"
        }
      ],
      "name": "ownerOf",
      "outputs": [
        {
          "internalType": "address",
          "name": "",
          "type": "address"
        }
      ],
      "stateMutability": "view",
      "type": "function"
    },
    {
      "inputs": [],
      "name": "renounceOwnership",
      "outputs": [],
      "stateMutability": "nonpayable",
      "type": "function"
    },
    {
      "inputs": [
        {
          "internalType": "address",
          "name": "from",
          "type": "address"
        },
        {
          "internalType": "address",
          "name": "to",
          "type": "address"
        },
        {
          "internalType": "uint256",
          "name": "tokenId",
          "type": "uint256"
        }
      ],
      "name": "safeTransferFrom",
      "outputs": [],
      "stateMutability": "nonpayable",
      "type": "function"
    },
    {
      "inputs": [
        {
          "internalType": "address",
          "name": "from",
          "type": "address"
        },
        {
          "internalType": "address",
          "name": "to",
          "type": "address"
        },
        {
          "internalType": "uint256",
          "name": "tokenId",
          "type": "uint256"
        },
        {
          "internalType": "bytes",
          "name": "data",
          "type": "bytes"
        }
      ],
      "name": "safeTransferFrom",
      "outputs": [],
      "stateMutability": "nonpayable",
      "type": "function"
    },
    {
      "inputs": [
        {
          "internalType": "address",
          "name": "operator",
          "type": "address"
        },
        {
          "internalType": "bool",
          "name": "approved",
          "type": "bool"
        }
      ],
      "name": "setApprovalForAll",
      "outputs": [],
      "stateMutability": "nonpayable",
      "type": "function"
    },
    {
      "inputs": [
        {
          "internalType": "bytes4",
          "name": "interfaceId",
          "type": "bytes4"
        }
      ],
      "name": "supportsInterface",
      "outputs": [
        {
          "internalType": "bool",
          "name": "",
          "type": "bool"
        }
      ],
      "stateMutability": "view",
      "type": "function"
    },
    {
      "inputs": [],
      "name": "symbol",
      "outputs": [
        {
          "internalType": "string",
          "name": "",
          "type": "string"
        }
      ],
      "stateMutability": "view",
      "type": "function"
    },
    {
      "inputs": [
        {
          "internalType": "uint256",
          "name": "tokenId",
          "type": "uint256"
        }
      ],
      "name": "tokenURI",
      "outputs": [
        {
          "internalType": "string",
          "name": "",
          "type": "string"
        }
      ],
      "stateMutability": "view",
      "type": "function"
    },
    {
      "inputs": [
        {
          "internalType": "address",
          "name": "from",
          "type": "address"
        },
        {
          "internalType": "address",
          "name": "to",
          "type": "address"
        },
        {
          "internalType": "uint256",
          "name": "tokenId",
          "type": "uint256"
        }
      ],
      "name": "transferFrom",
      "outputs": [],
      "stateMutability": "nonpayable",
      "type": "function"
    },
    {
      "inputs": [
        {
          "internalType": "address",
          "name": "newOwner",
          "type": "address"
        }
      ],
      "name": "transferOwnership",
      "outputs": [],
      "stateMutability": "nonpayable",
      "type": "function"
    }
  ],
  "bytecode": "0x60806040523461044b57612a658038038061001981610450565b92833981019060808183031261044b5761003281610475565b61003e60208301610475565b60408301519092906001600160401b03811161044b5784610060918301610489565b60608201519094906001600160401b03811161044b576100809201610489565b83519092906001600160401b03811161035657600054600181811c91168015610441575b602082101461033657601f81116103dd575b50602094601f82116001146103775794819293949560009261036c575b50508160011b916000199060031b1c1916176000555b82516001600160401b03811161035657600154600181811c9116801561034c575b602082101461033657601f81116102d1575b506020601f821160011461026a578192939460009261025f575b50508160011b916000199060031b1c1916176001555b60078054336001600160a01b0319821681179092556040519391906001600160a01b03167f8be0079c531659141344cd1fd0a4f28419497f9722a3daafe3b4186f6b6457e0600080a36001600160a01b031691821561022a57506001600160a01b03169081156101e55760018060a01b0319600854161760085560018060a01b0319600954161760095560405161257090816104f58239f35b60405162461bcd60e51b815260206004820152601560248201527f4c6963656e736520636f6e7472616374207a65726f00000000000000000000006044820152606490fd5b62461bcd60e51b815260206004820152601060248201526f495020636f6e7472616374207a65726f60801b6044820152606490fd5b015190503880610136565b601f198216906001600052806000209160005b8181106102b9575095836001959697106102a0575b505050811b0160015561014c565b015160001960f88460031b161c19169055388080610292565b9192602060018192868b01518155019401920161027d565b60016000527fb10e2d527612073b26eecdfd717e6a320cf44b4afac2b0732d9fcbe2b7fa0cf6601f830160051c8101916020841061032c575b601f0160051c01905b818110610320575061011c565b60008155600101610313565b909150819061030a565b634e487b7160e01b600052602260045260246000fd5b90607f169061010a565b634e487b7160e01b600052604160045260246000fd5b0151905038806100d3565b601f1982169560008052806000209160005b8881106103c5575083600195969798106103ac575b505050811b016000556100e9565b015160001960f88460031b161c1916905538808061039e565b91926020600181928685015181550194019201610389565b600080527f290decd9548b62a8d60345a988386fc84ba6bc95484008f6362f93160ef3e563601f830160051c81019160208410610437575b601f0160051c01905b81811061042b57506100b6565b6000815560010161041e565b9091508190610415565b90607f16906100a4565b600080fd5b6040519190601f01601f191682016001600160401b0381118382101761035657604052565b51906001600160a01b038216820361044b57565b81601f8201121561044b578051906001600160401b038211610356576104b8601f8301601f1916602001610450565b928284526020838301011161044b5760005b8281106104df57505060206000918301015290565b806020809284010151828287010152016104ca56fe608080604052600436101561001357600080fd5b60003560e01c90816301ffc9a71461187a5750806306fdde03146117d5578063081812fc146117b7578063095ea7b31461162e57806323b872dd1461160a57806342842e0e146115d55780636352211e146115a55780636866c1361461092a57806370a08231146108935780637139f4a214610867578063715018a61461080a5780637d7e1450146105235780637efd7a73146107d95780638da5cb5b146107b057806395d89b41146106e3578063961838ab146106a35780639c976464146106635780639cfa06fa1461062f578063a22cb46514610554578063a42df5bf14610523578063a653bf2b14610484578063b88d4fde146103fd578063ba8db95b1461032e578063c87b56dd1461030f578063e29037a2146102d8578063e2c52b9d146102af578063e985e9c514610254578063edecce741461022b5763f2fde38b1461015e57600080fd5b346102265760203660031901126102265761017761193e565b61017f612268565b6001600160a01b031680156101d257600780546001600160a01b0319811683179091556001600160a01b03167f8be0079c531659141344cd1fd0a4f28419497f9722a3daafe3b4186f6b6457e0600080a3005b60405162461bcd60e51b815260206004820152602660248201527f4f776e61626c653a206e6577206f776e657220697320746865207a65726f206160448201526564647265737360d01b6064820152608490fd5b600080fd5b34610226576000366003190112610226576008546040516001600160a01b039091168152602090f35b346102265760403660031901126102265761026d61193e565b610275611954565b9060018060a01b0316600052600560205260406000209060018060a01b0316600052602052602060ff604060002054166040519015158152f35b34610226576000366003190112610226576009546040516001600160a01b039091168152602090f35b346102265760203660031901126102265761030b6102f7600435611e11565b6040519182916020835260208301906118ff565b0390f35b346102265760203660031901126102265761030b6102f7600435612337565b3461022657602036600319011261022657600435600052600b6020526103c1604060002061030b60018060a01b036002830154169160048101549060ff60058201541660068201546103e460ff600785015416926103d461039160018701611dc6565b986103aa60086103a360038a01611aa7565b9801611dc6565b966040519b8c9b6101008d526101008d01906119d4565b9160208c01528a820360408c01526118ff565b9560608901526080880190611b4b565b60a0860152151560c085015283820360e08501526119d4565b346102265760803660031901126102265761041661193e565b61041e611954565b90606435906044356001600160401b0383116102265736602384011215610226576104829361045a61047d943690602481600401359101611b89565b9261046d6104688433611f4a565b611bfe565b61047883838361201d565b612495565b612313565b005b34610226576020366003190112610226576004356000908152600b60205260409020805460028201546001600160a01b0316916104c360038201611aa7565b60048201549161051360ff60058301541661050360ff6007600686015495015416946040519889988952602089015260e0604089015260e08801906118ff565b9460608701526080860190611b4b565b60a0840152151560c08301520390f35b3461022657602036600319011261022657600435600052600e602052602060ff604060002054166040519015158152f35b346102265760403660031901126102265761056d61193e565b6024359081151590818303610226576001600160a01b0316913383146105ea576105bc9033600052600560205260406000208460005260205260406000209060ff801983541691151516179055565b6040519081527f17307eab39ab6107e8899845ad3d59bd9653f200f220920489ca2b5937696c3160203392a3005b60405162461bcd60e51b815260206004820152601960248201527f4552433732313a20617070726f766520746f2063616c6c6572000000000000006044820152606490fd5b3461022657602036600319011261022657600435600052600b602052602060ff600760406000200154166040519015158152f35b3461022657602036600319011261022657600435600052600d60205261030b61068f6040600020611dc6565b6040519182916020835260208301906119d4565b34610226576106b136611a08565b90600052600d60205260406000208054821015610226576020916106d491611a1e565b90549060031b1c604051908152f35b3461022657600036600319011261022657604051600060015461070581611a4c565b808452906001811690811561078c575060011461072d575b61030b836102f781850382611a86565b600160009081527fb10e2d527612073b26eecdfd717e6a320cf44b4afac2b0732d9fcbe2b7fa0cf6939250905b808210610772575090915081016020016102f761071d565b91926001816020925483858801015201910190929161075a565b60ff191660208086019190915291151560051b840190910191506102f7905061071d565b34610226576000366003190112610226576007546040516001600160a01b039091168152602090f35b34610226576107e736611a08565b90600052600c60205260406000208054821015610226576020916106d491611a1e565b3461022657600036600319011261022657610823612268565b600780546001600160a01b031981169091556000906001600160a01b03167f8be0079c531659141344cd1fd0a4f28419497f9722a3daafe3b4186f6b6457e08280a3005b3461022657602036600319011261022657600435600052600c60205261030b61068f6040600020611dc6565b34610226576020366003190112610226576001600160a01b036108b461193e565b1680156108d35760005260036020526020604060002054604051908152f35b60405162461bcd60e51b815260206004820152602960248201527f4552433732313a2061646472657373207a65726f206973206e6f7420612076616044820152683634b21037bbb732b960b91b6064820152608490fd5b346102265760c0366003190112610226576004356001600160401b0381116102265761095a9036906004016119a4565b906024356001600160401b0381116102265761097a9036906004016119a4565b604435906001600160401b0382116102265736602383011215610226578160040135946001600160401b038611610226576024830192602487369201011161022657600560843510156102265760a43590811515820361022657801561156057600a8111611528576008546001600160a01b03166000805b8381106114b1575b5015611450575b60005b82811061129a57505060005b83811061115157506001600a54019586600a55602097604051610a338a82611a86565b60008152331561110e57600089815260026020526040902054610aea9161047d91610a6a906001600160a01b031615155b156124ee565b60008b815260026020526040902054610a8d906001600160a01b03161515610a64565b33600081815260038e526040808220805460010190558d825260028f52812080546001600160a01b031916831790558c91907fddf252ad1be2c89b69c2b068fc378daa952ba7f163c4a11628f55a4df523b3ef8180a48a33612383565b610af5368288611b89565b6000898152600260205260409020546001600160a01b0316156110b2578860005260068a526040600020908051906001600160401b038211610ffa578190610b3d8454611a4c565b8d601f8211611081575b50508c908d601f841160011461101b5750600092611010575b50508160011b916000199060031b1c19161790555b7ff8e1a15aba9398e019f0b49df1a4fde98ee17ae345cb5f6b5e2c27f5033e8ce7896040518a8152a1604051956101208701918783106001600160401b03841117610ffa57610be092604052898852610bcf368686611d01565b8b8901523360408901523691611b89565b6060860152606435608086015260009460843560a08201524260c082015283151560e0820152610c11368689611d01565b610100820152878652600b89526040862081518155898201518051906001600160401b038211610fb657600160401b8211610fb6578b906001840154836001860155808410610fdd575b50016001830189528b89208c8a5b848110610fca575050505060408301516002830180546001600160a01b0319166001600160a01b03929092169190911790555060608201518051906001600160401b038211610fb6578190610cc16003850154611a4c565b8d601f8211610f7a575b50508c908d601f8411600114610f0e57508a92610f03575b50508160011b916000199060031b1c19161760038201555b608082015160048201556005810160a08301516005811015610eef57916008916101009360ff8019835416911617905560c08401516006820155610d5460e08501511515600783019060ff801983541691151516179055565b01910151908151916001600160401b038311610edb57600160401b8311610edb578a908254848455808510610ec1575b50908a9594939291019088528a8820885b838110610eac5750505050855b828110610e5d575090610de27f8f36b77b00926c962bbaefa267bed2c20e83b0462c1169ecfcf6726d2bd949599260405192608084526080840191611da2565b93610df18a8301608435611b4b565b15156040820152808403606082015280610e0d3395878a611da2565b0390a3815b818110610e23578585604051908152f35b8085610e326001938588611cd2565b357f61c74fd4e4d8450d8b40f8ca33601721223dfd582edd02138603bee2063880578680a301610e12565b829350610e6e818394600194611cd2565b358752600c8a52610e828960408920611d6d565b888752600d8a52610ea260408820610e9b838787611cd2565b3590611d6d565b0190879291610da2565b8251818301558b9650918c0191600101610d95565b838a52828a20610ed5918101908601611d56565b8c610d84565b634e487b7160e01b88526041600452602488fd5b634e487b7160e01b89526021600452602489fd5b015190508c80610ce3565b600386018c52808c209350601f198516908c905b828210610f62575050908460019594939210610f49575b505050811b016003820155610cfb565b015160001960f88460031b161c191690558c8080610f39565b80600186978294978701518155019601940190610f22565b600386018c52808c20610fa592601f860160051c8201928610610fac575b601f0160051c0190611d56565b8d8d610ccb565b9091508190610f98565b634e487b7160e01b89526041600452602489fd5b8351838201559201918d90600101610c69565b600185018b52828b20610ff4918101908501611d56565b8d610c5b565b634e487b7160e01b600052604160045260246000fd5b015190508c80610b60565b60008681528181209450601f198616915b828210611069575050908460019594939210611050575b505050811b019055610b75565b015160001960f88460031b161c191690558c8080611043565b8060018697829497870151815501960194019061102c565b6110ab91866000528160002090601f860160051c8201928610610fac57601f0160051c0190611d56565b8d8d610b47565b60405162461bcd60e51b8152600481018b9052602e60248201527f45524337323155524953746f726167653a2055524920736574206f66206e6f6e60448201526d32bc34b9ba32b73a103a37b5b2b760911b6064820152608490fd5b60648a6040519062461bcd60e51b825280600483015260248201527f4552433732313a206d696e7420746f20746865207a65726f20616464726573736044820152fd5b61115c818588611cd2565b359081600052600e60205260ff60406000205416611255576009546040516331a9108f60e11b81526004810184905290602090829060249082906001600160a01b03165afa9081156112495760009161121b575b50336001600160a01b03909116036111e257600191600052600e60205260406000208260ff1982541617905501610a10565b60405162461bcd60e51b81526020600482015260116024820152702737ba103634b1b2b739b29037bbb732b960791b6044820152606490fd5b61123c915060203d8111611242575b6112348183611a86565b810190611ce2565b8a6111b0565b503d61122a565b6040513d6000823e3d90fd5b60405162461bcd60e51b815260206004820152601860248201527f4c6963656e736520616c726561647920636f6e73756d656400000000000000006044820152606490fd5b6112a581848a611cd2565b6040516331a9108f60e11b815290356004820152602081602481865afa90811561124957600091611432575b506001600160a01b0316156113f6576112eb81848a611cd2565b60405162bae1bd60e41b815290356004820152602081602481865afa908115611249576000916113b5575b5061137d5761133285883361132c85888e611cd2565b35612155565b1561133f57600101610a04565b60405162461bcd60e51b815260206004820152601660248201527504e6f2061636365737320746f20706172656e742049560541b6044820152606490fd5b60405162461bcd60e51b815260206004820152601060248201526f1c185c995b9d081cdd5cdc195b99195960821b6044820152606490fd5b6020813d82116113ee575b816113cd60209383611a86565b810103126113ea57519081151582036113e757508a611316565b80fd5b5080fd5b3d91506113c0565b60405162461bcd60e51b815260206004820152601460248201527314185c995b9d08191bd95cdb89dd08195e1a5cdd60621b6044820152606490fd5b61144a915060203d8111611242576112348183611a86565b8a6112d1565b83610a015760405162461bcd60e51b815260206004820152602e60248201527f4d7573742070726f76696465206174206c65617374206f6e65206c6963656e7360448201526d329034b3103737ba1037bbb732b960911b6064820152608490fd5b6114bc81858b611cd2565b6040516331a9108f60e11b815290356004820152602081602481875afa9081156112495760009161150a575b506001600160a01b03163314611500576001016109f2565b50506001896109fa565b611522915060203d8111611242576112348183611a86565b8b6114e8565b60405162461bcd60e51b815260206004820152601060248201526f546f6f206d616e7920706172656e747360801b6044820152606490fd5b60405162461bcd60e51b815260206004820152601d60248201527f4d7573742068617665206174206c65617374206f6e6520706172656e740000006044820152606490fd5b346102265760203660031901126102265760206115c3600435611cac565b6040516001600160a01b039091168152f35b346102265761048261047d6115e93661196a565b90604051926115f9602085611a86565b6000845261046d6104688433611f4a565b346102265761048261161b3661196a565b916116296104688433611f4a565b61201d565b346102265760403660031901126102265761164761193e565b602435906001600160a01b0361165c83611cac565b6001600160a01b03909216911681811461176857803314908115611743575b50156116d857600082815260046020526040902080546001600160a01b031916821790556001600160a01b036116b083611cac565b167f8c5be1e5ebec7d5bd14f71427d1e84f3dd0314c0f7b2291e5b200ac8c7c3b925600080a4005b60405162461bcd60e51b815260206004820152603d60248201527f4552433732313a20617070726f76652063616c6c6572206973206e6f7420746f60448201527f6b656e206f776e6572206f7220617070726f76656420666f7220616c6c0000006064820152608490fd5b600090815260056020908152604080832033845290915290205460ff1690508361167b565b60405162461bcd60e51b815260206004820152602160248201527f4552433732313a20617070726f76616c20746f2063757272656e74206f776e656044820152603960f91b6064820152608490fd5b346102265760203660031901126102265760206115c3600435611bc0565b3461022657600036600319011261022657604051600080546117f681611a4c565b808452906001811690811561078c575060011461181d5761030b836102f781850382611a86565b60008080527f290decd9548b62a8d60345a988386fc84ba6bc95484008f6362f93160ef3e563939250905b808210611860575090915081016020016102f761071d565b919260018160209254838588010152019101909291611848565b34610226576020366003190112610226576004359063ffffffff60e01b821680920361022657602091632483248360e11b81149081156118bc575b5015158152f35b6380ac58cd60e01b8114915081156118ee575b81156118dd575b50836118b5565b6301ffc9a760e01b149050836118d6565b635b5e139f60e01b811491506118cf565b919082518082526020808301940160005b82811061192e575050600081602094950152601f8019910116010190565b8181015186820152602001611910565b600435906001600160a01b038216820361022657565b602435906001600160a01b038216820361022657565b6060906003190112610226576004356001600160a01b038116810361022657906024356001600160a01b0381168103610226579060443590565b9181601f84011215610226578235916001600160401b038311610226576020808501948460051b01011161022657565b906020808351928381520192019060005b8181106119f25750505090565b82518452602093840193909201916001016119e5565b6040906003190112610226576004359060243590565b8054821015611a365760005260206000200190600090565b634e487b7160e01b600052603260045260246000fd5b90600182811c92168015611a7c575b6020831014611a6657565b634e487b7160e01b600052602260045260246000fd5b91607f1691611a5b565b90601f801991011681019081106001600160401b03821117610ffa57604052565b9060405191826000825492611abb84611a4c565b8084529360018116908115611b295750600114611ae2575b50611ae092500383611a86565b565b90506000929192526020600020906000915b818310611b0d575050906020611ae09282010138611ad3565b6020919350806001915483858901015201910190918492611af4565b905060209250611ae094915060ff191682840152151560051b82010138611ad3565b906005821015611b585752565b634e487b7160e01b600052602160045260246000fd5b6001600160401b038111610ffa57601f01601f191660200190565b929192611b9582611b6e565b91611ba36040519384611a86565b829481845281830111610226578281602093846000960137010152565b600081815260026020526040902054611be3906001600160a01b03161515611c60565b6000908152600460205260409020546001600160a01b031690565b15611c0557565b60405162461bcd60e51b815260206004820152602d60248201527f4552433732313a2063616c6c6572206973206e6f7420746f6b656e206f776e6560448201526c1c881bdc88185c1c1c9bdd9959609a1b6064820152608490fd5b15611c6757565b60405162461bcd60e51b815260206004820152601860248201527f4552433732313a20696e76616c696420746f6b656e20494400000000000000006044820152606490fd5b6000908152600260205260409020546001600160a01b0316611ccf811515611c60565b90565b9190811015611a365760051b0190565b9081602091031261022657516001600160a01b03811681036102265790565b929190926001600160401b038411610ffa578360051b906020604051611d2982850182611a86565b809681520191810192831161022657905b828210611d4657505050565b8135815260209182019101611d3a565b818110611d61575050565b60008155600101611d56565b8054600160401b811015610ffa57611d8a91600182018155611a1e565b819291549060031b91821b91600019901b1916179055565b81835290916001600160fb1b0383116102265760209260051b809284830137010190565b906040519182815491828252602082019060005260206000209260005b818110611df8575050611ae092500383611a86565b8454835260019485019487945060209093019201611de3565b600052600b60205260ff600560406000200154166005811015611b58578015611f2657600060018214611efc575060028114611ed05760009060038114611ea6576004915014611e8057604051611e69604082611a86565b60078152662ab735b737bbb760c91b602082015290565b604051611e8e604082611a86565b6008815267437269746971756560c01b602082015290565b5050604051611eb6604082611a86565b600a8152692b30b634b230ba34b7b760b11b602082015290565b50604051611edf604082611a86565b600d81526c21b7b63630b137b930ba34b7b760991b602082015290565b50506040805190611f0d9082611a86565b600981526822bc3a32b739b4b7b760b91b602082015290565b50604051611f35604082611a86565b60058152640a4cadad2f60db1b602082015290565b906001600160a01b03611f5c82611cac565b6001600160a01b0390931692168281149291908315611f9c575b508215611f8257505090565b9091506001600160a01b0390611f9790611bc0565b161490565b909250600052600560205260406000208160005260205260ff604060002054169138611f76565b15611fca57565b60405162461bcd60e51b815260206004820152602560248201527f4552433732313a207472616e736665722066726f6d20696e636f72726563742060448201526437bbb732b960d91b6064820152608490fd5b9061203e61202a84611cac565b6001600160a01b0393841693168314611fc3565b6001600160a01b03169081156121045761206a816001600160a01b0361206386611cac565b1614611fc3565b82600052600460205260406000206bffffffffffffffffffffffff60a01b8154169055806000526003602052604060002060001981540190558160005260036020526040600020600181540190558260005260026020526040600020826bffffffffffffffffffffffff60a01b8254161790557fddf252ad1be2c89b69c2b068fc378daa952ba7f163c4a11628f55a4df523b3ef600080a4565b60405162461bcd60e51b8152602060048201526024808201527f4552433732313a207472616e7366657220746f20746865207a65726f206164646044820152637265737360e01b6064820152608490fd5b919290602060018060a01b0360085416936024604051809681936331a9108f60e11b835260048301525afa92831561124957600093612247575b506001600160a01b039081169216821461223f5760095490926001600160a01b039091169060005b8481106121c8575050505050600090565b6121d3818684611cd2565b6040516331a9108f60e11b815290356004820152602081602481875afa8015611249578591600091612221575b506001600160a01b031614612217576001016121b7565b5050505050600190565b612239915060203d8111611242576112348183611a86565b38612200565b505050600190565b61226191935060203d602011611242576112348183611a86565b913861218f565b6007546001600160a01b0316330361227c57565b606460405162461bcd60e51b815260206004820152602060248201527f4f776e61626c653a2063616c6c6572206973206e6f7420746865206f776e65726044820152fd5b60809060208152603260208201527f4552433732313a207472616e7366657220746f206e6f6e20455243373231526560408201527131b2b4bb32b91034b6b83632b6b2b73a32b960711b60608201520190565b1561231a57565b60405162461bcd60e51b815280612333600482016122c0565b0390fd5b60008181526002602052604090205461235a906001600160a01b03161515611c60565b600052600660205261236f6040600020611aa7565b600060405161237f602082611a86565b5290565b91823b1561223f576123c9926020926000604051809681958294630a85bd0160e11b845233600485015284602485015260448401526080606484015260848301906118ff565b03926001600160a01b03165af18091600091612452575b509061243c573d15612435573d6123f681611b6e565b906124046040519283611a86565b81523d6000602083013e5b805190816124305760405162461bcd60e51b815280612333600482016122c0565b602001fd5b606061240f565b6001600160e01b031916630a85bd0160e11b1490565b6020813d60201161248d575b8161246b60209383611a86565b810103126113ea5751906001600160e01b0319821682036113e75750386123e0565b3d915061245e565b919290803b156124e5576123c993600060209460405196879586948593630a85bd0160e11b855233600486015260018060a01b0316602485015260448401526080606484015260848301906118ff565b50505050600190565b156124f557565b60405162461bcd60e51b815260206004820152601c60248201527f4552433732313a20746f6b656e20616c7265616479206d696e746564000000006044820152606490fdfea2646970667358221220a849b12488629b809ab8e24727fb6c5042e0128e4af17c87f0526c91315eaec064736f6c634300081c0033",
  "linkReferences": {},
  "deployedLinkReferences": {}
}