{
  "_format": "hh-sol-artifact-1",
  "contractName": "Desci",
  "sourceName": "contracts/Desci.sol",
  "abi": [
    {
      "inputs": [],
      "stateMutability": "nonpayable",
      "type": "constructor"
    },
    {
      "anonymous": false,
      "inputs": [
        {
          "indexed": true,
          "internalType": "address",
          "name": "owner",
          "type": "address"
        },
        {
          "indexed": true,
          "internalType": "address",
          "name": "spender",
          "type": "address"
        },
        {
          "indexed": false,
          "internalType": "uint256",
          "name": "value",
          "type": "uint256"
        }
      ],
      "name": "Approval",
      "type": "event"
    },
    {
      "anonymous": false,
      "inputs": [
        {
          "indexed": true,
          "internalType": "uint256",
          "name": "disputeId",
          "type": "uint256"
        },
        {
          "indexed": true,
          "internalType": "uint256",
          "name": "ipTokenId",
          "type": "uint256"
        },
        {
          "indexed": true,
          "internalType": "address",
          "name": "reporter",
          "type": "address"
        },
        {
          "indexed": false,
          "internalType": "string",
          "name": "reason",
          "type": "string"
        }
      ],
      "name": "DisputeCreated",
      "type": "event"
    },
    {
      "anonymous": false,
      "inputs": [
        {
          "indexed": true,
          "internalType": "uint256",
          "name": "disputeId",
          "type": "uint256"
        },
        {
          "indexed": false,
          "internalType": "bool",
          "name": "ipRevoked",
          "type": "bool"
        },
        {
          "indexed": false,
          "internalType": "uint256",
          "name": "totalVotes",
          "type": "uint256"
        }
      ],
      "name": "DisputeResolved",
      "type": "event"
    },
    {
      "anonymous": false,
      "inputs": [
        {
          "indexed": true,
          "internalType": "address",
          "name": "user",
          "type": "address"
        },
        {
          "indexed": false,
          "internalType": "uint256",
          "name": "amount",
          "type": "uint256"
        },
        {
          "indexed": false,
          "internalType": "uint256",
          "name": "cost",
          "type": "uint256"
        }
      ],
      "name": "GovernanceTokenMinted",
      "type": "event"
    },
    {
      "anonymous": false,
      "inputs": [
        {
          "indexed": true,
          "internalType": "address",
          "name": "previousOwner",
          "type": "address"
        },
        {
          "indexed": true,
          "internalType": "address",
          "name": "newOwner",
          "type": "address"
        }
      ],
      "name": "OwnershipTransferred",
      "type": "event"
    },
    {
      "anonymous": false,
      "inputs": [
        {
          "indexed": true,
          "internalType": "address",
          "name": "from",
          "type": "address"
        },
        {
          "indexed": true,
          "internalType": "address",
          "name": "to",
          "type": "address"
        },
        {
          "indexed": false,
          "internalType": "uint256",
          "name": "value",
          "type": "uint256"
        }
      ],
      "name": "Transfer",
      "type": "event"
    },
    {
      "anonymous": false,
      "inputs": [
        {
          "indexed": true,
          "internalType": "uint256",
          "name": "disputeId",
          "type": "uint256"
        },
        {
          "indexed": true,
          "internalType": "address",
          "name": "voter",
          "type": "address"
        },
        {
          "indexed": false,
          "internalType": "bool",
          "name": "voteForRemoval",
          "type": "bool"
        },
        {
          "indexed": false,
          "internalType": "uint256",
          "name": "votingPower",
          "type": "uint256"
        }
      ],
      "name": "VoteCast",
      "type": "event"
    },
    {
      "inputs": [],
      "name": "MINT_PRICE",
      "outputs": [
        {
          "internalType": "uint256",
          "name": "",
          "type": "uint256"
        }
      ],
      "stateMutability": "view",
      "type": "function"
    },
    {
      "inputs": [],
      "name": "MIN_VOTING_POWER",
      "outputs": [
        {
          "internalType": "uint256",
          "name": "",
          "type": "uint256"
        }
      ],
      "stateMutability": "view",
      "type": "function"
    },
    {
      "inputs": [
        {
          "internalType": "address",
          "name": "owner",
          "type": "address"
        },
        {
          "internalType": "address",
          "name": "spender",
          "type": "address"
        }
      ],
      "name": "allowance",
      "outputs": [
        {
          "internalType": "uint256",
          "name": "",
          "type": "uint256"
        }
      ],
      "stateMutability": "view",
      "type": "function"
    },
    {
      "inputs": [
        {
          "internalType": "address",
          "name": "spender",
          "type": "address"
        },
        {
          "internalType": "uint256",
          "name": "amount",
          "type": "uint256"
        }
      ],
      "name": "approve",
      "outputs": [
        {
          "internalType": "bool",
          "name": "",
          "type": "bool"
        }
      ],
      "stateMutability": "nonpayable",
      "type": "function"
    },
    {
      "inputs": [
        {
          "internalType": "address",
          "name": "account",
          "type": "address"
        }
      ],
      "name": "balanceOf",
      "outputs": [
        {
          "internalType": "uint256",
          "name": "",
          "type": "uint256"
        }
      ],
      "stateMutability": "view",
      "type": "function"
    },
    {
      "inputs": [
        {
          "internalType": "uint256",
          "name": "ipTokenId",
          "type": "uint256"
        },
        {
          "internalType": "string",
          "name": "reason",
          "type": "string"
        }
      ],
      "name": "createDispute",
      "outputs": [
        {
          "internalType": "uint256",
          "name": "",
          "type": "uint256"
        }
      ],
      "stateMutability": "nonpayable",
      "type": "function"
    },
    {
      "inputs": [],
      "name": "decimals",
      "outputs": [
        {
          "internalType": "uint8",
          "name": "",
          "type": "uint8"
        }
      ],
      "stateMutability": "view",
      "type": "function"
    },
    {
      "inputs": [
        {
          "internalType": "address",
          "name": "spender",
          "type": "address"
        },
        {
          "internalType": "uint256",
          "name": "subtractedValue",
          "type": "uint256"
        }
      ],
      "name": "decreaseAllowance",
      "outputs": [
        {
          "internalType": "bool",
          "name": "",
          "type": "bool"
        }
      ],
      "stateMutability": "nonpayable",
      "type": "function"
    },
    {
      "inputs": [
        {
          "internalType": "uint256",
          "name": "",
          "type": "uint256"
        }
      ],
      "name": "disputes",
      "outputs": [
        {
          "internalType": "uint256",
          "name": "disputeId",
          "type": "uint256"
        },
        {
          "internalType": "uint256",
          "name": "ipTokenId",
          "type": "uint256"
        },
        {
          "internalType": "address",
          "name": "reporter",
          "type": "address"
        },
        {
          "internalType": "string",
          "name": "reason",
          "type": "string"
        },
        {
          "internalType": "uint256",
          "name": "timestamp",
          "type": "uint256"
        },
        {
          "internalType": "bool",
          "name": "resolved",
          "type": "bool"
        },
        {
          "internalType": "uint256",
          "name": "totalVotes",
          "type": "uint256"
        },
        {
          "internalType": "uint256",
          "name": "votesForRemoval",
          "type": "uint256"
        },
        {
          "internalType": "uint256",
          "name": "votesAgainstRemoval",
          "type": "uint256"
        }
      ],
      "stateMutability": "view",
      "type": "function"
    },
    {
      "inputs": [
        {
          "internalType": "uint256",
          "name": "ipTokenId",
          "type": "uint256"
        },
        {
          "internalType": "string",
          "name": "aiReason",
          "type": "string"
        }
      ],
      "name": "flagContentForReview",
      "outputs": [
        {
          "internalType": "uint256",
          "name": "",
          "type": "uint256"
        }
      ],
      "stateMutability": "nonpayable",
      "type": "function"
    },
    {
      "inputs": [
        {
          "internalType": "uint256",
          "name": "disputeId",
          "type": "uint256"
        }
      ],
      "name": "getDispute",
      "outputs": [
        {
          "internalType": "uint256",
          "name": "ipTokenId",
          "type": "uint256"
        },
        {
          "internalType": "address",
          "name": "reporter",
          "type": "address"
        },
        {
          "internalType": "string",
          "name": "reason",
          "type": "string"
        },
        {
          "internalType": "uint256",
          "name": "timestamp",
          "type": "uint256"
        },
        {
          "internalType": "bool",
          "name": "resolved",
          "type": "bool"
        },
        {
          "internalType": "uint256",
          "name": "totalVotes",
          "type": "uint256"
        }
      ],
      "stateMutability": "view",
      "type": "function"
    },
    {
      "inputs": [
        {
          "internalType": "uint256",
          "name": "ipTokenId",
          "type": "uint256"
        }
      ],
      "name": "getDisputesForIP",
      "outputs": [
        {
          "internalType": "uint256[]",
          "name": "",
          "type": "uint256[]"
        }
      ],
      "stateMutability": "view",
      "type": "function"
    },
    {
      "inputs": [
        {
          "internalType": "uint256",
          "name": "disputeId",
          "type": "uint256"
        },
        {
          "internalType": "address",
          "name": "user",
          "type": "address"
        }
      ],
      "name": "getUserVote",
      "outputs": [
        {
          "internalType": "bool",
          "name": "",
          "type": "bool"
        }
      ],
      "stateMutability": "view",
      "type": "function"
    },
    {
      "inputs": [
        {
          "internalType": "uint256",
          "name": "ipTokenId",
          "type": "uint256"
        }
      ],
      "name": "hasActiveDisputes",
      "outputs": [
        {
          "internalType": "bool",
          "name": "",
          "type": "bool"
        }
      ],
      "stateMutability": "view",
      "type": "function"
    },
    {
      "inputs": [
        {
          "internalType": "uint256",
          "name": "disputeId",
          "type": "uint256"
        },
        {
          "internalType": "address",
          "name": "user",
          "type": "address"
        }
      ],
      "name": "hasVoted",
      "outputs": [
        {
          "internalType": "bool",
          "name": "",
          "type": "bool"
        }
      ],
      "stateMutability": "view",
      "type": "function"
    },
    {
      "inputs": [
        {
          "internalType": "address",
          "name": "spender",
          "type": "address"
        },
        {
          "internalType": "uint256",
          "name": "addedValue",
          "type": "uint256"
        }
      ],
      "name": "increaseAllowance",
      "outputs": [
        {
          "internalType": "bool",
          "name": "",
          "type": "bool"
        }
      ],
      "stateMutability": "nonpayable",
      "type": "function"
    },
    {
      "inputs": [
        {
          "internalType": "uint256",
          "name": "",
          "type": "uint256"
        }
      ],
      "name": "ipRevoked",
      "outputs": [
        {
          "internalType": "bool",
          "name": "",
          "type": "bool"
        }
      ],
      "stateMutability": "view",
      "type": "function"
    },
    {
      "inputs": [
        {
          "internalType": "uint256",
          "name": "",
          "type": "uint256"
        },
        {
          "internalType": "uint256",
          "name": "",
          "type": "uint256"
        }
      ],
      "name": "ipToDisputes",
      "outputs": [
        {
          "internalType": "uint256",
          "name": "",
          "type": "uint256"
        }
      ],
      "stateMutability": "view",
      "type": "function"
    },
    {
      "inputs": [],
      "name": "ipnft",
      "outputs": [
        {
          "internalType": "contract IPNFT",
          "name": "",
          "type": "address"
        }
      ],
      "stateMutability": "view",
      "type": "function"
    },
    {
      "inputs": [],
      "name": "mintGovernanceTokens",
      "outputs": [],
      "stateMutability": "payable",
      "type": "function"
    },
    {
      "inputs": [],
      "name": "name",
      "outputs": [
        {
          "internalType": "string",
          "name": "",
          "type": "string"
        }
      ],
      "stateMutability": "view",
      "type": "function"
    },
    {
      "inputs": [],
      "name": "owner",
      "outputs": [
        {
          "internalType": "address",
          "name": "",
          "type": "address"
        }
      ],
      "stateMutability": "view",
      "type": "function"
    },
    {
      "inputs": [],
      "name": "renounceOwnership",
      "outputs": [],
      "stateMutability": "nonpayable",
      "type": "function"
    },
    {
      "inputs": [
        {
          "internalType": "uint256",
          "name": "disputeId",
          "type": "uint256"
        }
      ],
      "name": "resolveDispute",
      "outputs": [],
      "stateMutability": "nonpayable",
      "type": "function"
    },
    {
      "inputs": [
        {
          "internalType": "address",
          "name": "ipnftAddress",
          "type": "address"
        }
      ],
      "name": "setIPNFT",
      "outputs": [],
      "stateMutability": "nonpayable",
      "type": "function"
    },
    {
      "inputs": [],
      "name": "symbol",
      "outputs": [
        {
          "internalType": "string",
          "name": "",
          "type": "string"
        }
      ],
      "stateMutability": "view",
      "type": "function"
    },
    {
      "inputs": [],
      "name": "totalSupply",
      "outputs": [
        {
          "internalType": "uint256",
          "name": "",
          "type": "uint256"
        }
      ],
      "stateMutability": "view",
      "type": "function"
    },
    {
      "inputs": [
        {
          "internalType": "address",
          "name": "to",
          "type": "address"
        },
        {
          "internalType": "uint256",
          "name": "amount",
          "type": "uint256"
        }
      ],
      "name": "transfer",
      "outputs": [
        {
          "internalType": "bool",
          "name": "",
          "type": "bool"
        }
      ],
      "stateMutability": "nonpayable",
      "type": "function"
    },
    {
      "inputs": [
        {
          "internalType": "address",
          "name": "from",
          "type": "address"
        },
        {
          "internalType": "address",
          "name": "to",
          "type": "address"
        },
        {
          "internalType": "uint256",
          "name": "amount",
          "type": "uint256"
        }
      ],
      "name": "transferFrom",
      "outputs": [
        {
          "internalType": "bool",
          "name": "",
          "type": "bool"
        }
      ],
      "stateMutability": "nonpayable",
      "type": "function"
    },
    {
      "inputs": [
        {
          "internalType": "address",
          "name": "newOwner",
          "type": "address"
        }
      ],
      "name": "transferOwnership",
      "outputs": [],
      "stateMutability": "nonpayable",
      "type": "function"
    },
    {
      "inputs": [
        {
          "internalType": "uint256",
          "name": "disputeId",
          "type": "uint256"
        },
        {
          "internalType": "bool",
          "name": "voteForRemoval",
          "type": "bool"
        }
      ],
      "name": "voteOnDispute",
      "outputs": [],
      "stateMutability": "nonpayable",
      "type": "function"
    },
    {
      "inputs": [],
      "name": "withdrawFees",
      "outputs": [],
      "stateMutability": "nonpayable",
      "type": "function"
    }
  ],
  "bytecode": "0x60806040523461037957604080519081016001600160401b03811182821017610284576040908152601082526f446573636920476f7665726e616e636560801b602083015280519081016001600160401b03811182821017610284576040526005815264444553434960d81b602082015281516001600160401b03811161028457600354600181811c9116801561036f575b602082101461026457601f811161030a575b50602092601f82116001146102a5579281929360009261029a575b50508160011b916000199060031b1c1916176003555b80516001600160401b03811161028457600454600181811c9116801561027a575b602082101461026457601f81116101ff575b50602091601f821160011461019b57918192600092610190575b50508160011b916000199060031b1c1916176004555b60058054336001600160a01b03198216811790925560405191906001600160a01b03167f8be0079c531659141344cd1fd0a4f28419497f9722a3daafe3b4186f6b6457e0600080a36001600655611caf908161037f8239f35b015190503880610121565b601f198216926004600052806000209160005b8581106101e7575083600195106101ce575b505050811b01600455610137565b015160001960f88460031b161c191690553880806101c0565b919260206001819286850151815501940192016101ae565b60046000527f8a35acfbc15ff81a39ae7d344fd709f28e8600b4aa8c65c6b64bfe7fe36bd19b601f830160051c8101916020841061025a575b601f0160051c01905b81811061024e5750610107565b60008155600101610241565b9091508190610238565b634e487b7160e01b600052602260045260246000fd5b90607f16906100f5565b634e487b7160e01b600052604160045260246000fd5b0151905038806100be565b601f198216936003600052806000209160005b8681106102f257508360019596106102d9575b505050811b016003556100d4565b015160001960f88460031b161c191690553880806102cb565b919260206001819286850151815501940192016102b8565b60036000527fc2575a0e9e593c00f959f8c92f12db2869c3395a3b0502d05e2516446f71f85b601f830160051c81019160208410610365575b601f0160051c01905b81811061035957506100a3565b6000815560010161034c565b9091508190610343565b90607f1690610091565b600080fdfe6080604052600436101561001257600080fd5b60003560e01c806303c7881a1461146957806306fdde03146113c1578063095ea7b31461139b57806316a0425e1461137357806318160ddd1461135557806323b872dd14611297578063313ce5671461127b578063338ac5811461107957806339509351146110275780634385963214610fd7578063476343ee14610ee75780634c31b63814610eb657806355ffbe0414610e8d578063564a565d14610de257806370a0823114610da8578063715018a614610d4b578063805a814214610d275780638da5cb5b14610cfe57806395d89b4114610c195780639c32c447146109f3578063a457c2d71461094c578063a4f5df1214610781578063a9059cbb14610750578063add1e0d314610532578063b0937baa146104b3578063c002d23d14610490578063c2b7b86814610418578063d08d6a48146103d0578063dd62ed3e1461037f578063e3a96cbd146102f5578063e499c043146102495763f2fde38b1461017c57600080fd5b3461024457602036600319011261024457610195611537565b61019d611aec565b6001600160a01b031680156101f057600580546001600160a01b0319811683179091556001600160a01b03167f8be0079c531659141344cd1fd0a4f28419497f9722a3daafe3b4186f6b6457e0600080a3005b60405162461bcd60e51b815260206004820152602660248201527f4f776e61626c653a206e6577206f776e657220697320746865207a65726f206160448201526564647265737360d01b6064820152608490fd5b600080fd5b3461024457602036600319011261024457600435600052600960205260406000206040518060208354918281520190819360005260206000209060005b8181106102df575050508161029c9103826115c8565b6040519182916020830190602084525180915260408301919060005b8181106102c6575050500390f35b82518452859450602093840193909201916001016102b8565b8254845260209093019260019283019201610286565b346102445760203660031901126102445760043560005260086020526040600020600181015460018060a01b036002830154169160048101549060ff60058201541661036961034b6003600685015494016115ea565b6040519687968752602087015260c0604087015260c086019061154d565b9260608501521515608084015260a08301520390f35b3461024457604036600319011261024457610398611537565b6103a0611521565b6001600160a01b039182166000908152600160209081526040808320949093168252928352819020549051908152f35b346102445760403660031901126102445760243560043560005260096020526040600020805482101561024457602091610409916116e2565b90549060031b1c604051908152f35b3461024457602036600319011261024457600435610434611aec565b80600052600860205260ff600560406000200154166104585761045690611b44565b005b60405162461bcd60e51b815260206004820152601060248201526f105b1c9958591e481c995cdbdb1d995960821b6044820152606490fd5b3461024457600036600319011261024457602060405167016345785d8a00008152f35b34610244576020366003190112610244576104cc611537565b6104d4611aec565b6001600160a01b03168015610500576bffffffffffffffffffffffff60a01b600b541617600b55600080f35b60405162461bcd60e51b815260206004820152600a60248201526969706e6674207a65726f60b01b6044820152606490fd5b34610244576105403661168e565b919061054a611aec565b6007805460019081019182905560008281526008602052604090208281559081018490556002810180546001600160a01b031916905590929060030167ffffffffffffffff851161073a5761059f815461158e565b601f81116106f2575b5060209484916000601f831160011461067a57948291600080516020611c5a83398151915293600097889161066f575b508360011b9088198560031b1c19161790555b83865260088852426004604088200155838652600888526005604087200160ff198154169055838652600888528560066040822001558386526008885285600760408220015583865260088852856008604082200155848652600988526106558460408820611803565b6106646040519283928361183d565b0390a4604051908152f35b90508201358a6105d8565b9490601f19831681875288872090875b8181106106d857509060009785600080516020611c5a83398151915296959493106106bf575b5050600183811b0190556105eb565b881960f88660031b161c199084013516905589806106b0565b848901358355978a01978996506001909201918a0161068a565b816000526020600020601f870160051c81019160208810610730575b601f0160051c01905b81811061072457506105a8565b60008155600101610717565b909150819061070e565b634e487b7160e01b600052604160045260246000fd5b346102445760403660031901126102445761077661076c611537565b602435903361196d565b602060405160018152f35b346102445760403660031901126102445760043560243580151581036102445781600052600860205260406000209060ff6005830154166109075733600090815260098301602081905260409091205460ff166108d2577fcbdf6214089cba887ecbf35a0b6a734589959c9763342c756bb2a80ca2bc9f6e6108a2859233600052600060205261082168056bc75e2d6310000060406000205410156117b7565b33600090815260208181526040808320549382528083208054600160ff1991821617909155600a8a01909252909120805490911660ff87151516179055600686019561086e8288546117aa565b875585156108bd576007016108848282546117aa565b90555b60408051951515865260208601919091523394918291820190565b0390a35460025460011c11156108b457005b61045690611b44565b6008016108cb8282546117aa565b9055610887565b60405162461bcd60e51b815260206004820152600d60248201526c105b1c9958591e481d9bdd1959609a1b6044820152606490fd5b60405162461bcd60e51b815260206004820152601860248201527f4469737075746520616c7265616479207265736f6c76656400000000000000006044820152606490fd5b3461024457604036600319011261024457610965611537565b60243590336000526001602052604060002060018060a01b038216600052602052604060002054918083106109a05761077692039033611865565b60405162461bcd60e51b815260206004820152602560248201527f45524332303a2064656372656173656420616c6c6f77616e63652062656c6f77604482015264207a65726f60d81b6064820152608490fd5b3461024457610a013661168e565b9190336000526000602052610a2668056bc75e2d6310000060406000205410156117b7565b6007805460019081019182905560008281526008602052604090208281559081018490556002810180546001600160a01b0319163317905590929060030167ffffffffffffffff851161073a57610a7d815461158e565b601f8111610bd1575b5060209484916000601f8311600114610b5a57916106649181600080516020611c5a83398151915294600091610b4f575b508260011b906000198460031b1c19161790555b8360005260088852426004604060002001558360005260088852600560406000200160ff1981541690558360005260088852600060066040822001558360005260088852600060076040822001558360005260088852600060086040822001558460005260098852610b41846040600020611803565b60405191829133978361183d565b90508701358a610ab7565b81815287812090601f198416815b818110610bb7575091610664939185600080516020611c5a833981519152969410610b9d575b5050600182811b019055610acb565b880135600019600385901b60f8161c191690558980610b8e565b888301358455899650600190930192918a01918a01610b68565b816000526020600020601f870160051c81019160208810610c0f575b601f0160051c01905b818110610c035750610a86565b60008155600101610bf6565b9091508190610bed565b34610244576000366003190112610244576040516000600454610c3b8161158e565b8084529060018116908115610cda5750600114610c7b575b610c7783610c63818503826115c8565b60405191829160208352602083019061154d565b0390f35b600460009081527f8a35acfbc15ff81a39ae7d344fd709f28e8600b4aa8c65c6b64bfe7fe36bd19b939250905b808210610cc057509091508101602001610c63610c53565b919260018160209254838588010152019101909291610ca8565b60ff191660208086019190915291151560051b84019091019150610c639050610c53565b34610244576000366003190112610244576005546040516001600160a01b039091168152602090f35b3461024457600036600319011261024457602060405168056bc75e2d631000008152f35b3461024457600036600319011261024457610d64611aec565b600580546001600160a01b031981169091556000906001600160a01b03167f8be0079c531659141344cd1fd0a4f28419497f9722a3daafe3b4186f6b6457e08280a3005b34610244576020366003190112610244576001600160a01b03610dc9611537565b1660005260006020526020604060002054604051908152f35b346102445760203660031901126102445760043560005260086020526040600020805460018201549160018060a01b03600282015416610e24600383016115ea565b9160048101549260ff600583015416610e6c6006840154926008600786015495015495604051998a998a5260208a01526040890152610120606089015261012088019061154d565b946080870152151560a086015260c085015260e08401526101008301520390f35b3461024457600036600319011261024457600b546040516001600160a01b039091168152602090f35b3461024457602036600319011261024457600435600052600a602052602060ff604060002054166040519015158152f35b3461024457600036600319011261024457610f00611aec565b478015610f9c576005546000918291829182916001600160a01b03165af13d15610f97573d67ffffffffffffffff811161073a5760405190610f4c601f8201601f1916602001836115c8565b8152600060203d92013e5b15610f5e57005b60405162461bcd60e51b815260206004820152601160248201527015da5d1a191c985dd85b0819985a5b1959607a1b6044820152606490fd5b610f57565b60405162461bcd60e51b81526020600482015260136024820152724e6f206665657320746f20776974686472617760681b6044820152606490fd5b3461024457604036600319011261024457610ff0611521565b600435600052600860205260096040600020019060018060a01b0316600052602052602060ff604060002054166040519015158152f35b3461024457604036600319011261024457610776611043611537565b336000526001602052604060002060018060a01b038216600052602052611072604060002060243590546117aa565b9033611865565b60003660031901126102445760026006541461123657600260065567016345785d8a000034036111f15734156111b95733156111745760025468056bc75e2d63100000810180911161115e57600255336000526000602052604060002068056bc75e2d63100000815401905560405168056bc75e2d63100000815260007fddf252ad1be2c89b69c2b068fc378daa952ba7f163c4a11628f55a4df523b3ef60203393a360405168056bc75e2d6310000081523460208201527f20aacaf9ce65922d5ffa1e3bfbf4959e5795c145aaf02cf7b09d7f2d7c99350960403392a26001600655005b634e487b7160e01b600052601160045260246000fd5b60405162461bcd60e51b815260206004820152601f60248201527f45524332303a206d696e7420746f20746865207a65726f2061646472657373006044820152606490fd5b60405162461bcd60e51b815260206004820152601060248201526f14185e5b595b9d081c995c5d5a5c995960821b6044820152606490fd5b60405162461bcd60e51b815260206004820152601860248201527f496e636f7272656374207061796d656e7420616d6f756e7400000000000000006044820152606490fd5b60405162461bcd60e51b815260206004820152601f60248201527f5265656e7472616e637947756172643a207265656e7472616e742063616c6c006044820152606490fd5b3461024457600036600319011261024457602060405160128152f35b34610244576060366003190112610244576112b0611537565b6112b8611521565b6001600160a01b03821660009081526001602081815260408084203385529091529091205492604435929184016112f4575b610776935061196d565b8284106113105761130b8361077695033383611865565b6112ea565b60405162461bcd60e51b815260206004820152601d60248201527f45524332303a20696e73756666696369656e7420616c6c6f77616e63650000006044820152606490fd5b34610244576000366003190112610244576020600254604051908152f35b34610244576020366003190112610244576020611391600435611710565b6040519015158152f35b34610244576040366003190112610244576107766113b7611537565b6024359033611865565b346102445760003660031901126102445760405160006003546113e38161158e565b8084529060018116908115610cda575060011461140a57610c7783610c63818503826115c8565b600360009081527fc2575a0e9e593c00f959f8c92f12db2869c3395a3b0502d05e2516446f71f85b939250905b80821061144f57509091508101602001610c63610c53565b919260018160209254838588010152019101909291611437565b3461024457604036600319011261024457600435611485611521565b90806000526008602052600960406000200160018060a01b03831660005260205260ff60406000205416156114e8576000526008602052600a6040600020019060018060a01b0316600052602052602060ff604060002054166040519015158152f35b60405162461bcd60e51b8152602060048201526011602482015270155cd95c881a185cdb89dd081d9bdd1959607a1b6044820152606490fd5b602435906001600160a01b038216820361024457565b600435906001600160a01b038216820361024457565b919082519283825260005b848110611579575050826000602080949584010152601f8019910116010190565b80602080928401015182828601015201611558565b90600182811c921680156115be575b60208310146115a857565b634e487b7160e01b600052602260045260246000fd5b91607f169161159d565b90601f8019910116810190811067ffffffffffffffff82111761073a57604052565b90604051918260008254926115fe8461158e565b808452936001811690811561166c5750600114611625575b50611623925003836115c8565b565b90506000929192526020600020906000915b8183106116505750509060206116239282010138611616565b6020919350806001915483858901015201910190918492611637565b90506020925061162394915060ff191682840152151560051b82010138611616565b6040600319820112610244576004359160243567ffffffffffffffff811161024457826023820112156102445780600401359267ffffffffffffffff84116102445760248483010111610244576024019190565b80548210156116fa5760005260206000200190600090565b634e487b7160e01b600052603260045260246000fd5b600052600960205260406000206040518082602082945493848152019060005260206000209260005b81811061179157505061174e925003826115c8565b60005b815181101561178a5760ff600560406000602085841b8701015181526008602052200154161561178357600101611751565b5050600190565b5050600090565b8454835260019485019486945060209093019201611739565b9190820180921161115e57565b156117be57565b60405162461bcd60e51b815260206004820152601960248201527f496e73756666696369656e7420766f74696e6720706f776572000000000000006044820152606490fd5b80546801000000000000000081101561073a57611825916001820181556116e2565b819291549060031b91821b91600019901b1916179055565b90918060409360208452816020850152848401376000828201840152601f01601f1916010190565b6001600160a01b031690811561191c576001600160a01b03169182156118cc5760207f8c5be1e5ebec7d5bd14f71427d1e84f3dd0314c0f7b2291e5b200ac8c7c3b925918360005260018252604060002085600052825280604060002055604051908152a3565b60405162461bcd60e51b815260206004820152602260248201527f45524332303a20617070726f766520746f20746865207a65726f206164647265604482015261737360f01b6064820152608490fd5b60405162461bcd60e51b8152602060048201526024808201527f45524332303a20617070726f76652066726f6d20746865207a65726f206164646044820152637265737360e01b6064820152608490fd5b6001600160a01b0316908115611a99576001600160a01b0316918215611a48578160005260006020526040600020548181106119f457817fddf252ad1be2c89b69c2b068fc378daa952ba7f163c4a11628f55a4df523b3ef9260209285600052600084520360406000205584600052600082526040600020818154019055604051908152a3565b60405162461bcd60e51b815260206004820152602660248201527f45524332303a207472616e7366657220616d6f756e7420657863656564732062604482015265616c616e636560d01b6064820152608490fd5b60405162461bcd60e51b815260206004820152602360248201527f45524332303a207472616e7366657220746f20746865207a65726f206164647260448201526265737360e81b6064820152608490fd5b60405162461bcd60e51b815260206004820152602560248201527f45524332303a207472616e736665722066726f6d20746865207a65726f206164604482015264647265737360d81b6064820152608490fd5b6005546001600160a01b03163303611b0057565b606460405162461bcd60e51b815260206004820152602060248201527f4f776e61626c653a2063616c6c6572206973206e6f7420746865206f776e65726044820152fd5b600081815260086020526040812060058101600160ff198254161790556007810154600882015410916001820180548252600a602052611b9384604084209060ff801983541691151516179055565b600b546001600160a01b03169081611be3575b5050506006015460408051921515835260208301919091527f5add0b1fc2a3dfd95be33d1d5feb6709087e50213b7a73c3c3b2c387001221e791a2565b54813b15611c55579180807f5add0b1fc2a3dfd95be33d1d5feb6709087e50213b7a73c3c3b2c387001221e796959360446006966040519485938492636d9131ab60e11b845260048401528a60248401525af1611c45575b5081939450611ba6565b81611c4f916115c8565b38611c3b565b8280fdfe187cf2180cf205abb3a86a43c8a0e9e92ffdc0d1029d2982b525b335a50efe51a264697066735822122098eb7ef700e12091dacc8d725785eb8390c38b4913276ff4ea5607b31a500cbe64736f6c634300081c0033",
  "linkReferences": {},
  "deployedLinkReferences": {}
}