{
  "_format": "hh-sol-artifact-1",
  "contractName": "LicenseNFT",
  "sourceName": "contracts/LicenseNFT.sol",
  "abi": [
    {
      "inputs": [
        {
          "internalType": "address",
          "name": "_ipContract",
          "type": "address"
        },
        {
          "internalType": "string",
          "name": "name_",
          "type": "string"
        },
        {
          "internalType": "string",
          "name": "symbol_",
          "type": "string"
        }
      ],
      "stateMutability": "nonpayable",
      "type": "constructor"
    },
    {
      "anonymous": false,
      "inputs": [
        {
          "indexed": true,
          "internalType": "address",
          "name": "owner",
          "type": "address"
        },
        {
          "indexed": true,
          "internalType": "address",
          "name": "approved",
          "type": "address"
        },
        {
          "indexed": true,
          "internalType": "uint256",
          "name": "tokenId",
          "type": "uint256"
        }
      ],
      "name": "Approval",
      "type": "event"
    },
    {
      "anonymous": false,
      "inputs": [
        {
          "indexed": true,
          "internalType": "address",
          "name": "owner",
          "type": "address"
        },
        {
          "indexed": true,
          "internalType": "address",
          "name": "operator",
          "type": "address"
        },
        {
          "indexed": false,
          "internalType": "bool",
          "name": "approved",
          "type": "bool"
        }
      ],
      "name": "ApprovalForAll",
      "type": "event"
    },
    {
      "anonymous": false,
      "inputs": [
        {
          "indexed": false,
          "internalType": "uint256",
          "name": "_fromTokenId",
          "type": "uint256"
        },
        {
          "indexed": false,
          "internalType": "uint256",
          "name": "_toTokenId",
          "type": "uint256"
        }
      ],
      "name": "BatchMetadataUpdate",
      "type": "event"
    },
    {
      "anonymous": false,
      "inputs": [
        {
          "indexed": true,
          "internalType": "uint256",
          "name": "ipTokenId",
          "type": "uint256"
        },
        {
          "indexed": true,
          "internalType": "uint256",
          "name": "offerIndex",
          "type": "uint256"
        },
        {
          "indexed": true,
          "internalType": "address",
          "name": "ipOwner",
          "type": "address"
        },
        {
          "indexed": false,
          "internalType": "uint256",
          "name": "priceWei",
          "type": "uint256"
        },
        {
          "indexed": false,
          "internalType": "string",
          "name": "licenseURI",
          "type": "string"
        },
        {
          "indexed": false,
          "internalType": "uint64",
          "name": "expiry",
          "type": "uint64"
        }
      ],
      "name": "LicenseOfferCreated",
      "type": "event"
    },
    {
      "anonymous": false,
      "inputs": [
        {
          "indexed": true,
          "internalType": "uint256",
          "name": "ipTokenId",
          "type": "uint256"
        },
        {
          "indexed": true,
          "internalType": "uint256",
          "name": "licenseTokenId",
          "type": "uint256"
        },
        {
          "indexed": true,
          "internalType": "address",
          "name": "buyer",
          "type": "address"
        },
        {
          "indexed": false,
          "internalType": "uint256",
          "name": "offerIndex",
          "type": "uint256"
        },
        {
          "indexed": false,
          "internalType": "uint256",
          "name": "priceWei",
          "type": "uint256"
        }
      ],
      "name": "LicensePurchased",
      "type": "event"
    },
    {
      "anonymous": false,
      "inputs": [
        {
          "indexed": false,
          "internalType": "uint256",
          "name": "_tokenId",
          "type": "uint256"
        }
      ],
      "name": "MetadataUpdate",
      "type": "event"
    },
    {
      "anonymous": false,
      "inputs": [
        {
          "indexed": true,
          "internalType": "address",
          "name": "previousOwner",
          "type": "address"
        },
        {
          "indexed": true,
          "internalType": "address",
          "name": "newOwner",
          "type": "address"
        }
      ],
      "name": "OwnershipTransferred",
      "type": "event"
    },
    {
      "anonymous": false,
      "inputs": [
        {
          "indexed": true,
          "internalType": "address",
          "name": "from",
          "type": "address"
        },
        {
          "indexed": true,
          "internalType": "address",
          "name": "to",
          "type": "address"
        },
        {
          "indexed": true,
          "internalType": "uint256",
          "name": "tokenId",
          "type": "uint256"
        }
      ],
      "name": "Transfer",
      "type": "event"
    },
    {
      "inputs": [
        {
          "internalType": "address",
          "name": "to",
          "type": "address"
        },
        {
          "internalType": "uint256",
          "name": "tokenId",
          "type": "uint256"
        }
      ],
      "name": "approve",
      "outputs": [],
      "stateMutability": "nonpayable",
      "type": "function"
    },
    {
      "inputs": [
        {
          "internalType": "address",
          "name": "owner",
          "type": "address"
        }
      ],
      "name": "balanceOf",
      "outputs": [
        {
          "internalType": "uint256",
          "name": "",
          "type": "uint256"
        }
      ],
      "stateMutability": "view",
      "type": "function"
    },
    {
      "inputs": [
        {
          "internalType": "uint256",
          "name": "ipTokenId",
          "type": "uint256"
        },
        {
          "internalType": "uint256",
          "name": "offerIndex",
          "type": "uint256"
        }
      ],
      "name": "buyLicense",
      "outputs": [
        {
          "internalType": "uint256",
          "name": "",
          "type": "uint256"
        }
      ],
      "stateMutability": "payable",
      "type": "function"
    },
    {
      "inputs": [
        {
          "internalType": "uint256",
          "name": "ipTokenId",
          "type": "uint256"
        },
        {
          "internalType": "uint256",
          "name": "priceWei",
          "type": "uint256"
        },
        {
          "internalType": "string",
          "name": "licenseURI",
          "type": "string"
        },
        {
          "internalType": "uint64",
          "name": "expiry",
          "type": "uint64"
        }
      ],
      "name": "createLicenseOffer",
      "outputs": [
        {
          "internalType": "uint256",
          "name": "",
          "type": "uint256"
        }
      ],
      "stateMutability": "nonpayable",
      "type": "function"
    },
    {
      "inputs": [
        {
          "internalType": "uint256",
          "name": "ipTokenId",
          "type": "uint256"
        },
        {
          "internalType": "uint256",
          "name": "offerIndex",
          "type": "uint256"
        }
      ],
      "name": "deactivateOffer",
      "outputs": [],
      "stateMutability": "nonpayable",
      "type": "function"
    },
    {
      "inputs": [
        {
          "internalType": "uint256",
          "name": "tokenId",
          "type": "uint256"
        }
      ],
      "name": "getApproved",
      "outputs": [
        {
          "internalType": "address",
          "name": "",
          "type": "address"
        }
      ],
      "stateMutability": "view",
      "type": "function"
    },
    {
      "inputs": [
        {
          "internalType": "uint256",
          "name": "ipTokenId",
          "type": "uint256"
        }
      ],
      "name": "getOfferCount",
      "outputs": [
        {
          "internalType": "uint256",
          "name": "",
          "type": "uint256"
        }
      ],
      "stateMutability": "view",
      "type": "function"
    },
    {
      "inputs": [],
      "name": "ipContract",
      "outputs": [
        {
          "internalType": "contract IPNFT",
          "name": "",
          "type": "address"
        }
      ],
      "stateMutability": "view",
      "type": "function"
    },
    {
      "inputs": [
        {
          "internalType": "address",
          "name": "owner",
          "type": "address"
        },
        {
          "internalType": "address",
          "name": "operator",
          "type": "address"
        }
      ],
      "name": "isApprovedForAll",
      "outputs": [
        {
          "internalType": "bool",
          "name": "",
          "type": "bool"
        }
      ],
      "stateMutability": "view",
      "type": "function"
    },
    {
      "inputs": [
        {
          "internalType": "uint256",
          "name": "",
          "type": "uint256"
        },
        {
          "internalType": "uint256",
          "name": "",
          "type": "uint256"
        }
      ],
      "name": "licenseOffersByIp",
      "outputs": [
        {
          "internalType": "uint256",
          "name": "offerId",
          "type": "uint256"
        },
        {
          "internalType": "uint256",
          "name": "ipTokenId",
          "type": "uint256"
        },
        {
          "internalType": "address",
          "name": "ipOwner",
          "type": "address"
        },
        {
          "internalType": "uint256",
          "name": "priceWei",
          "type": "uint256"
        },
        {
          "internalType": "string",
          "name": "licenseURI",
          "type": "string"
        },
        {
          "internalType": "uint64",
          "name": "expiry",
          "type": "uint64"
        },
        {
          "internalType": "bool",
          "name": "active",
          "type": "bool"
        }
      ],
      "stateMutability": "view",
      "type": "function"
    },
    {
      "inputs": [],
      "name": "name",
      "outputs": [
        {
          "internalType": "string",
          "name": "",
          "type": "string"
        }
      ],
      "stateMutability": "view",
      "type": "function"
    },
    {
      "inputs": [],
      "name": "owner",
      "outputs": [
        {
          "internalType": "address",
          "name": "",
          "type": "address"
        }
      ],
      "stateMutability": "view",
      "type": "function"
    },
    {
      "inputs": [
        {
          "internalType": "uint256",
          "name": "tokenId",
          "type": "uint256"
        }
      ],
      "name": "ownerOf",
      "outputs": [
        {
          "internalType": "address",
          "name": "",
          "type": "address"
        }
      ],
      "stateMutability": "view",
      "type": "function"
    },
    {
      "inputs": [],
      "name": "renounceOwnership",
      "outputs": [],
      "stateMutability": "nonpayable",
      "type": "function"
    },
    {
      "inputs": [
        {
          "internalType": "address",
          "name": "from",
          "type": "address"
        },
        {
          "internalType": "address",
          "name": "to",
          "type": "address"
        },
        {
          "internalType": "uint256",
          "name": "tokenId",
          "type": "uint256"
        }
      ],
      "name": "safeTransferFrom",
      "outputs": [],
      "stateMutability": "nonpayable",
      "type": "function"
    },
    {
      "inputs": [
        {
          "internalType": "address",
          "name": "from",
          "type": "address"
        },
        {
          "internalType": "address",
          "name": "to",
          "type": "address"
        },
        {
          "internalType": "uint256",
          "name": "tokenId",
          "type": "uint256"
        },
        {
          "internalType": "bytes",
          "name": "data",
          "type": "bytes"
        }
      ],
      "name": "safeTransferFrom",
      "outputs": [],
      "stateMutability": "nonpayable",
      "type": "function"
    },
    {
      "inputs": [
        {
          "internalType": "address",
          "name": "operator",
          "type": "address"
        },
        {
          "internalType": "bool",
          "name": "approved",
          "type": "bool"
        }
      ],
      "name": "setApprovalForAll",
      "outputs": [],
      "stateMutability": "nonpayable",
      "type": "function"
    },
    {
      "inputs": [
        {
          "internalType": "bytes4",
          "name": "interfaceId",
          "type": "bytes4"
        }
      ],
      "name": "supportsInterface",
      "outputs": [
        {
          "internalType": "bool",
          "name": "",
          "type": "bool"
        }
      ],
      "stateMutability": "view",
      "type": "function"
    },
    {
      "inputs": [],
      "name": "symbol",
      "outputs": [
        {
          "internalType": "string",
          "name": "",
          "type": "string"
        }
      ],
      "stateMutability": "view",
      "type": "function"
    },
    {
      "inputs": [
        {
          "internalType": "uint256",
          "name": "tokenId",
          "type": "uint256"
        }
      ],
      "name": "tokenURI",
      "outputs": [
        {
          "internalType": "string",
          "name": "",
          "type": "string"
        }
      ],
      "stateMutability": "view",
      "type": "function"
    },
    {
      "inputs": [
        {
          "internalType": "address",
          "name": "from",
          "type": "address"
        },
        {
          "internalType": "address",
          "name": "to",
          "type": "address"
        },
        {
          "internalType": "uint256",
          "name": "tokenId",
          "type": "uint256"
        }
      ],
      "name": "transferFrom",
      "outputs": [],
      "stateMutability": "nonpayable",
      "type": "function"
    },
    {
      "inputs": [
        {
          "internalType": "address",
          "name": "newOwner",
          "type": "address"
        }
      ],
      "name": "transferOwnership",
      "outputs": [],
      "stateMutability": "nonpayable",
      "type": "function"
    }
  ],
  "bytecode": "0x6080604052346103dd5761229b80380380610019816103e2565b9283398101906060818303126103dd5780516001600160a01b03811691908290036103dd5760208101516001600160401b0381116103dd578361005d918301610407565b60408201519093906001600160401b0381116103dd5761007d9201610407565b82519091906001600160401b0381116102e857600054600181811c911680156103d3575b60208210146102c857601f811161036f575b506020601f821160011461030957819293946000926102fe575b50508160011b916000199060031b1c1916176000555b81516001600160401b0381116102e857600154600181811c911680156102de575b60208210146102c857601f8111610263575b50602092601f82116001146101fe57928192936000926101f3575b50508160011b916000199060031b1c1916176001555b60078054336001600160a01b03198216811790925560405191906001600160a01b03167f8be0079c531659141344cd1fd0a4f28419497f9722a3daafe3b4186f6b6457e0600080a3600160085581156101be5750600a80546001600160a01b031916919091179055604051611e2890816104738239f35b62461bcd60e51b815260206004820152601060248201526f697020636f6e7472616374207a65726f60801b6044820152606490fd5b015190503880610131565b601f198216936001600052806000209160005b86811061024b5750836001959610610232575b505050811b01600155610147565b015160001960f88460031b161c19169055388080610224565b91926020600181928685015181550194019201610211565b60016000527fb10e2d527612073b26eecdfd717e6a320cf44b4afac2b0732d9fcbe2b7fa0cf6601f830160051c810191602084106102be575b601f0160051c01905b8181106102b25750610116565b600081556001016102a5565b909150819061029c565b634e487b7160e01b600052602260045260246000fd5b90607f1690610104565b634e487b7160e01b600052604160045260246000fd5b0151905038806100cd565b601f1982169060008052806000209160005b8181106103575750958360019596971061033e575b505050811b016000556100e3565b015160001960f88460031b161c19169055388080610330565b9192602060018192868b01518155019401920161031b565b600080527f290decd9548b62a8d60345a988386fc84ba6bc95484008f6362f93160ef3e563601f830160051c810191602084106103c9575b601f0160051c01905b8181106103bd57506100b3565b600081556001016103b0565b90915081906103a7565b90607f16906100a1565b600080fd5b6040519190601f01601f191682016001600160401b038111838210176102e857604052565b81601f820112156103dd578051906001600160401b0382116102e857610436601f8301601f19166020016103e2565b92828452602083830101116103dd5760005b82811061045d57505060206000918301015290565b8060208092840101518282870101520161044856fe608080604052600436101561001357600080fd5b60003560e01c90816301ffc9a7146114da5750806306fdde0314611435578063081812fc14611417578063095ea7b31461128e57806323b872dd1461126a57806342842e0e146112355780636352211e1461120557806370a082311461116e578063715018a61461111157806381ad298a146110e5578063887470c214610c5c5780638da5cb5b14610c335780638f21adea14610b8a57806395d89b4114610abd57806398d445351461048c5780639f6857ee146103f2578063a22cb46514610320578063b88d4fde14610299578063c87b56dd14610262578063e985e9c514610207578063edecce74146101de5763f2fde38b1461011157600080fd5b346101d95760203660031901126101d95761012a61159e565b610132611b40565b6001600160a01b0316801561018557600780546001600160a01b0319811683179091556001600160a01b03167f8be0079c531659141344cd1fd0a4f28419497f9722a3daafe3b4186f6b6457e0600080a3005b60405162461bcd60e51b815260206004820152602660248201527f4f776e61626c653a206e6577206f776e657220697320746865207a65726f206160448201526564647265737360d01b6064820152608490fd5b600080fd5b346101d95760003660031901126101d957600a546040516001600160a01b039091168152602090f35b346101d95760403660031901126101d95761022061159e565b6102286115b4565b9060018060a01b0316600052600560205260406000209060018060a01b0316600052602052602060ff604060002054166040519015158152f35b346101d95760203660031901126101d957610295610281600435611c0f565b60405191829160208352602083019061155f565b0390f35b346101d95760803660031901126101d9576102b261159e565b6102ba6115b4565b90606435906044356001600160401b0383116101d957366023840112156101d95761031e936102f6610319943690602481600401359101611766565b926103096103048433611935565b6117db565b610314838383611a08565b611d4d565b611beb565b005b346101d95760403660031901126101d95761033961159e565b602435908115158092036101d9576001600160a01b0316903382146103ad57336000526005602052604060002082600052602052604060002060ff1981541660ff83161790556040519081527f17307eab39ab6107e8899845ad3d59bd9653f200f220920489ca2b5937696c3160203392a3005b60405162461bcd60e51b815260206004820152601960248201527f4552433732313a20617070726f766520746f2063616c6c6572000000000000006044820152606490fd5b346101d95761042f61040336611604565b9080600052600b60205261041d60406000205483106118ce565b600052600b602052604060002061161a565b5060028101546001600160a01b0316330361045957600501805468ff000000000000000019169055005b60405162461bcd60e51b815260206004820152600b60248201526a3737ba1031b932b0ba37b960a91b6044820152606490fd5b61049536611604565b90600260085414610a7857600260085580600052600b6020526104be60406000205483106118ce565b80600052600b6020526104d582604060002061161a565b509160ff600584015460401c1615610a42576003830191825480156109fd5734106109c15760016009540192836009556020946040516105158782611686565b60008152331561097e576000868152600260205260409020546105cc916103199161054c906001600160a01b031615155b15611da6565b60008881526002602052604090205461056f906001600160a01b03161515610546565b33600081815260038b526040808220805460010190558a825260028c52812080546001600160a01b031916831790558991907fddf252ad1be2c89b69c2b068fc378daa952ba7f163c4a11628f55a4df523b3ef8180a48733611c5b565b6105d8600482016116a7565b6000868152600260205260409020546001600160a01b0316156109225785600052600687526040600020908051906001600160401b03821161090c578190610620845461164c565b601f81116108bb575b508990601f83116001146108565760009261084b575b50508160011b916000199060031b1c19161790555b7ff8e1a15aba9398e019f0b49df1a4fde98ee17ae345cb5f6b5e2c27f5033e8ce786604051878152a1856001808060a01b03600a541692015460246040518094819363f283f18b60e01b835260048301525afa90811561083f57600091610812575b506001600160a01b031680156107df576000808080938554905af16106d9611905565b50156107a357908184925480341161072b575b5054604051938452858401527fb680148ecb0e81d069b84c46997f5068f9c0830073a78c40885800e5ec17eb3560403394a46001600855604051908152f35b90919250340334811161078d57600080808093335af1610749611905565b501561075857908391866106ec565b60405162461bcd60e51b815260048101869052600d60248201526c1c99599d5b990819985a5b1959609a1b6044820152606490fd5b634e487b7160e01b600052601160045260246000fd5b60405162461bcd60e51b81526004810186905260146024820152736661696c656420666f72776172642066756e647360601b6044820152606490fd5b60405162461bcd60e51b815260048101879052600b60248201526a37379039b83634ba3a32b960a91b6044820152606490fd5b6108329150863d8811610838575b61082a8183611686565b8101906118af565b866106b6565b503d610820565b6040513d6000823e3d90fd5b01519050898061063f565b60008581528b81209350601f198516905b8c8282106108a557505090846001959493921061088c575b505050811b019055610654565b015160001960f88460031b161c1916905589808061087f565b6001859682939686015181550195019301610867565b9091508360005289600020601f840160051c8101918b8510610902575b90601f859493920160051c01905b8181106108f35750610629565b600081558493506001016108e6565b90915081906108d8565b634e487b7160e01b600052604160045260246000fd5b60405162461bcd60e51b815260048101889052602e60248201527f45524337323155524953746f726167653a2055524920736574206f66206e6f6e60448201526d32bc34b9ba32b73a103a37b5b2b760911b6064820152608490fd5b6064876040519062461bcd60e51b825280600483015260248201527f4552433732313a206d696e7420746f20746865207a65726f20616464726573736044820152fd5b60405162461bcd60e51b81526020600482015260146024820152731a5b9cdd59999a58da595b9d081c185e5b595b9d60621b6044820152606490fd5b60405162461bcd60e51b815260206004820152601860248201527f667265653f207573652061207265717565737420666c6f7700000000000000006044820152606490fd5b60405162461bcd60e51b815260206004820152600e60248201526d6f6666657220696e61637469766560901b6044820152606490fd5b60405162461bcd60e51b815260206004820152601f60248201527f5265656e7472616e637947756172643a207265656e7472616e742063616c6c006044820152606490fd5b346101d95760003660031901126101d9576040516000600154610adf8161164c565b8084529060018116908115610b665750600114610b07575b6102958361028181850382611686565b600160009081527fb10e2d527612073b26eecdfd717e6a320cf44b4afac2b0732d9fcbe2b7fa0cf6939250905b808210610b4c57509091508101602001610281610af7565b919260018160209254838588010152019101909291610b34565b60ff191660208086019190915291151560051b840190910191506102819050610af7565b346101d957610b9836611604565b90600052600b60205260406000209081548110156101d957610bb99161161a565b50805460018201549160ff610c1460018060a01b036002840154169260038101546005610be8600484016116a7565b92015494604051978897885260208801526040870152606086015260e0608086015260e085019061155f565b916001600160401b03811660a085015260401c16151560c08301520390f35b346101d95760003660031901126101d9576007546040516001600160a01b039091168152602090f35b346101d95760803660031901126101d9576044356004356024356001600160401b0383116101d957366023840112156101d95782600401356001600160401b0381116101d957602484019360248236920101116101d957606435926001600160401b0384168094036101d957600a5460405162bae1bd60e41b8152600481018390526001600160a01b0390911690602081602481855afa90811561083f576000916110a3575b5061106f576020602491604051928380926331a9108f60e11b82528660048301525afa90811561083f57600091611050575b50336001600160a01b039091160361101c576000818152600b602052604090819020805491519690959194919060e088016001600160401b0381118982101761090c57604052858852602088018481526040890198338a5260608101858152610d9e368986611766565b9a608083019b8c5260a083019386855260c084019b60018d5280546801000000000000000081101561090c57610dd99160018201815561161a565b94909461100657518455516001840155516002830180546001600160a01b0319166001600160a01b03929092169190911790555160038201559851805190999060048201906001600160401b03811161090c57610e36825461164c565b9b601f8d11610fbe575b60209c508c90601f8311600114610f20577fd720dd341aa44f11eb32f323415061236b9c6d795ded169e7c05b80b6e497f04989796948b9c9d9394858f9d98966001600160401b0395600595600092610f15575b50508160011b916000199060031b1c19161790555b019251166001600160401b031983541617825551151560ff60401b82549160401b169060ff60401b191617905560405193845260608a850152816060850152608084013760006080878401015260408201526080813396601f80199101168101030190a4604051908152f35b015190503880610e94565b90601f1983169184600052816000209260005b818110610fa657509460018e9f958e9f9e9997956005957fd720dd341aa44f11eb32f323415061236b9c6d795ded169e7c05b80b6e497f049e9d9c9a95836001600160401b039910610f8d575b505050811b019055610ea9565b015160001960f88460031b161c19169055388080610f80565b92936020600181928786015181550195019301610f33565b826000526020600020601f830160051c81019d60208410610ffc575b601f0160051c019c5b8d8110610ff05750610e40565b60008155600101610fe3565b909d508d90610fda565b634e487b7160e01b600052600060045260246000fd5b60405162461bcd60e51b815260206004820152600c60248201526b3737ba1034b81037bbb732b960a11b6044820152606490fd5b611069915060203d6020116108385761082a8183611686565b86610d34565b60405162461bcd60e51b815260206004820152600c60248201526b1a5c081cdd5cdc195b99195960a21b6044820152606490fd5b6020813d6020116110dd575b816110bc60209383611686565b810103126110d957519081151582036110d6575087610d02565b80fd5b5080fd5b3d91506110af565b346101d95760203660031901126101d957600435600052600b6020526020604060002054604051908152f35b346101d95760003660031901126101d95761112a611b40565b600780546001600160a01b031981169091556000906001600160a01b03167f8be0079c531659141344cd1fd0a4f28419497f9722a3daafe3b4186f6b6457e08280a3005b346101d95760203660031901126101d9576001600160a01b0361118f61159e565b1680156111ae5760005260036020526020604060002054604051908152f35b60405162461bcd60e51b815260206004820152602960248201527f4552433732313a2061646472657373207a65726f206973206e6f7420612076616044820152683634b21037bbb732b960b91b6064820152608490fd5b346101d95760203660031901126101d9576020611223600435611889565b6040516001600160a01b039091168152f35b346101d95761031e610319611249366115ca565b9060405192611259602085611686565b600084526103096103048433611935565b346101d95761031e61127b366115ca565b916112896103048433611935565b611a08565b346101d95760403660031901126101d9576112a761159e565b602435906001600160a01b036112bc83611889565b6001600160a01b0390921691168181146113c8578033149081156113a3575b501561133857600082815260046020526040902080546001600160a01b031916821790556001600160a01b0361131083611889565b167f8c5be1e5ebec7d5bd14f71427d1e84f3dd0314c0f7b2291e5b200ac8c7c3b925600080a4005b60405162461bcd60e51b815260206004820152603d60248201527f4552433732313a20617070726f76652063616c6c6572206973206e6f7420746f60448201527f6b656e206f776e6572206f7220617070726f76656420666f7220616c6c0000006064820152608490fd5b600090815260056020908152604080832033845290915290205460ff169050836112db565b60405162461bcd60e51b815260206004820152602160248201527f4552433732313a20617070726f76616c20746f2063757272656e74206f776e656044820152603960f91b6064820152608490fd5b346101d95760203660031901126101d957602061122360043561179d565b346101d95760003660031901126101d957604051600080546114568161164c565b8084529060018116908115610b66575060011461147d576102958361028181850382611686565b60008080527f290decd9548b62a8d60345a988386fc84ba6bc95484008f6362f93160ef3e563939250905b8082106114c057509091508101602001610281610af7565b9192600181602092548385880101520191019092916114a8565b346101d95760203660031901126101d9576004359063ffffffff60e01b82168092036101d957602091632483248360e11b811490811561151c575b5015158152f35b6380ac58cd60e01b81149150811561154e575b811561153d575b5083611515565b6301ffc9a760e01b14905083611536565b635b5e139f60e01b8114915061152f565b919082518082526020808301940160005b82811061158e575050600081602094950152601f8019910116010190565b8181015186820152602001611570565b600435906001600160a01b03821682036101d957565b602435906001600160a01b03821682036101d957565b60609060031901126101d9576004356001600160a01b03811681036101d957906024356001600160a01b03811681036101d9579060443590565b60409060031901126101d9576004359060243590565b8054821015611636576000526006602060002091020190600090565b634e487b7160e01b600052603260045260246000fd5b90600182811c9216801561167c575b602083101461166657565b634e487b7160e01b600052602260045260246000fd5b91607f169161165b565b90601f801991011681019081106001600160401b0382111761090c57604052565b90604051918260008254926116bb8461164c565b808452936001811690811561172957506001146116e2575b506116e092500383611686565b565b90506000929192526020600020906000915b81831061170d5750509060206116e092820101386116d3565b60209193508060019154838589010152019101909184926116f4565b9050602092506116e094915060ff191682840152151560051b820101386116d3565b6001600160401b03811161090c57601f01601f191660200190565b9291926117728261174b565b916117806040519384611686565b8294818452818301116101d9578281602093846000960137010152565b6000818152600260205260409020546117c0906001600160a01b0316151561183d565b6000908152600460205260409020546001600160a01b031690565b156117e257565b60405162461bcd60e51b815260206004820152602d60248201527f4552433732313a2063616c6c6572206973206e6f7420746f6b656e206f776e6560448201526c1c881bdc88185c1c1c9bdd9959609a1b6064820152608490fd5b1561184457565b60405162461bcd60e51b815260206004820152601860248201527f4552433732313a20696e76616c696420746f6b656e20494400000000000000006044820152606490fd5b6000908152600260205260409020546001600160a01b03166118ac81151561183d565b90565b908160209103126101d957516001600160a01b03811681036101d95790565b156118d557565b60405162461bcd60e51b815260206004820152600860248201526737379037b33332b960c11b6044820152606490fd5b3d15611930573d906119168261174b565b916119246040519384611686565b82523d6000602084013e565b606090565b906001600160a01b0361194782611889565b6001600160a01b0390931692168281149291908315611987575b50821561196d57505090565b9091506001600160a01b03906119829061179d565b161490565b909250600052600560205260406000208160005260205260ff604060002054169138611961565b156119b557565b60405162461bcd60e51b815260206004820152602560248201527f4552433732313a207472616e736665722066726f6d20696e636f72726563742060448201526437bbb732b960d91b6064820152608490fd5b90611a29611a1584611889565b6001600160a01b03938416931683146119ae565b6001600160a01b0316908115611aef57611a55816001600160a01b03611a4e86611889565b16146119ae565b82600052600460205260406000206bffffffffffffffffffffffff60a01b8154169055806000526003602052604060002060001981540190558160005260036020526040600020600181540190558260005260026020526040600020826bffffffffffffffffffffffff60a01b8254161790557fddf252ad1be2c89b69c2b068fc378daa952ba7f163c4a11628f55a4df523b3ef600080a4565b60405162461bcd60e51b8152602060048201526024808201527f4552433732313a207472616e7366657220746f20746865207a65726f206164646044820152637265737360e01b6064820152608490fd5b6007546001600160a01b03163303611b5457565b606460405162461bcd60e51b815260206004820152602060248201527f4f776e61626c653a2063616c6c6572206973206e6f7420746865206f776e65726044820152fd5b60809060208152603260208201527f4552433732313a207472616e7366657220746f206e6f6e20455243373231526560408201527131b2b4bb32b91034b6b83632b6b2b73a32b960711b60608201520190565b15611bf257565b60405162461bcd60e51b815280611c0b60048201611b98565b0390fd5b600081815260026020526040902054611c32906001600160a01b0316151561183d565b6000526006602052611c4760406000206116a7565b6000604051611c57602082611686565b5290565b91823b15611d4557611ca1926020926000604051809681958294630a85bd0160e11b8452336004850152846024850152604484015260806064840152608483019061155f565b03926001600160a01b03165af18091600091611d02575b5090611cec57611cc6611905565b80519081611ce75760405162461bcd60e51b815280611c0b60048201611b98565b602001fd5b6001600160e01b031916630a85bd0160e11b1490565b6020813d602011611d3d575b81611d1b60209383611686565b810103126110d95751906001600160e01b0319821682036110d6575038611cb8565b3d9150611d0e565b505050600190565b919290803b15611d9d57611ca193600060209460405196879586948593630a85bd0160e11b855233600486015260018060a01b03166024850152604484015260806064840152608483019061155f565b50505050600190565b15611dad57565b60405162461bcd60e51b815260206004820152601c60248201527f4552433732313a20746f6b656e20616c7265616479206d696e746564000000006044820152606490fdfea2646970667358221220b7f2b4135e6fef2e069feb3223d5ee5c12e93ecdb5d79143e0b60fc15eec954964736f6c634300081c0033",
  "linkReferences": {},
  "deployedLinkReferences": {}
}