{
  "_format": "hh-sol-artifact-1",
  "contractName": "IPNFT",
  "sourceName": "contracts/IPNFT.sol",
  "abi": [
    {
      "inputs": [
        {
          "internalType": "string",
          "name": "name_",
          "type": "string"
        },
        {
          "internalType": "string",
          "name": "symbol_",
          "type": "string"
        }
      ],
      "stateMutability": "nonpayable",
      "type": "constructor"
    },
    {
      "anonymous": false,
      "inputs": [
        {
          "indexed": true,
          "internalType": "address",
          "name": "owner",
          "type": "address"
        },
        {
          "indexed": true,
          "internalType": "address",
          "name": "approved",
          "type": "address"
        },
        {
          "indexed": true,
          "internalType": "uint256",
          "name": "tokenId",
          "type": "uint256"
        }
      ],
      "name": "Approval",
      "type": "event"
    },
    {
      "anonymous": false,
      "inputs": [
        {
          "indexed": true,
          "internalType": "address",
          "name": "owner",
          "type": "address"
        },
        {
          "indexed": true,
          "internalType": "address",
          "name": "operator",
          "type": "address"
        },
        {
          "indexed": false,
          "internalType": "bool",
          "name": "approved",
          "type": "bool"
        }
      ],
      "name": "ApprovalForAll",
      "type": "event"
    },
    {
      "anonymous": false,
      "inputs": [
        {
          "indexed": false,
          "internalType": "uint256",
          "name": "_fromTokenId",
          "type": "uint256"
        },
        {
          "indexed": false,
          "internalType": "uint256",
          "name": "_toTokenId",
          "type": "uint256"
        }
      ],
      "name": "BatchMetadataUpdate",
      "type": "event"
    },
    {
      "anonymous": false,
      "inputs": [
        {
          "indexed": true,
          "internalType": "address",
          "name": "governance",
          "type": "address"
        }
      ],
      "name": "GovernanceSet",
      "type": "event"
    },
    {
      "anonymous": false,
      "inputs": [
        {
          "indexed": true,
          "internalType": "uint256",
          "name": "tokenId",
          "type": "uint256"
        },
        {
          "indexed": true,
          "internalType": "address",
          "name": "author",
          "type": "address"
        },
        {
          "indexed": false,
          "internalType": "string",
          "name": "metadataURI",
          "type": "string"
        },
        {
          "indexed": false,
          "internalType": "bytes32",
          "name": "contentHash",
          "type": "bytes32"
        },
        {
          "indexed": false,
          "internalType": "address",
          "name": "splitter",
          "type": "address"
        }
      ],
      "name": "IPMinted",
      "type": "event"
    },
    {
      "anonymous": false,
      "inputs": [
        {
          "indexed": true,
          "internalType": "uint256",
          "name": "tokenId",
          "type": "uint256"
        },
        {
          "indexed": false,
          "internalType": "bool",
          "name": "suspended",
          "type": "bool"
        }
      ],
      "name": "IPSuspensionSet",
      "type": "event"
    },
    {
      "anonymous": false,
      "inputs": [
        {
          "indexed": true,
          "internalType": "uint256",
          "name": "tokenId",
          "type": "uint256"
        },
        {
          "indexed": false,
          "internalType": "address",
          "name": "licenseContract",
          "type": "address"
        }
      ],
      "name": "LicenseLinked",
      "type": "event"
    },
    {
      "anonymous": false,
      "inputs": [
        {
          "indexed": false,
          "internalType": "uint256",
          "name": "_tokenId",
          "type": "uint256"
        }
      ],
      "name": "MetadataUpdate",
      "type": "event"
    },
    {
      "anonymous": false,
      "inputs": [
        {
          "indexed": true,
          "internalType": "address",
          "name": "previousOwner",
          "type": "address"
        },
        {
          "indexed": true,
          "internalType": "address",
          "name": "newOwner",
          "type": "address"
        }
      ],
      "name": "OwnershipTransferred",
      "type": "event"
    },
    {
      "anonymous": false,
      "inputs": [
        {
          "indexed": true,
          "internalType": "address",
          "name": "from",
          "type": "address"
        },
        {
          "indexed": true,
          "internalType": "address",
          "name": "to",
          "type": "address"
        },
        {
          "indexed": true,
          "internalType": "uint256",
          "name": "tokenId",
          "type": "uint256"
        }
      ],
      "name": "Transfer",
      "type": "event"
    },
    {
      "inputs": [
        {
          "internalType": "uint256",
          "name": "parentTokenId",
          "type": "uint256"
        },
        {
          "internalType": "uint256",
          "name": "derivativeTokenId",
          "type": "uint256"
        }
      ],
      "name": "addDerivative",
      "outputs": [],
      "stateMutability": "nonpayable",
      "type": "function"
    },
    {
      "inputs": [
        {
          "internalType": "address",
          "name": "to",
          "type": "address"
        },
        {
          "internalType": "uint256",
          "name": "tokenId",
          "type": "uint256"
        }
      ],
      "name": "approve",
      "outputs": [],
      "stateMutability": "nonpayable",
      "type": "function"
    },
    {
      "inputs": [
        {
          "internalType": "address",
          "name": "owner",
          "type": "address"
        }
      ],
      "name": "balanceOf",
      "outputs": [
        {
          "internalType": "uint256",
          "name": "",
          "type": "uint256"
        }
      ],
      "stateMutability": "view",
      "type": "function"
    },
    {
      "inputs": [
        {
          "internalType": "uint256",
          "name": "tokenId",
          "type": "uint256"
        }
      ],
      "name": "getApproved",
      "outputs": [
        {
          "internalType": "address",
          "name": "",
          "type": "address"
        }
      ],
      "stateMutability": "view",
      "type": "function"
    },
    {
      "inputs": [
        {
          "internalType": "uint256",
          "name": "tokenId",
          "type": "uint256"
        }
      ],
      "name": "getDerivatives",
      "outputs": [
        {
          "internalType": "uint256[]",
          "name": "",
          "type": "uint256[]"
        }
      ],
      "stateMutability": "view",
      "type": "function"
    },
    {
      "inputs": [
        {
          "internalType": "uint256",
          "name": "tokenId",
          "type": "uint256"
        }
      ],
      "name": "getPaymentSplitter",
      "outputs": [
        {
          "internalType": "address",
          "name": "",
          "type": "address"
        }
      ],
      "stateMutability": "view",
      "type": "function"
    },
    {
      "inputs": [],
      "name": "governance",
      "outputs": [
        {
          "internalType": "address",
          "name": "",
          "type": "address"
        }
      ],
      "stateMutability": "view",
      "type": "function"
    },
    {
      "inputs": [
        {
          "internalType": "uint256",
          "name": "",
          "type": "uint256"
        }
      ],
      "name": "ipInfo",
      "outputs": [
        {
          "internalType": "string",
          "name": "metadataURI",
          "type": "string"
        },
        {
          "internalType": "bytes32",
          "name": "contentHash",
          "type": "bytes32"
        },
        {
          "internalType": "address",
          "name": "paymentSplitter",
          "type": "address"
        }
      ],
      "stateMutability": "view",
      "type": "function"
    },
    {
      "inputs": [
        {
          "internalType": "address",
          "name": "owner",
          "type": "address"
        },
        {
          "internalType": "address",
          "name": "operator",
          "type": "address"
        }
      ],
      "name": "isApprovedForAll",
      "outputs": [
        {
          "internalType": "bool",
          "name": "",
          "type": "bool"
        }
      ],
      "stateMutability": "view",
      "type": "function"
    },
    {
      "inputs": [
        {
          "internalType": "uint256",
          "name": "tokenId",
          "type": "uint256"
        }
      ],
      "name": "isSuspended",
      "outputs": [
        {
          "internalType": "bool",
          "name": "",
          "type": "bool"
        }
      ],
      "stateMutability": "view",
      "type": "function"
    },
    {
      "inputs": [
        {
          "internalType": "address",
          "name": "author",
          "type": "address"
        },
        {
          "internalType": "string",
          "name": "metadataURI",
          "type": "string"
        },
        {
          "internalType": "bytes32",
          "name": "contentHash",
          "type": "bytes32"
        },
        {
          "internalType": "address",
          "name": "royaltyRecipient",
          "type": "address"
        },
        {
          "internalType": "uint96",
          "name": "royaltyBps",
          "type": "uint96"
        },
        {
          "internalType": "address[]",
          "name": "payees",
          "type": "address[]"
        },
        {
          "internalType": "uint256[]",
          "name": "shares",
          "type": "uint256[]"
        }
      ],
      "name": "mintIP",
      "outputs": [
        {
          "internalType": "uint256",
          "name": "",
          "type": "uint256"
        }
      ],
      "stateMutability": "nonpayable",
      "type": "function"
    },
    {
      "inputs": [],
      "name": "name",
      "outputs": [
        {
          "internalType": "string",
          "name": "",
          "type": "string"
        }
      ],
      "stateMutability": "view",
      "type": "function"
    },
    {
      "inputs": [],
      "name": "owner",
      "outputs": [
        {
          "internalType": "address",
          "name": "",
          "type": "address"
        }
      ],
      "stateMutability": "view",
      "type": "function"
    },
    {
      "inputs": [
        {
          "internalType": "uint256",
          "name": "tokenId",
          "type": "uint256"
        }
      ],
      "name": "ownerOf",
      "outputs": [
        {
          "internalType": "address",
          "name": "",
          "type": "address"
        }
      ],
      "stateMutability": "view",
      "type": "function"
    },
    {
      "inputs": [],
      "name": "renounceOwnership",
      "outputs": [],
      "stateMutability": "nonpayable",
      "type": "function"
    },
    {
      "inputs": [
        {
          "internalType": "uint256",
          "name": "tokenId",
          "type": "uint256"
        },
        {
          "internalType": "uint256",
          "name": "salePrice",
          "type": "uint256"
        }
      ],
      "name": "royaltyInfo",
      "outputs": [
        {
          "internalType": "address",
          "name": "",
          "type": "address"
        },
        {
          "internalType": "uint256",
          "name": "",
          "type": "uint256"
        }
      ],
      "stateMutability": "view",
      "type": "function"
    },
    {
      "inputs": [
        {
          "internalType": "address",
          "name": "from",
          "type": "address"
        },
        {
          "internalType": "address",
          "name": "to",
          "type": "address"
        },
        {
          "internalType": "uint256",
          "name": "tokenId",
          "type": "uint256"
        }
      ],
      "name": "safeTransferFrom",
      "outputs": [],
      "stateMutability": "nonpayable",
      "type": "function"
    },
    {
      "inputs": [
        {
          "internalType": "address",
          "name": "from",
          "type": "address"
        },
        {
          "internalType": "address",
          "name": "to",
          "type": "address"
        },
        {
          "internalType": "uint256",
          "name": "tokenId",
          "type": "uint256"
        },
        {
          "internalType": "bytes",
          "name": "data",
          "type": "bytes"
        }
      ],
      "name": "safeTransferFrom",
      "outputs": [],
      "stateMutability": "nonpayable",
      "type": "function"
    },
    {
      "inputs": [
        {
          "internalType": "address",
          "name": "operator",
          "type": "address"
        },
        {
          "internalType": "bool",
          "name": "approved",
          "type": "bool"
        }
      ],
      "name": "setApprovalForAll",
      "outputs": [],
      "stateMutability": "nonpayable",
      "type": "function"
    },
    {
      "inputs": [
        {
          "internalType": "address",
          "name": "_gov",
          "type": "address"
        }
      ],
      "name": "setGovernance",
      "outputs": [],
      "stateMutability": "nonpayable",
      "type": "function"
    },
    {
      "inputs": [
        {
          "internalType": "uint256",
          "name": "tokenId",
          "type": "uint256"
        },
        {
          "internalType": "bool",
          "name": "suspended_",
          "type": "bool"
        }
      ],
      "name": "setSuspended",
      "outputs": [],
      "stateMutability": "nonpayable",
      "type": "function"
    },
    {
      "inputs": [
        {
          "internalType": "bytes4",
          "name": "interfaceId",
          "type": "bytes4"
        }
      ],
      "name": "supportsInterface",
      "outputs": [
        {
          "internalType": "bool",
          "name": "",
          "type": "bool"
        }
      ],
      "stateMutability": "view",
      "type": "function"
    },
    {
      "inputs": [],
      "name": "symbol",
      "outputs": [
        {
          "internalType": "string",
          "name": "",
          "type": "string"
        }
      ],
      "stateMutability": "view",
      "type": "function"
    },
    {
      "inputs": [
        {
          "internalType": "uint256",
          "name": "tokenId",
          "type": "uint256"
        }
      ],
      "name": "tokenURI",
      "outputs": [
        {
          "internalType": "string",
          "name": "",
          "type": "string"
        }
      ],
      "stateMutability": "view",
      "type": "function"
    },
    {
      "inputs": [
        {
          "internalType": "address",
          "name": "from",
          "type": "address"
        },
        {
          "internalType": "address",
          "name": "to",
          "type": "address"
        },
        {
          "internalType": "uint256",
          "name": "tokenId",
          "type": "uint256"
        }
      ],
      "name": "transferFrom",
      "outputs": [],
      "stateMutability": "nonpayable",
      "type": "function"
    },
    {
      "inputs": [
        {
          "internalType": "address",
          "name": "newOwner",
          "type": "address"
        }
      ],
      "name": "transferOwnership",
      "outputs": [],
      "stateMutability": "nonpayable",
      "type": "function"
    }
  ],
  "bytecode": "0x60806040523461036c5761337c8038038061001981610371565b92833981019060408183031261036c5780516001600160401b03811161036c5782610045918301610396565b60208201519092906001600160401b03811161036c576100659201610396565b81516001600160401b03811161027957600054600181811c91168015610362575b602082101461025957601f81116102fe575b50602092601f821160011461029a579281929360009261028f575b50508160011b916000199060031b1c1916176000555b80516001600160401b03811161027957600154600181811c9116801561026f575b602082101461025957601f81116101f4575b50602091601f821160011461019057918192600092610185575b50508160011b916000199060031b1c1916176001555b60098054336001600160a01b03198216811790925560405191906001600160a01b03167f8be0079c531659141344cd1fd0a4f28419497f9722a3daafe3b4186f6b6457e0600080a36001600b55612f7a90816104028239f35b015190503880610116565b601f198216926001600052806000209160005b8581106101dc575083600195106101c3575b505050811b0160015561012c565b015160001960f88460031b161c191690553880806101b5565b919260206001819286850151815501940192016101a3565b60016000527fb10e2d527612073b26eecdfd717e6a320cf44b4afac2b0732d9fcbe2b7fa0cf6601f830160051c8101916020841061024f575b601f0160051c01905b81811061024357506100fc565b60008155600101610236565b909150819061022d565b634e487b7160e01b600052602260045260246000fd5b90607f16906100ea565b634e487b7160e01b600052604160045260246000fd5b0151905038806100b3565b601f1982169360008052806000209160005b8681106102e657508360019596106102cd575b505050811b016000556100c9565b015160001960f88460031b161c191690553880806102bf565b919260206001819286850151815501940192016102ac565b600080527f290decd9548b62a8d60345a988386fc84ba6bc95484008f6362f93160ef3e563601f830160051c81019160208410610358575b601f0160051c01905b81811061034c5750610098565b6000815560010161033f565b9091508190610336565b90607f1690610086565b600080fd5b6040519190601f01601f191682016001600160401b0381118382101761027957604052565b81601f8201121561036c578051906001600160401b038211610279576103c5601f8301601f1916602001610371565b928284526020838301011161036c5760005b8281106103ec57505060206000918301015290565b806020809284010151828287010152016103d756fe608080604052600436101561001357600080fd5b60003560e01c90816301ffc9a71461173b5750806306fdde0314611696578063081812fc14611678578063095ea7b3146114ef5780630bae1bd01461149b57806310306ea81461135857806323b872dd146113345780632a55205a14611285578063408dfac01461097857806342842e0e146109435780635aa6e6751461091a5780636352211e146108ea5780636da4d7391461081857806370a0823114610781578063715018a6146107245780638da5cb5b146106fb57806394ad74781461069757806395d89b41146105ca578063a22cb465146104f2578063ab033ea914610459578063b88d4fde146103d2578063c87b56dd1461039b578063db226356146102c4578063e985e9c514610269578063f283f18b1461020a5763f2fde38b1461013d57600080fd5b3461020557602036600319011261020557610156611819565b61015e611ba0565b6001600160a01b031680156101b157600980546001600160a01b0319811683179091556001600160a01b03167f8be0079c531659141344cd1fd0a4f28419497f9722a3daafe3b4186f6b6457e0600080a3005b60405162461bcd60e51b815260206004820152602660248201527f4f776e61626c653a206e6577206f776e657220697320746865207a65726f206160448201526564647265737360d01b6064820152608490fd5b600080fd5b3461020557602036600319011261020557600435600081815260026020526040902054610246906001600160a01b03161515611a7e565b611a7e565b600052600a602052602060018060a01b0360026040600020015416604051908152f35b3461020557604036600319011261020557610282611819565b61028a61182f565b9060018060a01b0316600052600560205260406000209060018060a01b0316600052602052602060ff604060002054166040519015158152f35b34610205576040366003190112610205576004356102e06119df565b600c546001600160a01b031633036103655760207fd693cd2ccba583bde2b8693572430d4f104f9fa10bc27d83dd9c3d1b38f08ddb9161033861024185600052600260205260018060a01b0360406000205416151590565b83600052600d825261035a8160406000209060ff801983541691151516179055565b6040519015158152a2005b60405162461bcd60e51b815260206004820152600e60248201526d6e6f7420676f7665726e616e636560901b6044820152606490fd5b34610205576020366003190112610205576103ce6103ba600435611ed5565b6040519182916020835260208301906117da565b0390f35b34610205576080366003190112610205576103eb611819565b6103f361182f565b90606435906044356001600160401b0383116102055736602384011215610205576104579361042f610452943690602481600401359101611a09565b9261044261043d8433611bf8565b611ab5565b61044d838383611ccb565b612042565b611eb1565b005b3461020557602036600319011261020557610472611819565b61047a611ba0565b6001600160a01b031680156104c257600c80546001600160a01b031916821790557fc73be659241aade67e9a059bcf21494955018b213dbd1179054ccf928b13f3b6600080a2005b60405162461bcd60e51b8152602060048201526008602482015267676f76207a65726f60c01b6044820152606490fd5b346102055760403660031901126102055761050b611819565b6105136119df565b6001600160a01b0390911690338214610585573360005260056020526040600020826000526020526105558160406000209060ff801983541691151516179055565b60405190151581527f17307eab39ab6107e8899845ad3d59bd9653f200f220920489ca2b5937696c3160203392a3005b60405162461bcd60e51b815260206004820152601960248201527f4552433732313a20617070726f766520746f2063616c6c6572000000000000006044820152606490fd5b346102055760003660031901126102055760405160006001546105ec816118c5565b80845290600181169081156106735750600114610614575b6103ce836103ba8185038261191a565b600160009081527fb10e2d527612073b26eecdfd717e6a320cf44b4afac2b0732d9fcbe2b7fa0cf6939250905b808210610659575090915081016020016103ba610604565b919260018160209254838588010152019101909291610641565b60ff191660208086019190915291151560051b840190910191506103ba9050610604565b3461020557602036600319011261020557600435600052600a6020526106ec60406000206106c48161193b565b90600181015490600260018060a01b03910154166040519384936060855260608501906117da565b91602084015260408301520390f35b34610205576000366003190112610205576009546040516001600160a01b039091168152602090f35b346102055760003660031901126102055761073d611ba0565b600980546001600160a01b031981169091556000906001600160a01b03167f8be0079c531659141344cd1fd0a4f28419497f9722a3daafe3b4186f6b6457e08280a3005b34610205576020366003190112610205576001600160a01b036107a2611819565b1680156107c15760005260036020526020604060002054604051908152f35b60405162461bcd60e51b815260206004820152602960248201527f4552433732313a2061646472657373207a65726f206973206e6f7420612076616044820152683634b21037bbb732b960b91b6064820152608490fd5b346102055760203660031901126102055760043560008181526002602052604090205461084f906001600160a01b03161515611a7e565b600052600a60205260036040600020016040518060208354918281520190819360005260206000209060005b8181106108d4575050508161089191038261191a565b6040519182916020830190602084525180915260408301919060005b8181106108bb575050500390f35b82518452859450602093840193909201916001016108ad565b825484526020909301926001928301920161087b565b34610205576020366003190112610205576020610908600435611b7a565b6040516001600160a01b039091168152f35b3461020557600036600319011261020557600c546040516001600160a01b039091168152602090f35b34610205576104576104526109573661185b565b906040519261096760208561191a565b6000845261044261043d8433611bf8565b346102055760e036600319011261020557610991611819565b602435906001600160401b0382116102055736602383011215610205576001600160401b038260040135116102055736602483600401358401011161020557606435916001600160a01b0383168303610205576084356001600160601b03811681036102055760a4356001600160401b03811161020557610a16903690600401611895565b9360c4356001600160401b03811161020557610a36903690600401611895565b9690956001600160a01b038316156112525787811480611249575b1561120c57600b549660001988146111f657879460018601600b55602099610b386104528c600260405191610a86818461191a565b60008084528c815260026020526040812054909c90610ab1906001600160a01b031615155b1561209b565b600081815260026020526040902054610ad4906001600160a01b03161515610aab565b6001600160a01b038c16808e52600383526040808f2080546001019055918e52929091528b2080546001600160a01b031916821790558d908b7fddf252ad1be2c89b69c2b068fc378daa952ba7f163c4a11628f55a4df523b3ef8180a48c89611f21565b610b4a368a6004013560248c01611a09565b60008b8152600260205260409020546001600160a01b03161561119a578a885260068c5260408820908051906001600160401b038211611186578d82918b610b9286546118c5565b83601f8211611158575b50505081601f84116001146110f057508b926110e5575b50508160011b916000199060031b1c19161790555b7ff8e1a15aba9398e019f0b49df1a4fde98ee17ae345cb5f6b5e2c27f5033e8ce78b6040518c8152a160405193610e5d9085828101106001600160401b03838801111761108d57816120e8873960408683018181529081018290526060019390895b8181106110b0575050508401808303908c01528082526001600160fb1b0381116110ac579183918b9360051b8092858301370103019084f09384156110a157604051610c76898261191a565b84815284368137604051608081018181106001600160401b03821117610fc757604052610cab36896004013560248b01611a09565b81526044358a82015260018060a01b038716604082015260608101918252888652600a8a526040862081519182516001600160401b03811161108d57610cf183546118c5565b8d601f8211611054575b50508c8d601f8311600114610fe6575081906003958b92610fdb575b50508160011b9160001990861b1c19161782555b808c01516001830155604001516002820180546001600160a01b0319166001600160a01b0392909216919091179055915180519291909101906001600160401b038311610fc757600160401b8311610fc7578a908254848455808510610fad575b50908a9897969594939291019086528a8620865b838110610f9857505050506001600160a01b03821615801580610f86575b610e4a575b5050507fe51f07e1d75d0ed3432ba1e428420f8f896579defc71c782e7c706706ca1a7ea92916080916040519384926060845288600401356060850152886004013560248a01868601376004909801358381018501989098526044358a8401526001600160a01b0390811660408401521695601f01601f19168101030190a3604051908152f35b909192939495506127106001600160601b03831611610f2e57610ee957928694926080927fe51f07e1d75d0ed3432ba1e428420f8f896579defc71c782e7c706706ca1a7ea9560405191610e9d836118ff565b6001600160a01b0390811683526001600160601b03919091168b830190815288855260088c52604085209251905160a01b6001600160a01b031916911617905592939092918391610dc3565b60405162461bcd60e51b815260048101899052601b60248201527f455243323938313a20496e76616c696420706172616d657465727300000000006044820152606490fd5b60405162461bcd60e51b8152600481018a9052602a60248201527f455243323938313a20726f79616c7479206665652077696c6c206578636565646044820152692073616c65507269636560b01b6064820152608490fd5b506001600160601b0382161515610dbe565b8251818301558b9950918c0191600101610da0565b838952828920610fc1918101908601611b17565b8c610d8c565b634e487b7160e01b87526041600452602487fd5b015190508e80610d17565b91929394858b52828b20928b905b601f198616821061103c5750509183916001936003979695601f19811610611024575b505050811b018255610d2b565b015160001983881b60f8161c191690558e8080611017565b80600185968294968601518155019501930190610ff4565b848b52808b2061107c92601f850160051c8201928510611083575b601f0160051c0190611b17565b8d8d610cfb565b909150819061106f565b634e487b7160e01b89526041600452602489fd5b6040513d85823e3d90fd5b8680fd5b919490919085356001600160a01b03811681036110e1576001600160a01b031681528e01948e019190600101610c2a565b8b80fd5b015190508e80610bb3565b935090848c52838c20918c945b601f198516861061113f57506001945083601f19811610611126575b505050811b019055610bc8565b015160001960f88460031b161c191690558e8080611119565b82820151845594850194600190930192918201916110fd565b828861117e945220601f860160051c81019185871061108357601f0160051c0190611b17565b8b3883610b9c565b634e487b7160e01b8a52604160045260248afd5b60405162461bcd60e51b8152600481018d9052602e60248201527f45524337323155524953746f726167653a2055524920736574206f66206e6f6e60448201526d32bc34b9ba32b73a103a37b5b2b760911b6064820152608490fd5b634e487b7160e01b600052601160045260246000fd5b60405162461bcd60e51b8152602060048201526015602482015274696e76616c6964207061796565732f73686172657360581b6044820152606490fd5b50801515610a51565b60405162461bcd60e51b815260206004820152600b60248201526a617574686f72207a65726f60a81b6044820152606490fd5b346102055761129336611845565b9060005260086020526040600020604051906112ae826118ff565b546001600160a01b03811680835260a09190911c60208301521561130b575b6001600160601b03602082015116918281029281840414901517156111f65751604080516001600160a01b0390921682526127109092046020820152f35b50604051611318816118ff565b6007546001600160a01b038116825260a01c60208201526112cd565b34610205576104576113453661185b565b9161135361043d8433611bf8565b611ccb565b346102055761136636611845565b9061136f611ba0565b6000818152600260205260409020546001600160a01b031615611456576000828152600260205260409020546001600160a01b03161561141157600052600a6020526003604060002001805490600160401b8210156113fb57600182018082558210156113e55760005260206000200155600080f35b634e487b7160e01b600052603260045260246000fd5b634e487b7160e01b600052604160045260246000fd5b60405162461bcd60e51b815260206004820152601e60248201527f6465726976617469766520746f6b656e20646f65736e277420657869737400006044820152606490fd5b60405162461bcd60e51b815260206004820152601a60248201527f706172656e7420746f6b656e20646f65736e27742065786973740000000000006044820152606490fd5b34610205576020366003190112610205576004356000818152600260205260409020546114d2906001600160a01b03161515611a7e565b600052600d602052602060ff604060002054166040519015158152f35b3461020557604036600319011261020557611508611819565b602435906001600160a01b0361151d83611b7a565b6001600160a01b03909216911681811461162957803314908115611604575b501561159957600082815260046020526040902080546001600160a01b031916821790556001600160a01b0361157183611b7a565b167f8c5be1e5ebec7d5bd14f71427d1e84f3dd0314c0f7b2291e5b200ac8c7c3b925600080a4005b60405162461bcd60e51b815260206004820152603d60248201527f4552433732313a20617070726f76652063616c6c6572206973206e6f7420746f60448201527f6b656e206f776e6572206f7220617070726f76656420666f7220616c6c0000006064820152608490fd5b600090815260056020908152604080832033845290915290205460ff1690508361153c565b60405162461bcd60e51b815260206004820152602160248201527f4552433732313a20617070726f76616c20746f2063757272656e74206f776e656044820152603960f91b6064820152608490fd5b34610205576020366003190112610205576020610908600435611a40565b3461020557600036600319011261020557604051600080546116b7816118c5565b808452906001811690811561067357506001146116de576103ce836103ba8185038261191a565b60008080527f290decd9548b62a8d60345a988386fc84ba6bc95484008f6362f93160ef3e563939250905b808210611721575090915081016020016103ba610604565b919260018160209254838588010152019101909291611709565b34610205576020366003190112610205576004359063ffffffff60e01b82168092036102055760209163152a902d60e11b811490811561177d575b5015158152f35b632483248360e11b811491508115611797575b5083611776565b6380ac58cd60e01b8114915081156117c9575b81156117b8575b5083611790565b6301ffc9a760e01b149050836117b1565b635b5e139f60e01b811491506117aa565b919082518082526020808301940160005b828110611809575050600081602094950152601f8019910116010190565b81810151868201526020016117eb565b600435906001600160a01b038216820361020557565b602435906001600160a01b038216820361020557565b6040906003190112610205576004359060243590565b6060906003190112610205576004356001600160a01b038116810361020557906024356001600160a01b0381168103610205579060443590565b9181601f84011215610205578235916001600160401b038311610205576020808501948460051b01011161020557565b90600182811c921680156118f5575b60208310146118df57565b634e487b7160e01b600052602260045260246000fd5b91607f16916118d4565b604081019081106001600160401b038211176113fb57604052565b90601f801991011681019081106001600160401b038211176113fb57604052565b906040519182600082549261194f846118c5565b80845293600181169081156119bd5750600114611976575b506119749250038361191a565b565b90506000929192526020600020906000915b8183106119a15750509060206119749282010138611967565b6020919350806001915483858901015201910190918492611988565b90506020925061197494915060ff191682840152151560051b82010138611967565b60243590811515820361020557565b6001600160401b0381116113fb57601f01601f191660200190565b929192611a15826119ee565b91611a23604051938461191a565b829481845281830111610205578281602093846000960137010152565b600081815260026020526040902054611a63906001600160a01b03161515611b2e565b6000908152600460205260409020546001600160a01b031690565b15611a8557565b60405162461bcd60e51b81526020600482015260086024820152673737903a37b5b2b760c11b6044820152606490fd5b15611abc57565b60405162461bcd60e51b815260206004820152602d60248201527f4552433732313a2063616c6c6572206973206e6f7420746f6b656e206f776e6560448201526c1c881bdc88185c1c1c9bdd9959609a1b6064820152608490fd5b818110611b22575050565b60008155600101611b17565b15611b3557565b60405162461bcd60e51b815260206004820152601860248201527f4552433732313a20696e76616c696420746f6b656e20494400000000000000006044820152606490fd5b6000908152600260205260409020546001600160a01b0316611b9d811515611b2e565b90565b6009546001600160a01b03163303611bb457565b606460405162461bcd60e51b815260206004820152602060248201527f4f776e61626c653a2063616c6c6572206973206e6f7420746865206f776e65726044820152fd5b906001600160a01b03611c0a82611b7a565b6001600160a01b0390931692168281149291908315611c4a575b508215611c3057505090565b9091506001600160a01b0390611c4590611a40565b161490565b909250600052600560205260406000208160005260205260ff604060002054169138611c24565b15611c7857565b60405162461bcd60e51b815260206004820152602560248201527f4552433732313a207472616e736665722066726f6d20696e636f72726563742060448201526437bbb732b960d91b6064820152608490fd5b90611cec611cd884611b7a565b6001600160a01b0393841693168314611c71565b6001600160a01b031690811580611e0d578115159081611e04575b50611db9575b611d29816001600160a01b03611d2286611b7a565b1614611c71565b82600052600460205260406000206001600160601b0360a01b8154169055806000526003602052604060002060001981540190558160005260036020526040600020600181540190558260005260026020526040600020826001600160601b0360a01b8254161790557fddf252ad1be2c89b69c2b068fc378daa952ba7f163c4a11628f55a4df523b3ef600080a4565b82600052600d60205260ff6040600020541615611d0d5760405162461bcd60e51b815260206004820152600c60248201526b1a5c081cdd5cdc195b99195960a21b6044820152606490fd5b90501538611d07565b60405162461bcd60e51b8152602060048201526024808201527f4552433732313a207472616e7366657220746f20746865207a65726f206164646044820152637265737360e01b6064820152608490fd5b60809060208152603260208201527f4552433732313a207472616e7366657220746f206e6f6e20455243373231526560408201527131b2b4bb32b91034b6b83632b6b2b73a32b960711b60608201520190565b15611eb857565b60405162461bcd60e51b815280611ed160048201611e5e565b0390fd5b600081815260026020526040902054611ef8906001600160a01b03161515611b2e565b6000526006602052611f0d604060002061193b565b6000604051611f1d60208261191a565b5290565b91823b1561203a57611f67926020926000604051809681958294630a85bd0160e11b845233600485015284602485015260448401526080606484015260848301906117da565b03926001600160a01b03165af18091600091611ff0575b5090611fda573d15611fd3573d611f94816119ee565b90611fa2604051928361191a565b81523d6000602083013e5b80519081611fce5760405162461bcd60e51b815280611ed160048201611e5e565b602001fd5b6060611fad565b6001600160e01b031916630a85bd0160e11b1490565b6020813d602011612032575b816120096020938361191a565b8101031261202e5751906001600160e01b03198216820361202b575038611f7e565b80fd5b5080fd5b3d9150611ffc565b505050600190565b919290803b1561209257611f6793600060209460405196879586948593630a85bd0160e11b855233600486015260018060a01b0316602485015260448401526080606484015260848301906117da565b50505050600190565b156120a257565b60405162461bcd60e51b815260206004820152601c60248201527f4552433732313a20746f6b656e20616c7265616479206d696e746564000000006044820152606490fdfe6080604052610e5d80380380610014816103fc565b9283398101906040818303126103d75780516001600160401b0381116103d75781019082601f830112156103d757815161005561005082610421565b6103fc565b9260208085848152019260051b820101908582116103d757602001915b8183106103dc575050506020810151906001600160401b0382116103d757019180601f840112156103d75782516100ab61005082610421565b9360208086848152019260051b8201019283116103d757602001905b8282106103c7575050508051825103610367578051156103225760005b8151811015610313576001600160a01b036100ff8284610438565b51169061010c8185610438565b5182156102b95780156102745782600052600260205260406000205461021b57600454680100000000000000008110156102055760018101806004558110156101ef577f8a35acfbc15ff81a39ae7d344fd709f28e8600b4aa8c65c6b64bfe7fe36bd19b0180546001600160a01b031916841790556000838152600260205260408120829055548082019081106101d9576001937f40c340f65e17194d14ddddb073d3c9f888e3cb52b5aae0c6c7706b4fbc905fac9260409260005582519182526020820152a1016100e4565b634e487b7160e01b600052601160045260246000fd5b634e487b7160e01b600052603260045260246000fd5b634e487b7160e01b600052604160045260246000fd5b60405162461bcd60e51b815260206004820152602b60248201527f5061796d656e7453706c69747465723a206163636f756e7420616c726561647960448201526a206861732073686172657360a81b6064820152608490fd5b60405162461bcd60e51b815260206004820152601d60248201527f5061796d656e7453706c69747465723a207368617265732061726520300000006044820152606490fd5b60405162461bcd60e51b815260206004820152602c60248201527f5061796d656e7453706c69747465723a206163636f756e74206973207468652060448201526b7a65726f206164647265737360a01b6064820152608490fd5b604051610a10908161044d8239f35b60405162461bcd60e51b815260206004820152601a60248201527f5061796d656e7453706c69747465723a206e6f207061796565730000000000006044820152606490fd5b60405162461bcd60e51b815260206004820152603260248201527f5061796d656e7453706c69747465723a2070617965657320616e6420736861726044820152710cae640d8cadccee8d040dad2e6dac2e8c6d60731b6064820152608490fd5b81518152602091820191016100c7565b600080fd5b82516001600160a01b03811681036103d757815260209283019201610072565b6040519190601f01601f191682016001600160401b0381118382101761020557604052565b6001600160401b0381116102055760051b60200190565b80518210156101ef5760209160051b01019056fe6080604052600436101561004c575b361561001957600080fd5b604080513381523460208201527f6ef95f06320e7a25a04a175ca677b7052bdd97131872c2192525a629f51be7709190a1005b60003560e01c806319165587146104c95780633a98ef39146104ab578063406072a91461045a57806348b75044146102635780638b83209b146101f25780639852595c146101b8578063a3f8eace14610195578063c45ac05014610161578063ce7c2ac214610127578063d79779b2146100ed5763e33b7de30361000e57346100e85760003660031901126100e8576020600154604051908152f35b600080fd5b346100e85760203660031901126100e8576001600160a01b0361010e61063f565b1660005260056020526020604060002054604051908152f35b346100e85760203660031901126100e8576001600160a01b0361014861063f565b1660005260026020526020604060002054604051908152f35b346100e85760403660031901126100e857602061018d61017f61063f565b610187610655565b906107b4565b604051908152f35b346100e85760203660031901126100e857602061018d6101b361063f565b610749565b346100e85760203660031901126100e8576001600160a01b036101d961063f565b1660005260036020526020604060002054604051908152f35b346100e85760203660031901126100e85760043560045481101561024d5760046000527f8a35acfbc15ff81a39ae7d344fd709f28e8600b4aa8c65c6b64bfe7fe36bd19b01546040516001600160a01b039091168152602090f35b634e487b7160e01b600052603260045260246000fd5b346100e85760403660031901126100e85761027c61063f565b610284610655565b9060018060a01b03821660005260026020526102a6604060002054151561066b565b6102b082826107b4565b906102bc8215156106c6565b60018060a01b03169081600052600560205260406000206102de828254610726565b905560008281526006602090815260408083206001600160a01b038716808552908352928190208054850190555163a9059cbb60e01b918101918252602481019290925260448083018490528252939061038f9061033d60648261077c565b6000806040978851936103508a8661077c565b602085527f5361666545524332303a206c6f772d6c6576656c2063616c6c206661696c65646020860152519082895af1610388610872565b908661090a565b8051908115918215610437575b5050156103e05792516001600160a01b0390931683526020830152907f3be5b7a71e84ed12875d241991c70855ac5817d847039e17a9d895c1ceb0f18a90604090a2005b835162461bcd60e51b815260206004820152602a60248201527f5361666545524332303a204552433230206f7065726174696f6e20646964206e6044820152691bdd081cdd58d8d9595960b21b6064820152608490fd5b81925090602091810103126100e8576020015180151581036100e857858061039c565b346100e85760403660031901126100e85761047361063f565b61047b610655565b6001600160a01b039182166000908152600660209081526040808320949093168252928352819020549051908152f35b346100e85760003660031901126100e8576020600054604051908152f35b346100e85760203660031901126100e8576004356001600160a01b038116908190036100e857806000526002602052610508604060002054151561066b565b61051181610749565b61051c8115156106c6565b61052881600154610726565b60015581600052600360205260406000208181540190558047106105fa57600080808084865af1610557610872565b501561058f577fdf20fd1e76bc69d672e4814fafb2c449bba3a5369d8359adf9e05e6fde87b0569160409182519182526020820152a1005b60405162461bcd60e51b815260206004820152603a60248201527f416464726573733a20756e61626c6520746f2073656e642076616c75652c207260448201527f6563697069656e74206d617920686176652072657665727465640000000000006064820152608490fd5b60405162461bcd60e51b815260206004820152601d60248201527f416464726573733a20696e73756666696369656e742062616c616e63650000006044820152606490fd5b600435906001600160a01b03821682036100e857565b602435906001600160a01b03821682036100e857565b1561067257565b60405162461bcd60e51b815260206004820152602660248201527f5061796d656e7453706c69747465723a206163636f756e7420686173206e6f2060448201526573686172657360d01b6064820152608490fd5b156106cd57565b60405162461bcd60e51b815260206004820152602b60248201527f5061796d656e7453706c69747465723a206163636f756e74206973206e6f742060448201526a191d59481c185e5b595b9d60aa1b6064820152608490fd5b9190820180921161073357565b634e487b7160e01b600052601160045260246000fd5b6107799061075a4760015490610726565b6001600160a01b038216600090815260036020526040902054916108b2565b90565b90601f8019910116810190811067ffffffffffffffff82111761079e57604052565b634e487b7160e01b600052604160045260246000fd5b6040516370a0823160e01b815230600482015291906001600160a01b0316602083602481845afa92831561086657600093610830575b506108076107799382600052600560205260406000205490610726565b906000526006602052604060002060018060a01b038316600052602052604060002054916108b2565b92506020833d60201161085e575b8161084b6020938361077c565b810103126100e8579151916108076107ea565b3d915061083e565b6040513d6000823e3d90fd5b3d156108ad573d9067ffffffffffffffff821161079e57604051916108a1601f8201601f19166020018461077c565b82523d6000602084013e565b606090565b6001600160a01b03166000908152600260205260409020548181029180159083049091141715610733576000549081156108f457049081039081116107335790565b634e487b7160e01b600052601260045260246000fd5b9192901561096c575081511561091e575090565b3b156109275790565b60405162461bcd60e51b815260206004820152601d60248201527f416464726573733a2063616c6c20746f206e6f6e2d636f6e74726163740000006044820152606490fd5b82519091501561097f5750805190602001fd5b6040519062461bcd60e51b8252602060048301528181519182602483015260005b8381106109c25750508160006044809484010152601f80199101168101030190fd5b602082820181015160448784010152859350016109a056fea2646970667358221220ef48195f761abf4e73ea1f92dee91adc62afaff9283169510c8307e22919deef64736f6c634300081c0033a2646970667358221220fd059c44697d001b2e20df549638db09d513f9c6e2e02d9a96384f0ace265c6a64736f6c634300081c0033",
  "linkReferences": {},
  "deployedLinkReferences": {}
}